:020000040000FA
:10000000D0280010F90000000501000007010000E1
:10001000090100000B0100000D01000000000000BC
:100020000000000000000000000000000F010000C0
:100030001101000000000000130100001501000084
:100040001701000017010000170100001701000050
:100050001701000017010000170100001701000040
:100060001701000017010000170100001701000030
:100070001701000017010000170100001701000020
:100080001701000017010000170100001701000010
:100090001701000017010000170100001701000000
:1000A00017010000170100001701000017010000F0
:1000B00017010000170100001701000017010000E0
:1000C00017010000170100001701000017010000D0
:1000D00017010000170100001701000017010000C0
:1000E00017010000DFF80CD003F032FE0048004793
:1000F000073B0000D028001007488047074880478A
:1001000007480047FEE7FEE7FEE7FEE7FEE7FEE7FB
:10011000FEE7FEE7FEE7FEE7B90500000B3B000047
:10012000E500000070B506460D4636B1012E11D02F
:10013000022E1DD0032E3DD128E04648006820F055
:100140001F0405F01F0004434348C0F8044100F0B9
:10015000D7F831E03F48A430006820F01F0405F0D4
:100160001F0004433C48C0F8A84100F0C9F823E050
:100170003848001F006820F0010405F00100044326
:100180003548C0F8004100F0BBF815E03148001DCB
:10019000006820F01F0405F01F0004432E48D0F82B
:1001A000080105F01F0108432A49091D086000F0F5
:1001B000A7F801E000BFFEE700BF70BD014631B106
:1001C000012907D0022908D003290CD108E02348CF
:1001D0000068704722480068FBE722480068F8E79B
:1001E00021480068F5E700BFFEE7012907D1194A59
:1001F000403A12680243184BC3F8C42007E031B9F3
:10020000144A403A12688243134BC3F8C420704723
:10021000002010494439086030BF7047042013495A
:10022000086000200B494439086030BF7047042043
:100230000E490860012007494439086030BF704703
:1002400004200A490860032002494439086030BF8D
:100250007047000004C10F4000C00F4000000010B4
:1002600004000010080000100C00001010ED00E069
:100270002DE9F05F0546002092469B4688460646DB
:10028000814640241BE0284641464746224603F06B
:100290004FFD53465A46C01A914110D31146184695
:1002A000224600F016F82D1A67EB01084F46224649
:1002B0000120002100F00DF817EB00094E41201E2F
:1002C000A4F10104DFDC484631462A464346BDE836
:1002D000F09F202A04DB203A00FA02F10020704748
:1002E0009140C2F1200320FA03F319439040704774
:1002F000704700000000000000000000FFFFFFFF4B
:1003000030B5E248006800F48070002872D1DF4800
:100310000830006800F0010070BBDC48006800F0A5
:100320001F0008B9002006E0D848006800F01F0050
:10033000D749B1FBF0F0D7490860D448A430006831
:1003400000F01F0008B9002007E0D048A430006882
:1003500000F01F00CE49B1FBF0F0CF490860CB4858
:10036000001F006800F00100401CCA490968B1FB89
:10037000F0F0CA490860BEE0C4489C30006800F054
:10038000400038B90020C3490860C3490860C34928
:100390000860B0E0BD48006800F01F0008B9002008
:1003A00006E0BA48006800F01F00B949B1FBF0F060
:1003B000B8490860B548A430006800F01F0008B9CB
:1003C000002007E0B148A430006800F01F00B049E9
:1003D000B1FBF0F0B0490860AC48001F006800F0C5
:1003E0000100401CAB490968B1FBF0F0AB49086063
:1003F00081E0FFE7A5487C38006800F4807038B9D8
:100400000020A4490860A4490860A449086072E07B
:100410009E480830006800F0010070BB9B4C7C3C9B
:10042000246804F01F04601C9D4CD4F8044104F0BF
:100430001F01964CA434246804F01F02984CD4F891
:10044000004104F00104631C09B9002403E0904C4E
:100450004443B4FBF1F48F4D2C600AB9002403E04F
:100460008B4C4443B4FBF2F48B4D2C60894C2468D4
:10047000B4FBF3F4894D2C603DE0FFE783489C30EA
:10048000006800F0400038B90020824908608249C5
:100490000860824908602EE07C4C7C3C246804F0B3
:1004A0001F04601C7E4CD4F8044104F01F01774CFB
:1004B000A434246804F01F02794CD4F8004104F0FD
:1004C0000104631C09B9002403E0714C4443B4FBEC
:1004D000F1F4704D2C600AB9002403E06C4C4443E5
:1004E000B4FBF2F46C4D2C606A4C2468B4FBF3F45A
:1004F0006A4D2C6000BF6548001D006800F48070E4
:1005000098B36248001D006800F01F0020B1042865
:1005100006D0062824D104E000206249086023E0C8
:1005200000BF5A4A7C3A126802F01F02501C5C4A13
:10053000D2F8082102F01F01544A0832126802F072
:10054000010232B1524A4243B2FBF1F2554B1A60FA
:1005500005E04F4A4243B2FBF1F2524B1A6003E00E
:1005600000205049086000BF25E0FFE74748001D14
:10057000006800F40070D8B144480830006800F00A
:10058000010050B141485C38006800F01F00401C79
:100590003F494843434908600DE03C487C380068C7
:1005A00000F01F00401C3A4948433E49086002E001
:1005B00000203C49086030BD00B5212033499C3102
:1005C000086000BF31489C30006800F040000028FF
:1005D000F8D001202D490831086009203049C1F8C0
:1005E000840001202E4980310860AA2027497839EB
:1005F00008605520086000BF24487C38006800F47B
:1006000080600028F8D0232020496039086001204C
:100610002349C1F8A000AA201C4958390860552078
:100620001F49C1F8AC0000BF18485C38006800F4EE
:1006300080600028F8D040F201101449086040F2B0
:1006400001201749C1F8080101201049091F08605D
:1006500002200E49A431086013480C494039086053
:1006600088150F49C1F8C8010846D0F8B00140F01C
:1006700003000649AC31086045F23A0008490860B9
:1006800000200A490860FFF73BFE00BD04C10F408F
:10069000001BB7000000001004000010080000104C
:1006A00000C00F400C000010DE87280408ED00E0B9
:1006B00010B50246002001EB4213F74C04EB830017
:1006C00010BD02460520062A4AD2DFE802F0032FB9
:1006D000393A3B3D062907DD0A2901DB0B2903DDF9
:1006E0000E2903DB162901DC00201EE00C2905D0B1
:1006F0000D2903D0172903DB1A2901DC012014E09E
:100700001D2903D01E2901D01F2901D102200CE090
:100710001B2901D01C2901D1032006E0072903D0A1
:10072000082901D0092900D104201AE01D2901DC83
:10073000002004E01E2901D01F2900D1012010E073
:1007400000BF00BF00200CE0012901DD042901D118
:10075000002004E0022901D0032900D1032000E099
:1007600000BF00BF70472DE9F04106460F46154611
:10077000002439463046FFF7A4FF8046B8F1050F44
:1007800002D1C648BDE8F08139463046FFF790FFF8
:100790000446206820F00700206005F0070120686B
:1007A000084320600020EDE72DE9F0410746884628
:1007B0001646002441463846FFF783FF0546052DBF
:1007C00002D1B648BDE8F08135B1012D04D0042D29
:1007D00002D0B248401CF5E741463846FFF768FFB3
:1007E0000446206820F018002060182101EAC601A4
:1007F0002068084320600020E4E72DE9F041074627
:1008000088461646002441463846FFF75AFF0546FB
:10081000052D02D1A148BDE8F08125B1042D02D0FB
:100820009E48401CF7E741463846FFF741FF044623
:1008300026B9206820F02000206003E0206840F006
:10084000200020600020E6E72DE9F04107468846B9
:100850001546002441463846FFF733FF0646052E6D
:1008600002D18E48BDE8F081022E02D18B48401C97
:10087000F8E741463846FFF71BFF044625B92068D4
:1008800020F04000206003E0206840F0400020603D
:100890000020E7E72DE9F041074688461646002488
:1008A00041463846FFF70DFF0546052D02D17B482E
:1008B000BDE8F08125B1042D02D07848401CF7E74F
:1008C00041463846FFF7F4FE044626B9206820F476
:1008D0000070206003E0206840F400702060002079
:1008E000E6E72DE9F04107468846154600244146D3
:1008F0003846FFF7E6FE0646052E02D16748BDE8FA
:10090000F081032E02D06548401CF8E74146384686
:10091000FFF7CEFE044625B1206820F480702060E9
:1009200003E0206840F4807020600020E7E72DE9B4
:10093000F041074688461546002441463846FFF7F1
:10094000C0FE0646052E02D15448BDE8F081032EB4
:1009500002D05248401CF8E741463846FFF7A8FE4F
:10096000044625B1012D0CD0022D1ED113E0012229
:1009700041463846FFF7B5FF206820F4007020603C
:1009800016E0002241463846FFF7ABFF206820F40E
:10099000007020600CE0012241463846FFF7A1FFBD
:1009A000206840F40070206002E04FF0FF30CCE798
:1009B00000BF0020C9E72DE9F041074688461646EA
:1009C000002441463846FFF77CFE0546052D02D13E
:1009D0003248BDE8F08135B1012D04D0042D02D09C
:1009E0002E48401CF5E741463846FFF761FE0446B5
:1009F00026B9206820F48060206003E0206840F47D
:100A0000806020600020E4E72DE9F0410746884639
:100A10001546002441463846FFF753FE0646052E8C
:100A200002D11E48BDE8F081012E02D01B48401CB7
:100A3000F8E741463846FFF73BFE044625B12068FB
:100A400020F08000206003E0206840F080002060FB
:100A50000020E7E72DE9F04105460E461746002441
:100A600031462846FFF72DFE8046B8F1050F02D12A
:100A70000A48BDE8F0810DB91A2E02D00748401C83
:100A8000F7E731462846FFF713FE044647B12068D2
:100A900040F48030206007E000C0024001000010F8
:100AA000206820F4803020600020E2E72DE9F0414A
:100AB000074688461646002441463846FFF701FEA1
:100AC0000546052D02D10D48BDE8F081012D04D069
:100AD000042D02D00948401CF6E741463846FFF78E
:100AE000E7FD044626B1206820F48070206003E012
:100AF000206840F4807020600020E5E701000010CD
:100B000013B5044601231A4601A9204600F064FEED
:100B10001CBD38B504460020009001231A466946E2
:100B2000204600F0C7FE9DF8000038BD70B50546B0
:100B30000C460CB9002070BD002301222146284636
:100B400000F0B8FE08B10120F5E70020F3E770B52A
:100B500006460D462C4604E014F8011B3046FFF70C
:100B6000CFFF20780028F7D170BD2DE9FF4F83B06B
:100B70000C4615461E46002002900190002D03DC15
:100B8000306007B0BDE8F08F4FF00008012C01D1B4
:100B9000102003E00CB90A2000E000208246BAF1E0
:100BA000000F02D100203060EBE7002785E0012034
:100BB000019001231A4602A9039800F07BFE9DF8DC
:100BC0000800302808DB9DF80800392804DC9DF86F
:100BD0000800A0F1300B37E0012C33D14FF0100AA0
:100BE0009DF80800612811D008DCA0F1410006281A
:100BF00024D2DFE800F00C1014181C2062380528FD
:100C00001CD2DFE800F0070B0F13170000BF4FF0F6
:100C10000A0B16E000BF4FF00B0B12E000BF4FF0C5
:100C20000C0B0EE000BF4FF00D0B0AE000BF4FF0C1
:100C30000E0B06E000BF4FF00F0B02E0002001900A
:100C400000BF01E000200190012000900198B0B9A0
:100C500024B9F5A10398FFF77AFF05E0012C03D131
:100C6000FC490398FFF773FF08F10108B8F10A0F78
:100C700023D3F9A10398FFF76AFF002081E79DF8CD
:100C800008100398FFF73CFF012D03D1AA4601206D
:100C900000900CE04FF0010907E0009800FB0AF01B
:100CA000009009F1010000F0FF09A945F5DB00986B
:100CB0000BFB00FB5F44681EC5B2002D3FF777AF0A
:100CC000376001205DE770B504460D462946204691
:100CD000FFF73DFFECA12046FFF739FF70BD2DE97E
:100CE000F04105460C460A2094FBF0F100FB114050
:100CF000C6B20A2094FBF0F00A2190FBF1F201FB4E
:100D00001200C7B2642094FBF0F090FBF1F201FBFB
:100D1000120000F0FF0808F13000C1B22846FFF7CA
:100D2000EFFE07F13000C1B22846FFF7E9FE06F1F9
:100D30003000C1B22846FFF7E3FEBDE8F0812DE99F
:100D4000F04705460C460A2094FBF0F100FB1140E9
:100D5000C6B20A2094FBF0F00A2190FBF1F201FBED
:100D60001200C7B2642094FBF0F090FBF1F201FB9B
:100D7000120000F0FF084FF47A7094FBF0F090FB43
:100D8000F1F201FB120000F0FF0942F2107094FB37
:100D9000F0F090FBF1F201FB120000F0FF0A0AF103
:100DA0003000C1B22846FFF7ABFE09F13000C1B2F6
:100DB0002846FFF7A5FE08F13000C1B22846FFF72C
:100DC0009FFE07F13000C1B22846FFF799FE06F1F9
:100DD0003000C1B22846FFF793FEBDE8F0872DE949
:100DE000F34F83B00C460A20B4FBF0F100FB114531
:100DF000B4FBF0F00A21B0FBF1F201FB1206642013
:100E0000B4FBF0F0B0FBF1F201FB12074FF47A7083
:100E1000B4FBF0F0B0FBF1F201FB120842F21070EB
:100E2000B4FBF0F0B0FBF1F201FB12099748B4FB00
:100E3000F0F0B0FBF1F201FB120A9548B4FBF0F0C0
:100E4000B0FBF1F201FB120B9248B4FBF0F0B0FBE7
:100E5000F1F201FB120002908F48B4FBF0F0B0FBFE
:100E6000F1F201FB120001908C48B4FBF0F0B0FBF2
:100E7000F1F201FB1200009000983030C1B20398EB
:100E8000FFF73EFE01983030C1B20398FFF738FEFD
:100E900002983030C1B20398FFF732FE0BF13000F8
:100EA000C1B20398FFF72CFE0AF13000C1B20398DB
:100EB000FFF726FE09F13000C1B20398FFF720FECC
:100EC00008F13000C1B20398FFF71AFE07F13000B5
:100ED000C1B20398FFF714FE06F13000C1B20398C7
:100EE000FFF70EFE05F13000C1B20398FFF708FED0
:100EF00005B0BDE8F08F2DE9F04107460D4601260B
:100F000000BFB00045FA00F000F00F04092C02DD2C
:100F100004F1370001E004F13000C1B23846FFF7B8
:100F2000EFFD3000A6F10101CEB2EAD1BDE8F081BB
:100F30002DE9F04107460D4659A13846FFF707FE57
:100F4000012600BFB00045FA00F000F00F04092CA4
:100F500002DD04F1370001E004F13000C1B238468F
:100F6000FFF7CEFD3000A6F10101CEB2EAD1BDE817
:100F7000F0812DE9F04107460D46032600BFB00081
:100F800045FA00F000F00F04092C02DD04F13700EF
:100F900001E004F13000C1B23846FFF7B1FD300086
:100FA000A6F10101CEB2EAD1BDE8F0812DE9F04110
:100FB00007460D463AA13846FFF7C9FD032600BF94
:100FC000B00045FA00F000F00F04092C02DD04F136
:100FD000370001E004F13000C1B23846FFF790FD60
:100FE0003000A6F10101CEB2EAD1BDE8F0812DE9D1
:100FF000F04107460D46072600BFB00025FA00F075
:1010000000F00F04092C02DD04F1370001E004F1C7
:101010003000C1B23846FFF773FD3000A6F1010180
:10102000CEB2EAD1BDE8F081506C65617365206590
:101030006E746572206120636861722066726F6DE4
:101040002027302720746F202739272121210D0ADE
:1010500000000000F43E00005265616368206C6986
:101060006D69746174696F6E206F662072652D748E
:10107000726965732E2052657475726E20464149FF
:101080004C45440D0A0000000A0D0000A086010036
:1010900040420F008096980000E1F50500CA9A3B97
:1010A000307800002DE9F04107460D46AFF21001FF
:1010B0003846FFF74CFD072600BFB00025FA00F0C8
:1010C00000F00F04092C02DD04F1370001E004F107
:1010D0003000C1B23846FFF713FD3000A6F1010120
:1010E000CEB2EAD1BDE8F08110B50446052C3BD262
:1010F000DFE804F0030E19242F0001220221002052
:10110000FFF731FB012203210020FFF72CFB2DE02C
:1011100001220F210020FFF726FB012210210020D1
:10112000FFF721FB22E001220A210020FFF71BFB31
:1011300001220B210020FFF716FB17E002221146C7
:101140000020FFF710FB022203210020FFF70BFB1A
:101150000CE0032216210020FFF705FB03220921E2
:101160000220FFF700FB01E000BFFEE700BF10BD5B
:101170001CB52A48007818B901202849087000E0F9
:101180001CBD0020FFF7B0FF684600F0E9FA694691
:10119000002000F063F90121002000F077FAAFF29F
:1011A00051601F490860AFF2E1401E490860AFF28C
:1011B000AF601D490860AFF287201C490860AFF29C
:1011C00013201B490860AFF223101A490860AFF2E0
:1011D000D92019490860AFF2652018490860AFF2BC
:1011E000F11017490860AFF2095016490860AFF2D4
:1011F000B14015490860AFF2194014490860AFF2D8
:10120000ED6013490860AFF29D6012490860AFF2CB
:10121000E3601149086000BFB2E700004C00001015
:10122000100000101400001018000010280000101A
:101230002C000010300000103400001038000010A6
:101240003C0000101C0000102000001024000010C2
:10125000400000104800001044000010014600202B
:1012600021B1022904D0032906D103E0F74804E0A4
:10127000F74802E0F74800E000BF00BF70472DE9E3
:10128000F34F8BB08846002009900120FEF796FFAF
:1012900008904FF0FF300390002006908246002116
:1012A0000C460D46012648E0002007903DE00798D7
:1012B000304400FB08F700210907089841EA1011A3
:1012C00002070023A2FB060C01FB06C102FB03116F
:1012D0003A46CDE90001FEF7CBFFCDE90401DDF888
:1012E00010B0DDF81490BBF1004F03D9CBF1000B27
:1012F00009F10109B9F1000F02D0B9F5803F00D919
:1013000010E0039883450CD2CDF80CB000254C4674
:1013100007980690B246DDF80CB0BBF1000F00D183
:1013200006E000BF0798401C07900798B042BED364
:1013300000BF039800B902E0761C0F2EB4D900BF9D
:10134000002184EA01006940084302D10DB0BDE8E4
:10135000F08F0898000900FB0AF706985044002116
:10136000A0FB042301FB043100FB05100346CDE97B
:10137000002038460021FEF77BFF0290029880454E
:1013800004D90298A8EB0000039003E00298A0EBB8
:1013900008000390642103984843B0FBF8F00390E1
:1013A0000398032858D20B98012819D1AA48007B2A
:1013B00040F08000A8490873200A40EA05600871DF
:1013C0000C700846007B00F07F000873F02000EAF4
:1013D0000A10069901F00F0108439F49886239E01D
:1013E0000B9804281BD19D48C06840F080009B49A1
:1013F000C860200A40EA0560C0B24860E0B20860F8
:101400000846C06800F07F00C860F02000EA0A10BB
:10141000069901F00F010843904988621AE00B9881
:10142000FFF71CFF0746387B40F080003873200A26
:1014300040EA056038713C70387B00F07F003873FB
:10144000F02000EA0A10069901F00F01084387F81E
:10145000280000BF01200990099877E72DE9F041A5
:1014600006460F46052E3ED2DFE806F0033E040591
:10147000720000BF00BF3046FFF7F0FE054626B9F8
:1014800001210820FEF7B1FE0CE0022E04D101215B
:101490000806FEF7AAFE05E0032E03D10121480647
:1014A000FEF7A3FE072028720020287200E02C78A7
:1014B000287D00F001000028F9D1802085F8300057
:1014C00000BF287D00F020000028FAD0002085F819
:1014D000300068602873286285F84C0085F8540055
:1014E00085F850002C7D5DE001211020FEF77DFE87
:1014F0000720594908720020087201E05648047814
:101500005548007D00F001000028F7D180205249A5
:101510003031087000BF5048007D00F020000028E6
:10152000F9D000204C49303108704B4948600873AD
:10153000086281F84C00484954310870464981F8E6
:1015400050000846047D002008740846047E29E007
:1015500001210802FEF749FE07204049886000206B
:10156000886001E03D4804683C48406900F00100A3
:101570000028F7D101203949C86500BF37484069C4
:1015800000F020000028F9D000203449C8654860E8
:10159000C8600862C8644865086508464469002058
:1015A000486200BF00BF30463968FFF768FE012E71
:1015B00004D12948007B00F0C0040EE0042E04D1C1
:1015C0002648C06800F0C00407E03046FFF746FE3A
:1015D0000546287B00F0C00400BF787930B10128AF
:1015E00006D0022807D0032808D108E000BF09E090
:1015F00044F0010406E044F0020403E000BF44F0BC
:10160000030400BF00BF3879C0B144F00804387942
:10161000012806D0022806D0032807D004280BD1C1
:1016200007E000BF09E044F0100406E044F02004A5
:1016300003E044F0300400E000BF00BFB87980B19F
:1016400001280DD144F004040CE0000000C000406B
:101650000080094000C009400000014000400A40ED
:1016600000BF00BF00BF012E02D1F7490C730BE091
:10167000042E03D1E0B2F549C86005E03046FFF71B
:10168000EDFD05462C7300BFBDE8F08170B5044642
:101690000D46012D1ED1012C08D1EB4830300078C9
:1016A00040F08000E84981F830002FE0042C06D19A
:1016B000E648C06D40F00100E449C86526E02046D8
:1016C000FFF7CCFD064696F8300040F0800086F823
:1016D00030001BE0012C07D1DB48303000780020BF
:1016E000D94981F8300011E0042C05D1D748C06DEC
:1016F0000020D649C86509E02046FFF7AFFD064641
:1017000096F83000002086F8300000BF70BD10B59C
:10171000044600212046FFF7B9FF24B90021082024
:10172000FEF763FD1BE0012C04D100211020FEF721
:101730005CFD14E0022C04D10021E005FEF755FD0C
:101740000DE0032C05D100214FF00070FEF74DFD98
:1017500005E0042C03D10021A001FEF746FD10BDD9
:101760004FF4E13101600321417100210171817168
:101770007047052814D2DFE800F00306090C0F00BB
:10178000B34B19700CE0B04B197009E0B14B1970F4
:1017900006E0B14B197003E0CAB2AC4B1A6000BF4F
:1017A00000BF70470146052914D2DFE801F00306A7
:1017B000090C0F00A64800787047A3480078FBE7A3
:1017C000A4480078F8E7A4480078F5E79F48006847
:1017D000C0B2F1E70020EFE72DE9FF4F81B080466E
:1017E0008A469346574600200090B8F1050F18D25C
:1017F000DFE808F003070B0F130095481430009042
:101800000FE09148143000900BE0924814300090A3
:1018100007E091481430009003E08C4814300090A9
:1018200000BF00BF5C460498012825D1002520E0B8
:101830004FF0FF3905E0B9F1000F00D107E0A9F141
:1018400001090098006800F020000028F3D000BFD4
:10185000B9F1000F00D10EE0102607E017F8011BC8
:101860004046FFF786FF761E641E6D1C0EB1002CED
:10187000F4D1002CDCD119E0002514E004B914E007
:101880000098006800F0200000B90EE0102607E084
:1018900017F8011B4046FFF76CFF641E761E6D1C97
:1018A0000EB1002CF4D1002CE8D100BF284605B0C1
:1018B000BDE8F08F2DE9F04705460F469046994662
:1018C0003C464FF0000A052D1DD2DFE805F0030865
:1018D0000D121700DFF878A10AF1140A15E0DFF8FD
:1018E00068A10AF1140A10E0DFF868A10AF1140AED
:1018F0000BE0DFF864A10AF1140A06E0DFF84CA15E
:101900000AF1140A01E000BFFEE700BF4246B9F148
:10191000010F1AD1002315E04FF0FF3602E006B99F
:1019200006E0761EDAF8000000F001000028F6D08C
:1019300000BF06B908E02846FFF734FF04F8010BA2
:10194000521E5B1C002AE7D111E000230CE0DAF8FC
:10195000000000F0010000B908E02846FFF722FF70
:1019600004F8010B5B1C521E002AF0D100BF184680
:10197000BDE8F087052827D2DFE800F0030A111838
:101980001F003349097B41F04001314A11731BE0CC
:101990002D49097B41F040012B4A117314E02D4978
:1019A000097B41F040012B4A11730DE02A49097B64
:1019B00041F04001284A117306E02449C96841F00A
:1019C0004001224AD16000BF00BF7047F0B5044615
:1019D0000B4600210025052C1DD2DFE804F003088A
:1019E0000D1217001A49091D40F2073513E0164978
:1019F000091D40F28F350EE01649091D40F20735EA
:101A000009E01549091D40F2073504E00F49091D99
:101A100040F2073500BF00BF072B1FD2DFE803F0FD
:101A20000406080A0C0E1100012019E0022017E03C
:101A3000042015E0082013E0802011E04FF48070AE
:101A40000EE04FF400700BE00000014000400A403F
:101A500000C000400080094000C0094000BFFEE710
:101A600000BF012A05D10E6800EA05073E430E605B
:101A700004E00E6825EA00073E400E60F0BD014616
:101A8000052914D2DFE801F00306090C0F00FE4817
:101A9000007D7047FD48007DFBE7FD48007DF8E7CD
:101AA000FC48007DF5E7FC484069C0B2F1E7002042
:101AB000EFE70146052922D2DFE801F003090F15FF
:101AC0001B00F148806840F2CF3210407047EF4869
:101AD000806840F2CF321040F8E7ED48806840F26D
:101AE000CF321040F2E7EB48806840F2CF3210402E
:101AF000ECE7E948806840F2CF321040E6E700208A
:101B0000E4E70146002205291DD2DFE801F00308C1
:101B10000D121700DC48007D00F0400213E0DB48A6
:101B2000007D00F040020EE0D948007D00F0400248
:101B300009E0D848007D00F0400204E0D648406942
:101B400000F0400200BF00BF02F0400008B10020DA
:101B500070470120FCE710B50246002040F001006C
:101B6000CB7833B1012B06D0022B07D0032B08D141
:101B700008E000BF09E040F0400006E040F08000CF
:101B800003E000BF40F0C00000BF00BF4B78012B56
:101B900001D140F004000B78012B01D140F002008C
:101BA0008B78012B01D140F00800052A1DD2DFE817
:101BB00002F003080D12170000F0CF03B24C23729D
:101BC00013E000F0CF03B14C23720EE000F0CF031E
:101BD000AF4C237209E000F0CF03AE4C237204E057
:101BE00000F0CF03AC4CA36000BF00BF10BD0021CC
:101BF0008170C17001210170417070472DE9F04181
:101C00000746884615460026012D0BD198F800009E
:101C1000012801D146F0020698F80100012801D1FF
:101C200046F00406012F19D1012D13D19748007BEE
:101C300040F080009549087300200870087108463C
:101C4000007B20F0800008731020886246F00100BD
:101C500008623AE000208D49086236E0042F19D16D
:101C6000012D13D18C48C06840F080008A49C860BB
:101C70000020086048600846C06820F08000C86006
:101C80001020886246F0010008621EE000208249B0
:101C900008621AE03846FFF7E1FA0446012D11D137
:101CA000207B40F080002073002020702071207B7A
:101CB00020F080002073102084F8280046F00100F6
:101CC000206201E00020206200BFBDE8F08170B515
:101CD00005460C46012D05D16C48006A20436B492E
:101CE00008620FE0042D05D16B48006A20436A4961
:101CF000086207E02846FFF7B1FA0646306A20433B
:101D0000306200BF70BD042800D07047012906D1A1
:101D1000614A526A42F002025F4B5A6206E029B9F8
:101D20005D4A526A02F03D025B4B5A6200BFECE72B
:101D3000042800D07047012906D1574A526A42F060
:101D40000102554B5A6205E0534A526A02F03E02C4
:101D5000514B5A6200BFEDE730B5042800D030BDCA
:101D60004C07A30E4C4C646A24F0380243F0040480
:101D7000224302F03F04484D6C6200BFEFE730B5EC
:101D80000023012800D030BD11B1012904D101E0A8
:101D9000012302E0022300E000BF00BF012A05D1B9
:101DA0003A4C247C1C43394D2C7406E0374C247C7F
:101DB000F3259D432C40354D2C7400BFE3E730B52F
:101DC0000346012B00D030BD21B1012904D00229E6
:101DD00006D103E0102004E0402002E0802000E073
:101DE00000BF00BF012A05D1284C247C0443274DA5
:101DF0002C7406E0254C247CF32585432C40234D90
:101E00002C7400BFDFE70146012901D00020704794
:101E10001E48007EFBE72DE9F05F07460C460025D3
:101E2000012F0AD1DFF8648008F15408A8F10409F1
:101E3000164E0C36A9F1040A19E0042F0AD1DFF876
:101E4000588008F15408A8F10409134E0C36A9F182
:101E5000040A0CE03846FFF701FA83460BF15408F8
:101E60000BF150090BF10C060BF14C0A00BFE078A6
:101E700001281BD145F010056079012801D145F0FA
:101E800020052079012809E000C000400000014041
:101E90000080094000C0094000400A4003D1012FE2
:101EA00001D145F00805E079C8F800002078012844
:101EB00001D145F00105A078012804D145F00405C1
:101EC000A079C9F80000607808B945F0020505F06E
:101ED0003F00CAF80000306840F038003060BDE8CC
:101EE000F09F2DE9F04105460E46012D01D13A4CF7
:101EF0000AE0042D01D1394C06E02846FFF7AEF97F
:101F0000074607F1540400BF012E04D1206820F0D9
:101F10000200206003E0206840F002002060BDE87D
:101F2000F0812DE9FF4F81B006468B469846012E81
:101F300004D1294C483C284D403D0FE0042E04D1EB
:101F4000264C483C254D403D08E03046FFF786F9D9
:101F500082460AF10C040AF1140500BFB8F1000F23
:101F600015D02068C7B2B94629F01009C4F800900E
:101F7000012359463046039AFFF72EFC009000BF1C
:101F8000286800F040000028FAD027600CE0012308
:101F900059463046039AFFF71FFC009000BF28689F
:101FA00000F040000028FAD0009805B0BDE8F08F9E
:101FB00013B5044601231A4601A92046FFF7B1FFD5
:101FC0001CBD70B504460D46164600233246294610
:101FD0002046FFF7A6FF70BD5400014054400A4060
:101FE0002DE9F04104460220FEF7E8F80546A4FB7F
:101FF00005600146F74A00233046FEF739F9401CD8
:10200000BDE8F0812DE9F04104460220FEF7D6F844
:102010000546A4FB05600146EF4A00233046FEF763
:1020200027F9BDE8F08110B50020FEF7C7F8EB49AD
:10203000884204D901210220FEF774F803E0002150
:102040000220FEF76FF80121C802FEF7CEF801204A
:10205000E3490860002010BD2DE9F84F0746884687
:102060009146DDF828C04FF4007000904FF0000A50
:102070000022002400254FF0100B00260021B8F1AB
:10208000100F03D0B8F1200F08D103E000254FF066
:10209000100A06E001254FF0200A02E00220BDE808
:1020A000F88F00BF4FF4805000EA0934BCF1100FE4
:1020B00009D1082B01D100222DE0102B01D10122E2
:1020C00029E00220EBE724E0761C701C4FF0010EA3
:1020D0000EFA00FE4FEA0E1BE34515D1002105E084
:1020E00008208840984200D104E0491C082088401C
:1020F0005045F5DD00BF08208840504501DD022035
:10210000CDE701EB860205E0BBF5007F01D302209D
:10211000C5E7D9E700BF37B1012F42D0022F7DD0EC
:10212000032F7CD1BEE0AF48006820F4FC50DFF8FC
:10213000B0E2CEF800017046D0F800014FF4FC5E2A
:102140000EEAC21E40EA0E00DFF894E2CEF800016B
:102150007046D0F8000120F48050CEF8000170469F
:10216000D0F800014FF4805E0EEA043E40EA0E0013
:10217000DFF86CE2CEF800017046D0F8000120F4E0
:102180008040CEF800017046D0F800014FF4804E38
:102190000EEA853E40EA0E00DFF844E2CEF8000188
:1021A000C1E090482030006820F4FC50DFF830E2B5
:1021B000CEF820017046D0F820014FF4FC5E0EEA04
:1021C000C21E40EA0E00DFF818E2CEF82001704689
:1021D000D0F8200120F48050CEF820017046D0F8CD
:1021E00020014FF4805E0EEA043E40EA0E00DFF864
:1021F000F0E1CEF820017046D0F8200120F48040B4
:10220000CEF820017046D0F820014FF4804E0EEA3F
:10221000853E40EA0E00DFF8C8E101E003E080E01F
:10222000CEF820017FE06F484030006820F4FC5079
:10223000DFF8ACE1CEF840017046D0F840014FF431
:10224000FC5E0EEAC21E40EA0E00DFF894E1CEF812
:1022500040017046D0F8400120F48050CEF8400193
:102260007046D0F840014FF4805E0EEA043E40EA2A
:102270000E00DFF86CE1CEF840017046D0F8400166
:1022800020F48040CEF840017046D0F840014FF471
:10229000804E0EEA853E40EA0E00DFF844E1CEF8BB
:1022A000400140E04F486030006820F4FC50DFF807
:1022B00030E1CEF860017046D0F860014FF4FC5E6A
:1022C0000EEAC21E40EA0E00DFF814E1CEF860010B
:1022D0007046D0F8600120F48050CEF8600170465E
:1022E000D0F860014FF4805E0EEA043E40EA0E0032
:1022F000DFF8ECE0CEF860017046D0F8600120F421
:102300008040CEF860017046D0F860014FF4804EF6
:102310000EEA853E40EA0E00DFF8C4E0CEF8600128
:1023200001E00220BBE600BF0020B8E6024632B161
:10233000012A14D0022A24D0032A46D133E02948A6
:10234000006820F01800264BC3F8000125480068FB
:1023500001F018031843224BC3F8000137E021486D
:102360002030006820F018001D4BC3F820011D48E4
:102370002030006801F018031843194BC3F82001FE
:1023800025E018484030006820F01800144BC3F8CE
:10239000400114484030006801F018031843104B06
:1023A000C3F8400113E00F486030006820F01800C7
:1023B0000B4BC3F860010B486030006801F0180354
:1023C0001843074BC3F8600101E00220704700BFCB
:1023D0000020FBE70024F40000CA9A3B00B4C404C8
:1023E00000C0092000C10920024632B1012A16D0DE
:1023F000022A28D0032A4ED139E0FE48006820F492
:102400004070FD4BC3F80401FA4800684FF4407374
:1024100003EA01231843F84BC3F804013DE0F548F3
:102420002030006820F44070F34BC3F82401F148D9
:10243000203000684FF4407303EA01231843EE4B49
:10244000C3F8240129E0EB484030006820F44070D4
:10245000E94BC3F84401E748403000684FF440734B
:1024600003EA01231843E44BC3F8440115E0E148B3
:102470006030006820F44070DF4BC3F86401DD4831
:10248000603000684FF4407303EA01231843DA4BCD
:10249000C3F8640101E00220704700BF0020FBE7A1
:1024A000024632B1012A14D0022A24D0032A46D18E
:1024B00033E0D048006820F00300CF4BC3F804019C
:1024C000CC48006801F003031843CB4BC3F8040168
:1024D00037E0C8482030006820F00300C64BC3F83E
:1024E0002401C4482030006801F003031843C24BA4
:1024F000C3F8240125E0BF484030006820F0030005
:10250000BD4BC3F84401BB484030006801F00303F1
:102510001843B94BC3F8440113E0B6486030006873
:1025200020F00300B44BC3F86401B2486030006887
:1025300001F003031843B04BC3F8640101E002202B
:10254000704700BF0020FBE702460D2A49D2DFE8B2
:1025500002F0070C11161B20252A2F34393E4300A8
:10256000C1F30900A44B58623DE001F00300A24B07
:10257000986238E001F00F009F4B186333E001F0E0
:102580000F009D4B58632EE001F00F009A4B9863AB
:1025900029E001F00F00984BD86324E001F00F0010
:1025A000954B18641FE001F00F00934B58641AE03C
:1025B00001F01F00904B986415E001F01F008E4B56
:1025C000D86410E001F01F008B4B18650BE001F0A0
:1025D0000F00894B586506E001F01F00864B986597
:1025E00001E00220704700BF0020FBE7014682485F
:1025F000006A20F00200804A10621046006A01F072
:10260000020210437C4A10620020704701467A485B
:10261000006A20F02000784A10621046006A01F03B
:1026200020021043744A106200207047014672482D
:10263000006A20F00100704A10621046006A01F042
:10264000010210436C4A10620020704701466A483C
:10265000006A20F40050684A10621046006A01F4D3
:1026600000521043644A10620020704701466248DD
:10267000006A20F00400604A106201F00400106259
:102680000020704701465C48806820F001005A4AEB
:1026900090601046806801F001021043564A906035
:1026A00000207047F8B505460026002401221021BD
:1026B0000220FEF758F8012211210220FEF753F8FC
:1026C000012212210220FEF74EF8012213210220DE
:1026D000FEF749F8012214210220FEF744F80122F6
:1026E00015210220FEF73FF8012216210220FEF7F5
:1026F0003AF8012217210220FEF735F801221821AD
:102700000220FEF730F8012219210220FEF72BF8F3
:1027100001221A210220FEF726F801221B210220A5
:10272000FEF721F801221C210220FEF71CF80122ED
:102730001D210220FEF717F801221E210220FEF7BC
:1027400012F801221F210220FEF70DF800BF0AE057
:10275000F1B201220320FEF706F8F1B201220420B3
:10276000FEF701F8761C202EF2D30122002105206D
:10277000FDF7F9FF012211460520FDF7F4FFFFF7F1
:1027800052FC04431D48006840F008001C49C1F891
:10279000DC010846D0F8DC0140F40060C1F8DC013F
:1027A0000846D0F8DC0140F40020C1F8DC0100202C
:1027B000FFF768FF04430020FFF758FF04430020A1
:1027C000FFF744FF04430120FFF730FF04430020DC
:1027D000FFF71CFF04430220FFF708FF0443E989C9
:1027E0000020FFF7B1FE0443297C0120FFF7ACFE77
:1027F000044307E004C1092000C00920DCC10F40E8
:1028000000C00F40697C0220FFF79EFE0443E97E72
:102810000320FFF799FE0443A97C0420FFF794FEF0
:102820000443E97C0520FFF78FFE0443297D062041
:10283000FFF78AFE0443697D0720FFF785FE044306
:10284000A97D0820FFF780FE0443E97D0920FFF7FA
:102850007BFE0443297E0A20FFF776FE0443697E4F
:102860000B20FFF771FE0443A97E0C20FFF76CFEDE
:102870000443297F2878FFF713FE0443697F2878F3
:10288000FFF7B2FD044328780021FFF74FFD044312
:1028900028890090AB7A2A7BE97A2878FFF7DCFB5D
:1028A00004432046F8BD10B5034633B1012B32D0A6
:1028B000022B5FD0032B2DD18BE0062927D2DFE836
:1028C00001F003080E141A2002F00F00F84C2060EB
:1028D0001FE002F00F00F64C241D206019E002F00A
:1028E0001F00F34C0834206013E002F01F00F04C8E
:1028F0000C3420600DE002F01F00ED4C103420601D
:1029000007E002F00F00EA4C1434206001E00220DE
:1029100010BD00BF8CE0062928D2DFE801F00309D2
:102920000F151B2102F00F00E14C203420601FE046
:1029300002F00F00DE4C2434206019E002F01F008A
:10294000DB4C2834206013E002F01F00D84C2C34FC
:1029500020600DE002F01F00D54C3034206007E00D
:1029600002F00F00D24C3434206001E00220CFE7A7
:1029700000BF5DE0062928D2DFE801F003090F154A
:102980001B2102F00F00CA4C403420601FE002F00F
:102990000F00C74C4434206019E002F01F00C44C03
:1029A0004834206013E002F01F00C14C4C3420601A
:1029B0000DE002F01F00BE4C5034206007E002F032
:1029C0000F00BB4C5434206001E00220A0E700BFA0
:1029D0002EE0062928D2DFE801F003090F151B219C
:1029E00002F00F00B24C603420601FE002F00F00D4
:1029F000AF4C6434206019E002F01F00AC4C683426
:102A0000206013E002F01F00A94C6C3420600DE040
:102A100002F01F00A64C7034206007E002F00F00A7
:102A2000A34C7434206001E0022071E700BF00BFB6
:102A300000BF00206CE7024632B1012A16D0022AFC
:102A400026D0032A48D135E09948001F006820F4B9
:102A50008070984BC3F800029548001F006801F48D
:102A600080731843934BC3F8000237E090481C3042
:102A7000006820F480708F4BC3F820028C481C3013
:102A8000006801F4807318438A4BC3F8200225E0E4
:102A900087483C30006820F48070864BC3F84002C1
:102AA00083483C30006801F480731843814BC3F8BD
:102AB000400213E07E485C30006820F480707D4B5B
:102AC000C3F860027A485C30006801F480731843F0
:102AD000784BC3F8600201E00220704700BF00207D
:102AE000FBE7024632B1012A16D0022A26D0032A79
:102AF00048D135E06E48001F006820F080006D4B23
:102B0000C3F800026A48001F006801F08003184300
:102B1000684BC3F8000237E065481C30006820F0BD
:102B20008000644BC3F8200261481C30006801F04B
:102B3000800318435F4BC3F8200225E05C483C301B
:102B4000006820F080005B4BC3F8400258483C30DE
:102B5000006801F080031843564BC3F8400213E0AD
:102B600053485C30006820F08000524BC3F860028C
:102B70004F485C30006801F0800318434D4BC3F8A8
:102B8000600201E00220704700BF0020FBE7024620
:102B900032B1012A16D0022A26D0032A48D135E0C4
:102BA0004348001F006820F00800424BC3F80002B1
:102BB0003F48001F006801F0080318433D4BC3F86D
:102BC000000237E03A481C30006820F00800394B1A
:102BD000C3F8200236481C30006801F0080318438F
:102BE000344BC3F8200225E031483C30006820F027
:102BF0000800304BC3F840022D483C30006801F01B
:102C0000080318432B4BC3F8400213E028485C30FC
:102C1000006820F00800274BC3F8600224485C30AD
:102C2000006801F008031843224BC3F8600201E07A
:102C30000220704700BF0020FBE710B502460B469C
:102C40000021082B04D0102B04D0202B06D103E048
:102C5000002105E0012103E0022101E0022010BD76
:102C600000BF32B1012A13D0022A25D0032A40D155
:102C700030E00F48001F006820F003000D4CC4F83E
:102C800000022046D0F800020843C4F8000232E0F7
:102C900007481C30006820F00300064CC4F82002EE
:102CA0002046D0F820020843C4F8200223E00000A8
:102CB00004C2092000C00920F748006820F0030082
:102CC000F64CC4F840022046D0F840020843C4F84D
:102CD000400210E0F0482030006820F00300EF4C84
:102CE000C4F860022046D0F860020843C4F86002CD
:102CF00001E00220B3E700BF0020B0E770B5044652
:102D0000002501220E210220FDF72DFD01220F21B9
:102D10000220FDF728FD00260AE0F1B2012203207F
:102D2000FDF721FDF1B201220420FDF71CFD761C08
:102D3000202EF2D3012200210520FDF714FD0122EF
:102D400011460520FDF70FFDFFF76DF9054360798A
:102D500028B1D248006840F00200D049086061788C
:102D60002078FFF76AFF0543A07828B12078082172
:102D7000FFF70DFF054304E020780021FFF707FF70
:102D80000543E07828B120788021FFF7AAFE0543AB
:102D900004E020780021FFF7A4FE0543207930B13C
:102DA00020784FF48071FFF746FE054304E0207859
:102DB0000021FFF740FE0543A27920780021FFF7AC
:102DC00072FD0543E27920780121FFF76CFD054390
:102DD000227A20780221FFF766FD0543627A207887
:102DE0000321FFF760FD0543A27A20780421FFF755
:102DF0005AFD0543E27A20780521FFF754FD05438B
:102E0000284670BD10B50020FDF7D8F9A4498842C6
:102E100004D901210220FDF785F903E000210220F9
:102E2000FDF780F99F48006840F400609D49C4396F
:102E3000C1F8C40041F210009B4908600120974985
:102E400008600020886001220E210220FDF78BFC23
:102E500001220F210220FDF786FC01221021022011
:102E6000FDF781FC012211210220FDF77CFC0122EB
:102E700012210220FDF777FC012213210220FDF729
:102E800072FC012214210220FDF76DFC01221521A4
:102E90000220FDF768FC012216210220FDF763FCE9
:102EA000012217210220FDF75EFC012218210220D9
:102EB000FDF759FC012219210220FDF754FC0122E3
:102EC0001A210220FDF74FFC01221B210220FDF7F1
:102ED0004AFC01221C210220FDF745FC01221D2194
:102EE0000220FDF740FC01221E210220FDF73BFCE1
:102EF00001221F210220FDF736FC00240BE00122F5
:102F000021460320FDF72FFC012221460420FDF776
:102F10002AFC601CC4B2202CF1DB01220021052018
:102F2000FDF721FC012211460520FDF71CFC0020C5
:102F300010BD01465948006A20F4C070574A10621B
:102F40001046006A01F4C0721043544A1062002017
:102F50007047024632B1012A14D0022A24D0032A33
:102F600046D133E05148006820F400204B4BC3F8B1
:102F700000014E48006801F400231843474BC3F892
:102F8000000137E049482030006820F40020434B1E
:102F9000C3F8200145482030006801F4002318439D
:102FA0003E4BC3F8200125E040484030006820F443
:102FB00000203A4BC3F840013C484030006801F41F
:102FC00000231843354BC3F8400113E03748603005
:102FD000006820F40020314BC3F8600133486030B2
:102FE000006801F4002318432C4BC3F8600101E092
:102FF0000220704700BF0020FBE7024632B1012AE1
:1030000014D0022A24D0032A52D133E02748006882
:1030100020F48010214BC3F800012448006801F41B
:10302000801318431D4BC3F8000143E01F482030B4
:10303000006820F48010194BC3F820011B48203091
:10304000006801F480131843144BC3F8200131E0E9
:1030500016484030006820F48010104BC3F840013F
:1030600012484030006801F4801318430B4BC3F83A
:1030700040011FE00D486030006820F48010074BCD
:10308000C3F8600109486030006801F480131843F8
:10309000024BC3F860010DE040C2092000C00920C6
:1030A00000B4C404C4C00F40DCC10F4000C10920FB
:1030B0000220704700BF0020FBE70146C1F3090072
:1030C0008B4A106000207047024632B1012A16D0A8
:1030D000022A28D0032A4ED139E08648006820F021
:1030E0004000834B803BC3F800028248006801F037
:1030F000400318437E4B803BC3F800023DE07D480F
:103100002030006820F04000794B803BC3F820025B
:1031100078482030006801F040031843744B803B2E
:10312000C3F8200229E073484030006820F04000D6
:103130006F4B803BC3F840026E484030006801F09E
:10314000400318436A4B803BC3F8400215E06948CE
:103150006030006820F04000654B803BC3F860029F
:1031600064486030006801F040031843604B803BC6
:10317000C3F8600201E00220704700BF0020FBE7B7
:10318000024632B1012A16D0022A28D0032A4ED193
:1031900039E05848006820F40020554B803BC3F8C4
:1031A00000025448006801F400231843504B803B50
:1031B000C3F800023DE04F482030006820F40020B2
:1031C0004B4B803BC3F820024A482030006801F492
:1031D00000231843464B803BC3F8200229E04548B2
:1031E0004030006820F40020414B803BC3F840028F
:1031F00040484030006801F4002318433C4B803BBA
:10320000C3F8400215E03B486030006820F400201D
:10321000374B803BC3F8600236486030006801F4E9
:1032200000231843324B803BC3F8600201E00220C8
:10323000704700BF0020FBE7024632B1012A16D0DA
:10324000022A28D0032A4ED139E02A48006820F407
:103250008010274B803BC3F800022648006801F429
:1032600080131843224B803BC3F800023DE0214805
:103270002030006820F480101D4B803BC3F82002F2
:103280001C482030006801F480131843184B803B21
:10329000C3F8200229E017484030006820F480106D
:1032A000134B803BC3F8400212484030006801F4E1
:1032B000801318430E4B803BC3F8400215E00D48C5
:1032C0006030006820F48010094B803BC3F8600236
:1032D00008486030006801F480131843044B803BB9
:1032E000C3F8600201E00220704700BF0020FBE746
:1032F00080C0092000C2092070B505460120FCF7F6
:103300005DFF0446204670BD2DE9F04781460C461E
:103310004846FFF7F1FF0026054600232946A1FB9A
:10332000047C06FB04C205FB0321D84A3846FCF79F
:103330009FFF05462846BDE8F08701464FF0FF3065
:10334000B1F1402F01D100200DE0D14A914201D1CD
:10335000012008E0CF4A914201D1022003E0CE4A89
:10336000914200D10320704710B502461068012435
:103370008C402040C3B20BB1012010BD0020FCE7FF
:1033800030B5024610680C1D0125A5402840C3B287
:103390000BB1012030BD0020FCE701228A40026011
:1033A00070470A1D012393400360704720B90A4605
:1033B00001231370536003E00A460023537000BFDB
:1033C00070472DE9F04704460F461546B4F1402FEB
:1033D00004D101210220FCF708FF16E0AC4884422A
:1033E00004D101210420FCF700FF0EE0A94884422B
:1033F00004D101218805FCF7F8FE06E0A6488442C6
:1034000003D10121C805FCF7F0FE206F20F0030076
:103410002067206F20670020A0602061E060606866
:1034200040F002006060606820F00200606087B9D0
:103430002E46307818B97068401EE06017E02046CC
:10344000FFF77BFF81467168FFF75EFF401EE0607B
:103450000DE0A846206F20F00C002067454698F844
:103460000100012803D1A06A40F00400A0624FF0DF
:10347000FF302060BDE8F08710B504460020606092
:10348000B4F1402F04D100210220FCF7AEFE18E079
:103490007F48844204D100210420FCF7A6FE10E0FE
:1034A0007C48844205D100214FF48000FCF79DFE4A
:1034B00007E07948844204D100214FF48000FCF7F2
:1034C00094FE10BD012904D1426842F0010242601D
:1034D00003E0426822F0010242607047416841F017
:1034E00002014160416821F002014160704710B55E
:1034F0000A7832B1012A07D0022A08D0032A0CD157
:1035000008E08A6882610AE08A68C26107E08A6826
:10351000026204E08A68426201E000BFFEE700BF89
:1035200042690B7803EB43040723A3409A434261AB
:103530004A783AB142690B7803EB43040123A34074
:103540001A434261CA7842B142690B7803EB4303E4
:103550005B1C01249C40224342618A7842B142694B
:103560000B7803EB43039B1C01249C4022434261E4
:10357000C26B0B78042404EB43040323A3409A4357
:10358000C2630A7902F003020B78042404EB4303BC
:103590009A40C36B1A43C26310BD31B1012906D0F2
:1035A000022906D0032908D105E0826107E0C26143
:1035B00005E0026203E0426201E000BFFEE700BFF7
:1035C000704710B5826A0B7803EB43040723A340CE
:1035D0009A4382624A783AB1826A0B7803EB4304D9
:1035E0000123A3401A4382628A7842B1826A0B782F
:1035F00003EB43035B1C01249C4022438262CA7894
:1036000042B1826A0B7803EB43039B1C01249C406C
:103610002243826210BD024609B9D06A7047106B1E
:10362000FCE71EB504464FF0FF304FF04021086024
:1036300000208DF8000001208DF801008DF80300B6
:103640008DF8020000208DF80400029469464FF0C6
:103650004020FFF74CFF01214FF04020FFF732FFE1
:1036600000BF4FF04020006800F001000028F8D0B3
:103670004FF04020FFF732FF1EBD10B504464FF457
:103680007A7104FB01F0FFF7CCFF10BD40420F0040
:1036900000800040000009400040094000BFB548DC
:1036A000406D00F400100028F9D100BFB148406D12
:1036B00000F400100028F9D0704710B586B0012042
:1036C0008DF804008DF809008DF8070008208DF8AA
:1036D000050000208DF808008DF8060002208DF806
:1036E0000A008DF80B001F208DF80E008DF80D00DC
:1036F0008DF80C008DF80F0001A8FFF7FFFA0120EC
:103700008DF81000059004AA00214FF04020FFF72B
:1037100058FE0220FFF7B1FF002403E00020964985
:103720000855641CB4F5806FF8D306B010BD10B511
:10373000924CFF2020700220FFF79FFF10BD10B5B4
:1037400001468E4C4FF001427020207000BF10786F
:1037500000F0C000C028FAD1137859B1602902D016
:10376000802909D100BF03F0010008B1002010BD7D
:103770000120FCE70120FAE700BF00BF0020F6E7C8
:10378000F0B57E4E7E4F4FF001419020307000200A
:1037900038700A780B780D780C78100640EA0340F0
:1037A00040EA04202843F0BDF0B50546734E744F3F
:1037B00005EB4510002101EB00344FF40430B4FB5D
:1037C000F0F100FB1140241A602030703C70200A98
:1037D0003870D0203070FFF761FF6020FFF7AFFF37
:1037E000F0BD2DE9F04304460D4616460022634F16
:1037F00063494FF001494FF40460B4FBF0FC00FB57
:103800001C43A4EB0308002038700B70C3F30320A3
:1038100008704FEA184008704FEA186008703020AE
:103820003870FFF73BFF002208E099F8000028708D
:103830006D1C501CB04200D304E0521CC3F5046060
:103840009042F2D800BF1046BDE8F0832DE9F04366
:1038500005460E4617469846DDF81C90002405EBF9
:103860004510002101EB0030044406EB461004EB48
:1038700080143C444A4641462046FFF7B2FFBDE86B
:10388000F0837CB5012600200190002415E000257E
:1038900010E0012001ABC202294600902046FFF74C
:1038A000D5FF9DF80400FF2803D0012032490855B8
:1038B00000266D1C022DECD3641CB4F5806FE6D39A
:1038C00030467CBD2DE9F84F804689461646DFF824
:1038D000ACA02B4C4FF00140009009EB49100021A7
:1038E00001EB003008EB481100EB81154FF4046048
:1038F000B5FBF0F100FB1157ED1B80208AF80000AA
:103900002770C7F303202070280C2070280E207029
:103910004FF0000B05E016F8011B009801700BF149
:10392000010BBBF5006FF6D310208AF80000FFF7FB
:10393000B5FE8020FFF703FFBDE8F88F78B5054698
:103940000E4614464FF40460234600223146009090
:103950002846FFF77BFF78BD70B504460D46164636
:10396000324629462046FFF7E9FF08B1012070BD25
:103970000020FCE7008009205000001000001081AA
:103980000000088110B561490020614A1268904723
:1039900010BDFDF7EDFBFFF7F5FF5EA100205C4ACF
:1039A00012689047FFF789FEFFF7C1FE5EA1002075
:1039B000634A12689047FFF7E3FE0546280C0004AF
:1039C0006049884206D060A10020514A12689047A1
:1039D00000BFFEE729460020684A1268904768A1A8
:1039E00000204B4A1268904766A10020484A12689E
:1039F0009047FFF746FF002816D168A1444A126895
:103A0000904700240DE07548005D48B9214600202C
:103A1000734A1268904773A10020494A1268904780
:103A2000641CB4F5806FEED36FA10020384A126891
:103A30009047002413E02046FFF7B6FE70B971A14D
:103A400000203F4A1268904721460020644A1268CD
:103A500090474BA100202E4A12689047641CB4F591
:103A6000806FE8D3002405E000206F4908556F49B6
:103A70000C55641CB4F5006FF6D358480078002844
:103A80003AD16BA1224A12689047684A0021084641
:103A9000FFF718FF30B971A100201D4A1268904746
:103AA00000BFFEE776A10020194A126890475E4ADF
:103AB00000210846FFF750FF30B97DA10020144ACD
:103AC0001268904700BFFEE782A10020104A1268EA
:103AD000904700240DE05448005D5449095D884238
:103AE00006D080A100200A4A1268904700BFFEE776
:103AF000641CB4F5006FEED383A10020044A126861
:103B0000904700BFFEE7FFF744FF7047903D00007D
:103B100014000010496E6974204E414E4420466CDA
:103B20006173682E2E2E000052656164204E414E56
:103B30004420466C6173682049443A20200000000C
:103B4000100000100000F1EC4572726F7220696E77
:103B50002072656164696E67204E414E4420466C58
:103B60006173682049442C2074657374696E672002
:103B70007465726D696E6174656421003C000010AB
:103B800000000000436865636B696E672076616CB6
:103B9000696420626C6F636B2E2E2E0056616C6917
:103BA0006420626C6F636B20636865636B696E672A
:103BB000206572726F722C2074657374696E672051
:103BC0007465726D696E6174656421204174206250
:103BD0006C6F636B2873293A2000000050000010BE
:103BE0002400001020202000457261736520656E5E
:103BF00074697265204E414E4420466C6173682E94
:103C00002E2E00004572617365204E414E442046C1
:103C10006C617368206661696C20617420626C6FEE
:103C2000636B3A200000000050040010900C00105C
:103C30005772697465206120626C6F636B206F66D8
:103C400020324B206461746120746F204E414E44D9
:103C500020466C6173682E2E2E0000005772697426
:103C6000696E67206661696C2C2074657374696E77
:103C700067207465726D696E61746564210000006F
:103C800052656164206261636B206120626C6F63C6
:103C90006B206F6620324B20646174612066726F06
:103CA0006D204E414E4420466C6173682E2E2E00CE
:103CB00052656164696E67206661696C2C20746569
:103CC0007374696E67207465726D696E6174656482
:103CD0002100000056657269667920646174612E66
:103CE0002E2E0000566572696679696E67206661DE
:103CF000696C2C2074657374696E67207465726DCD
:103D0000696E617465642100566572696679696ED1
:103D10006720636F6D706C657465212054657374E2
:103D2000696E67207465726D696E617465642100E7
:103D3000202A04DB203A21FA02F00021704721FA00
:103D400002F3D040C2F12002914008431946704767
:103D5000064C074D06E0E06840F0010394E80700D8
:103D600098471034AC42F6D3FCF7C0F9503F00003E
:103D7000703F000002E008C8121F08C1002AFAD1F3
:103D80007047002001E001C1121F002AFBD17047DB
:103D90002A2A2A2A2A2A2A2A2A2A2A2A2A2A2A2A83
:103DA0002A2A2A2A2A2A2A2A2A2A2A2A2A2A2A2A73
:103DB0002A2A2A2A2A2A2A2A2A2A2A2A2A2A2A2A63
:103DC0002A2A2A2A2A2A2A2A2A2A2A2A2A2A2A2A53
:103DD0002A2A2A2A2A2A2A2A2A2A2A2A2A2A2A2A43
:103DE0000A0D2048656C6C6F204E58502053656D4D
:103DF00069636F6E647563746F7273200A0D20239C
:103E0000204E414E44464C415348204B39463147A1
:103E100030385530432074657374696E67200A0D1D
:103E200009202D204D43553A204C504331373778E7
:103E30005F3878200A0D09202D20436F72653A20E3
:103E4000436F727465782D4D33200A0D09202D20A3
:103E50005541525420436F6D756E69636174696F8B
:103E60006E3A2031313532303020627073200A0DC5
:103E700020577269746520616E6420766572696688
:103E80007920646174612077697468206F6E2D6297
:103E90006F617264204E414E4420464C4153480AA3
:103EA0000D2A2A2A2A2A2A2A2A2A2A2A2A2A2A2A8F
:103EB0002A2A2A2A2A2A2A2A2A2A2A2A2A2A2A2A62
:103EC0002A2A2A2A2A2A2A2A2A2A2A2A2A2A2A2A52
:103ED0002A2A2A2A2A2A2A2A2A2A2A2A2A2A2A2A42
:103EE0002A2A2A2A2A2A2A2A2A2A2A2A2A2A2A2A32
:103EF0002A0A0D00506C6561736520656E746572E9
:103F0000206120636861722066726F6D2027302700
:103F100020746F202739272C20616E642027612FA1
:103F200041272C2027622F42272C20632F43272C48
:103F30002027642F44272C2027652F452720616EDA
:103F4000642027662F46272121210D0A000000004A
:103F5000703F00000000001050000000743D0000A1
:103F6000C03F00005000001080280000823D00008B
:103F7000000E27070087930300879303006CDC0281
:103F80000000000000000000000000000000000031
:103F90000000000000000000000000000000000021
:103FA0000000000000000000000000000000000011
:103FB0000000000000000000000000000000000001
:04000005000000E512
:00000001FF
