:020000040000FA
:1000000030FC001099010000A5010000A7010000CC
:10001000A9010000AB010000AD01000000000000DC
:10002000000000000000000000000000F9000000D7
:10003000B101000000000000390100001D7D020038
:10004000B7010000B7010000B7010000F98002000D
:10005000B7010000B701000023830200B7010000D0
:10006000B7010000B7010000B7010000B7010000B0
:10007000B7010000B7010000B7010000B7010000A0
:10008000B7010000B7010000B7010000B701000090
:10009000B7010000B7010000FD270200B701000012
:1000A000ED930200B7010000894D0200B701000086
:1000B000B7010000396A0200B7010000B701000073
:1000C000B7010000B7010000B7010000B701000050
:1000D000B7010000195E0200B7010000B70100007F
:1000E000B7010000DFF80CD022F02EF900480047DD
:1000F0009907030030FC00101F4B19680868B0E82E
:10010000F00F80F30988BFF36F8F4FF0000080F38A
:1001100011884EF00D0E7047000000000548006881
:10012000006880F3088862B6BFF34F8FBFF36F8F0C
:1001300000DF00BF08ED00E0EFF30980BFF36F8F31
:100140000D4B1A6820E9F00F106008B54FF0BF00A2
:1001500080F3118832F0F4FC4FF0000080F3118836
:10016000BDE8084019680868B0E8F00F80F3098816
:10017000BFF36F8F704700BF68500020EFF311800E
:100180004FF0BF0181F31188704780F311887047E9
:10019000EFF3058070470000074880470748804715
:1001A00007480047FEE7FEE7FEE7FEE7FEE7FEE75B
:1001B000FEE7FEE7FEE7FEE7158002003DA802002D
:1001C000E5000000C2B2C0F30721C0F307401144AC
:1001D00008440649A1FB00104008704740EA00218E
:1001E00041EA00407047FF2070470000ABAAAAAA6E
:1001F00070474FF0FF30704710B4B2F1004F08D392
:1002000050F804CBC1F800C01944521EF8D110BCFC
:100210007047012AD8BF01224FF0010C521C012A5D
:10022000DCBF10BC704700BF50F8044B0C600CF1F1
:10023000010C19446245F7DC10BC704710B4B2F1F0
:10024000004F08D3D0F800C041F804CB1844521E28
:10025000F8D110BC7047012AD8BF0122A1F1040CCB
:10026000002112F0010F03D001684CF8041F012196
:10027000521004BF10BC704703FB01F40459CCF8C2
:1002800004404C1C5C43891C04594CF8084F521E16
:10029000F2D110BC7047000070B514460D460646FA
:1002A0000BF092F90548016830464D848C840AF0C1
:1002B0009BFDBDE870400BF07FB90000605100204D
:1002C00010B504460BF080F920460DF0C5FEBDE8E0
:1002D00010400BF071B910B504460BF075F92046CB
:1002E0000DF0BEFEBDE810400BF066B902490A6889
:1002F00008601046704700002C040010FFFFFFFF4D
:10030000C1B2594A594BC0F3072CC0F3074013F848
:100310000C30105C515C00EB431000EBC1207047C7
:100320004FF6FF7070472DE9F003DFF844C1DCF8A9
:1003300000C0BCF1000F02D0BDE8F0036047DFF859
:1003400028C14A4DB2F1004F17D300BF50F8044BFB
:10035000521EE6B2C4F30727C4F30744EF5D1CF84E
:1003600004401CF8066004EB471404EBC6240C8020
:100370001944EBD1BDE8F0037047012AD8BF012230
:100380000124561C012EDCBFBDE8F003704700BFFE
:1003900050F8042B641CD7B2C2F30728C2F30742FB
:1003A00015F808801CF802201CF8077002EB4812B0
:1003B00002EBC7220A801944A642E9DCBDE8F0033B
:1003C00070472DE9F003DFF8A8C0DCF804C0BCF1E9
:1003D000000F02D0BDE8F0036047A2F1010C0CFB56
:1003E000030C01EB8200001F2249234EB2F1004FA3
:1003F00018D300BFBCF80040ACEB030C04F01F05A1
:10040000C4F3451701EBD424F75D24784D5D04EB6C
:10041000072404EB054440F80449521EEAD1BDE824
:10042000F0037047012AD8BF0122002503FB15C441
:100430006D1C2488521E04F01F07C4F3451801EBFD
:10044000D42416F808802478CF5D04EB082404EB4C
:10045000074440F80449E9D1BDE8F0037047044A75
:10046000C2E9000170470000ACAF0400ACB004006A
:100470004C510020ACB10400CCB104002DE9F04196
:10048000F94D0C460646A968686BA7190844401E3A
:1004900087429CBF3868002827D0686BA04205D2ED
:1004A00054F8040C271A3868002834D0304600F07D
:1004B00036FD05EBC000002150F8402FA260C4E9D2
:1004C0000016A119246141F8046C026804F10801C6
:1004D000002A18BF51600A6000224A600160286843
:1004E000304428603046BDE8F0817868064400F06A
:1004F00016FD29687A6805EBC000891A00F14002F0
:100500002960D7E90201002818BF4160002914BF03
:1005100008601060C1E77868064400F000FD2968B3
:100520007A6805EBC000891A00F140022960D7E91A
:100530000201002818BF4160002914BF0860106044
:100540003C46B3E7C84810B5002180F8241080224B
:100550003C300DF065F8BC220021C3480DF060F876
:100560000C22BDE810400021C0480DF059B8002809
:1005700008BF704770B505460BF026F8BA4C206BE3
:1005800010F83510002918BF022911D2042101EBFF
:10059000C50681594868FFF771FF6068401C6060BC
:1005A000216B206A8851216B002001F835002562FB
:1005B000BDE870400BF000B82DE9F05FDFF8A8B29D
:1005C0009BF82400002818BFBDE8F09F0120DFF849
:1005D0009CE28BF82400DEE9000CBCF5205F88BFAC
:1005E0004FF4205C4FEA9C05A14900224FEA5509CF
:1005F0003DB3041F002615F0010F08D0A1FB0263D4
:10060000DB09A3EB0323134444F8043F01265FEA0C
:10061000090316D0B718A1FB07A84FEAD818A8EB12
:100620000828B8447F1CC4F80480A1FB07A84FEA3F
:10063000D818A8EB08284744B61C44F8087F5B1E6E
:10064000E8D100240346002D0FD900BFA618A1FB56
:1006500006A84FEAD81853F8047BA8EB08284644AC
:10066000BE427DD1641CAC42F0D3521C022ABFD3DF
:100670004FEA5C0200234FEA52093AB3851E002775
:1006800012F0010F08D0A1FB0364E409A4EB0424D9
:100690001C4425F8024F01275FEA090616D0FC1812
:1006A000A1FB04A84FEAD818A8EB0828A044641CB2
:1006B000A5F80280A1FB04A84FEAD818A8EB0828E7
:1006C0004444BF1C25F8044F761EE8D1002504469B
:1006D000002A0ED9EE18A1FB06A84FEAD81834F864
:1006E000027BA8EB08284644BE425FD16D1C9542B0
:1006F000F0D35B1C022BC0D300244FEA5C0A00BF7E
:10070000BCF1000F27D0461E00271CF0010F08D0B7
:10071000A1FB0453DB09A3EB0323234406F8013FA9
:1007200001275FEA0A0516D03B19A1FB03984FEA9F
:10073000D818A8EB082898445B1C86F80180A1FB18
:1007400003984FEAD818A8EB08284344BF1C06F8C2
:10075000023F6D1EE8D100250346BCF1000600E013
:1007600024E00FD92E19A1FB06984FEAD81813F8E8
:10077000017BA8EB08284644BE4217D16D1C664693
:100780006545EFD3641C022CBAD3BCF1000F0DD029
:10079000401E16F0010F4FF0000118BF00F8011FB6
:1007A00022B1417000F8021F521EFAD1DEF8080093
:1007B000744610B960688008A0602F492D48086011
:1007C000084602F093FA5A20CBF81C0000200822B9
:1007D0000BF134015FF0100303FA00FCC1F808C00C
:1007E00000F1010C03FA0CFC801C41F810CF521EE2
:1007F000F2D1D4E9000281181439CBE90C1002239C
:100800000124CBE902234C60DBF80C102046491E82
:10081000012984BF4FF0040C0C2311D9DBF83010F0
:100820000CEBC005421C4A51DBF8302003EBC0053D
:10083000811C5151DBF80C10801C491E8142EDD8FF
:10084000CBF82040DBF80C00401ECBF80400DBF8AE
:100850003410DBF80800FFF711FE00F00FF9CBF8B9
:100860002C40BDE8F09F00008478002040790020F3
:100870008180808045050000CC0300102DE9F04FF9
:1008800083B00446FFF798FEDFF8F0A5DAF83C00E5
:10089000A0429CBFE01C20F0030000F10C06DAF837
:1008A0000000B04225D3DAF80410DAF82C008842B0
:1008B0000AD3401ECAF82C0000F0E0F8DAF82C1039
:1008C000491CCAF82C10A0B9DAF804004FF0040B48
:1008D000401ECAF80400DAF82000DAF830100BEBFA
:1008E000C0028A58CAF82020012201F83020009066
:1008F00018B903B00020BDE8F08F304600F00FFBC0
:1009000010284BD20AEBC001096C59B18C6862689F
:10091000B2420BD2A16829B18C686168B14205D29C
:10092000002CF7D1401C1028ECD337E0ACB365683D
:10093000DAF83C20A91B0C322846914238BF2E46DB
:1009400000F0EDFADAF8001062680AEBC000891ACC
:1009500000F14002CAF80010D4E90201002818BFD3
:100960004160002914BF08601060DAF83010009868
:100970000BEBC0000C50009800212060C4E901611D
:10098000A119246141F8046CB542C4BFA81BFFF74C
:1009900075FD009803B0BDE8F08FFFE7DAF834404A
:1009A000DAF80800611E00EB010800BFD4E9000579
:1009B000002848D16719474545D2D7E900090028E2
:1009C00041D0DAF8301011F8301001293BD1DAF8B3
:1009D0002810884214BF002001200190284600F012
:1009E0009EFA0246DAF800006168401ACAF8000070
:1009F0000AEBC20000F14002D4E90201002818BF4E
:100A00004160002914BF08601060DAF830003968CE
:100A10004A460BEBC10144503946204620F096FF70
:100A2000019828B1DAF83000391B401ACAF83000B2
:100A300004EB09012846FFF721FD014616B18E425D
:100A40007FF65BAF4D462C444445AFD3DAF8041033
:100A50000098491CCAF80410DAF830200BEBC003E8
:100A6000DAF82010D150DAF83020002102F83010E6
:100A7000CAF8200003B00846BDE8F08F2DE9F04722
:100A8000FE4C0427A06A30B3E06807EBD00145189C
:100A9000E800FFF7F3FE5FEA000904BF0120BDE8AC
:100AA000F08707EBC900216BA66A085800F1080817
:100AB000E068C200404620F049FFC4F82890C4F81E
:100AC0003080E268A81E824234D80021A81A10F0B3
:100AD000010F0ED107E0EA48D0E901100830B1FB60
:100AE000F0F0851CD4E707EBC201501C48F8010068
:100AF0000121E068281A401E401018BF0C2318D0AE
:100B0000E26801F1010C94440A44D4F8308007EB08
:100B1000C20248F802C0E26801F1020C94440A449F
:100B2000D4F8308003EBC202891C48F802C0401E92
:100B3000E6D16A1E206B07EBC2014FF0000840F8B7
:100B40000180E06820626168281A0844E5606060FE
:100B5000D6B10AF039FD206B10F83610002918BF05
:100B600002290FD207EBC60541594868FFF786FCFA
:100B70006068401C6060216B206A4851206B00F85F
:100B8000368026620AF018FD0020BDE8F08750F894
:100B9000080C7047002808BF7047B84A916B016085
:100BA000002918BF4860906370472DE9F041044662
:100BB000FFF702FDE01CB14F20F00300051DF86BAC
:100BC000A84288BF0546BC6BC4B100BF54F8041CE2
:100BD000A94210D19CB1206800281CBF6168416007
:100BE000606800281CBF21680160B96BA14204BF86
:100BF0002068B8633CE02468002CE7D10024B96881
:100C0000786B00EB010858F8040CA8EB000630687C
:100C100040B1002000F0DDF958F8040CA8EB000604
:100C2000306828BB7068A84222DB8119491B0C1D63
:100C300000F075F93968726807EBC000891A00F195
:100C400040023960D6E90201002818BF416000293E
:100C500014BF08601060B8683146401BB86038693E
:100C6000284438617068401BFFF708FC44F8045CB6
:100C70002046BDE8F081002808BF704710B5044643
:100C80000AF0A2FC2046FFF7F9FD04460AF094FCA6
:100C9000204610BD002808BF70477849042202EBA7
:100CA000C000096B08580830704774498A69521CA3
:100CB0008A610A6B02EBC00213785B1C1370002878
:100CC00008BF7047096B042202EBC00008580830C7
:100CD00070476A4902680B6B52F8082C03EBC2029A
:100CE0001378022B04D38B69002B1CBF5B1E8B6116
:100CF0001178491E117000210160084670475F4855
:100D000000680C380028D8BF002070475B48406856
:100D100070475A4881680068081A70475748C16888
:100D20004068081A704710B50024FFF745FC534986
:100D30000F2000BF01EBC002126C8AB101EBC000B2
:100D4000006C806848B14168A14288BF0C46806849
:100D500000281CBF80680028F5D1A4F10C0010BD4C
:100D6000401EB0F1FF3FE5DCF7E710B50AF02CFCC0
:100D70000024FFF721FC434B40490F2001EBC00248
:100D8000126CE2B101EBC000006C8068D8B142681F
:100D9000A24288BF1446806800281CBF80680028D3
:100DA000F5D1A4F10C00B0F5800F0FD983FB002022
:100DB0004211C969A2EBE07000FB01F40BE0401E98
:100DC000B0F1FF3FDADCA4F10C00EFE7C96948435A
:100DD000A3FB001044090AF0EFFB204610BD274892
:100DE0004169491C4161704724484169491E41617C
:100DF0007047234A106021F003005060704720497B
:100E0000102898BF102004D94A68B0EB520F28BFB1
:100E1000500888607047002140B11849042202EB55
:100E2000C000096B08584068A0F10C0108467047E3
:100E30002DE9F04106460AF0C7FB356800272DB3BF
:100E40000AF0C2FB0D4C206B10F83510002918BFBA
:100E5000022912D2042101EBC50850F80810486895
:100E6000FFF70CFB6068401C6060216B206A41F852
:100E70000800206B00F83570256205E084780020BA
:100E8000407900201F85EB510AF096FB3760BDE8E2
:100E9000F0410AF091BB2DE9F05FB1F10008814605
:100EA0004FF00005C6BF774F4FF0000ABDE8F09F36
:100EB00009EB85060AF088FB3468ECB10AF084FB84
:100EC000386B10F83410002918BF022912D20421FF
:100ED00001EBC40B50F80B104868FFF7CFFA7868A5
:100EE000401C7860396B386A41F80B00386B00F8A9
:100EF00034A03C620AF060FBC6F800A00AF05CFB7C
:100F00006D1C4545D4DBBDE8F09FA0F10A015A29CC
:100F100084BF012070475B49C86100207047594970
:100F2000D1F8B42082429CBF0F207047D1F8AC208A
:100F300082429CBF0E207047D1F8A42082429CBF01
:100F40000D207047D1F89C2082429CBF0C20704736
:100F5000D1F8942082429CBF0B207047D1F88C209E
:100F600082429CBF0A207047D1F8842082429CBFF5
:100F700009207047CA6F82429CBF082070474A6FA1
:100F800082429CBF07207047CA6E82429CBF0620E7
:100F900070474A6E82429CBF05207047CA6D8242EC
:100FA0009CBF042070474A6D82429CBF032070475B
:100FB000CA6C82429CBF022070474A6C82429CBF2E
:100FC00001207047C96B814294BF00204FF0FF3071
:100FD00070472DE9F14F2B4E4FF0040A746BB16846
:100FE000601E01EB0008606821680546002943D1B6
:100FF0006719474540D2D7E9001900293CD0326B28
:1010000012F83120012A37D1B26A914214BF4FF051
:10101000000B4FF0010BFFF782FF3168626806EBAF
:10102000C000891A00F140023160D4E902010028B1
:1010300018BF4160002914BF08601060316B386828
:101040004A460AEBC0000C503946204620F07EFC90
:10105000BBF1000F03D0306B391B401A306304EB37
:1010600009012846FFF70AFA009921B1814202D806
:101070000020BDE8F88F4D462C444445B3D30120F1
:10108000BDE8F88F847800202DE9F0470746D01B93
:101090009846401CFE4CE060FE480068407C04F02E
:1010A0002AF81828A8BF202020620828D8BF0126C7
:1010B00003DD1028D4BF02260426E06800FB06F9F1
:1010C000FFF731FE48453ABFB0FBF6F000FB06F5EE
:1010D0004D4695FBF6F0606200206760A062C4F8A0
:1010E00008802760E661E0624846FFF7C4FD2061A2
:1010F000002804BF0120BDE8F087FFF7D6FD60613E
:10110000A0610020BDE8F087E14930B40A46CB6910
:101110009269012B04D0022B50D0042B52D03EE018
:10112000DB4B0C6A4FF0000CDB6A012C06D0022C62
:1011300018D0042C25D0082C3CD030E0C3F1070394
:10114000012514789D40AC43984020431070C86A34
:10115000401CC862082822D1C1F82CC08869401CF4
:1011600088611CE0C3F10603032514789D40AC435D
:10117000984020431070C86A801CC86208280ED1AD
:10118000EAE7C3F104030F2514789D40AC4398406F
:1011900020431070C86A001DC8620828DCD0886A25
:1011A000401C8862496A88421CBF30BC704730BC12
:1011B00000F067BB10708869401CD1E71080886917
:1011C000801CCDE710608869001DC9E710B5B04CE0
:1011D000A06A002818BF00F054FB20686060A06877
:1011E000401EA0600020E06210BD10B5A84CA06AAF
:1011F000002818BF00F045FB04F11400FFF769FD5B
:101200002069BDE81040FFF7B2B970B516460D462B
:101210000446002B1CBF002060600A46D4E9013060
:10122000D4F800C03146E047A8421CBF012070BD81
:10123000606828446060002070BDF8B50E1E04464A
:101240004FF00005C8BF944F1DDDD4E90130D4F83C
:1012500000C004226946E047042801D00120F8BDFF
:101260006068001D60600098017842788078090409
:1012700041EA022108430CF035FB396841F82500AA
:101280006D1CB542E1DB0020F8BDF0B4814DDDE915
:1012900004742D68DDF818C0B5F90860361A002E00
:1012A000C8BFCCF80C60B5F90A60761A002EC8BF2A
:1012B000CCF810601044B5F90C20801A401E0028AC
:1012C000C8BFCCF80800C818B5F90E10401A401E67
:1012D0000028C8BFCCF81400102F4AD013DC012F0F
:1012E00025D0042F34D0082F1CBFF0BC7047DCF889
:1012F0000C00CCF80000DCF80810611A081ACCF8D1
:101300000400F0BC7047182F41D0202F1CBFF0BC48
:101310007047DCF80C008000CCF80000DCF8081006
:10132000A4EB8101081ACCF80400F0BC7047DCF88B
:101330000C00C010C100CCF80C10CCF80000DCF898
:101340000810A4EBE101081ACCF80400F0BC7047C7
:10135000DCF80C0040104100CCF80C10CCF8000078
:10136000DCF80810A4EB6101081ACCF80400F0BC0A
:101370007047DCF80C004000CCF80000DCF80810E6
:10138000A4EB4101081ACCF80400F0BC7047DCF86B
:101390000C0000EB4000CCF80000DCF80810A1EBDA
:1013A00081012144081ACCF80400F0BC704738B51C
:1013B000044682690021C0686160FAB1002815DD29
:1013C000D4E90001226901FB0200009068460CF09C
:1013D00087F9A169884761698847E1694968884751
:1013E0006068401C6060E1688142E9DCA068002818
:1013F00008BF38BDE0698068804738BD002817DD28
:10140000D4E90001226901FB0200009002784178D2
:101410008078120442EA0121084361698847E16942
:10142000496888476068401C6060E1688142E7DC89
:10143000A0680028DED138BD2DE9FF4399B04FF0F8
:101440000009DDE925680446CDF81890CDF828900C
:101450004FEAC800CDF82C90CDE900061546CDF82E
:101460001C9006A9279FCDF820900291CDF82490DA
:101470002946249B1C9A1A98FFF707FF18A805A96C
:10148000CDE902100EAA04961AA824AB06E00000CB
:1014900028D3001060510020DC510020CDE900026B
:1014A0001CAA06A9204600F020FA002856D1FE48C2
:1014B0000068407C03F060FECDE91107FB48139003
:1014C000061FFB4F3068B8420FD10A98DDF84CC0B8
:1014D000411924981C9A401E0B181A98DCF800C079
:1014E0000244521EE047E8B90CE01A9814901C9A86
:1014F0000A9910442944401E159116902498401EC4
:10150000084417901C98CDF84080CDF834900F9087
:10151000079DD4E90130D4F800C00CA92A46E04761
:10152000A84203D01DB00120BDE8F08360682844C4
:10153000606031680CA8884760681899084460604A
:1015400005990E9808440E902498401E2490DFD1EF
:101550003068B84202D11398C06880471DB000209F
:10156000BDE8F083F8B5D34D044619B1012908BF91
:10157000156062E0D4E90130D4F800C01022694659
:10158000E04710281CBF0120F8BD6068002610301D
:10159000606068460CF0A4F8286068460CF0A0F87B
:1015A000686068460CF09CF8A860286805F10C0497
:1015B00005F11801EE6010F0010F06D12268400815
:1015C000521C226010F0010FF8D00E600A6840082B
:1015D000521C0A6010F0010FF8D16A6805F1100082
:1015E00005F11C032E6112F0010F06D101685208AB
:1015F000491C016012F0010FF8D01E6018685208F3
:10160000401C186012F0010FF8D1A86805F1140110
:1016100005F120026E6110F0010F06D10B68400841
:101620005B1C0B6010F0010FF8D0166011684008C9
:10163000491C116010F0010FF8D10020F8BD38B539
:1016400004466A4601210020FFF78CFF00990868D4
:101650000A7B2040D040C0EB00220B7E012000FA24
:1016600003F35B1EB2FBF3F24B6891F810C023400A
:1016700023FA0CF391F81CC0C3EB032300FA0CFC13
:10168000ACF1010CB3FBFCF3D1F808C00CEA040C7C
:101690000C7D91F820102CFA04FC8840CCEB0C2C2B
:1016A000401EBCFBF0F042EA032141EA004038BD95
:1016B0002DE9F84F9146DDE90A4836220026054615
:1016C00046601F468A46D5F800C0694633468068A2
:1016D000E047362802D00120BDE8F88F6868363030
:1016E000686068460BF0F3FF0546009810300090E4
:1016F00068460BF0F5FFCAF8000068460BF0F0FFF3
:10170000C9F800000098801C009068460BF0DFFFCD
:10171000388068460BF0E4FFC8F8000000980C30F1
:10172000009068460BF0DCFF3988082904BF4FF4AD
:10173000807121600BD022DC0029CCD0012908BFA8
:10174000022103D0042908BF1021C4D12160002840
:1017500014BF20600846B0F5807FBCDCA5F59A4038
:101760004238B8D1D8F80000002818BF012803D0AB
:10177000022818BF0328AED10020BDE8F88F102939
:101780001ABF182920292660A5D1E7E70068184468
:1017900008601046704708B5844608461A22694614
:1017A0000023E0471A281CBF012008BD0098123012
:1017B000009068460BF094FF08BD00B583B000238D
:1017C000019001A81A226946FFF7E0FF1A281EBF00
:1017D000012003B000BD00981230009068460BF065
:1017E0007FFF03B000BD08B5844608461A2269464B
:1017F0000023E0471A281CBF012008BD00981630BE
:10180000009068460BF06CFF0028B8BF404208BD4E
:10181000002300B583B01A22019001A86946FFF7A2
:10182000B5FF1A281EBF012003B000BD0098163076
:10183000009068460BF054FF0028B8BF404203B048
:1018400000BD00B583B09446029100906A461946E7
:10185000604600F0AAF803B000BD00B585B0AFF255
:10186000D30C0390084603AB11466A46CDF800C07E
:10187000029300F09AF805B000BD0F490C480860CB
:10188000704730B50D4989B00D4CD1E90001CDE963
:101890000601206A01280CBF06A900210025626903
:1018A000CDE9020501200DE060510020D8030010B1
:1018B000AF13000004D30010D40300100C43030046
:1018C00028D300100090CDE9042101900346D4E90B
:1018D0000101E2680CF023FAA16A6068A56208447D
:1018E00060606069A06109B030BD2DE9F003456812
:1018F000DDE90984DDE907C6D1F80090069F4D4473
:1019000045601D68002DC2BF6D1ECCF800504FF021
:10191000FF3508BF002508DAC5F100051D604FF04E
:101920000005CCF800504FF0010535606DB3D1E9EA
:1019300004594D44D3F80090A9EB05051D60002D16
:1019400023DD3368002B0BDA4B69002B15DD45686E
:1019500004FB03534360DCF800004B69C01A0AE043
:101960000B69002B09DD456804FB03534360DCF879
:1019700000000B691844CCF80000D1E902031844B8
:101980001368181A1060002803DCBDE8F00301207A
:1019900070473868CA68104438604868201AC8F828
:1019A0000000BDE8F003002070472DE9F74FA4B018
:1019B0000E4607461FA91EA81446CDE900014FF0A8
:1019C000000B20AB0BAA12A92046FFF771FE0028DE
:1019D0001EBF012027B0BDE8F08F09F0F5FDFE4DD8
:1019E0002968C86C38442490086D129930442590B9
:1019F0002498ADF85000491E0844ADF854000B99E6
:101A00002598ADF85200491E0844ADF8560014A8B8
:101A100007F03EFF00281CBF0120219013D100F0E9
:101A20002BBB2198401C2190012808D0CDE90065EE
:101A300020AB0BAA12A92046FFF73AFE8346BBF162
:101A4000000F40F013831F9848B1012818BF0228E7
:101A500000F06B81032800F0E78200F004BBBDF8C2
:101A60008050102D7DD006DC012D1CBF042D082DCB
:101A700040F0048207E0182D00F02C81202D00F0AA
:101A8000448100F0FBB94FF0000B249808901298A5
:101A900006900B981E9FDDF894801090CDF860B0F2
:101AA000CDF864B0CDF868B0CDF86CB0CDF870B0BA
:101AB000D9465E46CDF874B0002FC8BFDFF81CA32E
:101AC0001DDDD4E90130D4F800C0042204A9E047A8
:101AD000042840F0D3816068011D61600498027899
:101AE00041788078120442EA012108430BF0FAFEA3
:101AF000DAF8001041F82600761CBE42E1DB012D29
:101B000004D0042D08D0082D0ED011E006981F3007
:101B100040114FEA80090BE006991F2000EB81007D
:101B200040114FEA800903E00698C01C20F0030929
:101B300018A80095CDE901904146109B069A089897
:101B4000FFF7A3FB17A813A9CDE9021009AA08A85B
:101B5000CDE90002CDF8109010AB06AA18A92046D6
:101B600000E037E0FFF7C1FE002804BF01269B4FCD
:101B700040F07982DDF86490D4E90130D4F800C0F7
:101B800022A94A46E047484502D0B34600F06BBA66
:101B90006068012300EB09016160386822990590B3
:101BA000CDE903610096CDE901650998069A08EB35
:101BB000000108980CF0B3F860681799014461605F
:101BC00013990998084409901098401E1090D1D19B
:101BD00000F049BA2498069012984FF0000B089034
:101BE00002461F2000EB02104011259E0B9B850032
:101BF000CDF830B0CDF838B0CDF83CB01020CDF8ED
:101C000034B0CDF840B00CA9CDF844B009930090A1
:101C1000CDE90151DFF8C88131460698FFF735FB61
:101C200018A80AA9CDE9021007AA06A8CDE9000262
:101C3000049509AB08AA0CA92046FFF756FE002818
:101C400040F0118264480068407C03F08DFA07463A
:101C50001098644D81190998089A401E0B1806982F
:101C6000D5F800C00244521EE047002840F006812B
:101C70000D9ED4E90130D4F800C019A93246E047DE
:101C8000B04240F0FB8060688119616008980026CE
:101C900000280ADD19A80BF01AFDC047B84769688B
:101CA00088470898761CB042F4DC079800281CBFCF
:101CB000A868804760681899014461600A9907988C
:101CC000084407900998401E0990D1D1E8688047E0
:101CD00000F0C9B9129B4FF01F0C03EB43060CEB4D
:101CE000C60CDDE924154FEA6C1C4FEA8C0C0B9AEC
:101CF000CDE9002C0027032620462A46CDE90267BD
:101D0000FFF79AFB834600F0AEB9129BDDE9241C75
:101D10000B9A9D00002704268DE8E40020466246C9
:101D2000FFF78AFB834600F09EB924990D9125990F
:101D30000A91294F1E9E0F903868DDF84890DDF813
:101D40002C80C06B0025002E00680E90C8BFDFF805
:101D50008CA01CDDD4E90130D4F800C0042209A90C
:101D6000E047042873D16068001D6060099801781D
:101D700042788078090441EA022108430BF0B2FD61
:101D8000DAF8001041F825006D1CB542E2DB0A9933
:101D90000D9D4144491E079105EB09011091491E13
:101DA0000E4F0C91D4E90130D4F800C0022208A9EA
:101DB000E047022862D16068801C6060089810F8D3
:101DC000018B089090F800A0B8F1000F23D00F9875
:101DD000012800F0188107E060510020DC5100204C
:101DE00009A90000D80300100228DBD10AF00F096E
:101DF000B9EB1A1F7ED1386805EB0806721E50F841
:101E00002910E9480068C06B0160284607990BF06B
:101E100006FE3546C6E7BAF1000F19D0BAF1010F38
:101E20002FD0BAF1020F55D00F98012879D002288F
:101E3000B8D10AF10108D4E901304FEA5806D4F8C4
:101E400000C008A93246E047B04217D16AE015E069
:101E50000C98A8420BDDD449386809680068C96B42
:101E6000086010980799421E28460BF0D8FD079885
:101E70000A99401E0D9D0790884293DA4FF0010B9E
:101E8000F1E00C98A8420BDD38680168C64800688C
:101E9000C06B016010980799421E28460BF0BFFDE9
:101EA0000A99079888420DDD38680168BE480068C5
:101EB000C06B016010980A99421E0798431E0D9846
:101EC0000BF0FEFDB8490E984FF0000B0968C96B86
:101ED0000860C8E0D4E90130D4F800C0022208A9A3
:101EE000E0470228CAD16068801C6060089810F83A
:101EF000011B00E068E0AC4B08903A681B68007872
:101F00001268DB6B6E181A6007993246A1EB000865
:101F10000B46414628460BF0D3FD3546CDF81C80D4
:101F200040E721E061688819606039680420089AF8
:101F3000CDE9020601200090CDE90421034601907D
:101F40005246284607990BF0EAFE554418F0020F56
:101F50003FF428AFD4E90130D4F800C0012208A929
:101F6000E04701282CD089E7D4E90130D4F800C03B
:101F700008A95246E047504580D1616801EB0A004C
:101F8000606039680820089ACDE9020A01200090B3
:101F9000CDE90421034601905246284607990BF0EB
:101FA000BEFE55441AF0010F3FF4FCAED4E90130F7
:101FB000D4F800C0012208A9E04701287FF45EAFF1
:101FC0006068401C6060EDE60026B8F1000FC4BFF9
:101FD0004FEA1A1BDFF8D0A17FF7E4AE386816F09D
:101FE000010F0CBF50F82B0050F82900DAF8001050
:101FF000C96B086028466D1C07990BF0DDFC761C48
:102000004645EBDBCEE6386805EB0806721E50F855
:102010002A1065480068C06B0160284607990BF0DC
:10202000FEFC3546BEE600BFBDF88000102829D072
:1020300020287FF423AFDDF84890DDE924760022E4
:102040004FEA8908114620460B9DFFF78BFA574847
:102050000421CDE90210CDE900584B4632463946FD
:102060002046FFF7E9F91FAD0DF1780607F06CFA8D
:1020700000287FF4D6AC00BF09F09EFA27B058467E
:10208000BDE8F08FDDE92457002211462046DDF837
:1020900048800B9EFFF766FA44484346CDE900604E
:1020A0003A462946204600F001F8DCE72DE9FF41D9
:1020B00090B006460020DDF86C801546079006902B
:1020C000099008900A900B90139A1F2000EB0210C1
:1020D000401184001020CDE9000406A90291294690
:1020E0001A9B1198FFF7D1F80DA80CA9CDE90210A1
:1020F00005AA11A8CDE9000204941AAB13AA06A9F7
:102100003046FFF7F2FB00281EBF002014B0BDE8E8
:10211000F08125480068407C03F026F807460A98BD
:10212000234C41191A98139A401E0B181198D4F891
:1021300000C00244521EE04748B9079DD6E901306D
:10214000D6F800C00EA92A46E047A84203D014B032
:102150000120BDE8F0817068284470601398002564
:1021600000280ADD0EA80BF0B2FAC047B847616834
:10217000884713986D1CA842F4DC059800281CBF02
:10218000A068804770680D99084470600C990598A4
:10219000084405901A98401E1A90CED1E0688047F6
:1021A00014B00020BDE8F081605100203F1600000F
:1021B000D8030010002808BF704702888A4203D85D
:1021C00042888A4228BF704780680028F5D170474E
:1021D0002DE9F0435A4D024687B02868B0F92A60CD
:1021E000C069C1691046002904BF07B0BDE8F0838B
:1021F0000B8883429CBF4B88984205D98968002987
:10220000F6D107B0BDE8F083002904BF07B0BDE8F0
:10221000F08348680988511A00EBC1043046A7785A
:102220000BF0C6FB8046286862680123816BCDE90C
:102230000237CDE90421C169CB7E8A7ECDE9002336
:102240000B7EB0F924102278B0F922000BF067FD64
:102250002868C069417E027E91421FD9C07E022E4D
:1022600001FB00F902FB00F718D002F037F8064630
:1022700002F01EF8FEF72FF829682278CB69B1F931
:102280002200B1F92410DB7E02FB030201EB0903FB
:1022900039440BF015FC3046FEF71DF840460BF0B4
:1022A00087FB28686278C369B0F922109B7E02FB25
:1022B0000311418407B0BDE8F08310B40446204800
:1022C0000068D0F81CC02046DCF81C2002B313883C
:1022D00083429CBF5388984203D99268002AF6D162
:1022E00016E0AAB110885368221A012000EBC20040
:1022F0009CF81AC0185C002900FB0CF004BF10BC4D
:10230000704713F8322002FB0CF20A6010BC7047D1
:1023100010BC00207047012008807047C06968B178
:1023200002888A429CBF4288914203D98068002873
:10233000F6D103E000281CBF012070470020704741
:10234000605100202DE9F04F80460F4640F2C32037
:1023500050434FF47A7190FBF1F085B0401C00902F
:1023600002FB02F002EBD27100EB61000290144616
:1023700000233946404600F0E2FB00980126012880
:10238000AEBFFE4D05B0BDE8F08F00BF06FB06F006
:1023900004FB04010298814247DD08EB060003902C
:1023A000296807EB0409D1F8A4104A684946904708
:1023B000A8EB060001902A684946D2F8A42052688A
:1023C0009047296807EB060B08EB0400D1F8A4102E
:1023D00081464A68594690472A68B91B8A46D2F80E
:1023E000A420484652689047F4B12A68391B8946B0
:1023F000D2F8A4200398526890472A684946019869
:10240000D2F8A420526890472868A8EB04095946DE
:10241000D0F8A4004268484690472A68514648468A
:10242000D2F8A42052689047641E08EB060003907F
:102430002A6839198946D2F8A42052689047A8EB37
:10244000060001902A684946D2F8A42052689047B5
:10245000296807EB060B08EB0400D1F8A4108146AD
:102460004A68594690472A68B91B8A46D2F8A42080
:10247000484652689047F4B12A68391B8946D2F819
:10248000A4200398526890472A6849460198D2F8D8
:10249000A420526890472868A8EB04095946D0F850
:1024A000A4004268484690472A6851464846D2F8F8
:1024B000A420526890470098761C86427FF766AF4A
:1024C00005B0BDE8F08F70B582B014460E460546E3
:1024D00009F07AF8A9480068C16C006D0D44064403
:1024E000281BADF800002819ADF80400301BADF82A
:1024F00002003019ADF80600684607F0C9F940B18E
:10250000224631462846FFF71DFF07F01DF8002838
:10251000F6D109F051F802B070BD2DE9F84F06462A
:102520000F4640F2C32050434FF47A7190FBF1F014
:1025300000F1010A02FB02F002EBD271DFF83C82EB
:1025400000EB61000090D8F8001014463244D1F836
:10255000A410301B0B68394698470125BAF1010FCA
:10256000B8BFBDE8F88F00BF05FB05F004FB040011
:10257000009988421CDD544519DDD8F8003006EB7F
:10258000050BA6EB0509D3F8A430ABF1010239190C
:102590001B6809F101009847D8F80030ABF101023F
:1025A000391BD3F8A43009F101001B689847641E59
:1025B000D8F8003032197919D3F8A430301B93467B
:1025C0001B6881469847D8F800305A46791BD3F8E3
:1025D000A43048461B6898476D1CAA45C4DABDE87C
:1025E000F88F2DE9F74F86B00C46054608F0ECFF52
:1025F000DFF888A1DAF80000C16C006D4E192044A4
:102600000790002007F044F900286AD0089840F2AB
:10261000C32148434FF47A7190FBF1F0049008987D
:102620000899404301EBD17100EB610003900898D9
:10263000304401900898301A00900498DDE907743E
:1026400000F1010B03980290DAF80010DDE90002B6
:10265000D1F8A4100B68394698470125BBF1010F4A
:102660003BDB00BF05FB05F004FB0401029881423F
:102670001CDD5C4519DDDAF8003006EB0509A6EB38
:102680000508D3F8A430A9F1010239191B6808F133
:1026900001009847DAF80030A9F10102391BD3F89C
:1026A000A43008F101001B689847641EDAF8003076
:1026B00032197919D3F8A430301B91461B68804633
:1026C0009847DAF800304A46791BD3F8A4304046E0
:1026D0001B6898476D1CAB45C4DA06F035FF00282F
:1026E000ABD109B0BDE8F04F08F066BF2DE9F04F5F
:1026F0001F46012583B08946064603FB07FA02FB05
:1027000002F81446012BBCBF03B0BDE8F08F00BF38
:1027100005FB05F000FB08F0B0FBFAF0A8EB0000A9
:102720000AF0EDFFA04218BF641E311B029131195F
:102730000446A9EB0500401CCDE9000109EB0500AA
:10274000A0F1010B0A46304600990BF068F9721EA1
:10275000009902980BF063F9012D09DD721E5946AC
:1027600002980BF05CF959463046019A0BF057F984
:102770006D1CBD42CCDD03B0BDE8F08F6051002080
:102780002DE9FF4F87B01E4617460C46054601F05F
:102790007DFF411C07EB510006EB5106099008F044
:1027A00013FFFE480068C16C4A190792006D00EBE8
:1027B00004080998101AADF8100009981044ADF8F3
:1027C0001400A8EB0600ADF8120008EB0600ADF807
:1027D000160004A807F05CF8002840D0099806FB12
:1027E00006FA00FB00F90125079F099C012E32DB48
:1027F00005FB05F000FB09F0B0FBFAF1A9EB0100C5
:102800000AF07DFFA04218BF641E391B02913919DE
:102810000446A8EB0500401CCDE9000108EB0500CB
:10282000A0F1010B0A46384600990BF0F8F87A1E21
:10283000009902980BF0F3F8012D09DD7A1E594634
:1028400002980BF0ECF859463846019A0BF0E7F87D
:102850006D1CB542CCDD06F077FE0028C3D108F030
:10286000ABFE0BB0BDE8F08F2DE9F04F89B08A4682
:1028700012990646501A591A1F4601F1010B03FB23
:1028800007F1401C08910BFB0BF14043CDE9060119
:1028900000201446012502FB04F901900090012F4D
:1028A000BCBF09B0BDE8F08F05FB05F8AAEB050039
:1028B000401C05900AEB0500401E0490089808FB98
:1028C00009F1B1FBF0F0A9EB00000AF018FFA042FB
:1028D00018BF641E311B03913119044602915D45F6
:1028E00004BF701ECDE900060EDA069808FB00F161
:1028F0000798B1FBF0F10698A0EB01000AF0FFFE8B
:10290000311A3044CDE90010DDE9010205990BF0E0
:1029100086F8009A059903980BF081F8012D09DDDE
:10292000DDE90301009A0BF07AF8DDE90102049970
:102930000BF075F86D1CBD42B6DD09B0BDE8F08F37
:102940002DE9FF4F9BB01E4617460C46054601F089
:102950009DFE1090401C07EB500106EB5000CDE9A6
:102960001D1010988142BCBF1FB0BDE8F08F1099B8
:102970001E988842BCBF1FB0BDE8F08F08F024FE4F
:1029800086480168C86C28441B90086D1D99204436
:102990001C901B98401AADF848001B980844ADF8ED
:1029A0004C001E991C98401AADF84A001C98084427
:1029B000ADF84E0012A806F06BFF002800F0BA80B8
:1029C0001E981D99404315901D981E9A00FB00F813
:1029D0001098081A1099511A1191491C4943401C2A
:1029E0004043CDE9160110991D98814203D0084655
:1029F0001E9988423CD1DDE91D49DDF854A0DDE98E
:102A00001B670125B9F1010F7DDB00BF05FB05F058
:102A100000FB08F0B0FBFAF1A8EB01000AF06FFE32
:102A2000A04218BF641E311B079131190446781B60
:102A3000401C049078190191A0F1010B0A46304620
:102A400004990AF0ECFF721E049907980AF0E7FF58
:102A5000012D09DD721E594607980AF0E0FF59461C
:102A60003046019A0AF0DBFF6D1C4D45CEDD5CE07F
:102A70001198DDE91C74401C0E9017981890169858
:102A80000A9000201B9EDDF854B001258946049071
:102A90000390012949DB00BF781B401C089078197E
:102AA000401E05FB05FA07900AFB08F0B0FBFBF19E
:102AB000A8EB01000AF023FEA04218BF641E311BE0
:102AC0000691311904460E980591854204BF701E87
:102AD000CDE903060EDA0A980AFB00F11898B1FB5B
:102AE000F0F10A98A0EB01000AF009FE311A304417
:102AF000CDE90310DDE9040208990AF090FF039A7A
:102B00000899069800E010E00AF089FF012D09DD20
:102B1000DDE90601039A0AF082FFDDE90402079964
:102B20000AF07DFF6D1C4D45B6DD06F00DFD002859
:102B30007FF459AF08F040FD1FB0BDE8F08F2DE9DC
:102B4000F84F16468046154C1D4630440F4601EBA3
:102B5000050900902168D1F8A4104A6849469047B9
:102B60002268A8EB06004946D2F8A42083465268A2
:102B700090472068B91908EB0509D0F8A4008A46E7
:102B80004268484690472268B91B0E46D2F8A420F6
:102B9000484652689047002D02E000006051002036
:102BA00008BFBDE8F88F7F1B21680098D1F8A410FA
:102BB0004A6839469047226839465846D2F8A420D8
:102BC000526890472068A8EB05055146D0F8A4004C
:102BD000426828469047226831462846D2F8A42009
:102BE000526801B0BDE8F04F104700007D4910B5B4
:102BF000002088610146B0227B480AF011FD402286
:102C0000BDE81040002179480AF00ABD75494860C6
:102C100070477449886070472DE9F04182B01C46C6
:102C200017460D46064608F0CFFC04200AF0C0FE09
:102C300080466C48C168C86C096D064407440D4461
:102C40000C44ADF80060ADF80470ADF80250ADF87A
:102C50000640684606F01CFE48B123463A4629461F
:102C600030460AF02DFF06F06FFC0028F5D14046F3
:102C70000AF09EFE08F0A0FC02B0BDE8F0812DE94C
:102C8000F041002182B0084608F0FAFA08F09CFCF6
:102C900004200AF08DFE80465248C068C16C006D69
:102CA000A1F6FF76A0F6FF7501F6FF7400F6FF7738
:102CB000ADF80060ADF80440ADF80250ADF8067014
:102CC000684606F0E5FD48B13B46224629463046B7
:102CD0000AF0F6FE06F038FC0028F5D140460AF06E
:102CE00067FE08F069FC02B0BDE8F0813D494A6921
:102CF00042604861704710B53A4CA069002818BF7F
:102D000010BD0120A06122F03BFC23F0ADF8394951
:102D100037480860084661694160606110BD70B560
:102D2000304D0126A86960B9AE6122F029FC23F07C
:102D30009BF805F11C012E4808600846696941604E
:102D400068612E20287022F03FFCE868264C011DA7
:102D5000C0E90E01091D00646161417C04F1B0000D
:102D600050F82100C1680A6B04F10801904722481D
:102D7000C4F8A400A868E061E868083060612676BD
:102D800007F082FBA064032084F8A8006FF0704075
:102D90002063606300200BF05FF96FF07F400BF061
:102DA0005FF91648286108F061FC0BF0FBF8044657
:102DB0000021084608F0C8FB07F021F908F071FC73
:102DC000204670BD10B5074C6069002808BF10BDD3
:102DD0000068002818BF804760694068606100286B
:102DE000F6D110BD545100204C790020FC79002010
:102DF000ED2B0000705100201443030080D6030027
:102E000010280BDAAA4A52F8200038B1C2681268BA
:102E10008A4208BF704700680028F7D10020704739
:102E20001028A4BF00207047A14951F820000028B5
:102E300008BF7047C168096800291CBF00680028E6
:102E4000F8D17047FDF7A6BE102BA4BF0020704735
:102E50002DE9F04106461C4615460F461C20FDF79D
:102E6000A4FE002808BFBDE8F081002F18BF07614D
:102E70000BD18F4A52F8241039B10A681AB11146A1
:102E80001268002AFBD109690161846185820021F1
:102E900001604160C0E90216BDE8F081844A8169A1
:102EA00052F82130834204BF036842F82130416860
:102EB00000291CBF02680A60016800291CBF426823
:102EC0004A60002101604160704700281CBF826990
:102ED000102AA4BF0120704710B4754C54F822107A
:102EE000002908BF44F8220036D04B6823B11946A8
:102EF0005B68002BFBD191B3C3681B68D1F80CC091
:102F0000DCF800C09C4503DD09680029F6D127E004
:102F100029B3D1F80CC0DCF800C09C4504BFB0F860
:102F200014C0BCF1010F0DD1D1F800C0BCF1000FED
:102F300007D06146DCF80CC0DCF800C09C45F3DA31
:102F400000E061B14B68002B1DBF18604A68426009
:102F500044F822004860016010BC00207047FFE781
:102F600010BC012070472DE9F04100241D460746A2
:102F700088461646102B1FDA1C20FDF716FED8B126
:102F8000B8F1000F18BFC0F810800BD1484A52F8B2
:102F9000251039B10A681AB111461268002AFBD10E
:102FA000096901618561868204604460C0E9024765
:102FB000040018BFFFF789FFE068006820B93D48AA
:102FC000006800EB850084652046BDE8F08170B4A0
:102FD0000020394DDFF8D8C0024604465CF82210C4
:102FE000D9B1CB681B68EB5CA3B18B695CF823603B
:102FF0008E4204BF0E684CF823604B68002B1CBF48
:103000000E681E600B68002B1CBF4E685E60C1E935
:103010000004084609680029E3D1521C102ADDDBB0
:1030200070BC7047002808BF704730B4204C00BF08
:10303000D0F800C000281CBF8569102D32DA54F882
:103040002510002908BF44F825002BD04A6822B17A
:1030500011465268002AFBD121B3C2681268CB68BE
:103060001B68934203DD09680029F8D11AE0C9B151
:10307000CB681B68934204BF838A012B08D10B687D
:103080002BB11946DB681B689342F8DA00E049B1BE
:103090004A68002A1DBF10604A68426044F8250053
:1030A000486001605FEA0C00C2D130BC704700008C
:1030B000FC790020605100201C4303002DE9F04101
:1030C00016460F460546002408F07EFA3246394679
:1030D00028460AF0C5FB0544002818BF641CF5D13A
:1030E00008F06AFA2046BDE8F081002808BF704762
:1030F0002DE9FF4F85B093460E46054608F064FA69
:103100003468776821B238B2401A401C029007F048
:10311000ADFC82461BF00C0F2FD00298019008984E
:10312000A8464FF00009009008F04EFADDE90021B2
:1031300040460AF095FB8044002818BF09F10109B8
:10314000F4D108F039FA0BF00C00042818BF082855
:1031500002D00C2805D010E0381409FB1A00401CDE
:1031600009E02114C1EB274009FB1A00401C00EBC9
:10317000D07001EB600060F31F44304608F08BF91B
:10318000AAF1010904902846089A02990AF01BFB4B
:1031900003904FEA244808EB090060F31F47CDE98C
:1031A00000472846039907F01CFD1BF0030108BFE8
:1031B00030880DD001290ED0022911D1B6F9042092
:1031C000B6F90010521A101A00EBD07001EB600033
:1031D000ADF8000004E0B188081A401CADF800000A
:1031E0006A462846039907F032FD2846089A029954
:1031F0000AF036FB054408EB0A0060F31F44287808
:103200000028C0D1049808F046F909B0BDE8F04F95
:1032100008F0D2B92DE9FF4FA3B01C4615460E4663
:10322000074608F0D1F9CF48D0F800C0DCF84C10C0
:10323000C8192390DCF85020901924904819259043
:10324000101926902398ADF858002598ADF85C0029
:103250002498ADF85A002698ADF85E0016A806F03E
:1032600017FB002800F0A88026992498081A2290BD
:103270003198C0F3072021903198C0F30740209087
:103280003198000E1F903298C0F307201E9032989C
:10329000C0F307401D903298000E1C9030984043B8
:1032A0001B9023981090DDE924800E90DDE93154C5
:1032B000AD4802900120DDF898A0309E1A9001F0F0
:1032C0000DF819902298401C012814BFA0F10109A3
:1032D0004FF00109E8B20D9021980C9020980B90C6
:1032E000DDE91D30DDE91B2104F0FF0CDDF87CB0C9
:1032F00044461192D04557DC0D9AACEB0202159270
:103300000C9A801A13900B98181A1290A1EB0B00CC
:10331000CDF85000A4EB0805B542B8BF701B05DB23
:10332000AAEB04008642C8BF301A07DD30B11199FC
:1033300000FB10100AF0E3F9371A00E00027159897
:103340000D99684390FBF9F00844C2B213986843A2
:1033500090FBF9F10C980844C1B2129842EA01219D
:10336000684390FBF9F30B981844C3B2149841EAF0
:103370000341684390FBF9F0584441EA00600AF0C9
:103380006FFE1A9800280E98A0EB0702109804D040
:10339000029B38442146984703E0C119029B20460E
:1033A0009847641C5445B5DD19980AF059FE06F09B
:1033B000CBF800287FF475AF08F0FEF827B0BDE821
:1033C000F08F2DE9FF4FA1B01D4616460C4607466B
:1033D00008F0FAF86348D0F800C0DCF84C10C819BF
:1033E0002190DCF850201019229088192390501950
:1033F00024902198ADF858002398ADF85C002298ED
:10340000ADF85A002498ADF85E0016A806F040FA10
:1034100000287DD023992198081A20902F98C0F376
:1034200007201F902F98C0F307401E902F98000E82
:103430001D903098C0F307201C903098C0F30740CF
:103440001B903098000E1A902E98404319902298A5
:103450001390219F24981290DDE92F544348DDF802
:103460008C902E9E099000F039FF15902098401CFA
:10347000012814BFA0F101084FF00108E8B20C9038
:103480001F980B901E980A90DDE91B01DDE919C217
:10349000E3B2DDF874B03C46CDF838C04F4553DC9C
:1034A000DDF830C0A3EB0C0314930B9BC91A1191E8
:1034B0000A99401A1090A2EB0B000F90E51BB54241
:1034C000B8BF701B05DBA9EB04008642C8BF301AE9
:1034D00008DD38B10E9900FB10100AF010F9A6EBC8
:1034E000000A01E04FF0000A1498684390FBF8F1DD
:1034F0000C980844C2B21198684390FBF8F10B98FD
:103500000844C1B21098684390FBF8F30A9800E0B1
:1035100022E01844C3B20F9842EA0121684390FBAD
:10352000F8F0584441EA034141EA00600AF098FD8E
:103530001298099BA0EB0A02139800EB0A0120469F
:103540009847641C4C45B9DD15980AF089FD05F0D3
:10355000FBFF00287FF47BAF08F02EF825B0BDE814
:10356000F08F0000605100201FDA00006FDA0000C9
:10357000F0B583B016460F46054608F025F8114C05
:103580002168C86C096D074406440D44ADF800700D
:10359000ADF80460ADF80250ADF80650684606F08C
:1035A00077F958B1206832462946D0F8A40003685C
:1035B0003846984705F0C8FF0028F3D107F0FCFF14
:1035C00003B0F0BD605100200022C0F30B00B0F545
:1035D000006FC4BFA0F500600122B0F5806FC8BFC6
:1035E000C0F500608311DFF8ECC400F03F00C0F1CB
:1035F00040003CF813104143402806D00CEB430335
:10360000C0F140005B8803FB001101F1200080093C
:10361000002A18BF4042704700F580600022C0F3C6
:103620000B00B0F5006FC4BFA0F500600122B0F53B
:10363000806FC8BFC0F500608311DFF898C400F048
:103640003F00C0F140003CF813104143402806D031
:103650000CEB4303C0F140005B8803FB001101F158
:1036600020008009002A18BF404270472DE9F84F1A
:103670000F46DDF828900646941BA3EB0708D9F8FF
:1036800000504FF0000A54EA080063D0002CD4BF69
:1036900060422046B8F1000FCCBF4146C8F100019E
:1036A00088420ADA20464446804630463E4607466F
:1036B00010461A4603464FF0010A002CCCBF2046A4
:1036C0006042A04208BF012008D03046164602469C
:1036D0006442C8F100081F464FF0FF300090FE48DA
:1036E000FE49B8F1000FD0F800C01CBF04EBD47243
:1036F0004FEA620BB8BFCBF1000B30D09CF81A2018
:10370000002A00F0FC80009A002ABCBF2A19C9F8E0
:1037100000200025002CC0F24A8100BF08FB05B044
:1037200090FBF4F0C219D9F8001000980844EA4957
:10373000C9F8000009688B7E012B00F00481022B80
:1037400000F00B81032B00F01181042B00F03F816E
:1037500000F01DB93046BDE8F84F07F0CFBBBAF115
:10376000000F63D09CF81AC0BCF1000F14D04FF0CA
:103770000008002CA4BF8A46834641DBDBF800101A
:1037800028466D1C8A7E012A0CD0022A14D0032AF6
:103790001BD0042A36D027E031463846BDE8F84F22
:1037A0000AF065B9801DC21700EB127222F00F02F9
:1037B000801A0C2820DB17E0C21700EB927222F06F
:1037C0000302801A022817DB0EE08AFB0032D310B6
:1037D000A3EBE272524202EB820200EB82000C2861
:1037E0000ADB1038022807D3D1F8A41006EB080032
:1037F0004A6801463846904708F10108A045BDDDFA
:10380000681EE0E0B64A82FB00329310A3EBE2723E
:10381000A2EB820200EBC2000C28EDDBA0F110024B
:10382000022A24BF14380228E6D3DDE79CF81A8068
:10383000B8F1000F14D04FF00008002CA4BF8A4646
:10384000834643DBDBF8001028466D1C8A7E012A84
:103850000FD0022A17D0032A1ED0042A3BD02AE018
:10386000DCF8A4003946036801B03046BDE8F04FEB
:103870001847801DC21700EB127222F00F02801A47
:103880000C281FDB17E0C21700EB927222F0030234
:10389000801A022816DB0EE08AFB0032D310A3EB5D
:1038A000E272524202EB820200EB82000C2809DB3A
:1038B0001038022806D3D1F8A41006EB08004A6895
:1038C0003946904708F10108A045BBDD681EC9F8DC
:1038D0000000BDE8F88F824A82FB00329310A3EB10
:1038E000E272A2EB820200EBC2000C28EADBA0F13C
:1038F0001002022A24BF14380228E3D3DBE7002594
:10390000002CACBF8146BDE8F88F00BF08FB05B0B6
:1039100090FBF4F03844BAF1000F0BD0D9F8002036
:103920007119D2F8A420526890476D1CA542EDDDB4
:10393000BDE8F88FD9F800107319D1F8A4104A68BF
:1039400001461846F0E7801DC31700EB137323F000
:103950000F03C01A0C2826DB19E0C31700EB937382
:1039600023F00303C01A02281DDB10E05B4B83FB2E
:1039700000C34FEAE30CACEBE3735B4203EB83035E
:1039800000EB83000C280EDB103802280BD3D1F893
:10399000A410BAF1000F06EB05004B680EBF1146EC
:1039A0000146104698476D1CA5427FF7B7AE0098B8
:1039B000002804DAD9F800002044C9F80000D9F83A
:1039C00000100098081AC9F80000BDE8F88F444BB1
:1039D00083FB00C34FEAA30CACEBE373A3EB8303BD
:1039E00000EBC3000C28DEDBA0F11003022B24BF88
:1039F00014380228D7D3CAE700B583B04FF0000CC3
:103A0000CDF804C00DF1040CCDF800C0FFF72EFE78
:103A100003B000BD2DE9F047DFF8BC90804684B0CC
:103A2000D9F800000F460C99007E1D461646012865
:103A300000F0D280A8EB060C7C1B5CEA040104BFFA
:103A400004B0BDE8F087421E0021BCF1000FBCBFEE
:103A50000121CCF1000C002CBCBF41F002016442FA
:103A6000644504DD20466446844641F00401A0021A
:103A70000CEBDC7300EB630090FBFCF08010194C46
:103A80004FEA201C00F00F0034F91C30C0F1100088
:103A90004343102807D004EB4C0CC0F11000BCF9D4
:103AA00002C00CFB003303F10800C31700EB1370D6
:103AB000001111F0040F18BFC0F5806011F0010F64
:103AC00018BFC0F5006011F0020F18BFC0F580509C
:103AD0000AE0000024430300605100206766666628
:103AE000ABAAAA2A4643030000F5806100F50060F6
:103AF0000024C0F30B00B0F5006FC4BFA0F5006058
:103B00000124B0F5806FC8BFC0F500604FEAA01A6D
:103B1000BA4B00F03F00C0F1400C33F81A00BCF182
:103B2000400F00FB0CF007D003EB4A0ACCF1400C2D
:103B3000BAF802A00AFB0C0020308009002C18BF44
:103B4000404200FB02FC0024C1F30B00B0F5006F03
:103B5000C4BFA0F500600124B0F5806FC8BFC0F5F8
:103B600000604FEAA01A00F03F0033F81A10C0F1CD
:103B700040004143402806D003EB4A03C0F1400017
:103B80005B8803FB001101F120008009002C18BFA5
:103B9000404200FB02F1BCF1000FB4BFCCF5007055
:103BA0000CF500704FEAA020B8BF40420029BDBF0D
:103BB000C1F500718912C1F1000C01F50071A8BFB7
:103BC0004FEAA12C00280FDD411C01EBD1714910F7
:103BD00000EBD07042100EE0009139464046FFF7EE
:103BE00045FD04B0BDE8F08700EBD071401E4910E0
:103BF00000EBD0704210BCF1000FC6BF0CF1010009
:103C000000EBD0700CEBDC704FEA6000CEBF0CEB29
:103C1000DC73ACF1010303EBD3735B1008EB010C15
:103C2000ADF800C007EB000CADF802C0A8EB020C29
:103C3000B21AADF804C0ADF808203144A7EB030C6C
:103C4000EA1AADF80C102844ADF80A20ADF80E00C1
:103C50000023ADF806C01A460421684607F088F92B
:103C6000D9F8002040463946527E002A08BF07F0A6
:103C700045F93046D9F800202946527E002A08BF6F
:103C800007F03CF904B0BDE8F08700B583B04FF011
:103C9000000CCDF804C00DF1040CCDF800C0FFF706
:103CA000B9FE03B000BD2DE9F04383B01C461546B4
:103CB0000E46074607F088FC51480168C86C096D3C
:103CC000074405440E440C44002005F0E1FD0028A3
:103CD0001CBF4FF000080DF104090BD0CDE900988E
:103CE000384631462A462346FFF794FE05F02CFC61
:103CF0000028F3D103B0BDE8F04307F05DBC2DE927
:103D0000F04182B00C46054607F05EFC002005F04D
:103D1000BFFD90B13A4E00270DF104083168B1F9AA
:103D20002600B1F92810CDE9008742190B19FFF7D9
:103D300071FE05F009FC0028F0D12146284606F066
:103D40000BFE02B0BDE8F04107F036BCF8B52C4ED2
:103D50000546009230680C462346B0F92810B0F9A9
:103D600026002A46FFF756FE3068C5840485F8BD54
:103D700070B582B00446002201A8214ECDE90002B0
:103D800030680D462B46B0F92810B0F926002246BF
:103D9000FFF740FE3068C484058502B070BD2DE990
:103DA000F04182B00C46064607F00EFC144D286820
:103DB000C16C006D0E440444002005F069FD00282C
:103DC0001CBF00270DF104080ED029683246234697
:103DD000B1F92600B1F92810CDE90087FFF71AFEE6
:103DE00005F0B2FB0028F0D12146304606F0C5FDB3
:103DF00002B0BDE8F04107F0DFBB00002443030040
:103E0000605100202DE9FF4F99B01C4615460E4623
:103E1000074607F0D9FB62480268D16CC8191990AF
:103E2000126D90191A9048191B9010191C9019982E
:103E3000ADF850001B98ADF854001A98ADF8520038
:103E40001C98ADF8560014A805F022FD00287DD07E
:103E50001C991A98081A401C10901B991998081A56
:103E6000401C0F9026981A994043169026980844B3
:103E7000139019980790DDE91A600690269810991A
:103E8000DDF870800090B1EB400F7FDB00990F9858
:103E9000B0EB410F7ADB16980E9013980F464FF057
:103EA000FF3935460D9086424EDC08460799084496
:103EB00006991290C81B11900E9807FB170009F085
:103EC0001EFC04461299A81BA1EB040B1199A8EB48
:103ED0000000A4EB090901EB040A0490B9F1010FF9
:103EE0001CDD0BEB0900421E17902946584609F0CD
:103EF00096FDAAEB090909F101005246294609F08D
:103F00008EFD17980499421E584609F088FD09F164
:103F100001005246049909F082FD0FE029465846F7
:103F200009F04AFD2946504609F046FD58460499D5
:103F300009F042FD5046049909F03EFD0D986D1CB4
:103F40007F1EA146A842B7DA009900E023E0069858
:103F5000441A0798621E4518681C314609F05FFD37
:103F6000621E681C414609F05AFD0098A8EB000447
:103F70000D98621E411C079809F079FD0D98621E8C
:103F8000411C069800E001E009F071FD05F0DCFA43
:103F900000287FF46EAF07F00FFB1DB0BDE8F08F77
:103FA0006051002070B582B015460E46044607F0F9
:103FB0000BFB10480068C16C006D0C4406440544BE
:103FC000ADF80040ADF80440ADF80260ADF8065021
:103FD000684605F05DFC40B12A463146204609F0AE
:103FE00046FD05F0B1FA0028F6D107F0E5FA02B077
:103FF00070BD000060510020104810B5006800241A
:1040000018B18047002818BF012405F029FE0028B8
:1040100018BF0124204610BD70B5084D0024286843
:1040200020B1804710B105F01BFE02E005F018FE3C
:1040300008B10124F3E7204670BD0000785100204C
:10404000F0B583B01C4615460E46074607F0BCFA8D
:1040500010480168C86C096D074405440E440C44BF
:10406000ADF80070ADF80450ADF80260ADF8064050
:10407000684605F00DFC48B123462A4631463846CD
:1040800009F01EFD05F060FA0028F5D107F094FA5A
:1040900003B0F0BD605100202DE9FF4F8BB01D46ED
:1040A00016460C46074607F08FFA7B480268D16C2B
:1040B000C8190B90126D88190D9050190E900B981D
:1040C000ADF820000D98ADF824000E981444ADF81A
:1040D0002600ADF8224008A805F0DAFB002851D0F0
:1040E0000E980D99001B401C07900B98081A401C55
:1040F0000690189840430590189820440A900B9811
:1041000004900D980390189807990E9F0090B1EBBA
:10411000400F33DB00990698B0EB410F2EDBDDF842
:104120002880DDF814900E46254644451EDC049890
:1041300000EB010B08460399A1EB000A06FB169061
:1041400009F0DDFAABEB00015044CDE90101024674
:104150002946029809F063FC281B391ADDE9012081
:1041600009F05DFC6D1C761EA845E7DA009829462B
:10417000381A431EDDE9032009F0A2FC05F0E4F93A
:104180000028BCD107F018FA0FB0BDE8F08F2DE978
:10419000F04F8FB0DDE9188C00EB0C07A8EB0C009A
:1041A00001EB0C04A2EB0C06A3EB0C05019007F04D
:1041B0000BFA39480268D16CC8190290126D88193F
:1041C0000390501904900298ADF830000398ADF8B0
:1041D000340004981444ADF83600ADF832400CA811
:1041E00005F056FB002851D00498001B401C0B9092
:1041F000DDE90201081A401C0A9001984043099029
:10420000019820440E900298089003980790019816
:104210000B99049F0090B1EB400F33DB00990A9893
:10422000B0EB410F2EDBDDF83880DDF824900E4630
:10423000254644451EDC0846089901EB000B07990A
:10424000A1EB000A06FB169009F059FAABEB00014E
:104250005044CDE9050102462946069809F0DFFBE6
:10426000281B391ADDE9052009F0D9FB6D1C761EE3
:10427000A845E7DA00982946381A431EDDE90720E9
:1042800009F01EFC05F060F90028BCD107F094F994
:104290000FB0BDE8F08F00006051002010B507F0AE
:1042A00093F909F0CDFF044607F086F9204610BDCA
:1042B00010B507F089F909F0C3FF09F0C4FE044600
:1042C00007F07AF9204610BD10B507F07DF909F026
:1042D000BCFF044607F070F9204610BD10B507F08A
:1042E00073F909F0B2FF09F0AEFE044607F064F975
:1042F000204610BDF8B5A0490968002914BF002266
:1043000002469E4951F82240012CD8BFF8BD9C4975
:1043100051F822305B1C41F82230012B18BFF8BD48
:10432000984B0021A3F1400C53F822505CF822C0B6
:1043300053F82260761C43F82260A64208BF43F877
:10434000221053F822606645F2D03446FEF768FD2D
:104350000090002808BFF8BDC0682121436A684664
:104360009847030008BFF8BD2246294600989847A1
:10437000F8BD81490968002914BF002202467F491F
:1043800051F822100129D8BF70477D4951F82230D9
:104390005B1E41F8223018BF704738B5794951F893
:1043A0002240803141F82240FEF73AFD009000287B
:1043B00008BF38BDC0682221426A684690470200A3
:1043C00008BF38BD21460098904738BD6A4A126838
:1043D000002A18BF00206C4A52F82030002BB8BFCA
:1043E00070476A4B43F820104FF0FF3142F820101D
:1043F0007047614A1268002A18BF00200029D8BF00
:1044000001215E4A42F8201070475B490968002983
:1044100018BF0020594951F82000002808BF01208A
:104420007047F8B55A48544900680968407C00292B
:1044300014BF00220246514951F82240012CD8BF36
:10444000F8BD4F4951F822305B1C41F82230012B56
:1044500018BFF8BD4B4B0026A3F1400153F8225082
:1044600051F822C053F82210491C43F82210A142EF
:1044700008BF43F8226053F822106145F2D00C4681
:10448000FEF7CEFC0090002808BFF8BDC0682121CF
:10449000426A68469047030008BFF8BD2246294695
:1044A00000989847F8BD3A48334900680968407C4D
:1044B000002914BF00220246304951F82210012978
:1044C000D8BF70472E4951F822305B1E41F8223088
:1044D00018BF704738B52B4951F82240803141F858
:1044E0002240FEF79DFC0090002808BF38BDC06840
:1044F0002221426A68469047020008BF38BD214623
:104500000098904738BD22491B4A09681268497CC7
:10451000002A18BF00211C4A52F82130002BB8BFD6
:1045200070471A4B43F821004FF0FF3042F821004A
:1045300070471749104A09681268497C002A18BF59
:1045400000210028D8BF01200C4A42F82100704702
:104550000F48094900680968407C002918BF0020FD
:10456000064951F82000002808BF012070470120AB
:104570000149086070470000845100203C7B002006
:10458000BC7A00207C7A0020FC7A00203C7A002053
:10459000605100203A49002288688A607047384993
:1045A0008A68002A08BF886007F06FBB10B507F063
:1045B0000BF8334BD3E90001884218BF314A06D0CB
:1045C00090420CBF304808308842F9D11860BDE8ED
:1045D000104006F0F1BF2A4B5A68C2E90001294990
:1045E000D3F800C08A420CBF274902F10801BCF190
:1045F000000F01D0614500D00A46C3E9012007F051
:1046000044BB10B5002406F0DFFF1D4BD3E90020AA
:1046100082420BD0DFF86CC0D2E9000162450CBFCA
:10462000194A08321A6013F0BBF8012406F0C4FFDF
:10463000204610BD70B50D46044613F0B1F80028B1
:1046400018BF70BD0E4B0F485A688242C2E9004540
:10465000196814BF02F108000B4809B1884200D064
:104660000246C3E90124BDE8704007F00EBB0449CF
:10467000096800291CBFD1E90021C0E90021704769
:10468000F4030010CC7B00207C7B002010B506F0EA
:104690009BFF14480068047E06F08EFF204610BD84
:1046A00010B506F091FF0F480068447E06F084FFC5
:1046B000204610BD70B5044606F086FF0948006824
:1046C000057E047606F078FF284670BD70B5044676
:1046D00006F07AFF03480068457E447606F06CFFDA
:1046E000284670BD6051002070B5044606F06CFF8E
:1046F0000448002C0068C56918BFC46106F05CFF5F
:10470000284670BD6051002070B5044606F05CFF7D
:1047100004480068B0F92A50448506F04DFF284649
:1047200070BD00006051002008B5C0690E300090D7
:10473000684608F0CCFF08BD2DE9F0430646C06985
:1047400083B00E30019091468846002401A808F0FD
:10475000BEFF0546F06900F1100101EB85070091ED
:10476000684608F0B4FF064666F30F04684608F092
:10477000AEFF60F31F44464598BF804507D8A0B2FE
:10478000A8EB000009FB007003B0BDE8F083801BBC
:10479000401C09FB00776D1EE2D103B00020BDE88C
:1047A000F0832DE9F04F85B08A46002102916849D7
:1047B00006464FF0000B09684FF00C095C46CF69C4
:1047C000F8690E30039003A808F081FF0546F869E8
:1047D000103000EB8508019001A808F078FF07462B
:1047E00067F30F0401A808F072FF60F31F44B7429B
:1047F00098BF864204D8A0B2301A09FB008B05E0AE
:10480000C01B401C09FB00886D1EE5D1CDF800B02F
:10481000BBF1000F02BF029805B0BDE8F08FBAF1FE
:10482000000F04BF0BF10200009004D0684608F0AE
:104830004EFFCAF80000684608F049FF029005B034
:10484000BDE8F08F38B5C0690C46001D0090684681
:1048500008F03DFFA070684608F039FFE070684638
:1048600008F035FF20710120208038BD2DE9F0438C
:10487000374883B00E4600684FF00C090024C76922
:10488000F8690E30019001A808F021FF0546F8698B
:10489000103000EB85080090684608F018FF0746C6
:1048A00067F30F04684608F012FF60F31F44B74235
:1048B00098BF86420AD8A0B2301A09FB00800028AF
:1048C0001EBF012003B0BDE8F08305E0C01B401C03
:1048D00009FB00886D1EDFD103B00020BDE8F08326
:1048E00038B515460090C8610C46684608F0F8FED9
:1048F0001849884218BF38BD684608F0E8FE20769F
:10490000684608F0E4FE6076684608F0E0FE84F849
:104910002000684608F0DBFE84F82100684608F0B5
:10492000D6FE84F822000120A076E0762868206078
:1049300068686060A868A060E868E0602869206135
:10494000686960612046FFF7CFFE38BD7047000000
:1049500060510020475549502DE9F047354C01463C
:1049600088B020680C22C069FFF7E6FE0690002898
:1049700004BF08B0BDE8F08706A808F0A8FE054609
:1049800006A808F0A4FE804606A808F0A0FE064689
:1049900006A808F09CFE06A808F0A2FE2168CA69D5
:1049A000B1F92A70D26902EB0009384609F000F823
:1049B000824620680122816BCDE90226CDE904916F
:1049C000C169CB7E8A7ECDE900230B7EB0F924102D
:1049D000B0F922002A4609F0A2F92068C069417E98
:1049E000027E91421BD9C07E022F01FB00F902FB1F
:1049F00000F614D0FFF772FC0746FFF759FCFBF7EF
:104A00006AFC2168B1F92200B1F92410421901EBC6
:104A10000903314409F054F83846FBF75CFC504672
:104A200008F0C6FF2068418C4144418408B0BDE8CD
:104A3000F08700006051002020F0C0BD2DE9F0415A
:104A4000044620F0BBFD184F061900BF20F0B6FD4C
:104A5000A6EB0008B8F1000FD8BFBDE8F081FFF762
:104A6000DBFAB8F1050FC8BF4FF0050806F0ACFD42
:104A70003C68FCF7B4F9250011D000BF06F09CFD9E
:104A80006D1EFBD1404620F08FFD1CB106F09CFD51
:104A9000641EFBD1FCF7A8F906F08EFDD6E7404670
:104AA00020F082FDF6E700006004001010B50C460F
:104AB0000968F023414A07F050FD4049206008464C
:104AC00010BD2DE9F05F054606F07EFD3C483D4EE9
:104AD000DFF8F4803D4ADFF8F8C03E4F3E4B3F49D7
:104AE0000468002D3CDD002C63D135680D60D8F8DA
:104AF00000504D6015688D60DCF80050CD603D6859
:104B00000D611D684D61374D3549DFF8E89029602A
:104B1000364D3549DFF8E4A02960354DC9F800501D
:104B2000DFF8D490CAF80090DFF8D8A0DFF8D09072
:104B3000CAF80090DFF8D4A0DFF8CC90CAF8009053
:104B4000AFF29709C6F80090C8F800103049156018
:104B5000CCF800102F4939602F491960012127E056
:104B600008BF002C25DD0D68002D1CBFD1F8049076
:104B7000B9F1000F1DD0D1F808A0BAF1000F1CBF89
:104B8000D1F80CB0BBF1000F13D0D1F810E0BEF19A
:104B9000000F1CBF496900290BD03560C8F8009090
:104BA000C2F800A0CCF800B0C7F800E019600021FE
:104BB000016006F001FD2046BDE8F09F58D30010CB
:104BC0008404001050040010940400109804001095
:104BD0009C040010CC510020D05100200004001093
:104BE0005BC50000C051002033C6000088040010DF
:104BF000ADC70000C451002031C900008C04001072
:104C000065C90000C85100204FCA00009004001080
:104C10008DCA0000D3CA0000A7CB0000017811F0B4
:104C2000800F04BF0846704701F0E002C02A11D08F
:104C300001F0F002E02A1CBF01207047090742780A
:104C40008078090C02F03F0241EA821100F03F0037
:104C5000084370474078C90600F03F0040EA5150D1
:104C60007047007810F0800F0BD000F0E001C029F1
:104C700004BF0220704700F0F000E02804BF0320CA
:104C800070470120704710F4784F1CBF0320704715
:104C9000C00914BF02200120704701F03F0211F447
:104CA000784F42F080030DD04FF0E00C4CEA113CFD
:104CB000C1F3851180F800C041F0800141700322EA
:104CC00083700BE0CA0904BF0122017006D04FF0C7
:104CD000C00C4CEA911101700222437010467047DB
:104CE00010B506F071FC044902480860BDE81040A8
:104CF00006F062BC804303006451002010B441EA16
:104D0000000313F0030F29D19310042B13D300BF1A
:104D100051F804CB40F804CB51F804CB40F804CB55
:104D200051F804CB40F804CB51F804CB1B1F40F8DA
:104D300004CB042BECD27BB1012BD8BF01234FF065
:104D4000010C5B1C012B07DD51F8044B0CF1010C2D
:104D500040F8044B6345F7DC02F0030241EA00032C
:104D600013F0010F28D15310042B12D331F802CBCA
:104D700020F802CB31F802CB20F802CB31F802CB7D
:104D800020F802CB31F802CB1B1F20F802CB042BFA
:104D9000ECD27BB1012BD8BF01234FF0010C5B1C7F
:104DA000012B07DD31F8024B0CF1010C20F8024B0E
:104DB0006345F7DC02F001024FEAE27C012302EBDB
:104DC0009C7C03EBAC0C11E011F8014B00F8014B9B
:104DD00011F8014B00F8014B11F8014B00F8014BA1
:104DE00011F8014B121F00F8014B5B1C9C45EBDCDA
:104DF000002A04BF10BC7047012AD8BF012201233A
:104E0000521C012ADCBF10BC704700BF11F801CB57
:104E10005B1C00F801CB9A42F8DC10BC7047000024
:104E200070B501250024102807DAFDF7F9FF20B13D
:104E3000C1688A6A294690470446204670BD70B50D
:104E400002250024102807DAFDF7EAFF20B1C16827
:104E50008A6A294690470446204670BD70B50325EE
:104E60000024102807DAFDF7DBFF20B1C1688A6A49
:104E7000294690470446204670BD70B5042500249D
:104E8000102807DAFDF7CCFF20B1C1688A6A2946ED
:104E900090470446204670BD70B5082500241028B0
:104EA00007DAFDF7BDFF20B1C1688A6A294690473D
:104EB0000446204670BD70B509250024102807DA85
:104EC000FDF7AEFF20B1C1688A6A294690470446C3
:104ED000204670BD70B50A250024102807DAFDF7BA
:104EE0009FFF20B1C1688A6A294690470446204640
:104EF00070BD70B50B250024102807DAFDF790FF70
:104F000020B1C1688A6A294690470446204670BD90
:104F100070B50C250024102807DAFDF781FF20B1B9
:104F2000C1688A6A294690470446204670BD70B51C
:104F30000D250024102807DAFDF772FF20B1C168A3
:104F40008A6A294690470446204670BD70B50E25F2
:104F50000024102807DAFDF763FF20B1C1688A6AD0
:104F6000294690470446204670BD70B5FE4801258D
:104F700000240068407C102807DAFDF751FF20B1BB
:104F8000C1688A6A294690470446204670BD70B5BC
:104F9000F548022500240068407C102807DAFDF758
:104FA0003FFF20B1C1688A6A2946904704462046DF
:104FB00070BD70B5EC48032500240068407C1028C3
:104FC00007DAFDF72DFF20B1C1688A6A29469047AC
:104FD0000446204670BD70B5E348042500240068EF
:104FE000407C102807DAFDF71BFF20B1C1688A6AF0
:104FF000294690470446204670BD70B5DA4808251A
:1050000000240068407C102807DAFDF709FF20B172
:10501000C1688A6A294690470446204670BD70B52B
:10502000D148092500240068407C102807DAFDF7E4
:10503000F7FE20B1C1688A6A294690470446204697
:1050400070BD70B5C8480A2500240068407C10284F
:1050500007DAFDF7E5FE20B1C1688A6A2946904764
:105060000446204670BD70B5BF480B25002400687B
:10507000407C102807DAFDF7D3FE20B1C1688A6AA8
:10508000294690470446204670BD70B5B6480C25A9
:1050900000240068407C102807DAFDF7C1FE20B12B
:1050A000C1688A6A294690470446204670BD70B59B
:1050B000AD480D2500240068407C102807DAFDF774
:1050C000AFFE20B1C1688A6A29469047044620464F
:1050D00070BD70B5A4480E2500240068407C1028DF
:1050E00007DAFDF79DFE20B1C1688A6A294690471C
:1050F0000446204670BD9D4951F82000C1688A6A67
:1051000008211047994A02EB800352F82000C0683A
:10511000426A1846104710B5FDF782FE002808BF06
:1051200010BDC168CA6ABDE81040022110478E4810
:1051300010B50068407CFDF773FE002808BF10BD65
:10514000C168CA6ABDE810400221104710B5FDF7DA
:1051500067FE00281CBF0069406810BD834951F8F4
:10516000200000694068704710B5FDF759FE00281F
:105170001CBF0069006810BD7C4951F8200000691F
:10518000006870472DE9F041012700240F25002613
:105190002846102D07DAFDF743FE20B1C1688A6A60
:1051A000394690470646B442B8BF34466D1EEED528
:1051B0002046BDE8F0812DE9F041022700240F25AB
:1051C00000262846102D07DAFDF72AFE20B1C16817
:1051D0008A6A394690470646B442B8BF34466D1EC7
:1051E000EED52046BDE8F0812DE9F04103270024EB
:1051F0000F2500262846102D07DAFDF711FE20B1F5
:10520000C1688A6A394690470646B442B8BF3446F8
:105210006D1EEED52046BDE8F0812DE9F041042752
:1052200000240F2500262846102D07DAFDF7F8FD8B
:1052300020B1C1688A6A394690470646B442B8BF71
:1052400034466D1EEED52046BDE8F0812DE9F041D3
:10525000082700240F2500262846102D07DAFDF721
:10526000DFFD20B1C1688A6A394690470646B442DC
:10527000B8BF34466D1EEED52046BDE8F08100284B
:1052800008BF704730F0010104BF0120704730F0C3
:10529000030104BF0220704730F0070104BF032060
:1052A000704730F00F0104BF0420704730F01F0139
:1052B00004BF0520704730F0FF0104BF082070478D
:1052C000410A18BF5FEA10310ED0C10B18BF5FEA68
:1052D000104109D0810C04BF1220704710F07F4F9D
:1052E0000CBF182020207047102070470021002894
:1052F00030D030F0010208BF012140D030F003026D
:1053000008BF022026D030F0070208BF032021D0BA
:1053100030F00F0208BF04201CD030F01F0208BF7D
:10532000052017D030F0FF0208BF082012D0420A33
:1053300018BF5FEA103224D0C20B18BF5FEA1042D8
:105340001FD0820C08BF122004D010F07F4F18BF6E
:10535000202013D0821E062A98BF08210FD9A0F161
:105360000902072A04E0000060510020FC790020B7
:1053700098BF102103D911380F2800D820210846E2
:1053800070471020E6E7000038B50D460124FDF710
:1053900047FD009050B1C0680221426A68469047BC
:1053A000020003D02946009890470024204638BDCB
:1053B00038B50D460124FDF733FD009050B1C068AB
:1053C0000921426A68469047020003D029460098A6
:1053D00090470024204638BDF8B515460E460124F6
:1053E000FDF71EFD009058B1C0680A21426A684668
:1053F0009047030004D02A4631460098984700247D
:105400002046F8BDF8B515460E460124FDF708FD07
:10541000009058B1C0680B21426A6846904703006B
:1054200004D02A4631460098984700242046F8BD0B
:1054300038B50D460124FDF7F3FC009050B1C0686B
:105440000621426A68469047020003D02946009828
:1054500090470024204638BDF8B515460E46012475
:10546000FDF7DEFC009058B1C0680321426A68462F
:105470009047030004D02A463146009898470024FC
:105480002046F8BD38B50D460124FDF7C9FC009053
:1054900050B1C0681321426A68469047020003D0A9
:1054A0002946009890470024204638BD38B50D465F
:1054B0000124FDF7B5FC009050B1C0681421426A88
:1054C00068469047020003D0294600989047002480
:1054D000204638BDF8B515460E460124FDF7A0FC60
:1054E000009058B1C0681521426A68469047030091
:1054F00004D02A4631460098984700242046F8BD3B
:10550000F8B515460E460124FDF78AFC009058B107
:10551000C0681021426A68469047030004D02A46BA
:1055200031460098984700242046F8BDF8B5154646
:105530000E460124FDF774FC009058B1C0680421A8
:10554000426A68469047030004D02A4631460098D4
:10555000984700242046F8BD38B50124FDF760FCCB
:10556000009048B1C0681721426A68469047010020
:1055700002D0009888470024204638BD38B59F499E
:10558000054601240968497C0846FDF749FC00905E
:1055900050B1C0680221426A68469047020003D0B9
:1055A0002946009890470024204638BD38B59349D5
:1055B000054601240968497C0846FDF731FC009046
:1055C00050B1C0680921426A68469047020003D082
:1055D0002946009890470024204638BDF8B5874AF0
:1055E00006460D4612680124527C1046FDF718FC51
:1055F000009058B1C0680A21426A6846904703008B
:1056000004D02A4631460098984700242046F8BD29
:10561000F8B57A4A06460D4612680124527C1046B7
:10562000FDF7FEFB009058B1C0680B21426A684646
:105630009047030004D02A4631460098984700243A
:105640002046F8BD38B56D49054601240968497CF6
:105650000846FDF7E5FB009050B1C0680621426A9C
:1056600068469047020003D02946009890470024DE
:10567000204638BDF8B5614A06460D461268012439
:10568000527C1046FDF7CCFB009058B1C068032156
:10569000426A68469047030004D02A463146009883
:1056A000984700242046F8BD38B5544905460124E2
:1056B0000968497C0846FDF7B3FB009050B1C0680B
:1056C0001321426A68469047020003D02946009899
:1056D00090470024204638BD38B548490546012486
:1056E0000968497C0846FDF79BFB009050B1C068F3
:1056F0001421426A68469047020003D02946009868
:1057000090470024204638BDF8B53C4A06460D4671
:1057100012680124527C1046FDF782FB009058B1BC
:10572000C0681521426A68469047030004D02A46A3
:1057300031460098984700242046F8BDF8B52F4A16
:1057400006460D4612680124527C1046FDF768FBA0
:10575000009058B1C0681021426A68469047030023
:1057600004D02A4631460098984700242046F8BDC8
:10577000F8B5224A06460D4612680124527C1046AE
:10578000FDF74EFB009058B1C0680421426A68469C
:105790009047030004D02A463146009898470024D9
:1057A0002046F8BD38B5154801240068407CFDF757
:1057B00037FB009048B1C0681721426A684690479D
:1057C000010002D0009888470024204638BDF8B573
:1057D00015460E460124FDF723FB009058B1C06822
:1057E0001621426A68469047030004D02A46314693
:1057F0000098984700242046F8BD00006051002022
:10580000806800220A804A80828A521E8A80008B29
:10581000401EC880704770B582B0044600200090DA
:105820000190A06815460E4660B94820FBF7BDF907
:1058300048220021A06007F0F3FEA068002804BF02
:1058400002B070BDC0E90865CDE900656A4608216F
:10585000A06920F04BFB02B070BD70B504468068B3
:1058600015460E4658B94820FBF79FF948220021FB
:10587000A06007F0D5FEA068002808BF70BDA06832
:10588000016A3160406A286070BD38B50446002066
:105890000090A0680D4658B94820FBF786F94822C9
:1058A0000021A06007F0BCFEA068002808BF38BD3A
:1058B000856200956A460A21A06920F017FB38BD71
:1058C00038B5044600200090A0680D4658B948201D
:1058D000FBF76BF948220021A06007F0A1FEA06849
:1058E000002808BF38BDC56200956A460921A06935
:1058F00020F0FCFA38BD70B50446806860B94820D5
:10590000FBF753F948220021A06007F089FEA06848
:10591000002808BF012500D0002500220121A06930
:1059200020F0E4FA284370BD00228069052120F0B0
:10593000DDBA00228069062120F0D8BA08B56A468F
:10594000009180690B2120F0D1FA08BD08B56A46A4
:10595000009180690C2120F0C9FA08BD00B583B020
:10596000CDE9001280696A460D2120F0BFFA03B02C
:1059700000BD2DE9F0410446806816460F4660B927
:105980004820FBF712F948220021A06007F048FEEA
:10599000A068002808BFBDE8F081A568B74208BF2D
:1059A000BDE8F081E0680821826A20469047D5E989
:1059B000031251434843C20868686B6B02FB07013E
:1059C00002FB060823B132463946A069984702E037
:1059D00040461BF0BBFFC5F80080BDE8F08138B53C
:1059E000044600200090A0680D4658B94820FBF7F7
:1059F000DCF848220021A06007F012FEA068002811
:105A000008BF38BD00956A460E21A06920F06EFAE5
:105A100038BD2DE9F04182B007460020009001908A
:105A200015460E46BC68B869FFF772FA8046B86939
:105A3000FFF77DFA48EA4008B869FFF787FA48EAB5
:105A40008000082839D2DFE800F004070E141E2178
:105A5000282ECDE9006530E0E1686069401A801BBE
:105A6000CDE9000529E000962169A069401A401B94
:105A700022E0E1686069401A801B00902169A069FA
:105A8000401A401B18E0CDE9005616E02169A069D4
:105A9000401A401BCDE900060FE00095E1686069FF
:105AA000401A801B08E02169A069401A401B009041
:105AB000E1686069401A801B01906A460321B86959
:105AC00020F014FA02B0BDE8F08138B50446002099
:105AD0000090A0680D4658B94820FBF766F84822A8
