:020000040000FA
:1000000028240010F900000005010000070100008D
:10001000090100000B0100000D01000000000000BC
:100020000000000000000000000000000F010000C0
:100030001101000000000000130100001501000084
:100040001701000017010000170100001701000050
:10005000170100004F1900001701000017010000F0
:100060001701000017010000170100001701000030
:100070001701000017010000170100001701000020
:100080001701000017010000170100001701000010
:100090001701000017010000170100001701000000
:1000A00017010000170100001701000017010000F0
:1000B00017010000170100001701000017010000E0
:1000C00017010000170100001701000017010000D0
:1000D00017010000170100001701000017010000C0
:1000E00017010000DFF80CD001F064FD0048004764
:1000F000791B0000282400100748804707488047E4
:1001000007480047FEE7FEE7FEE7FEE7FEE7FEE7FB
:10011000FEE7FEE7FEE7FEE7990500006D1A000026
:10012000E500000070B506460D4636B1012E12D02E
:10013000022E1ED0032E3ED129E04448006820F054
:100140001F0405F01F0040EA04044148C0F80441C0
:1001500000F0D6F831E03F48006820F01F0405F0B9
:100160001F0040EA04043A48C0F8A84100F0C8F86B
:1001700023E03948006820F0010405F0010040EA5E
:1001800004043348C0F8004100F0BAF815E03348E1
:10019000006820F01F0405F01F0040EA04042C480A
:1001A000D0F8080105F01F0140EA01002B49086062
:1001B00000F0A6F801E000BFFEE700BF70BD0146F9
:1001C00031B1012907D0022908D003290CD108E058
:1001D00023480068704723480068FBE7224800680E
:1001E000F8E722480068F5E700BFFEE7012907D1DC
:1001F0001F4A126842EA0002154BC3F8C42007E008
:1002000031B91B4A126822EA0002114BC3F8C4201C
:10021000704700201749086030BF70470420164916
:10022000086000201349086030BF7047042012495D
:10023000086001200F49086030BF704704200E4954
:10024000086003200B49086030BF704704C10F40AD
:1002500000C00F40A8C10F4000C10F4008C10F40AF
:100260000000001004000010080000100C00001036
:10027000C4C00F40C0C00F4010ED00E02DE9F05F9A
:100280000546002092469B46884606468146402405
:100290001BE0284641464746224601F07BFC534678
:1002A0005A46C01A914110D311461846224600F012
:1002B00016F82D1A67EB01084F462246012000214F
:1002C00000F00DF817EB00094E41201EA4F10104C7
:1002D000DFDC484631462A464346BDE8F09F202AE7
:1002E00004DB203A00FA02F1002070479140C2F18D
:1002F000200320FA03F3194390407047FFFFFFFFEC
:1003000030B5D848006810F4807F6BD1D6480068BB
:1003100010F0010F2CD1D348006810F01F0F01D14D
:10032000002006E0CF48006800F01F00CF49B1FB75
:10033000F0F0CF490860CF48006810F01F0F01D1DE
:10034000002006E0CB48006800F01F00C749B1FB61
:10035000F0F0C9490860C948006800F0010000F1E8
:100360000100C3490968B1FBF0F0C5490860B6E077
:10037000C448006810F0400F07D10020BC49086055
:10038000BD490860BE490860A9E0B648006810F0A1
:100390001F0F01D1002006E0B248006800F01F00E6
:1003A000B249B1FBF0F0B2490860B248006810F001
:1003B0001F0F01D1002006E0AE48006800F01F00CA
:1003C000AA49B1FBF0F0AC490860AC48006800F005
:1003D000010000F10100A6490968B1FBF0F0A8494D
:1003E00008607CE0A848006810F4807F07D10020F6
:1003F0009F490860A0490860A14908606FE09A48D9
:10040000006810F0010F2ED19F4C246804F01F04E7
:1004100004F101009D4CD4F8044104F01F01954CF7
:10042000246804F01F02994CD4F8004104F0010440
:1004300004F1010309B9002403E08C4C4443B4FBEC
:10044000F1F48B4D2C600AB9002403E0874C44433F
:10045000B4FBF2F4884D2C60854C2468B4FBF3F4B3
:10046000874D2C603BE08748006810F0400F07D1B3
:1004700000207F49086080490860814908602EE0BB
:10048000814C246804F01F0404F101007F4CD4F86F
:10049000044104F01F01774C246804F01F027B4CD8
:1004A000D4F8004104F0010404F1010309B9002467
:1004B00003E06E4C4443B4FBF1F46D4D2C600AB97B
:1004C000002403E0694C4443B4FBF2F46A4D2C6011
:1004D000674C2468B4FBF3F4694D2C6000BF6C4892
:1004E000006810F4807F31D06948006810F01F0068
:1004F00004D0042806D0062823D104E00020654952
:10050000086022E000BF604A126802F01F0202F198
:1005100001005E4AD2F8082102F01F01524A126817
:1005200012F0010F06D0514A4243B2FBF1F2594B8F
:100530001A6005E04D4A4243B2FBF1F2554B1A6096
:1005400003E000205349086000BF24E050480068E1
:1005500010F4007F1CD04448006810F0010F0BD04D
:100560004D48006800F01F0000F101003F4900FB0A
:1005700001F0484908600EE04348006800F01F00A1
:1005800000F10100394900FB01F04249086002E036
:1005900000204049086030BD00B52120394908607D
:1005A00000BF3848006810F0400FFAD001202E49F3
:1005B00008604FF009003549C1F884004FF0010090
:1005C000364908604FF0AA00354908604FF05500E1
:1005D000086000BF2C48006810F4806FFAD0232018
:1005E000304908604FF001002849C1F8A0004FF0E1
:1005F000AA002D4908604FF055002449C1F8AC000D
:1006000000BF2548006810F4806FFAD040F2011056
:100610001449086040F201201C49C1F808014FF05C
:100620000100164908604FF00200124908601F4897
:100630001F4908604FF480701449C1F8C80108468A
:10064000D0F8B00140F003001A49086045F23A00C2
:100650000E4908604FF0000017490860FFF750FE90
:1006600000BD000004C10F400CC10F40001BB700CB
:1006700000000010A8C10F400400001000C10F408E
:1006800008000010A0C10F4088C00F4000C00F40FC
:1006900008C10F400C000010A8C00F4080C00F40E0
:1006A0008CC00F40A4C00F40ACC00F40DE872804B0
:1006B000C4C00F40B0C10F4008ED00E010B50246C5
:1006C000002001EB4213F74C04EB830010BD0246FF
:1006D0000520062A4AD2DFE802F0032F393A3B3DD3
:1006E000062907DD0A2901DB0B2903DD0E2903DBBF
:1006F000162901DC00201EE00C2905D00D2903D0AD
:10070000172903DB1A2901DC012014E01D2903D07D
:100710001E2901D01F2901D102200CE01B2901D084
:100720001C2901D1032006E0072903D0082901D0A4
:10073000092900D104201AE01D2901DC002004E071
:100740001E2901D01F2900D1012010E000BF00BFE9
:1007500000200CE0012901DD042901D1002004E082
:10076000022901D0032900D1032000E000BF00BF0F
:1007700070472DE9F04106460F46154600243946DC
:100780003046FFF7A4FF8046B8F1050F02D1C648F6
:10079000BDE8F08139463046FFF790FF04462068F7
:1007A00020F00700206005F0070120680843206062
:1007B0000020EDE72DE9F041074688461646002463
:1007C00041463846FFF783FF0546052D02D1B6485E
:1007D000BDE8F08135B1012D04D0042D02D0B2481E
:1007E000401CF5E741463846FFF768FF044620689D
:1007F00020F018002060182101EAC6012068084393
:1008000020600020E4E72DE9F041074688461646BF
:10081000002441463846FFF75AFF0546052D02D110
:10082000A148BDE8F08125B1042D02D09E48401CAE
:10083000F7E741463846FFF741FF044626B92068EE
:1008400020F02000206003E0206840F020002060BD
:100850000020E6E72DE9F0410746884615460024CA
:1008600041463846FFF733FF0646052E02D18E4833
:10087000BDE8F081022E02D18B48401CF8E74146CA
:100880003846FFF71BFF044625B9206820F04000DA
:10089000206003E0206840F0400020600020E7E78F
:1008A0002DE9F04107468846164600244146384661
:1008B000FFF70DFF0546052D02D17B48BDE8F0810D
:1008C00025B1042D02D07848401CF7E74146384650
:1008D000FFF7F4FE044626B9206820F4007020607B
:1008E00003E0206840F4007020600020E6E72DE976
:1008F000F041074688461546002441463846FFF732
:10090000E6FE0646052E02D16748BDE8F081032EBB
:1009100002D06548401CF8E741463846FFF7CEFE56
:10092000044625B1206820F48070206003E0206830
:1009300040F4807020600020E7E72DE9F041074691
:1009400088461546002441463846FFF7C0FE064655
:10095000052E02D15448BDE8F081032E02D0524842
:10096000401CF8E741463846FFF7A8FE044625B18B
:10097000012D0CD0022D1ED113E001224146384634
:10098000FFF7B5FF206820F40070206016E0002219
:1009900041463846FFF7ABFF206820F40070206026
:1009A0000CE0012241463846FFF7A1FF206840F4E1
:1009B0000070206002E04FF0FF30CCE700BF002065
:1009C000C9E72DE9F041074688461646002441460E
:1009D0003846FFF77CFE0546052D02D13248BDE8BA
:1009E000F08135B1012D04D0042D02D02E48401CD9
:1009F000F5E741463846FFF761FE044626B9206810
:100A000020F48060206003E0206840F48060206073
:100A10000020E4E72DE9F04107468846154600240A
:100A200041463846FFF753FE0646052E02D11E48C2
:100A3000BDE8F081012E02D01B48401CF8E741467A
:100A40003846FFF73BFE044625B1206820F08000C1
:100A5000206003E0206840F0800020600020E7E78D
:100A60002DE9F04105460E4617460024314628463A
:100A7000FFF72DFE8046B8F1050F02D10A48BDE808
:100A8000F0810DB91A2E02D00748401CF7E7314615
:100A90002846FFF713FE044647B1206840F4803033
:100AA000206007E000C0024001000010206820F430
:100AB000803020600020E2E72DE9F04107468846BB
:100AC0001646002441463846FFF701FE0546052D2F
:100AD00002D10D48BDE8F081012D04D0042D02D0D3
:100AE0000948401CF6E741463846FFF7E7FD044653
:100AF00026B1206820F48070206003E0206840F474
:100B0000807020600020E5E7010000100146002011
:100B100021B1022904D0032906D103E0F74804E0FB
:100B2000F74802E0F74800E000BF00BF70472DE93A
:100B3000F34F8BB08846002009900120FFF73FFB60
:100B400008904FF0FF30039000200690824600216D
:100B50000C460D46012648E0002007903DE007982E
:100B6000304400FB08F700210907089841EA1011FA
:100B700002070023A2FB060C01FB06C102FB0311C6
:100B80003A46CDE90001FFF779FBCDE90401DDF834
:100B900010B0DDF81490BBF1004F03D9CBF1000B7E
:100BA00009F10109B9F1000F02D0B9F5803F00D970
:100BB00010E0039883450CD2CDF80CB000254C46CC
:100BC00007980690B246DDF80CB0BBF1000F00D1DB
:100BD00006E000BF0798401C07900798B042BED3BC
:100BE00000BF039800B902E0761C0F2EB4D900BFF5
:100BF000002184EA01006940084302D10DB0BDE83C
:100C0000F08F0898000900FB0AF70698504400216D
:100C1000A0FB042301FB043100FB05100346CDE9D2
:100C2000002038460021FFF729FB029002988045FA
:100C300004D90298A8EB0000039003E00298A0EB0F
:100C400008000390642103984843B0FBF8F0039038
:100C50000398032858D20B98012819D1AA48007B81
:100C600040F08000A8490873200A40EA0560087136
:100C70000C700846007B00F07F000873F02000EA4B
:100C80000A10069901F00F0108439F49886239E074
:100C90000B9804281BD19D48C06840F080009B49F8
:100CA000C860200A40EA0560C0B24860E0B208604F
:100CB0000846C06800F07F00C860F02000EA0A1013
:100CC000069901F00F010843904988621AE00B98D9
:100CD000FFF71CFF0746387B40F080003873200A7E
:100CE00040EA056038713C70387B00F07F00387353
:100CF000F02000EA0A10069901F00F01084387F876
:100D0000280000BF01200990099877E72DE9F041FC
:100D100006460F46052E3CD2DFE806F0033C0405EC
:100D20006C0000BF00BF3046FFF7F0FE054626B955
:100D300001210820FFF75AFA0CE0022E04D101210C
:100D40000806FFF753FA05E0032E03D101214806F8
:100D5000FFF74CFA072028720020287200E02C7858
:100D6000287D10F0010FFAD1802085F8300000BFF7
:100D7000287D10F0200FFBD0002085F8300068603F
:100D80002873286285F84C0085F8540085F85000D7
:100D90002C7D57E001211020FFF728FA07205A493F
:100DA00008720020087201E0574804785648007D18
:100DB00010F0010FF8D180205549087000BF52484B
:100DC000007D10F0200FFAD00020514908704E49E4
:100DD00048600873086281F84C004E4908704A491F
:100DE00081F850000846047D4FF000000874084662
:100DF000047E27E001210802FFF7F8F907204349A4
:100E000088600020886001E0404804683F484069ED
:100E100010F0010FF8D101203C49C86500BF3B48E4
:100E2000406910F0200FFAD000203849C8654860AA
:100E3000C8600862C86448650865084644690020BF
:100E4000486200BF00BF30463968FFF770FE012ED0
:100E500004D12D48007B00F0C0040EE0042E04D124
:100E60002A48C06800F0C00407E03046FFF74EFE95
:100E70000546287B00F0C00400BF787930B1012816
:100E800006D0022807D0032808D108E000BF09E0F7
:100E900044F0010406E044F0020403E000BF44F023
:100EA000030400BF00BF3879C0B144F008043879AA
:100EB000012806D0022806D0032807D004280BD129
:100EC00007E000BF09E044F0100406E044F020040D
:100ED00003E044F0300400E000BF00BFB87928B15F
:100EE000012802D144F0040401E000BF00BF00BFAC
:100EF000012E11D10448047319E0000000C0004025
:100F00000080094000C009400000014000400A4044
:100F10003000014054000140042E02D1F748C46063
:100F200005E03046FFF7F2FD05462C7300BFBDE833
:100F3000F08170B504460D46012D1DD1012C07D15D
:100F4000EF48007840F08000EE4981F830002FE053
:100F5000042C06D1E948C06D40F00100E749C8659E
:100F600026E02046FFF7D2FD064696F8300040F016
:100F7000800086F830001BE0012C07D1E0480078A3
:100F80004FF00000DF4981F8300011E0042C05D15A
:100F9000DA48C06D0020D949C86509E02046FFF74E
:100FA000B5FD064696F83000002086F8300000BFF8
:100FB00070BD10B5044600212046FFF7BAFF24B9E2
:100FC00000210820FFF712F91BE0012C04D10021B9
:100FD0001020FFF70BF914E0022C04D10021E005EA
:100FE000FFF704F90DE0032C05D100214FF000704C
:100FF000FFF7FCF805E0042C03D10021A001FFF766
:10100000F5F810BD4FF4E131016003214171002179
:10101000017181717047052813D2DFE800F00306E3
:10102000090C0F00B84A11700BE0B64A117008E0C5
:10103000B64A117005E0B64A117002E0AF4A11607D
:1010400000BF00BF70470146052914D2DFE801F058
:101050000306090C0F00AC4800787047A9480078D7
:10106000FBE7AA480078F8E7A9480078F5E7A34825
:101070000068C0B2F1E70020EFE72DE9FF4F81B033
:1010800080468A469346574600200090B8F1050FE7
:1010900018D2DFE808F003070B0F13009A4814304A
:1010A00000900FE09748143000900BE09748143000
:1010B000009007E096481430009003E08F48143009
:1010C000009000BF00BF5C460498012824D1002591
:1010D0001FE04FF0FF3905E0B9F1000F00D106E045
:1010E000A9F101090098006810F0200FF4D000BFAA
:1010F000B9F1000F00D10EE0102607E017F8011B30
:101100004046FFF788FF761E641E6D1C0EB1002C52
:10111000F4D1002CDDD119E0002514E004B914E06D
:101120000098006810F0200F00D10EE0102607E0B4
:1011300017F8011B4046FFF76EFF641E761E6D1CFC
:101140000EB1002CF4D1002CE8D100BF284605B028
:10115000BDE8F08F2DE9F04F0646884691469B4644
:1011600045464FF0000A052E1DD2DFE806F00308C1
:101170000D121700DFF890A10AF1140A15E0DFF84C
:1011800084A10AF1140A10E0DFF880A10AF1140A20
:101190000BE0DFF87CA10AF1140A06E0DFF85CA19D
:1011A0000AF1140A01E000BFFEE700BF4A46BBF1A6
:1011B000010F19D1002414E04FF0FF3702E007B906
:1011C00005E07F1EDAF8000010F0010FF7D000BF35
:1011D00007B908E03046FFF736FF05F8010B521E4D
:1011E000641C002AE8D111E000240CE0DAF80000C9
:1011F00010F0010F00D108E03046FFF724FF05F89A
:10120000010B641C521E002AF0D100BF2046BDE82D
:10121000F08F052827D2DFE800F0030A11181F001D
:101220003949097B41F04001374A11731BE03549C8
:10123000097B41F04001334A117314E03349097BC3
:1012400041F04001314A11730DE03149097B41F011
:1012500040012F4A117306E02849C96841F0400156
:10126000264AD16000BF00BF7047F0B504460D4666
:1012700000210026052C1DD2DFE804F003080D1222
:1012800017002149091D40F2073613E01D49091DC9
:1012900040F28F360EE01D49091D40F2073609E085
:1012A0001B49091D40F2073604E01449091D40F2AC
:1012B000073600BF00BF072D15D2DFE805F0040692
:1012C000080A0C0E110001200FE002200DE004209E
:1012D0000BE0082009E0802007E04FF4807004E074
:1012E0004FF4007001E000BFFEE700BF012A11D1FA
:1012F0000B6800EA06073B430B6010E000400A4021
:10130000300001400000014000C000400080094062
:1013100000C009400B6826EA00073B400B60F0BDA7
:101320000146052914D2DFE801F00306090C0F007D
:10133000FE48007D7047FE48007DFBE7FD48007DCC
:10134000F8E7FD48007DF5E7FC484069C0B2F1E7E9
:101350000020EFE70146052922D2DFE801F003096A
:101360000F151B00F148806840F2CF3210407047E3
:10137000EF48806840F2CF321040F8E7ED488068CF
:1013800040F2CF321040F2E7EB48806840F2CF32B3
:101390001040ECE7E948806840F2CF321040E6E7C1
:1013A0000020E4E70146002205291DD2DFE801F014
:1013B00003080D121700DD48007D00F0400213E025
:1013C000DB48007D00F040020EE0DA48007D00F0CE
:1013D000400209E0D848007D00F0400204E0D74810
:1013E000406900F0400200BF00BF12F0400F01D082
:1013F000002070470120FCE710B50246002040F0B5
:101400000100CB7833B1012B06D0022B07D0032B80
:1014100008D108E000BF09E040F0400006E040F0DD
:10142000800003E000BF40F0C00000BF00BF4B7869
:10143000012B01D140F004000B78012B01D140F0C9
:1014400002008B78012B01D140F00800052A1DD243
:10145000DFE802F003080D12170000F0CF03B34CD1
:10146000237213E000F0CF03B14C23720EE000F0C2
:10147000CF03B04C237209E000F0CF03AE4C2372CF
:1014800004E000F0CF03AD4CA36000BF00BF10BD6F
:1014900000218170C17001210170417070472DE9F8
:1014A000F0410746884615460026012D0BD198F8D5
:1014B0000000012801D146F0020698F80100012839
:1014C00001D146F00406012F19D1012D13D19848FE
:1014D000007B40F080009649087300200870087176
:1014E0000846007B20F0800008731020886246F0D8
:1014F000010008623AE000208D49086236E0042FBE
:1015000019D1012D13D18D48C06840F080008B495E
:10151000C8600020086048600846C06820F080006D
:10152000C8601020886246F0010008621EE00020BA
:10153000824908621AE03846FFF7E8FA0446012DAE
:1015400011D1207B40F0800020730020207020719A
:10155000207B20F080002073102084F8280046F0C3
:101560000100206201E00020206200BFBDE8F081A0
:1015700070B505460C46012D05D16D48006A204323
:101580006B4908620FE0042D05D16C48006A2043C6
:101590006A49086207E02846FFF7B8FA0646306A4B
:1015A0002043306200BF70BD042800D0704701297D
:1015B00006D1624A526A42F00202604B5A6206E069
:1015C00029B95E4A526A02F03D025C4B5A6200BF82
:1015D000ECE7042800D07047012906D1574A526A27
:1015E00042F00102554B5A6205E0544A526A02F039
:1015F0003E02524B5A6200BFEDE730B5042800D0DE
:1016000030BD4C07A30E4D4C646A24F0380243F001
:101610000404224302F03F04484D6C6200BFEFE730
:1016200030B50023012800D030BD11B1012904D10B
:1016300001E0012302E0022300E000BF00BF012A15
:1016400005D13B4C247C1C43394D2C7406E0384CAE
:10165000247CF3259D432C40354D2C7400BFE3E7DB
:1016600030B50346012B00D030BD21B1012904D093
:10167000022906D103E0102004E0402002E080208F
:1016800000E000BF00BF012A05D1294C247C04439F
:10169000274D2C7406E0264C247CF32585432C40F2
:1016A000234D2C7400BFDFE70146012901D0002043
:1016B00070471F48007EFBE72DE9F05F07460C46A8
:1016C0000025012F0AD1DFF8688008F15408A8F13D
:1016D0000409174E0C36A9F1040A19E0042F0AD1A7
:1016E000DFF8588008F15408A8F10409134E0C36AD
:1016F000A9F1040A0CE03846FFF708FA83460BF11B
:1017000054080BF150090BF10C060BF14C0A00BF09
:10171000E07801281BD145F010056079012801D13E
:1017200045F02005207901280ED109E000C00040D5
:10173000000001400080094000C0094000400A400C
:10174000012F01D145F00805E079C8F800002078A4
:10175000012801D145F00105A078012804D145F008
:101760000405A079C9F80000607808B945F00205C1
:10177000CAF80050306840F038003060BDE8F09F93
:101780002DE9F04105460E46012D01D1394C0AE004
:10179000042D01D1384C06E02846FFF7B7F907467B
:1017A00007F1540400BF012E04D1206820F002008C
:1017B000206003E0206840F002002060BDE8F08176
:1017C0002DE9FF4F81B006468B469846012E04D185
:1017D000284C483C274D403D0FE0042E04D1264CB8
:1017E000483C254D403D08E03046FFF78FF98246E2
:1017F0000AF10C040AF1140500BFB8F1000F14D06F
:101800002068C7B2B94629F01009C4F80090012336
:1018100059463046039AFFF730FC009000BF286815
:1018200010F0400FFBD027600BE0012359463046F3
:10183000039AFFF722FC009000BF286810F0400FC9
:10184000FBD0009805B0BDE8F08F13B50446012326
:101850001A4601A92046FFF7B3FF1CBD70B5044628
:101860000D4616460023324629462046FFF7A8FFBC
:1018700070BD00005400014054400A4010B50022E1
:1018800001211046FFF7F1FC00BF0020FFF78AFDA1
:101890000128FAD011E0B94842681030111800232D
:1018A00001221846FFF7E9FB30B1B4484068401CFC
:1018B000C0B2B249486000E007E0B0480068C0B27A
:1018C000AE494968C9B28842E5D100BFAB4800685B
:1018D000C0B2AA494968C9B2884208D10022012190
:1018E0001046FFF7C2FC0020A549087007E0012060
:1018F000A3490870012211460020FFF7B6FC10BD75
:1019000038B51FE00023012269461846FFF722FC84
:101910000446B4B19948C068C1B298488068401C78
:10192000C0B281420ED09DF800109448826800F544
:101930008870815491488068401CC0B28F4988608B
:1019400000E000E0DEE700BF38BD00BFFEE770B595
:101950000020FFF7FFFC064606F00E04062C09D116
:101960000020FFF7DDFC054605F09E0515B1284671
:10197000FFF7EBFF042C01D00C2C01D1FFF7C0FFC7
:10198000022C01D1FFF77AFF70BD2DE9F0418046AE
:101990000D4614462E460027002201214046FFF73F
:1019A00064FC0DE031787548026810308154761C73
:1019B00010380068401CC0B2704908607F1C641E6B
:1019C00044B16E484068C1B26C480068401CC0B267
:1019D0008142E7D16A48007810B9FFF74FFF04E071
:1019E000012211464046FFF740FC3846BDE8F08131
:1019F0002DE9F04180460D4614462E460027002270
:101A000011464046FFF731FC0EE05C48C16800F526
:101A10008870405C3070761C5848C068401CC0B26A
:101A20005649C8607F1C641E3CB154488068C0B2EF
:101A30005249C968C9B28842E7D101220021404613
:101A4000FFF713FC3846BDE8F08170B540F2E514AD
:101A500000254C4E07E0224631460020FFF795FF57
:101A600005462E44641B002CF5D170BD0020704744
:101A700086B0012202210020FEF77BFE0122032115
:101A80000020FEF776FE04A8FFF7BCFA04A90020A8
:101A9000FFF73CF903A8FFF7FBFC03A90020FFF7C1
:101AA000ABFC01210020FFF744FA01220021084687
:101AB000FFF7DBFB012202210020FFF7D6FB00200D
:101AC0002F4908702D498860C8600860486005206B
:101AD0000921002804DACA002B4B071FDA5502E05F
:101AE000CA002A4B1A5400BF052001218140420937
:101AF0004FF0E02303EB8202C2F8001100BFFFF7B2
:101B0000A4FF00262CE0002505E00A2269460020FB
:101B1000FFF76EFF0546002DF7D000241EE01DF8EC
:101B200004001B2806D1222219490020FFF72DFFAF
:101B3000012612E01DF80400722808D10DEB040103
:101B400001220020FFF721FFFFF77FFF05E00DEBEB
:101B5000040101220020FFF718FF641CAC42DED311
:101B6000002ED0D000BF0020FFF71CFC0028FAD1C7
:101B7000FFF71FFA00BFFEE7FFF77AFF1802001019
:101B8000170200101000001018ED00E000E400E063
:101B9000F5010010202A04DB203A21FA02F000218E
:101BA000704721FA02F3D040C2F12002914008436D
:101BB00019467047064C074D06E0E06840F0010307
:101BC00094E8070098471034AC42F6D3FEF78EFA3B
:101BD000581C0000781C000070B58D1810F8014BDF
:101BE00014F0030201D110F8012B231106D110F8D3
:101BF000013B03E010F8016B01F8016B521EF9D1B3
:101C0000B3B110F8012B04F00C048A1A0C2C04D088
:101C1000A2EB841203F1020308E010F8014BA2EBDF
:101C20000422F7E712F8014B01F8014B5B1EF9D5CE
:101C3000A942D3D3002070BD02E008C8121F08C11A
:101C4000002AFAD170477047002001E001C1121F3D
:101C5000002AFBD170470000781C00000000001033
:101C600018020000D81B0000AC1D00001802001074
:101C700010220000481C00003009000E27070087D2
:101C800093030400074D6CDC020A0D2A01101D0AA3
:101C90000D2048656C6C6F204E58502053656D695F
:101CA000636F6E647563746F7273201C10175541F7
:101CB000525420496E746572727570742065786133
:101CC0006D706C651A501409202D204D43553A2033
:101CD0004C5043313737785F3878165014436F7261
:101CE000653A2041524D20434F525445582D4D33B3
:101CF00030314D3019436F6D6D756E696361746974
:101D00006F6E3A203131353230302062706F70059D
:101D10005468697365E00D7573656420746F207491
:101D200065737489100577697468212006696E6788
:101D300020720510086275666665722ECE20182026
:101D40002B20506C65617365207072657373206120
:101D50006E79206B657949500A6265206563686F0A
:101D60006564273120200427722765201772652DAE
:101D700073686F77207468652077656C636F6D6535
:101D80002073745CA12D40044553439204085272A1
:101D90006D696E61746590D404000A0D76900464D8
:0C1DA000656D7400050064210000000067
:04000005000000E512
:00000001FF
