:020000040000FA
:1000000050160010F9000000050100000701000073
:10001000090100000B0100000D01000000000000BC
:100020000000000000000000000000000F010000C0
:100030001101000000000000130100001501000084
:100040001701000017010000170100001701000050
:100050001701000017010000170100001701000040
:100060001701000017010000170100001701000030
:100070001701000017010000170100001701000020
:1000800017010000170100003126000017010000D1
:100090001701000017010000170100001701000000
:1000A00017010000170100001701000017010000F0
:1000B00017010000170100001701000017010000E0
:1000C00017010000170100001701000017010000D0
:1000D00017010000170100001701000017010000C0
:1000E00017010000DFF80CD002F0DEFB00480047EB
:1000F000E527000050160010074880470748804752
:1001000007480047FEE7FEE7FEE7FEE7FEE7FEE7FB
:10011000FEE7FEE7FEE7FEE7B9050000EF27000077
:10012000E50000002DE9F04104460E4601210803D8
:1001300000F0CFFE002020604FF40017012000F0F7
:10014000B1FE8046C6EB461505EB48006900B0FBE2
:10015000F1F0451E47EA05272760BDE8F08110B59C
:100160000446206800F0E06018B1206820F0E060EC
:100170002060206820F0FF002060206820F400103C
:10018000206000214FF4805000F0A3FE10BD014616
:100190003D4850F82120C2F30B107047026822F04E
:1001A000E0620260026842EA01620260704702682F
:1001B00022F48032026019B1026842F48032026097
:1001C0007047026822F40012026019B1026842F41A
:1001D000001202607047026822F00062026019B1EA
:1001E000026842F000620260704710B5C3680124E3
:1001F0008C40A343C36022B1C46801238B401C43DD
:10020000C46010BD10B5012A05D1036801248C40DB
:10021000234303600CE0036803F0E0631BB1036851
:1002200023F0E0630360046801238B409C43046077
:1002300010BD024602F1100050F82130C3F30B103C
:10024000704710B503460C4603F1100050F8241017
:1002500012B101F0004101E001F0804109B101203B
:1002600010BD0020FCE701464868704702460B4677
:10027000516813B101F0004101E001F0804109B182
:10028000012070470020FCE7104003402DE9F05F9B
:100290000546002092469B468846064681464024F5
:1002A0001BE0284641464746224602F0ECFA5346F8
:1002B0005A46C01A914110D311461846224602F000
:1002C000D3FA2D1A67EB01084F4622460120002180
:1002D00002F0CAFA17EB00094E41201EA4F10104F6
:1002E000DFDC484631462A464346BDE8F09F02E03F
:1002F00008C8121F08C1002AFAD17047FFFFFFFF8C
:1003000030B5E248006800F48070002872D1DF4800
:100310000830006800F0010070BBDC48006800F0A5
:100320001F0008B9002006E0D848006800F01F0050
:10033000D749B1FBF0F0D7490860D448A430006831
:1003400000F01F0008B9002007E0D048A430006882
:1003500000F01F00CE49B1FBF0F0CF490860CB4858
:10036000001F006800F00100401CCA490968B1FB89
:10037000F0F0CA490860BEE0C4489C30006800F054
:10038000400038B90020C3490860C3490860C34928
:100390000860B0E0BD48006800F01F0008B9002008
:1003A00006E0BA48006800F01F00B949B1FBF0F060
:1003B000B8490860B548A430006800F01F0008B9CB
:1003C000002007E0B148A430006800F01F00B049E9
:1003D000B1FBF0F0B0490860AC48001F006800F0C5
:1003E0000100401CAB490968B1FBF0F0AB49086063
:1003F00081E0FFE7A5487C38006800F4807038B9D8
:100400000020A4490860A4490860A449086072E07B
:100410009E480830006800F0010070BB9B4C7C3C9B
:10042000246804F01F04601C9D4CD4F8044104F0BF
:100430001F01964CA434246804F01F02984CD4F891
:10044000004104F00104631C09B9002403E0904C4E
:100450004443B4FBF1F48F4D2C600AB9002403E04F
:100460008B4C4443B4FBF2F48B4D2C60894C2468D4
:10047000B4FBF3F4894D2C603DE0FFE783489C30EA
:10048000006800F0400038B90020824908608249C5
:100490000860824908602EE07C4C7C3C246804F0B3
:1004A0001F04601C7E4CD4F8044104F01F01774CFB
:1004B000A434246804F01F02794CD4F8004104F0FD
:1004C0000104631C09B9002403E0714C4443B4FBEC
:1004D000F1F4704D2C600AB9002403E06C4C4443E5
:1004E000B4FBF2F46C4D2C606A4C2468B4FBF3F45A
:1004F0006A4D2C6000BF6548001D006800F48070E4
:1005000098B36248001D006800F01F0020B1042865
:1005100006D0062824D104E000206249086023E0C8
:1005200000BF5A4A7C3A126802F01F02501C5C4A13
:10053000D2F8082102F01F01544A0832126802F072
:10054000010232B1524A4243B2FBF1F2554B1A60FA
:1005500005E04F4A4243B2FBF1F2524B1A6003E00E
:1005600000205049086000BF25E0FFE74748001D14
:10057000006800F40070D8B144480830006800F00A
:10058000010050B141485C38006800F01F00401C79
:100590003F494843434908600DE03C487C380068C7
:1005A00000F01F00401C3A4948433E49086002E001
:1005B00000203C49086030BD00B5212033499C3102
:1005C000086000BF31489C30006800F040000028FF
:1005D000F8D001202D490831086009203049C1F8C0
:1005E000840001202E4980310860AA2027497839EB
:1005F00008605520086000BF24487C38006800F47B
:1006000080600028F8D0232020496039086001204C
:100610002349C1F8A000AA201C4958390860552078
:100620001F49C1F8AC0000BF18485C38006800F4EE
:1006300080600028F8D040F201101449086040F2B0
:1006400001201749C1F8080101201049091F08605D
:1006500002200E49A431086013480C494039086053
:1006600088150F49C1F8C8010846D0F8B00140F01C
:1006700003000649AC31086045F23A0008490860B9
:1006800000200A490860FFF73BFE00BD04C10F408F
:10069000001BB7000000001004000010080000104C
:1006A00000C00F400C000010DE87280408ED00E0B9
:1006B00013B5044601231A4601A9204601F032F978
:1006C0001CBD38B504460020009001231A46694637
:1006D000204601F095F99DF8000038BD70B505463B
:1006E0000C460CB9002070BD00230122214628468B
:1006F00001F086F908B10120F5E70020F3E770B5B5
:1007000006460D462C4604E014F8011B3046FFF760
:10071000CFFF20780028F7D170BD2DE9FF4F83B0BF
:100720000C4615461E46002002900190002D03DC69
:10073000306007B0BDE8F08F4FF00008012C01D108
:10074000102003E00CB90A2000E000208246BAF134
:10075000000F02D100203060EBE7002785E0012088
:10076000019001231A4602A9039801F049F99DF866
:100770000800302808DB9DF80800392804DC9DF8C3
:100780000800A0F1300B37E0012C33D14FF0100AF4
:100790009DF80800612811D008DCA0F1410006286E
:1007A00024D2DFE800F00C1014181C206238052851
:1007B0001CD2DFE800F0070B0F13170000BF4FF04B
:1007C0000A0B16E000BF4FF00B0B12E000BF4FF01A
:1007D0000C0B0EE000BF4FF00D0B0AE000BF4FF016
:1007E0000E0B06E000BF4FF00F0B02E0002001905F
:1007F00000BF01E000200190012000900198B0B9F5
:1008000024B9F5A10398FFF77AFF05E0012C03D185
:10081000FC490398FFF773FF08F10108B8F10A0FCC
:1008200023D3F9A10398FFF76AFF002081E79DF821
:1008300008100398FFF73CFF012D03D1AA460120C1
:1008400000900CE04FF0010907E0009800FB0AF06F
:10085000009009F1010000F0FF09A945F5DB0098BF
:100860000BFB00FB5F44681EC5B2002D3FF777AF5E
:10087000376001205DE770B504460D4629462046E5
:10088000FFF73DFFECA12046FFF739FF70BD2DE9D2
:10089000F04105460C460A2094FBF0F100FB1140A4
:1008A000C6B20A2094FBF0F00A2190FBF1F201FBA2
:1008B0001200C7B2642094FBF0F090FBF1F201FB50
:1008C000120000F0FF0808F13000C1B22846FFF71F
:1008D000EFFE07F13000C1B22846FFF7E9FE06F14E
:1008E0003000C1B22846FFF7E3FEBDE8F0812DE9F4
:1008F000F04705460C460A2094FBF0F100FB11403E
:10090000C6B20A2094FBF0F00A2190FBF1F201FB41
:100910001200C7B2642094FBF0F090FBF1F201FBEF
:10092000120000F0FF084FF47A7094FBF0F090FB97
:10093000F1F201FB120000F0FF0942F2107094FB8B
:10094000F0F090FBF1F201FB120000F0FF0A0AF157
:100950003000C1B22846FFF7ABFE09F13000C1B24A
:100960002846FFF7A5FE08F13000C1B22846FFF780
:100970009FFE07F13000C1B22846FFF799FE06F14D
:100980003000C1B22846FFF793FEBDE8F0872DE99D
:10099000F34F83B00C460A20B4FBF0F100FB114585
:1009A000B4FBF0F00A21B0FBF1F201FB1206642067
:1009B000B4FBF0F0B0FBF1F201FB12074FF47A70D8
:1009C000B4FBF0F0B0FBF1F201FB120842F2107040
:1009D000B4FBF0F0B0FBF1F201FB12099748B4FB55
:1009E000F0F0B0FBF1F201FB120A9548B4FBF0F015
:1009F000B0FBF1F201FB120B9248B4FBF0F0B0FB3C
:100A0000F1F201FB120002908F48B4FBF0F0B0FB52
:100A1000F1F201FB120001908C48B4FBF0F0B0FB46
:100A2000F1F201FB1200009000983030C1B203983F
:100A3000FFF73EFE01983030C1B20398FFF738FE51
:100A400002983030C1B20398FFF732FE0BF130004C
:100A5000C1B20398FFF72CFE0AF13000C1B203982F
:100A6000FFF726FE09F13000C1B20398FFF720FE20
:100A700008F13000C1B20398FFF71AFE07F1300009
:100A8000C1B20398FFF714FE06F13000C1B203981B
:100A9000FFF70EFE05F13000C1B20398FFF708FE24
:100AA00005B0BDE8F08F2DE9F04107460D4601265F
:100AB00000BFB00045FA00F000F00F04092C02DD81
:100AC00004F1370001E004F13000C1B23846FFF70D
:100AD000EFFD3000A6F10101CEB2EAD1BDE8F08110
:100AE0002DE9F04107460D4659A13846FFF707FEAC
:100AF000012600BFB00045FA00F000F00F04092CF9
:100B000002DD04F1370001E004F13000C1B23846E3
:100B1000FFF7CEFD3000A6F10101CEB2EAD1BDE86B
:100B2000F0812DE9F04107460D46032600BFB000D5
:100B300045FA00F000F00F04092C02DD04F1370043
:100B400001E004F13000C1B23846FFF7B1FD3000DA
:100B5000A6F10101CEB2EAD1BDE8F0812DE9F04164
:100B600007460D463AA13846FFF7C9FD032600BFE8
:100B7000B00045FA00F000F00F04092C02DD04F18A
:100B8000370001E004F13000C1B23846FFF790FDB4
:100B90003000A6F10101CEB2EAD1BDE8F0812DE925
:100BA000F04107460D46072600BFB00025FA00F0C9
:100BB00000F00F04092C02DD04F1370001E004F11C
:100BC0003000C1B23846FFF773FD3000A6F10101D5
:100BD000CEB2EAD1BDE8F081506C656173652065E5
:100BE0006E746572206120636861722066726F6D39
:100BF0002027302720746F202739272121210D0A33
:100C000000000000342900005265616368206C69AF
:100C10006D69746174696F6E206F662072652D74E2
:100C2000726965732E2052657475726E2046414953
:100C30004C45440D0A0000000A0D0000A08601008A
:100C400040420F008096980000E1F50500CA9A3BEB
:100C5000307800002DE9F04107460D46AFF2100153
:100C60003846FFF74CFD072600BFB00025FA00F01C
:100C700000F00F04092C02DD04F1370001E004F15B
:100C80003000C1B23846FFF713FD3000A6F1010174
:100C9000CEB2EAD1BDE8F08110B50446052C3BD2B6
:100CA000DFE804F0030E19242F00012202210020A6
:100CB00000F0ADF901220321002000F0A8F92DE099
:100CC00001220F21002000F0A2F9012210210020B2
:100CD00000F09DF922E001220A21002000F097F99E
:100CE00001220B21002000F092F917E002221146A8
:100CF000002000F08CF902220321002000F087F987
:100D00000CE003221621002000F081F903220921C2
:100D1000022000F07CF901E000BFFEE700BF10BD3B
:100D20001CB52A48007818B901202849087000E04D
:100D30001CBD0020FFF7B0FF684600F0B7FD694614
:100D4000002000F031FC0121002000F045FDAFF251
:100D500051601F490860AFF2E1401E490860AFF2E0
:100D6000AF601D490860AFF287201C490860AFF2F0
:100D700013201B490860AFF223101A490860AFF234
:100D8000D92019490860AFF2652018490860AFF210
:100D9000F11017490860AFF2095016490860AFF228
:100DA000B14015490860AFF2194014490860AFF22C
:100DB000ED6013490860AFF29D6012490860AFF220
:100DC000E3601149086000BFB2E700004C0000106A
:100DD000100000101400001018000010280000106F
:100DE0002C000010300000103400001038000010FB
:100DF0003C0000101C000010200000102400001017
:100E000040000010480000104400001070B5064675
:100E10000D4636B1012E11D0022E1DD0032E3DD12C
:100E200028E04648006820F01F0405F01F00044336
:100E30004348C0F80441FFF763FA31E03F48A4306B
:100E4000006820F01F0405F01F0004433C48C0F870
:100E5000A841FFF755FA23E03848001F006820F04A
:100E6000010405F0010004433548C0F80041FFF7D4
:100E700047FA15E03148001D006820F01F0405F016
:100E80001F0004432E48D0F8080105F01F01084355
:100E90002A49091D0860FFF733FA01E000BFFEE7A9
:100EA00000BF70BD014631B1012907D0022908D029
:100EB00003290CD108E023480068704722480068E5
:100EC000FBE722480068F8E721480068F5E700BF23
:100ED000FEE7012907D1194A403A12680243184B2C
:100EE000C3F8C42007E031B9144A403A126882437B
:100EF000134BC3F8C42070470020104944390860E0
:100F000030BF704704201349086000200B49443962
:100F1000086030BF704704200E490860012007496F
:100F20004439086030BF704704200A490860032034
:100F300002494439086030BF7047000004C10F40C7
:100F400000C00F4000000010040000100800001056
:100F50000C00001010ED00E010B50246002001EB7F
:100F60004213F74C04EB830010BD02460520062A0D
:100F70004AD2DFE802F0032F393A3B3D062907DD6C
:100F80000A2901DB0B2903DD0E2903DB162901DC0D
:100F900000201EE00C2905D00D2903D0172903DB02
:100FA0001A2901DC012014E01D2903D01E2901D0DB
:100FB0001F2901D102200CE01B2901D01C2901D1DD
:100FC000032006E0072903D0082901D0092900D110
:100FD00004201AE01D2901DC002004E01E2901D0B4
:100FE0001F2900D1012010E000BF00BF00200CE04D
:100FF000012901DD042901D1002004E0022901D0EA
:10100000032900D1032000E000BF00BF70472DE995
:10101000F04106460F461546002439463046FFF794
:10102000A4FF8046B8F1050F02D1C648BDE8F081A3
:1010300039463046FFF790FF0446206820F007004D
:10104000206005F007012068084320600020EDE7DC
:101050002DE9F041074688461646002441463846A9
:10106000FFF783FF0546052D02D1B648BDE8F081A4
:1010700035B1012D04D0042D02D0B248401CF5E753
:1010800041463846FFF768FF0446206820F0180004
:101090002060182101EAC601206808432060002072
:1010A000E4E72DE9F041074688461646002441460C
:1010B0003846FFF75AFF0546052D02D1A148BDE885
:1010C000F08125B1042D02D09E48401CF7E741462F
:1010D0003846FFF741FF044626B9206820F020007B
:1010E000206003E0206840F0200020600020E6E758
:1010F0002DE9F0410746884615460024414638460A
:10110000FFF733FF0646052E02D18E48BDE8F08179
:10111000022E02D18B48401CF8E741463846FFF7C3
:101120001BFF044625B9206820F04000206003E042
:10113000206840F0400020600020E7E72DE9F04102
:10114000074688461646002441463846FFF70DFFFD
:101150000546052D02D17B48BDE8F08125B1042D5F
:1011600002D07848401CF7E741463846FFF7F4FEC6
:10117000044626B9206820F40070206003E020684F
:1011800040F4007020600020E6E72DE9F0410746BA
:1011900088461546002441463846FFF7E6FE0646D7
:1011A000052E02D16748BDE8F081032E02D06548C4
:1011B000401CF8E741463846FFF7CEFE044625B10D
:1011C000206820F48070206003E0206840F4807084
:1011D00020600020E7E72DE9F041074688461546E4
:1011E000002441463846FFF7C0FE0646052E02D1D0
:1011F0005448BDE8F081032E02D05248401CF8E765
:1012000041463846FFF7A8FE044625B1012D0CD013
:10121000022D1ED113E0012241463846FFF7B5FFEB
:10122000206820F40070206016E000224146384615
:10123000FFF7ABFF206820F4007020600CE0012273
:1012400041463846FFF7A1FF206840F40070206057
:1012500002E04FF0FF30CCE700BF0020C9E72DE9E6
:10126000F041074688461646002441463846FFF7B7
:101270007CFE0546052D02D13248BDE8F08135B12E
:10128000012D04D0042D02D02E48401CF5E7414624
:101290003846FFF761FE044626B9206820F48060D6
:1012A000206003E0206840F4806020600020E4E7D4
:1012B0002DE9F04107468846154600244146384648
:1012C000FFF753FE0646052E02D11E48BDE8F08109
:1012D000012E02D01B48401CF8E741463846FFF774
:1012E0003BFE044625B1206820F08000206003E02A
:1012F000206840F0800020600020E7E72DE9F04101
:1013000005460E461746002431462846FFF72DFEB7
:101310008046B8F1050F02D10A48BDE8F0810DB949
:101320001A2E02D00748401CF7E731462846FFF73F
:1013300013FE044647B1206840F48030206007E087
:1013400000C0024001000010206820F480302060BE
:101350000020E2E72DE9F0410746884616460024C2
:1013600041463846FFF701FE0546052D02D10D48DE
:10137000BDE8F081012D04D0042D02D00948401CA5
:10138000F6E741463846FFF7E7FD044626B12068F8
:1013900020F48070206003E0206840F480702060BA
:1013A0000020E5E7010000100146002021B10229DC
:1013B00004D0032906D103E0F74804E0F74802E02F
:1013C000F74800E000BF00BF70472DE9F34F8BB036
:1013D0008846002009900120FFF764FD08904FF037
:1013E000FF30039000200690824600210C460D46F7
:1013F000012648E0002007903DE00798304400FBBC
:1014000008F700210907089841EA10110207002394
:10141000A2FB060C01FB06C102FB03113A46CDE913
:101420000001FEF733FFCDE90401DDF810B0DDF86F
:101430001490BBF1004F03D9CBF1000B09F1010966
:10144000B9F1000F02D0B9F5803F00D910E0039840
:1014500083450CD2CDF80CB000254C460798069079
:10146000B246DDF80CB0BBF1000F00D106E000BFC2
:101470000798401C07900798B042BED300BF03985E
:1014800000B902E0761C0F2EB4D900BF002184EA17
:1014900001006940084302D10DB0BDE8F08F089803
:1014A000000900FB0AF7069850440021A0FB042322
:1014B00001FB043100FB05100346CDE9002038464E
:1014C0000021FEF7E3FE02900298804504D90298BD
:1014D000A8EB0000039003E00298A0EB0800039043
:1014E000642103984843B0FBF8F003900398032865
:1014F00058D20B98012819D1AA48007B40F08000EF
:10150000A8490873200A40EA056008710C70084673
:10151000007B00F07F000873F02000EA0A100699B3
:1015200001F00F0108439F49886239E00B980428B5
:101530001BD19D48C06840F080009B49C860200ACC
:1015400040EA0560C0B24860E0B208600846C06882
:1015500000F07F00C860F02000EA0A10069901F050
:101560000F010843904988621AE00B98FFF71CFFAF
:101570000746387B40F080003873200A40EA056057
:1015800038713C70387B00F07F003873F02000EA3F
:101590000A10069901F00F01084387F8280000BFE0
:1015A00001200990099877E72DE9F04106460F469A
:1015B000052E3ED2DFE806F0033E0405720000BFB0
:1015C00000BF3046FFF7F0FE054626B9012108208E
:1015D000FFF77FFC0CE0022E04D101210806FFF783
:1015E00078FC05E0032E03D101214806FFF771FCCA
:1015F000072028720020287200E02C78287D00F057
:1016000001000028F9D1802085F8300000BF287D36
:1016100000F020000028FAD0002085F83000686033
:101620002873286285F84C0085F8540085F850002E
:101630002C7D5DE001211020FFF74BFC072059496C
:1016400008720020087201E0564804785548007D71
:1016500000F001000028F7D1802052493031087095
:1016600000BF5048007D00F020000028F9D0002085
:101670004C49303108704B4948600873086281F862
:101680004C00484954310870464981F850000846DA
:10169000047D002008740846047E29E00121080228
:1016A000FFF717FC0720404988600020886001E0B0
:1016B0003D4804683C48406900F001000028F7D12B
:1016C00001203949C86500BF3748406900F0200053
:1016D0000028F9D000203449C8654860C860086215
:1016E000C86448650865084644690020486200BF30
:1016F00000BF30463968FFF768FE012E04D1294843
:10170000007B00F0C0040EE0042E04D12648C0681F
:1017100000F0C00407E03046FFF746FE0546287B90
:1017200000F0C00400BF787930B1012806D002284B
:1017300007D0032808D108E000BF09E044F0010405
:1017400006E044F0020403E000BF44F0030400BFDD
:1017500000BF3879C0B144F008043879012806D0B8
:10176000022806D0032807D004280BD107E000BFC9
:1017700009E044F0100406E044F0200403E044F0E3
:10178000300400E000BF00BFB87980B101280DD15E
:1017900044F004040CE0000000C000400080094058
:1017A00000C009400000014000400A4000BF00BFE7
:1017B00000BF012E02D1F7490C730BE0042E03D1B8
:1017C000E0B2F549C86005E03046FFF7EDFD05469B
:1017D0002C7300BFBDE8F08170B504460D46012DA5
:1017E0001ED1012C08D1EB483030007840F0800049
:1017F000E84981F830002FE0042C06D1E648C06D9E
:1018000040F00100E449C86526E02046FFF7CCFD22
:10181000064696F8300040F0800086F830001BE065
:10182000012C07D1DB48303000780020D94981F8FD
:10183000300011E0042C05D1D748C06D0020D649F6
:10184000C86509E02046FFF7AFFD064696F8300070
:10185000002086F8300000BF70BD10B5044600219E
:101860002046FFF7B9FF24B900210820FFF731FB1C
:101870001BE0012C04D100211020FFF72AFB14E00B
:10188000022C04D10021E005FFF723FB0DE0032C1F
:1018900005D100214FF00070FFF71BFB05E0042C81
:1018A00003D10021A001FFF714FB10BD4FF4E1317B
:1018B0000160032141710021017181717047052888
:1018C00014D2DFE800F00306090C0F00B34B1970C7
:1018D0000CE0B04B197009E0B14B197006E0B14B48
:1018E000197003E0CAB2AC4B1A6000BF00BF70476A
:1018F0000146052914D2DFE801F00306090C0F00A8
:10190000A64800787047A3480078FBE7A448007811
:10191000F8E7A4480078F5E79F480068C0B2F1E70F
:101920000020EFE72DE9FF4F81B080468A469346BD
:10193000574600200090B8F1050F18D2DFE808F0F4
:1019400003070B0F13009548143000900FE09148E7
:10195000143000900BE092481430009007E091485A
:101960001430009003E08C481430009000BF00BF9A
:101970005C460498012825D1002520E04FF0FF396E
:1019800005E0B9F1000F00D107E0A9F101090098C5
:10199000006800F020000028F3D000BFB9F1000F6C
:1019A00000D10EE0102607E017F8011B4046FFF7B4
:1019B00086FF761E641E6D1C0EB1002CF4D1002C27
:1019C000DCD119E0002514E004B914E000980068A7
:1019D00000F0200000B90EE0102607E017F8011B08
:1019E0004046FFF76CFF641E761E6D1C0EB1002C86
:1019F000F4D1002CE8D100BF284605B0BDE8F08F37
:101A00002DE9F04705460F46904699463C464FF073
:101A1000000A052D1DD2DFE805F003080D1217009E
:101A2000DFF878A10AF1140A15E0DFF868A10AF1DD
:101A3000140A10E0DFF868A10AF1140A0BE0DFF8DD
:101A400064A10AF1140A06E0DFF84CA10AF1140AB5
:101A500001E000BFFEE700BF4246B9F1010F1AD115
:101A6000002315E04FF0FF3602E006B906E0761ECF
:101A7000DAF8000000F001000028F6D000BF06B937
:101A800008E02846FFF734FF04F8010B521E5B1CE8
:101A9000002AE7D111E000230CE0DAF8000000F0A2
:101AA000010000B908E02846FFF722FF04F8010B07
:101AB0005B1C521E002AF0D100BF1846BDE8F0871B
:101AC000052827D2DFE800F0030A11181F00334968
:101AD000097B41F04001314A11731BE02D49097B1C
:101AE00041F040012B4A117314E02D49097B41F06C
:101AF00040012B4A11730DE02A49097B41F0400156
:101B0000284A117306E02449C96841F04001224A7D
:101B1000D16000BF00BF7047F0B504460B460021FE
:101B20000025052C1DD2DFE804F003080D12170074
:101B30001A49091D40F2073513E01649091D40F204
:101B40008F350EE01649091D40F2073509E01549A9
:101B5000091D40F2073504E00F49091D40F2073521
:101B600000BF00BF072B1FD2DFE803F00406080AFE
:101B70000C0E1100012019E0022017E0042015E0EE
:101B8000082013E0802011E04FF480700EE04FF445
:101B900000700BE00000014000400A4000C000401F
:101BA0000080094000C0094000BFFEE700BF012AD5
:101BB00005D10E6800EA05073E430E6004E00E689A
:101BC00025EA00073E400E60F0BD0146052914D20B
:101BD000DFE801F00306090C0F00FE48007D7047A6
:101BE000FD48007DFBE7FD48007DF8E7FC48007DEF
:101BF000F5E7FC484069C0B2F1E70020EFE7014695
:101C0000052922D2DFE801F003090F151B00F14876
:101C1000806840F2CF3210407047EF48806840F251
:101C2000CF321040F8E7ED48806840F2CF321040E4
:101C3000F2E7EB48806840F2CF321040ECE7E94829
:101C4000806840F2CF321040E6E70020E4E701462A
:101C5000002205291DD2DFE801F003080D1217004C
:101C6000DC48007D00F0400213E0DB48007D00F01E
:101C700040020EE0D948007D00F0400209E0D8485B
:101C8000007D00F0400204E0D648406900F04002C8
:101C900000BF00BF02F0400008B1002070470120E3
:101CA000FCE710B50246002040F00100CB7833B1CC
:101CB000012B06D0022B07D0032B08D108E000BF70
:101CC00009E040F0400006E040F0800003E000BF83
:101CD00040F0C00000BF00BF4B78012B01D140F0A5
:101CE00004000B78012B01D140F002008B78012B0E
:101CF00001D140F00800052A1DD2DFE802F00308F8
:101D00000D12170000F0CF03B24C237213E000F065
:101D1000CF03B14C23720EE000F0CF03AF4C23721F
:101D200009E000F0CF03AE4C237204E000F0CF03D3
:101D3000AC4CA36000BF00BF10BD00218170C1701A
:101D400001210170417070472DE9F0410746884636
:101D500015460026012D0BD198F80000012801D16D
:101D600046F0020698F80100012801D146F0040669
:101D7000012F19D1012D13D19748007B40F080002D
:101D8000954908730020087008710846007B20F010
:101D9000800008731020886246F0010008623AE073
:101DA00000208D49086236E0042F19D1012D13D18E
:101DB0008C48C06840F080008A49C86000200860F4
:101DC00048600846C06820F08000C8601020886223
:101DD00046F0010008621EE00020824908621AE015
:101DE0003846FFF7E1FA0446012D11D1207B40F07F
:101DF00080002073002020702071207B20F0800064
:101E00002073102084F8280046F00100206201E0D1
:101E10000020206200BFBDE8F08170B505460C4689
:101E2000012D05D16C48006A20436B4908620FE020
:101E3000042D05D16B48006A20436A49086207E017
:101E40002846FFF7B1FA0646306A2043306200BFE9
:101E500070BD042800D07047012906D1614A526A3A
:101E600042F002025F4B5A6206E029B95D4A526AAB
:101E700002F03D025B4B5A6200BFECE7042800D041
:101E80007047012906D1574A526A42F00102554B68
:101E90005A6205E0534A526A02F03E02514B5A62BE
:101EA00000BFEDE730B5042800D030BD4C07A30ECD
:101EB0004C4C646A24F0380243F00404224302F0DC
:101EC0003F04484D6C6200BFEFE730B500230128A6
:101ED00000D030BD11B1012904D101E0012302E09D
:101EE000022300E000BF00BF012A05D13A4C247C48
:101EF0001C43394D2C7406E0374C247CF3259D435C
:101F00002C40354D2C7400BFE3E730B50346012B60
:101F100000D030BD21B1012904D0022906D103E04F
:101F2000102004E0402002E0802000E000BF00BF5D
:101F3000012A05D1284C247C0443274D2C7406E04B
:101F4000254C247CF32585432C40234D2C7400BF65
:101F5000DFE70146012901D0002070471E48007EBE
:101F6000FBE72DE9F05F07460C460025012F0AD15B
:101F7000DFF8648008F15408A8F10409164E0C3605
:101F8000A9F1040A19E0042F0AD1DFF8588008F1FA
:101F90005408A8F10409134E0C36A9F1040A0CE008
:101FA0003846FFF701FA83460BF154080BF150094C
:101FB0000BF10C060BF14C0A00BFE07801281BD195
:101FC00045F010056079012801D145F02005207900
:101FD000012809E000C000400000014000800940E5
:101FE00000C0094000400A4003D1012F01D145F053
:101FF0000805E079C8F800002078012801D145F0F3
:102000000105A078012804D145F00405A079C9F89C
:102010000000607808B945F0020505F03F00CAF8F5
:102020000000306840F038003060BDE8F09F2DE9D6
:10203000F04105460E46012D01D13A4C0AE0042D2F
:1020400001D1394C06E02846FFF7AEF9074607F103
:10205000540400BF012E04D1206820F0020020604B
:1020600003E0206840F002002060BDE8F0812DE927
:10207000FF4F81B006468B469846012E04D1294C6D
:10208000483C284D403D0FE0042E04D1264C483CEE
:10209000254D403D08E03046FFF786F982460AF1BB
:1020A0000C040AF1140500BFB8F1000F15D0206828
:1020B000C7B2B94629F01009C4F800900123594667
:1020C0003046039AFFF72EFC009000BF286800F00E
:1020D00040000028FAD027600CE001235946304622
:1020E000039AFFF71FFC009000BF286800F0400033
:1020F0000028FAD0009805B0BDE8F08F13B504466B
:1021000001231A4601A92046FFF7B1FF1CBD70B597
:1021100004460D4616460023324629462046FFF760
:10212000A6FF70BD5400014054400A400F202849CA
:10213000086000202749C1F8480125490C31086092
:1021400070477047012909D1214A0C3212680123D6
:1021500083401A431F4BC3F84C2109E041B91C4A84
:102160000C321268012383409A431A4BC3F84C2166
:102170007047012909D1164A0832126801238340A9
:102180001A43144BC3F8482109E041B9104A0832F8
:102190001268012383409A430E4BC3F848217047CD
:1021A00010B5044600200A49086061782078FFF7DE
:1021B000E0FFA1782078FFF7C5FF10BD044909684A
:1021C000012282401143034AC2F8401170470000C7
:1021D00040C10F4000C00F4001460020062915D223
:1021E000DFE801F00305080B0E11FE480FE0FD4883
:1021F00020300CE0FB48403009E0FA48603006E04F
:10220000F848803003E0F748A03000E000BF00BF8E
:10221000704701460020062915D2DFE801F00305CA
:10222000080B0E11EF480FE0EE4820300CE0ED48AF
:10223000403009E0EB48603006E0EA48803003E0D7
:10224000E848A03000E000BF00BF70470146002012
:10225000062915D2DFE801F00305080B0E11E1484D
:102260000FE0E04820300CE0DE48403009E0DD4877
:10227000603006E0DB48803003E0DA48A03000E060
:1022800000BF00BF704710B50121C803FEF721FE53
:1022900010BD10B500214FF40040FEF71AFE10BD2E
:1022A0002DE9F04107460D4616463846FFF794FFE4
:1022B00004463CB11EB120682843206002E020683B
:1022C000A8432060BDE8F08170B506460C46304654
:1022D000FFF782FF054605B1AC6170BD70B50646DB
:1022E0000C463046FFF778FF054605B1EC6170BD3E
:1022F00070B505460E46144624B931462846FFF708
:10230000EDFF03E031462846FFF7DEFF70BD70B5F4
:1023100005462846FFF760FF04460CB1606970BDB2
:102320000020FCE718B912B9AF4B196017E002287A
:1023300004D11AB9AC4B2033196010E028B9012A36
:1023400003D1A94B1B1D196009E0022805D1012A00
:1023500003D1A54B2433196001E000BFFEE77047AD
:1023600003463BB932B9A0480C380068C84000F0B9
:1023700001007047022B07D132B99B481430006826
:10238000C84000F00100F4E743B9012A06D196489D
:1023900008380068C84000F00100EAE7022B08D1C5
:1023A000012A06D1904818300068C84000F00100AA
:1023B000DFE700BFFEE718B98B4A121F116007E084
:1023C000022803D1884A1C32116001E000BFFEE7F9
:1023D000704770B504460D461646324629462046DB
:1023E000FFF75EFF70BD70B504460D4629462046D6
:1023F000FFF76AFF70BD70B504460D4629462046BA
:10240000FFF76CFF70BD10B504462046FFF77FFF55
:1024100010BD70B504460D46164632462946204684
:10242000FFF780FF70BD70B504460D461646324674
:1024300029462046FFF794FF70BD10B503460C46B1
:1024400021461846FFF7B7FF10BD2DE9F0410746BA
:102450000D4616463846FFF7BFFE04463CB11EB196
:1024600020692843206102E02069A8432061BDE87B
:10247000F0812DE9F04180460E4615461F46404644
:10248000FFF7C7FE04468CB147B11EB160882843F0
:1024900060800BE020882843208007E01EB1608820
:1024A000A843608002E02088A8432080BDE8F08136
:1024B0002DE9F04180460E4615461F464046FFF77F
:1024C000A8FE04468CB147B11EB1608A28436082E1
:1024D0000BE0208A2843208207E01EB1608AA843CF
:1024E000608202E0208AA8432082BDE8F0812DE9C5
:1024F000F04107460E4614463846FFF78AFE054669
:102500001DB10EB16C8300E02C83BDE8F0812DE994
:10251000F04107460E4614463846FFF77AFE054658
:102520001DB10EB1EC8300E0AC83BDE8F08170B565
:1025300006460D463046FFF76CFE044624B10DB149
:10254000E08A70BDA08AFCE70020FAE72DE9F0419F
:1025500080460C4616461F464046FFF777FE054666
:102560005DB12FB1032C08DC285D3043285504E011
:10257000032C02DC285DB0432855BDE8F0812DE92D
:10258000F04180460C4616461F464046FFF75EFE69
:1025900005469DB14FB1032C10DC05F11000005D24
:1025A000304305F11001085508E0032C06DC05F165
:1025B0001000005DB04305F110010855BDE8F08141
:1025C0002DE9F04107460C4615463846FFF73EFE1A
:1025D000064626B1032C02DC06F118000555BDE8BD
:1025E000F081000000800920908002402DE9F04138
:1025F00007460C4615463846FFF728FE064626B124
:10260000032C02DC06F11C000555BDE8F08170B515
:1026100006460C463046FFF719FE05462DB1032C41
:1026200003DC05F11400005D70BD0020FCE7000034
:1026300010B50020FFF7C2FD6D480078012801D0D9
:10264000012000E000206A4908700846007850B177
:10265000012203216748FDF7D5FD4FF4005100200A
:10266000FFF73CFE09E0002203216248FDF7CAFDA6
:102670004FF400510020FFF727FE10BD10B55E4952
:1026800000205E4A1268904710BD3EB5FFF7FBFD83
:10269000FEF746FBFFF7F2FF01221E211046FEF770
:1026A000B6FC01221E211046FEF702FE01221A216D
:1026B0000020FEF7ACFC01221A210020FEF7F8FDF5
:1026C0004F494C48FDF72EFD012204214948FDF7F2
:1026D00099FD012203214748FDF794FD01220A21BB
:1026E0000220FEF794FCFFF721FD00208DF800008A
:1026F00001208DF8010000208DF802006846FFF7E8
:102700004FFD012251030020FFF7CAFD4FF4005195
:102710000020FFF7D9FD12200121814042099200DB
:1027200002F1E022C2F8001100BF01213148FDF79B
:102730003EFD4AE004212F48FDF77BFD044631A110
:1027400000202E4A1268904704210020334A126864
:10275000904733A10020294A126890472146002063
:10276000304A1268904730A10020304A12689047E2
:1027700003212048FDF75DFD04462DA100201F4ADE
:102780001268904721460020264A1268904726A1E9
:102790000020264A126890470020029002E002982A
:1027A000401C0290294902988842F8D301A90020D0
:1027B000274A1268904740B19DF80400512803D081
:1027C0009DF80400712800D100E0B3E700BF21A10B
:1027D0000020164A126890470648FDF7C0FCFFF734
:1027E00058FD3EBD10B5FFF750FF002010BD7047EB
:1027F0004B020010004003404D000010100000107C
:10280000801A06004144432076616C7565206F6E26
:10281000206368616E6E656C200000001C00001073
:102820003A200000240000100000000014000010F6
:102830004144432076616C7565206F6E206368614A
:102840006E6E656C20333A200000000060E31600D5
:102850004400001044656D6F207465726D696E618F
:1028600074696F6E21212100202A04DB203A00FACE
:1028700002F1002070479140C2F1200320FA03F3D7
:10288000194390407047202A04DB203A21FA02F0D5
:102890000021704721FA02F3D040C2F1200291409A
:1028A0000843194670470000064C074D06E0E068F3
:1028B00040F0010394E8070098471034AC42F6D387
:1028C000FDF714FC90290000B029000070B58C18A9
:1028D00010F8015B15F0070301D110F8013B2A1134
:1028E00006D110F8012B03E010F8016B01F8016B21
:1028F0005B1EF9D12B0705D40023521E0DD401F81D
:10290000013BFAE710F8013BCB1A921C03E013F8E5
:10291000015B01F8015B521EF9D5A142D8D300201A
:1029200070BD7047002001E001C1121F002AFBD1D9
:1029300070470000506C6561736520656E74657248
:10294000206120636861722066726F6D20273027D6
:1029500020746F202739272C20616E642027612F77
:1029600041272C2027622F42272C20632F43272C1E
:102970002027642F44272C2027652F452720616EB0
:10298000642027662F46272121210D0A0000000020
:10299000B0290000000000104C020000CC2800000C
:1029A000FC2A00004C02001004140000242900003E
:1029B00011140E27073C87930304043D6CDC020AC4
:1029C0004D2A01181D0A0D2048656C6C6F204E5869
:1029D000502053656D69636F6E647563746F7273B5
:1029E000201C180F41444320627572737420646583
:1029F0006D6F12581409202D204D43553A204C502C
:102A000043313737785F3878167814436F72653AF8
:102A10002041524D20434F525445582D4D331A18E2
:102A2000156D6D756E6963617465207669613A2014
:102A3000554152543019380A313135323030206224
:102A4000706C3C5573657028197769746820313251
:102A50002D626974207265736F6C7574696F6E2076
:102A6000723F58136F66203430304B487A2C2072F6
:102A7000756E6E696E679F18086D6F6465202873A8
:102A8000112B6C654D180A6F72206D756C7469702E
:102A90000F1F696E70757429153808446973706C5E
:102AA0006179663D76616C758F498E191E180F54D9
:102AB00075726E2074686520706F74656E749811FD
:102AC0006D6574657220746F2073656520686F771B
:102AD0003818086368616E676573361A50A33C73D3
:102AE0002071273C746F704108084D64656D6F0A52
:0C2AF0000D2A01130A0D02000100000075
:04000005000000E512
:00000001FF
