:020000040000FA
:1000000010140010F90000000501000007010000B5
:10001000090100000B0100000D01000000000000BC
:100020000000000000000000000000000F010000C0
:100030001101000000000000130100001501000084
:100040001701000017010000170100001701000050
:100050001701000017010000170100001701000040
:100060001701000017010000170100001701000030
:100070001701000017010000170100001701000020
:100080001701000017010000170100001701000010
:100090001701000017010000170100001701000000
:1000A00017010000170100001701000017010000F0
:1000B00017010000170100001701000017010000E0
:1000C00017010000170100001701000017010000D0
:1000D00017010000170100001701000017010000C0
:1000E00017010000DFF80CD000F0C6FF0048004701
:1000F000531000001014001007488047074880473D
:1001000007480047FEE7FEE7FEE7FEE7FEE7FEE7FB
:10011000FEE7FEE7FEE7FEE7B90500005710000026
:10012000E500000070B506460D4636B1012E11D02F
:10013000022E1DD0032E3DD128E04648006820F055
:100140001F0405F01F0004434348C0F8044100F0B9
:10015000D7F831E03F48A430006820F01F0405F0D4
:100160001F0004433C48C0F8A84100F0C9F823E050
:100170003848001F006820F0010405F00100044326
:100180003548C0F8004100F0BBF815E03148001DCB
:10019000006820F01F0405F01F0004432E48D0F82B
:1001A000080105F01F0108432A49091D086000F0F5
:1001B000A7F801E000BFFEE700BF70BD014631B106
:1001C000012907D0022908D003290CD108E02348CF
:1001D0000068704722480068FBE722480068F8E79B
:1001E00021480068F5E700BFFEE7012907D1194A59
:1001F000403A12680243184BC3F8C42007E031B9F3
:10020000144A403A12688243134BC3F8C420704723
:10021000002010494439086030BF7047042013495A
:10022000086000200B494439086030BF7047042043
:100230000E490860012007494439086030BF704703
:1002400004200A490860032002494439086030BF8D
:100250007047000004C10F4000C00F4000000010B4
:1002600004000010080000100C00001010ED00E069
:100270002DE9F05F0546002092469B4688460646DB
:10028000814640241BE0284641464746224600F06E
:10029000E3FE53465A46C01A914110D31146184600
:1002A000224600F016F82D1A67EB01084F46224649
:1002B0000120002100F00DF817EB00094E41201E2F
:1002C000A4F10104DFDC484631462A464346BDE836
:1002D000F09F202A04DB203A00FA02F10020704748
:1002E0009140C2F1200320FA03F319439040704774
:1002F000704700000000000000000000FFFFFFFF4B
:1003000030B5E248006800F48070002872D1DF4800
:100310000830006800F0010070BBDC48006800F0A5
:100320001F0008B9002006E0D848006800F01F0050
:10033000D749B1FBF0F0D7490860D448A430006831
:1003400000F01F0008B9002007E0D048A430006882
:1003500000F01F00CE49B1FBF0F0CF490860CB4858
:10036000001F006800F00100401CCA490968B1FB89
:10037000F0F0CA490860BEE0C4489C30006800F054
:10038000400038B90020C3490860C3490860C34928
:100390000860B0E0BD48006800F01F0008B9002008
:1003A00006E0BA48006800F01F00B949B1FBF0F060
:1003B000B8490860B548A430006800F01F0008B9CB
:1003C000002007E0B148A430006800F01F00B049E9
:1003D000B1FBF0F0B0490860AC48001F006800F0C5
:1003E0000100401CAB490968B1FBF0F0AB49086063
:1003F00081E0FFE7A5487C38006800F4807038B9D8
:100400000020A4490860A4490860A449086072E07B
:100410009E480830006800F0010070BB9B4C7C3C9B
:10042000246804F01F04601C9D4CD4F8044104F0BF
:100430001F01964CA434246804F01F02984CD4F891
:10044000004104F00104631C09B9002403E0904C4E
:100450004443B4FBF1F48F4D2C600AB9002403E04F
:100460008B4C4443B4FBF2F48B4D2C60894C2468D4
:10047000B4FBF3F4894D2C603DE0FFE783489C30EA
:10048000006800F0400038B90020824908608249C5
:100490000860824908602EE07C4C7C3C246804F0B3
:1004A0001F04601C7E4CD4F8044104F01F01774CFB
:1004B000A434246804F01F02794CD4F8004104F0FD
:1004C0000104631C09B9002403E0714C4443B4FBEC
:1004D000F1F4704D2C600AB9002403E06C4C4443E5
:1004E000B4FBF2F46C4D2C606A4C2468B4FBF3F45A
:1004F0006A4D2C6000BF6548001D006800F48070E4
:1005000098B36248001D006800F01F0020B1042865
:1005100006D0062824D104E000206249086023E0C8
:1005200000BF5A4A7C3A126802F01F02501C5C4A13
:10053000D2F8082102F01F01544A0832126802F072
:10054000010232B1524A4243B2FBF1F2554B1A60FA
:1005500005E04F4A4243B2FBF1F2524B1A6003E00E
:1005600000205049086000BF25E0FFE74748001D14
:10057000006800F40070D8B144480830006800F00A
:10058000010050B141485C38006800F01F00401C79
:100590003F494843434908600DE03C487C380068C7
:1005A00000F01F00401C3A4948433E49086002E001
:1005B00000203C49086030BD00B5212033499C3102
:1005C000086000BF31489C30006800F040000028FF
:1005D000F8D001202D490831086009203049C1F8C0
:1005E000840001202E4980310860AA2027497839EB
:1005F00008605520086000BF24487C38006800F47B
:1006000080600028F8D0232020496039086001204C
:100610002349C1F8A000AA201C4958390860552078
:100620001F49C1F8AC0000BF18485C38006800F4EE
:1006300080600028F8D040F201101449086040F2B0
:1006400001201749C1F8080101201049091F08605D
:1006500002200E49A431086013480C494039086053
:1006600088150F49C1F8C8010846D0F8B00140F01C
:1006700003000649AC31086045F23A0008490860B9
:1006800000200A490860FFF73BFE00BD04C10F408F
:10069000001BB7000000001004000010080000104C
:1006A00000C00F400C000010DE87280408ED00E0B9
:1006B000014611B1012904D101E0F84803E0F848EE
:1006C00001E0002000BF00BF704770B505460C4632
:1006D0002846FFF7EDFF06463068204008B10120AC
:1006E00070BD0020FCE770B505460C462846FFF7B4
:1006F000DFFF0646346070BD10B50A460B4618B9D8
:1007000001241470546005E0012803D100245C70BA
:1007100001241C7010BD2DE9FC5F8046894692467D
:100720004046FFF7C5FF04465746D346B8F1000FD1
:1007300004D101212020FFF758FD09E0B8F1010F95
:1007400004D101214020FFF750FD01E000BFFEE78A
:100750000120FFF733FD002605463F2020600020E2
:10076000606020676061A062E0642065B9F1000FFD
:100770001AD1387818B97868401EE06022E000216C
:100780002A467868A0FB023E01FB05E100FB06104B
:10079000C44ACDE900300023DDE90001FFF768FD20
:1007A0000546681EE0600DE0B9F1010F0AD19BF823
:1007B000010000F003019BF8000061F39F00216F2E
:1007C00008432067BDE8FC9F70B504462046FFF74C
:1007D0006FFF05460020686024B900212020FFF744
:1007E00004FD05E0012C03D100214020FFF7FDFCB2
:1007F00070BD70B506460D463046FFF759FF0446FA
:10080000012D04D1606840F00800606003E060687A
:1008100000F00300606070BD70B506460D463046BE
:10082000FFF746FF0446012D04D1606840F0010047
:10083000606003E0606800F00A00606070BD70B541
:1008400005462846FFF734FF0446606840F0020082
:100850006060606800F00900606070BD70B50646B9
:100860000D463046FFF724FF0446687801280AD178
:10087000287800F0070000EB400101208840616902
:10088000084360610CE0287800F0070000EB4001AD
:1008900001208840844921EA0000616908406061C4
:1008A000E87801280CD1287800F0070000EB400020
:1008B000401C012101FA00F06169084360610CE00D
:1008C000287800F0070000EB4000401C0121814027
:1008D00075488843616908406061A87801280CD197
:1008E000287800F0070000EB4000801C012101FA8D
:1008F00000F06169084360610CE0287800F00700AF
:1009000000EB4000801C01218140674888436169F9
:100910000840606170BD70B506460C463046FFF772
:10092000C7FE0546607801280BD1207800F002014F
:1009300061F35F00012101FA00F0A96A0843A8628F
:100940000BE0207800F0020161F35F00012181409B
:100950003F208843A96A0840A862A07801280CD1EA
:10096000207800F0020161F35F00401C012101FAD0
:1009700000F0A96A0843A8620CE0207800F00201A8
:1009800061F35F00401C012181403F208843A96A38
:100990000840A862E07801280CD1207800F002011C
:1009A00061F35F00801C012101FA00F0A96A08438D
:1009B000A8620CE0207800F0020161F35F00801C67
:1009C000012181403F208843A96A0840A86270BD88
:1009D00070B506460C463046FFF76AFE054614B170
:1009E000012C04D101E0E86A70BD286BFCE700200F
:1009F000FAE72DE9F04180460E4615461F4640466F
:100A0000FFF756FE0446072E13D2DFE806F0040671
:100A1000080A0C0E1000A5610BE0E56109E02562F3
:100A200007E0656205E0256403E0656401E0A56414
:100A300000BF00BF216D072E02DA0120B04000E0A8
:100A40000020014321653FB9606840F0020060600A
:100A5000606800F009006060BDE8F0812DE9F041B8
:100A600007460C4616463846FFF722FE054676B97D
:100A7000E96C04F00700022801DA002001E00120FF
:100A8000A04047F67C6282431140E96412E0E96CC1
:100A900004F00700022809DA002009E000400140C4
:100AA0000080014040420F00FFFF1F000120A040D6
:100AB0000143E964BDE8F0812DE9F04107460C46A9
:100AC00016463846FFF7F4FD0546012E0ED1E96CB7
:100AD00004F00700012801DA002004E004F1080016
:100AE000012202FA00F00143E96410E0E96C04F02D
:100AF0000700012801DA002004E004F108000122C7
:100B000002FA00F047F67C6282431140E964BDE8D6
:100B1000F081000010B50246002001EB4213F74CB3
:100B200004EB830010BD02460520062A4AD2DFE806
:100B300002F0032F393A3B3D062907DD0A2901DB84
:100B40000B2903DD0E2903DB162901DC00201EE042
:100B50000C2905D00D2903D0172903DB1A2901DC44
:100B6000012014E01D2903D01E2901D01F2901D125
:100B700002200CE01B2901D01C2901D1032006E032
:100B8000072903D0082901D0092900D104201AE03F
:100B90001D2901DC002004E01E2901D01F2900D1FD
:100BA000012010E000BF00BF00200CE0012901DDA2
:100BB000042901D1002004E0022901D0032900D139
:100BC000032000E000BF00BF70472DE9F04106465A
:100BD0000F461546002439463046FFF7A4FF8046ED
:100BE000B8F1050F02D1C648BDE8F081394630465C
:100BF000FFF790FF0446206820F00700206005F012
:100C000007012068084320600020EDE72DE9F0414E
:100C1000074688461646002441463846FFF783FFBC
:100C20000546052D02D1B648BDE8F08135B1012D4C
:100C300004D0042D02D0B248401CF5E741463846A6
:100C4000FFF768FF0446206820F018002060182194
:100C500001EAC6012068084320600020E4E72DE98E
:100C6000F041074688461646002441463846FFF7BD
:100C70005AFF0546052D02D1A148BDE8F08125B1F6
:100C8000042D02D09E48401CF7E741463846FFF746
:100C900041FF044626B9206820F02000206003E0D0
:100CA000206840F0200020600020E6E72DE9F041B8
:100CB000074688461546002441463846FFF733FF6D
:100CC0000646052E02D18E48BDE8F081022E02D1E3
:100CD0008B48401CF8E741463846FFF71BFF0446A7
:100CE00025B9206820F04000206003E0206840F033
:100CF000400020600020E7E72DE9F04107468846E4
:100D00001646002441463846FFF70DFF0546052DDF
:100D100002D17B48BDE8F08125B1042D02D078488E
:100D2000401CF7E741463846FFF7F4FE044626B973
:100D3000206820F40070206003E0206840F4007018
:100D400020600020E6E72DE9F04107468846154679
:100D5000002441463846FFF7E6FE0646052E02D13E
:100D60006748BDE8F081032E02D06548401CF8E7D3
:100D700041463846FFF7CEFE044625B1206820F4F0
:100D80008070206003E0206840F4807020600020C4
:100D9000E7E72DE9F041074688461546002441461D
:100DA0003846FFF7C0FE0646052E02D15448BDE87E
:100DB000F081032E02D05248401CF8E741463846E5
:100DC000FFF7A8FE044625B1012D0CD0022D1ED13F
:100DD00013E0012241463846FFF7B5FF206820F4B2
:100DE0000070206016E0002241463846FFF7ABFF56
:100DF000206820F4007020600CE001224146384653
:100E0000FFF7A1FF206840F40070206002E04FF07F
:100E1000FF30CCE700BF0020C9E72DE9F0410746CD
:100E200088461646002441463846FFF77CFE0546B4
:100E3000052D02D13248BDE8F08135B1012D04D035
:100E4000042D02D02E48401CF5E741463846FFF7F6
:100E500061FE044626B9206820F48060206003E02B
:100E6000206840F4806020600020E4E72DE9F04134
:100E7000074688461546002441463846FFF753FE8C
:100E80000646052E02D11E48BDE8F081012E02D093
:100E90001B48401CF8E741463846FFF73BFE044636
:100EA00025B1206820F08000206003E0206840F039
:100EB000800020600020E7E72DE9F04105460E465E
:100EC0001746002431462846FFF72DFE8046B8F12C
:100ED000050F02D10A48BDE8F0810DB91A2E02D0E3
:100EE0000748401CF7E731462846FFF713FE044643
:100EF00047B1206840F48030206007E000C0024025
:100F000001000010206820F4803020600020E2E71B
:100F10002DE9F041074688461646002441463846EA
:100F2000FFF701FE0546052D02D10D48BDE8F08111
:100F3000012D04D0042D02D00948401CF6E741469B
:100F40003846FFF7E7FD044626B1206820F480709C
:100F5000206003E0206840F4807020600020E5E716
:100F6000010000100EB500208DF804000120029051
:100F700001AA00210846FFF7CEFB0322022101202F
:100F8000FFF723FE032211460120FFF71EFE032276
:100F900005210120FFF719FE032206210120FFF79A
:100FA00014FE032207210120FFF70FFE03220B216D
:100FB0000120FFF70AFE00234FF4807219461846FD
:100FC000FFF717FD00208DF801008DF800000120CB
:100FD0008DF8030000208DF802006946FFF73EFC03
:100FE000022406E0002221461046FFF737FD601C70
:100FF000C4B2072CF6DB0A2501241BE000232A4695
:1010000021461846FFF7F5FC00208DF801008DF809
:1010100000408DF803008DF802006946FFF71EFCC2
:10102000012221460020FFF747FD05F11E00C5B251
:10103000601CC4B2072CE1DB0020FFF700FC01219B
:101040000020FFF7E9FB01210020FFF7D2FB00BFE2
:10105000FEE7FFF787FF7047202A04DB203A21FADA
:1010600002F00021704721FA02F3D040C2F12002C1
:101070009140084319467047064C074D06E0E0686A
:1010800040F0010394E8070098471034AC42F6D3CF
:10109000FFF72CF8B8100000D810000002E008C8D4
:1010A000121F08C1002AFAD17047002001E001C1D7
:1010B000121F002AFBD17047D8100000000000105A
:1010C000100000009C100000E8100000100000104C
:1010D00000140000AA100000000E270700879303E9
:0810E00000879303006CDC02A1
:04000005000000E512
:00000001FF
