:020000040000FA
:10000000C0220010F90000000501000007010000F7
:10001000090100000B0100000D01000000000000BC
:100020000000000000000000000000000F010000C0
:100030001101000000000000130100001501000084
:100040001701000017010000170100001701000050
:100050001701000017010000170100001701000040
:100060001701000017010000170100001701000030
:100070001701000017010000170100001701000020
:100080001701000017010000170100001701000010
:100090001701000017010000170100001701000000
:1000A0001701000017010000051C000017010000E7
:1000B00017010000170100001701000017010000E0
:1000C00017010000170100001701000017010000D0
:1000D00017010000170100001701000017010000C0
:1000E00017010000DFF80CD001F0ECFE00480047DB
:1000F000711E0000C0220010074880470748804753
:1001000007480047FEE7FEE7FEE7FEE7FEE7FEE7FB
:10011000FEE7FEE7FEE7FEE799050000751E00001A
:10012000E500000070B506460D4636B1012E12D02E
:10013000022E1ED0032E3ED129E04448006820F054
:100140001F0405F01F0040EA04044148C0F80441C0
:1001500000F0D6F831E03F48006820F01F0405F0B9
:100160001F0040EA04043A48C0F8A84100F0C8F86B
:1001700023E03948006820F0010405F0010040EA5E
:1001800004043348C0F8004100F0BAF815E03348E1
:10019000006820F01F0405F01F0040EA04042C480A
:1001A000D0F8080105F01F0140EA01002B49086062
:1001B00000F0A6F801E000BFFEE700BF70BD0146F9
:1001C00031B1012907D0022908D003290CD108E058
:1001D00023480068704723480068FBE7224800680E
:1001E000F8E722480068F5E700BFFEE7012907D1DC
:1001F0001F4A126842EA0002154BC3F8C42007E008
:1002000031B91B4A126822EA0002114BC3F8C4201C
:10021000704700201749086030BF70470420164916
:10022000086000201349086030BF7047042012495D
:10023000086001200F49086030BF704704200E4954
:10024000086003200B49086030BF704704C10F40AD
:1002500000C00F40A8C10F4000C10F4008C10F40AF
:100260000000001004000010080000100C00001036
:10027000C4C00F40C0C00F4010ED00E02DE9F05F9A
:100280000546002092469B46884606468146402405
:100290001BE0284641464746224601F003FE5346EE
:1002A0005A46C01A914110D311461846224600F012
:1002B00016F82D1A67EB01084F462246012000214F
:1002C00000F00DF817EB00094E41201EA4F10104C7
:1002D000DFDC484631462A464346BDE8F09F202AE7
:1002E00004DB203A00FA02F1002070479140C2F18D
:1002F000200320FA03F3194390407047FFFFFFFFEC
:1003000030B5D848006810F4807F6BD1D6480068BB
:1003100010F0010F2CD1D348006810F01F0F01D14D
:10032000002006E0CF48006800F01F00CF49B1FB75
:10033000F0F0CF490860CF48006810F01F0F01D1DE
:10034000002006E0CB48006800F01F00C749B1FB61
:10035000F0F0C9490860C948006800F0010000F1E8
:100360000100C3490968B1FBF0F0C5490860B6E077
:10037000C448006810F0400F07D10020BC49086055
:10038000BD490860BE490860A9E0B648006810F0A1
:100390001F0F01D1002006E0B248006800F01F00E6
:1003A000B249B1FBF0F0B2490860B248006810F001
:1003B0001F0F01D1002006E0AE48006800F01F00CA
:1003C000AA49B1FBF0F0AC490860AC48006800F005
:1003D000010000F10100A6490968B1FBF0F0A8494D
:1003E00008607CE0A848006810F4807F07D10020F6
:1003F0009F490860A0490860A14908606FE09A48D9
:10040000006810F0010F2ED19F4C246804F01F04E7
:1004100004F101009D4CD4F8044104F01F01954CF7
:10042000246804F01F02994CD4F8004104F0010440
:1004300004F1010309B9002403E08C4C4443B4FBEC
:10044000F1F48B4D2C600AB9002403E0874C44433F
:10045000B4FBF2F4884D2C60854C2468B4FBF3F4B3
:10046000874D2C603BE08748006810F0400F07D1B3
:1004700000207F49086080490860814908602EE0BB
:10048000814C246804F01F0404F101007F4CD4F86F
:10049000044104F01F01774C246804F01F027B4CD8
:1004A000D4F8004104F0010404F1010309B9002467
:1004B00003E06E4C4443B4FBF1F46D4D2C600AB97B
:1004C000002403E0694C4443B4FBF2F46A4D2C6011
:1004D000674C2468B4FBF3F4694D2C6000BF6C4892
:1004E000006810F4807F31D06948006810F01F0068
:1004F00004D0042806D0062823D104E00020654952
:10050000086022E000BF604A126802F01F0202F198
:1005100001005E4AD2F8082102F01F01524A126817
:1005200012F0010F06D0514A4243B2FBF1F2594B8F
:100530001A6005E04D4A4243B2FBF1F2554B1A6096
:1005400003E000205349086000BF24E050480068E1
:1005500010F4007F1CD04448006810F0010F0BD04D
:100560004D48006800F01F0000F101003F4900FB0A
:1005700001F0484908600EE04348006800F01F00A1
:1005800000F10100394900FB01F04249086002E036
:1005900000204049086030BD00B52120394908607D
:1005A00000BF3848006810F0400FFAD001202E49F3
:1005B00008604FF009003549C1F884004FF0010090
:1005C000364908604FF0AA00354908604FF05500E1
:1005D000086000BF2C48006810F4806FFAD0232018
:1005E000304908604FF001002849C1F8A0004FF0E1
:1005F000AA002D4908604FF055002449C1F8AC000D
:1006000000BF2548006810F4806FFAD040F2011056
:100610001449086040F201201C49C1F808014FF05C
:100620000100164908604FF00200124908601F4897
:100630001F4908604FF480701449C1F8C80108468A
:10064000D0F8B00140F003001A49086045F23A00C2
:100650000E4908604FF0000017490860FFF750FE90
:1006600000BD000004C10F400CC10F40001BB700CB
:1006700000000010A8C10F400400001000C10F408E
:1006800008000010A0C10F4088C00F4000C00F40FC
:1006900008C10F400C000010A8C00F4080C00F40E0
:1006A0008CC00F40A4C00F40ACC00F40DE872804B0
:1006B000C4C00F40B0C10F4008ED00E010B50121EB
:1006C0004807FFF793FD0020D2490860D249C1F8DE
:1006D0003001D2490860D2490860D2490860D24945
:1006E0000860D2490860D24908604FF0FF00CA494B
:1006F0008860086110BD70B50146C748C0690E78B2
:100700000123B340DBB2184201D0002070BDC94BB9
:10071000086853F820200B7801209840C0B2BE4BE7
:1007200098600B7801209840C0B2BB4B1861002044
:10073000D0601061086A9060486907287ED2DFE8BF
:1007400000F0041B436B961C4400C86810600869E5
:1007500050608888C0F30B0040F410300B7A03F02F
:10076000070340EA83400B7A03F0070340EA435053
:1007700040F00C40D0607CE000BFC8681060AE4B19
:10078000C86953F820005060AC4BC869185C00F091
:100790000703486863F31F30A84ECB69F35C03F08E
:1007A000070340EAC330A64ECB69F35C03F00703AE
:1007B00040EA8340CB69F35C03F0070340EA43500F
:1007C00040F00440D06054E000BF9B4B886953F870
:1007D0002000106008695060984B8869185C00F030
:1007E0000703486863F31F30944E8B69F35C03F092
:1007F000070340EAC330924E8B69F35C03F00703B2
:1008000040EA83408B69F35C03F0070340EA4350FE
:1008100040F00840D0602CE0874B886953F82000F6
:100820001060C86953F820005060844B8869185CD8
:1008300000F00703486863F31F3000E017E07F4EC5
:10084000CB69F35C03F0070340EAC3307C4E8B694D
:10085000F35C03F0070340EA8340CB69F35C03F0E9
:10086000070340EA435040F00040D06001E0002020
:100870004CE700BF886908281BD08869092818D070
:1008800088690F280BD96F48D0F8C4010B7E103B44
:1008900001269E4030436B4BC3F8C40109E0694810
:1008A000D0F8C4010E7E0123B3409843654BC3F8D2
:1008B000C401C86908281BD0C869092818D0C869AC
:1008C0000F280BD95F48D0F8C4010B7F103B0126DD
:1008D0009E4030435B4BC3F8C40109E05948D0F84F
:1008E000C4010E7F0123B3409843564BC3F8C401A3
:1008F0000120494B186300BF4748006B10F0010FFF
:10090000FAD08C690F2C02D9A4F1100000E0204627
:100910000446CD690F2D02D9A5F1100000E028464C
:100920000546087D00F007004FF4404343EAC0202D
:1009300004F01F0340EA430005F01F0340EA831060
:1009400010610120E2E602463A4B53F822000129E9
:1009500004D1036943F00103036103E0036923F059
:100960000103036170470246052A3BD2DFE802F02B
:10097000030E19242F002848006801238B40DBB2A6
:10098000184201D0012070470020FCE7224840684F
:1009900001238B40DBB2184201D00120F3E7002095
:1009A000F1E71D48C36801208840C0B2034201D06E
:1009B0000120E8E70020E6E7174883690120884026
:1009C000C0B2034201D00120DDE70020DBE712487E
:1009D000406901238B40DBB2184201D00120D2E7ED
:1009E0000020D0E70C48C36901208840C0B2034210
:1009F00001D00120C7E70020C5E728B901228A40BD
:100A0000D2B2054B9A6004E001228A40D2B2024B76
:100A10001A617047100108200000082050010820CA
:100A20007001082090010820B0010820D0010820A2
:100A3000F00108209000001010000010661F000058
:100A4000861F000000C00F4010B50246002001EBD9
:100A50004213F74C04EB830010BD02460520062A22
:100A60004AD2DFE802F0032F393A3B3D062907DD81
:100A70000A2901DB0B2903DD0E2903DB162901DC22
:100A800000201EE00C2905D00D2903D0172903DB17
:100A90001A2901DC012014E01D2903D01E2901D0F0
:100AA0001F2901D102200CE01B2901D01C2901D1F2
:100AB000032006E0072903D0082901D0092900D125
:100AC00004201AE01D2901DC002004E01E2901D0C9
:100AD0001F2900D1012010E000BF00BF00200CE062
:100AE000012901DD042901D1002004E0022901D0FF
:100AF000032900D1032000E000BF00BF70472DE9AB
:100B0000F04106460F461546002439463046FFF7A9
:100B1000A4FF8046B8F1050F02D1C648BDE8F081B8
:100B200039463046FFF790FF0446206820F0070062
:100B3000206005F007012068084320600020EDE7F1
:100B40002DE9F041074688461646002441463846BE
:100B5000FFF783FF0546052D02D1B648BDE8F081B9
:100B600035B1012D04D0042D02D0B248401CF5E768
:100B700041463846FFF768FF0446206820F0180019
:100B80002060182101EAC601206808432060002087
:100B9000E4E72DE9F0410746884616460024414621
:100BA0003846FFF75AFF0546052D02D1A148BDE89A
:100BB000F08125B1042D02D09E48401CF7E7414644
:100BC0003846FFF741FF044626B9206820F0200090
:100BD000206003E0206840F0200020600020E6E76D
:100BE0002DE9F0410746884615460024414638461F
:100BF000FFF733FF0646052E02D18E48BDE8F0818F
:100C0000022E02D18B48401CF8E741463846FFF7D8
:100C10001BFF044625B9206820F04000206003E057
:100C2000206840F0400020600020E7E72DE9F04117
:100C3000074688461646002441463846FFF70DFF12
:100C40000546052D02D17B48BDE8F08125B1042D74
:100C500002D07848401CF7E741463846FFF7F4FEDB
:100C6000044626B9206820F40070206003E0206864
:100C700040F4007020600020E6E72DE9F0410746CF
:100C800088461546002441463846FFF7E6FE0646EC
:100C9000052E02D16748BDE8F081032E02D06548D9
:100CA000401CF8E741463846FFF7CEFE044625B122
:100CB000206820F48070206003E0206840F4807099
:100CC00020600020E7E72DE9F041074688461546F9
:100CD000002441463846FFF7C0FE0646052E02D1E5
:100CE0005448BDE8F081032E02D05248401CF8E77A
:100CF00041463846FFF7A8FE044625B1012D0CD029
:100D0000022D1ED113E0012241463846FFF7B5FF00
:100D1000206820F40070206016E00022414638462A
:100D2000FFF7ABFF206820F4007020600CE0012288
:100D300041463846FFF7A1FF206840F4007020606C
:100D400002E04FF0FF30CCE700BF0020C9E72DE9FB
:100D5000F041074688461646002441463846FFF7CC
:100D60007CFE0546052D02D13248BDE8F08135B143
:100D7000012D04D0042D02D02E48401CF5E7414639
:100D80003846FFF761FE044626B9206820F48060EB
:100D9000206003E0206840F4806020600020E4E7E9
:100DA0002DE9F0410746884615460024414638465D
:100DB000FFF753FE0646052E02D11E48BDE8F0811E
:100DC000012E02D01B48401CF8E741463846FFF789
:100DD0003BFE044625B1206820F08000206003E03F
:100DE000206840F0800020600020E7E72DE9F04116
:100DF00005460E461746002431462846FFF72DFECD
:100E00008046B8F1050F02D10A48BDE8F0810DB95E
:100E10001A2E02D00748401CF7E731462846FFF754
:100E200013FE044647B1206840F48030206007E09C
:100E300000C0024001000010206820F480302060D3
:100E40000020E2E72DE9F0410746884616460024D7
:100E500041463846FFF701FE0546052D02D10D48F3
:100E6000BDE8F081012D04D0042D02D00948401CBA
:100E7000F6E741463846FFF7E7FD044626B120680D
:100E800020F48070206003E0206840F480702060CF
:100E90000020E5E7010000100146002021B10229F1
:100EA00004D0032906D103E0F74804E0F74802E044
:100EB000F74800E000BF00BF70472DE9F34F8BB04B
:100EC0008846002009900120FFF779F908904FF03B
:100ED000FF30039000200690824600210C460D460C
:100EE000012648E0002007903DE00798304400FBD1
:100EF00008F700210907089841EA101102070023AA
:100F0000A2FB060C01FB06C102FB03113A46CDE928
:100F10000001FFF7B3F9CDE90401DDF810B0DDF809
:100F20001490BBF1004F03D9CBF1000B09F101097B
:100F3000B9F1000F02D0B9F5803F00D910E0039855
:100F400083450CD2CDF80CB000254C46079806908E
:100F5000B246DDF80CB0BBF1000F00D106E000BFD7
:100F60000798401C07900798B042BED300BF039873
:100F700000B902E0761C0F2EB4D900BF002184EA2C
:100F800001006940084302D10DB0BDE8F08F089818
:100F9000000900FB0AF7069850440021A0FB042337
:100FA00001FB043100FB05100346CDE90020384663
:100FB0000021FFF763F902900298804504D9029856
:100FC000A8EB0000039003E00298A0EB0800039058
:100FD000642103984843B0FBF8F00390039803287A
:100FE00058D20B98012819D1AA48007B40F0800004
:100FF000A8490873200A40EA056008710C70084689
:10100000007B00F07F000873F02000EA0A100699C8
:1010100001F00F0108439F49886239E00B980428CA
:101020001BD19D48C06840F080009B49C860200AE1
:1010300040EA0560C0B24860E0B208600846C06897
:1010400000F07F00C860F02000EA0A10069901F065
:101050000F010843904988621AE00B98FFF71CFFC4
:101060000746387B40F080003873200A40EA05606C
:1010700038713C70387B00F07F003873F02000EA54
:101080000A10069901F00F01084387F8280000BFF5
:1010900001200990099877E72DE9F04106460F46AF
:1010A000052E3CD2DFE806F0033C04056C0000BFCF
:1010B00000BF3046FFF7F0FE054626B901210820A3
:1010C000FFF794F80CE0022E04D101210806FFF787
:1010D0008DF805E0032E03D101214806FFF786F8BD
:1010E000072028720020287200E02C78287D10F05C
:1010F000010FFAD1802085F8300000BF287D10F064
:10110000200FFBD0002085F830006860287328622B
:1011100085F84C0085F8540085F850002C7D57E088
:1011200001211020FFF762F807205A4908720020B9
:10113000087201E0574804785648007D10F0010F0E
:10114000F8D180205549087000BF5248007D10F04A
:10115000200FFAD00020514908704E4948600873AA
:10116000086281F84C004E4908704A4981F85000E5
:101170000846047D4FF0000008740846047E27E00E
:1011800001210802FFF732F8072043498860002058
:10119000886001E0404804683F48406910F0010F52
:1011A000F8D101203C49C86500BF3B48406910F0B8
:1011B000200FFAD000203849C8654860C86008622E
:1011C000C86448650865084644690020486200BF55
:1011D00000BF30463968FFF770FE012E04D12D485C
:1011E000007B00F0C0040EE0042E04D12A48C06841
:1011F00000F0C00407E03046FFF74EFE0546287BAE
:1012000000F0C00400BF787930B1012806D0022870
:1012100007D0032808D108E000BF09E044F001042A
:1012200006E044F0020403E000BF44F0030400BF02
:1012300000BF3879C0B144F008043879012806D0DD
:10124000022806D0032807D004280BD107E000BFEE
:1012500009E044F0100406E044F0200403E044F008
:10126000300400E000BF00BFB87928B1012802D1E6
:1012700044F0040401E000BF00BF00BF012E11D103
:101280000448047319E0000000C0004000800940D9
:1012900000C009400000014000400A403000014009
:1012A00054000140042E02D1F948C46005E03046E4
:1012B000FFF7F2FD05462C7300BFBDE8F08170B565
:1012C00004460D46012D1DD1012C07D1F1480078AF
:1012D00040F08000F04981F830002FE0042C06D166
:1012E000EB48C06D40F00100E949C86526E02046A2
:1012F000FFF7D2FD064696F8300040F0800086F8F1
:1013000030001BE0012C07D1E24800784FF00000CC
:10131000E14981F8300011E0042C05D1DC48C06DB2
:101320000020DB49C86509E02046FFF7B5FD064609
:1013300096F83000002086F8300000BF70BD10B570
:10134000044600212046FFF7BAFF24B900210820F7
:10135000FEF74CFF1BE0012C04D100211020FEF70A
:1013600045FF14E0022C04D10021E005FEF73EFF0A
:101370000DE0032C05D100214FF00070FEF736FF81
:1013800005E0042C03D10021A001FEF72FFF10BDC2
:101390004FF4E1310160032141710021017181713C
:1013A0007047052813D2DFE800F00306090C0F0090
:1013B000BA4A11700BE0B84A117008E0B84A1170CF
:1013C00005E0B84A117002E0B14A116000BF00BFE9
:1013D00070470146052914D2DFE801F00306090C25
:1013E0000F00AE4800787047AB480078FBE7AC4888
:1013F0000078F8E7AB480078F5E7A5480068C0B288
:10140000F1E70020EFE72DE9FF4F81B080468A46E3
:101410009346574600200090B8F1050F18D2DFE838
:1014200008F003070B0F13009C48143000900FE0E6
:101430009948143000900BE099481430009007E070
:1014400098481430009003E091481430009000BF99
:1014500000BF5C460498012824D100251FE04FF00E
:10146000FF3905E0B9F1000F00D106E0A9F101094B
:101470000098006810F0200FF4D000BFB9F1000F01
:1014800000D10EE0102607E017F8011B4046FFF7D9
:1014900088FF761E641E6D1C0EB1002CF4D1002C4A
:1014A000DDD119E0002514E004B914E000980068CB
:1014B00010F0200F00D10EE0102607E017F8011BF6
:1014C0004046FFF76EFF641E761E6D1C0EB1002CA9
:1014D000F4D1002CE8D100BF284605B0BDE8F08F5C
:1014E0002DE9F04F0646884691469B4645464FF00B
:1014F000000A052E1DD2DFE806F003080D121700C2
:10150000DFF898A10AF1140A13E0DFF88CA10AF1C0
:10151000140A0EE0DFF888A10AF1140A09E0DFF8E6
:1015200084A10AF1140A04E0DFF864A10AF1140AA4
:1015300000BF00BF4A46BBF1010F19D1002414E0DF
:101540004FF0FF3702E007B905E07F1EDAF8000030
:1015500010F0010FF7D000BF07B908E03046FFF7E1
:1015600038FF05F8010B521E641C002AE8D111E077
:1015700000240CE0DAF8000010F0010F00D108E0C0
:101580003046FFF726FF05F8010B641C521E002AA7
:10159000F0D100BF2046BDE8F08F052827D2DFE854
:1015A00000F0030A11181F003C49097B41F040017B
:1015B0003A4A11731BE03849097B41F04001364A31
:1015C000117314E03649097B41F04001344A11732C
:1015D0000DE03449097B41F04001324A117306E0C5
:1015E0002B49C96841F04001294AD16000BF00BFC2
:1015F0007047F0B504460D4600210026052C1DD28B
:10160000DFE804F003080D1217002449091D40F219
:10161000073613E02049091D40F28F360EE02049BD
:10162000091D40F2073609E01E49091D40F2073640
:1016300004E01749091D40F2073600BF00BF072D1F
:1016400015D2DFE805F00406080A0C0E110001208F
:101650000FE002200DE004200BE0082009E08020CC
:1016600007E04FF4807004E04FF4007001E000BF29
:10167000FEE700BF012A05D10B6800EA06073B43DD
:101680000B6004E00B6826EA00073B400B60F0BDEE
:1016900000400A40300001400000014000C000400E
:1016A0000080094000C009400146052914D2DFE846
:1016B00001F00306090C0F00FE48007D7047FE484C
:1016C000007DFBE7FD48007DF8E7FD48007DF5E77C
:1016D000FC484069C0B2F1E70020EFE70146052968
:1016E00022D2DFE801F003090F151B00F1488068E2
:1016F00040F2CF3210407047EF48806840F2CF325E
:101700001040F8E7ED48806840F2CF321040F2E731
:10171000EB48806840F2CF321040ECE7E94880683F
:1017200040F2CF321040E6E70020E4E70146002215
:1017300005291DD2DFE801F003080D121700DD486E
:10174000007D00F0400213E0DB48007D00F0400225
:101750000EE0DA48007D00F0400209E0D848007D44
:1017600000F0400204E0D748406900F0400200BFAA
:1017700000BF12F0400F01D0002070470120FCE7AD
:1017800010B50246002040F00100CB7833B1012BA8
:1017900006D0022B07D0032B08D108E000BF09E0D8
:1017A00040F0400006E040F0800003E000BF40F061
:1017B000C00000BF00BF4B78012B01D140F00400F6
:1017C0000B78012B01D140F002008B78012B01D165
:1017D00040F00800052A1DD2DFE802F003080D12D0
:1017E000170000F0CF03B34C237213E000F0CF03D7
:1017F000B14C23720EE000F0CF03B04C237209E02D
:1018000000F0CF03AE4C237204E000F0CF03AD4CE8
:10181000A36000BF00BF10BD00218170C170012115
:101820000170417070472DE9F04107468846154622
:101830000026012D0BD198F80000012801D146F0B7
:10184000020698F80100012801D146F00406012F94
:1018500019D1012D13D19848007B40F080009649A2
:1018600008730020087008710846007B20F0800093
:1018700008731020886246F0010008623AE00020F8
:101880008D49086236E0042F19D1012D13D18D48FE
:10189000C06840F080008B49C86000200860486044
:1018A0000846C06820F08000C8601020886246F0BA
:1018B000010008621EE00020824908621AE03846F2
:1018C000FFF7EAFA0446012D11D1207B40F0800099
:1018D0002073002020702071207B20F08000207376
:1018E000102084F8280046F00100206201E000206A
:1018F000206200BFBDE8F08170B505460C46012DA1
:1019000005D16D48006A20436B4908620FE0042D41
:1019100005D16C48006A20436A49086207E02846FE
:10192000FFF7BAFA0646306A2043306200BF70BD46
:10193000042800D07047012906D1624A526A42F059
:101940000202604B5A6206E029B95E4A526A02F00E
:101950003D025C4B5A6200BFECE7042800D07047A0
:10196000012906D1574A526A42F00102554B5A6288
:1019700005E0544A526A02F03E02524B5A6200BFDE
:10198000EDE730B5042800D030BD4C07A30E4D4C18
:10199000646A24F0380243F00404224302F03F0456
:1019A000484D6C6200BFEFE730B50023012800D03E
:1019B00030BD11B1012904D101E0012302E002236D
:1019C00000E000BF00BF012A05D13B4C247C1C4332
:1019D000394D2C7406E0384C247CF3259D432C4073
:1019E000354D2C7400BFE3E730B50346012B00D022
:1019F00030BD21B1012904D0022906D103E0102015
:101A000004E0402002E0802000E000BF00BF012A87
:101A100005D1294C247C0443274D2C7406E0264C28
:101A2000247CF32585432C40234D2C7400BFDFE735
:101A30000146012901D0002070471F48007EFBE7C6
:101A40002DE9F05F07460C460025012F0AD1DFF88B
:101A5000688008F15408A8F10409174E0C36A9F162
:101A6000040A19E0042F0AD1DFF8588008F154085D
:101A7000A8F10409134E0C36A9F1040A0CE038460B
:101A8000FFF70AFA83460BF154080BF150090BF1EA
:101A90000C060BF14C0A00BFE07801281BD145F081
:101AA00010056079012801D145F020052079012831
:101AB0000ED109E000C00040000001400080094054
:101AC00000C0094000400A40012F01D145F008053F
:101AD000E079C8F800002078012801D145F001051F
:101AE000A078012804D145F00405A079C9F80000C8
:101AF000607808B945F00205CAF80050306840F037
:101B000038003060BDE8F09F2DE9F04105460E46F3
:101B1000012D01D1394C0AE0042D01D1384C06E0E9
:101B20002846FFF7B9F9074607F1540400BF012E14
:101B300004D1206820F00200206003E0206840F01B
:101B400002002060BDE8F0812DE9FF4F81B006461C
:101B50008B469846012E04D1284C483C274D403DE9
:101B60000FE0042E04D1264C483C254D403D08E0B2
:101B70003046FFF791F982460AF10C040AF1140588
:101B800000BFB8F1000F14D02068C7B2B94629F0E1
:101B90001009C4F80090012359463046039AFFF714
:101BA00032FC009000BF286810F0400FFBD0276087
:101BB0000BE0012359463046039AFFF724FC0090BE
:101BC00000BF286810F0400FFBD0009805B0BDE8BA
:101BD000F08F13B5044601231A4601A92046FFF7EA
:101BE000B3FF1CBD70B504460D46164600233246B1
:101BF00029462046FFF7A8FF70BD000054000140B1
:101C000054400A4010B500244CE0E1B20020FEF739
:101C1000AAFE002845D0E1B20120FEF7A4FEE8B1FB
:101C2000E1B20020FEF7E9FE14B1012C14D109E065
:101C300091480068401C9049086000210846FEF762
:101C400082FE0AE08D480068401C8C490860002133
:101C50000120FEF778FE00E000BF00BFE1B20220E5
:101C6000FEF781FEE8B1E1B20120FEF7C6FE14B135
:101C7000012C14D109E082480068401C80490860AA
:101C800000210846FEF75FFE0AE07E480068401C1F
:101C90007C49086000210120FEF755FE00E000BFEE
:101CA00000BF641C072CB0D910BD8EB000250122E6
:101CB00002210020FEF723FF012203210020FEF76E
:101CC0001EFF0BA8FFF764FB0BA90020FFF7E4F948
:101CD0000AA8FFF7A1FD01208DF82A008DF82B003E
:101CE0000AA90020FFF74CFD01210020FFF7E7FAC9
:101CF000FEF7E4FC1A2001218140634A430942F8BF
:101D0000231000BF0921002806DACA005F4B00F04B
:101D10000F06361F9A5502E0CA005D4B1A5400BFE9
:101D2000002001905B480490002005904FF4E9707A
:101D300002900020039001200690002007900A20C6
:101D400008900020099001A8FEF7D5FC0120019021
:101D5000002004905048059010200290002003902D
:101D6000022006900B20079000200890099001A8FF
:101D7000FEF7C1FC002040490860414908601A2074
:101D80000121814042094FF0E02303EB8202C2F8B7
:101D9000001100BF01210020FEF7D5FD0021012028
:101DA000FEF7D1FD00BF3448006818B93448006818
:101DB0000028F8D032E0002030490860314908603E
:101DC00001A8FEF798FC01210846FEF7BCFD0020A3
:101DD0000D9006E0002030490D9A88540D98401C63
:101DE0000D900D981028F5D32B4C0DE020781B2872
:101DF00001D101250FE0207830B101231A46214698
:101E00000020FFF700FB641C1C48006818B91D483F
:101E100000680028EAD000BF05B100E0CBE700BFB2
:101E2000002001901D480490002005901A20029087
:101E30000020039001200690002007900A200890BF
:101E40000020099001A8FEF756FC01210020FEF7B2
:101E50007AFD00200D9002E00D98401C0D90104975
:101E60000D988842F8D30020FFF769FA00BFFEE71B
:101E7000FFF71BFF002070479C020010A402001017
:101E8000A0020010A802001080E100E018ED00E0C0
:101E900000E400E0B0000010AC020010820200106C
:101EA000A0860100202A04DB203A21FA02F000215A
:101EB000704721FA02F3D040C2F12002914008435A
:101EC00019467047064C074D06E0E06840F00103F4
:101ED00094E8070098471034AC42F6D3FEF706F9B1
:101EE000A81F0000C81F000070B58D1810F8014B26
:101EF00014F0030201D110F8012B231106D110F8C0
:101F0000013B03E010F8016B01F8016B521EF9D19F
:101F1000B3B110F8012B04F00C048A1A0C2C04D075
:101F2000A2EB841203F1020308E010F8014BA2EBCC
:101F30000422F7E712F8014B01F8014B5B1EF9D5BB
:101F4000A942D3D3002070BD02E008C8121F08C107
:101F5000002AFAD170477047002001E001C1121F2A
:101F6000002AFBD1704700020101010101010000BC
:101F70000000000000000000000000000404000059
:101F8000000000000000000200000000000002004D
:101F90000000000000000202020202020202000031
:101FA0000000000002020000C81F00000000001036
:101FB000AC020000E81E000078210000AC02001016
:101FC00014200000581F00003009000E270700876A
:101FD00093030410056CDC020001400880000C40F3
:101FE000088008044300030433C00A0410080440B6
:101FF000034000C008044200044300010433800988
:10200000041006184000401C041318800811041026
:1020100006180009401C04100608800A400C0462DF
:10202000000112C030210433400A04131840281163
:10203000041006000108202004124004126004125B
:10204000800412A00412C00412E01C00044D0A0D0A
:102050002A01101C0A0D2048656C6C6F204E5850E8
:102060002053656D69636F6E647563746F72736E10
:102070001012205541525420444D41206578616D25
:10208000706C6514501409202D204D43553A204C96
:102090005043313737785F3878165014436F726584
:1020A0003A2041524D20434F525445582D4D333024
:1020B00031473019436F6D6D756E69636174696F77
:1020C0006E3A2031313532303020627069301C5424
:1020D000686520646174612077696C6C207472613A
:1020E0006E7366657220696E746F80400D6D656DEC
:1020F0006F72792C207468656E1F10046D69740E00
:102100003011726F756768205478206C696E652095
:102110006F66B2222E5140066F20757365C140056F
:102120007769746846200F6F64652C204649464FD6
:102130002066756E63894011206D75737420626529
:1021400020656E61626C65643B10097465726D692F
:102150006E61742E040A5270726573732045534386
:102160007D1600801244DB7171151B14042121219E
:0821700051E200010000000033
:04000005000000E512
:00000001FF
