:020000040000FA
:10000000D0150010F90000000501000007010000F4
:10001000090100000B0100000D01000000000000BC
:100020000000000000000000000000000F010000C0
:100030001101000000000000130100001501000084
:10004000170100001701000085230000A72300000E
:100050001701000017010000170100001701000040
:100060001701000017010000170100001701000030
:100070001701000017010000170100001701000020
:100080001701000017010000170100001701000010
:100090001701000017010000170100001701000000
:1000A00017010000170100001701000017010000F0
:1000B00017010000170100001701000017010000E0
:1000C00017010000170100001701000017010000D0
:1000D00017010000170100001701000017010000C0
:1000E00017010000DFF80CD002F032FA0048004798
:1000F000D1240000D01500100748804707488047EA
:1001000007480047FEE7FEE7FEE7FEE7FEE7FEE7FB
:10011000FEE7FEE7FEE7FEE7B9050000CD2300009D
:10012000E500000070B506460D4636B1012E11D02F
:10013000022E1DD0032E3DD128E04648006820F055
:100140001F0405F01F0004434348C0F8044100F0B9
:10015000D7F831E03F48A430006820F01F0405F0D4
:100160001F0004433C48C0F8A84100F0C9F823E050
:100170003848001F006820F0010405F00100044326
:100180003548C0F8004100F0BBF815E03148001DCB
:10019000006820F01F0405F01F0004432E48D0F82B
:1001A000080105F01F0108432A49091D086000F0F5
:1001B000A7F801E000BFFEE700BF70BD014631B106
:1001C000012907D0022908D003290CD108E02348CF
:1001D0000068704722480068FBE722480068F8E79B
:1001E00021480068F5E700BFFEE7012907D1194A59
:1001F000403A12680243184BC3F8C42007E031B9F3
:10020000144A403A12688243134BC3F8C420704723
:10021000002010494439086030BF7047042013495A
:10022000086000200B494439086030BF7047042043
:100230000E490860012007494439086030BF704703
:1002400004200A490860032002494439086030BF8D
:100250007047000004C10F4000C00F4000000010B4
:1002600004000010080000100C00001010ED00E069
:100270002DE9F05F0546002092469B4688460646DB
:10028000814640241BE0284641464746224602F06C
:100290004FF953465A46C01A914110D31146184699
:1002A000224600F016F82D1A67EB01084F46224649
:1002B0000120002100F00DF817EB00094E41201E2F
:1002C000A4F10104DFDC484631462A464346BDE836
:1002D000F09F202A04DB203A00FA02F10020704748
:1002E0009140C2F1200320FA03F319439040704774
:1002F000704700000000000000000000FFFFFFFF4B
:1003000030B5E248006800F48070002872D1DF4800
:100310000830006800F0010070BBDC48006800F0A5
:100320001F0008B9002006E0D848006800F01F0050
:10033000D749B1FBF0F0D7490860D448A430006831
:1003400000F01F0008B9002007E0D048A430006882
:1003500000F01F00CE49B1FBF0F0CF490860CB4858
:10036000001F006800F00100401CCA490968B1FB89
:10037000F0F0CA490860BEE0C4489C30006800F054
:10038000400038B90020C3490860C3490860C34928
:100390000860B0E0BD48006800F01F0008B9002008
:1003A00006E0BA48006800F01F00B949B1FBF0F060
:1003B000B8490860B548A430006800F01F0008B9CB
:1003C000002007E0B148A430006800F01F00B049E9
:1003D000B1FBF0F0B0490860AC48001F006800F0C5
:1003E0000100401CAB490968B1FBF0F0AB49086063
:1003F00081E0FFE7A5487C38006800F4807038B9D8
:100400000020A4490860A4490860A449086072E07B
:100410009E480830006800F0010070BB9B4C7C3C9B
:10042000246804F01F04601C9D4CD4F8044104F0BF
:100430001F01964CA434246804F01F02984CD4F891
:10044000004104F00104631C09B9002403E0904C4E
:100450004443B4FBF1F48F4D2C600AB9002403E04F
:100460008B4C4443B4FBF2F48B4D2C60894C2468D4
:10047000B4FBF3F4894D2C603DE0FFE783489C30EA
:10048000006800F0400038B90020824908608249C5
:100490000860824908602EE07C4C7C3C246804F0B3
:1004A0001F04601C7E4CD4F8044104F01F01774CFB
:1004B000A434246804F01F02794CD4F8004104F0FD
:1004C0000104631C09B9002403E0714C4443B4FBEC
:1004D000F1F4704D2C600AB9002403E06C4C4443E5
:1004E000B4FBF2F46C4D2C606A4C2468B4FBF3F45A
:1004F0006A4D2C6000BF6548001D006800F48070E4
:1005000098B36248001D006800F01F0020B1042865
:1005100006D0062824D104E000206249086023E0C8
:1005200000BF5A4A7C3A126802F01F02501C5C4A13
:10053000D2F8082102F01F01544A0832126802F072
:10054000010232B1524A4243B2FBF1F2554B1A60FA
:1005500005E04F4A4243B2FBF1F2524B1A6003E00E
:1005600000205049086000BF25E0FFE74748001D14
:10057000006800F40070D8B144480830006800F00A
:10058000010050B141485C38006800F01F00401C79
:100590003F494843434908600DE03C487C380068C7
:1005A00000F01F00401C3A4948433E49086002E001
:1005B00000203C49086030BD00B5212033499C3102
:1005C000086000BF31489C30006800F040000028FF
:1005D000F8D001202D490831086009203049C1F8C0
:1005E000840001202E4980310860AA2027497839EB
:1005F00008605520086000BF24487C38006800F47B
:1006000080600028F8D0232020496039086001204C
:100610002349C1F8A000AA201C4958390860552078
:100620001F49C1F8AC0000BF18485C38006800F4EE
:1006300080600028F8D040F201101449086040F2B0
:1006400001201749C1F8080101201049091F08605D
:1006500002200E49A431086013480C494039086053
:1006600088150F49C1F8C8010846D0F8B00140F01C
:1006700003000649AC31086045F23A0008490860B9
:1006800000200A490860FFF73BFE00BD04C10F408F
:10069000001BB7000000001004000010080000104C
:1006A00000C00F400C000010DE87280408ED00E0B9
:1006B00013B5044601231A4601A9204601F08CF81F
:1006C0001CBD38B504460020009001231A46694637
:1006D000204601F0EFF89DF8000038BD70B50546E2
:1006E0000C460CB9002070BD00230122214628468B
:1006F00001F0E0F808B10120F5E70020F3E770B55C
:1007000006460D462C4604E014F8011B3046FFF760
:10071000CFFF20780028F7D170BD2DE9FF4F83B0BF
:100720000C4615461E46002002900190002D03DC69
:10073000306007B0BDE8F08F4FF00008012C01D108
:10074000102003E00CB90A2000E000208246BAF134
:10075000000F02D100203060EBE7002785E0012088
:10076000019001231A4602A9039801F0A3F89DF80D
:100770000800302808DB9DF80800392804DC9DF8C3
:100780000800A0F1300B37E0012C33D14FF0100AF4
:100790009DF80800612811D008DCA0F1410006286E
:1007A00024D2DFE800F00C1014181C206238052851
:1007B0001CD2DFE800F0070B0F13170000BF4FF04B
:1007C0000A0B16E000BF4FF00B0B12E000BF4FF01A
:1007D0000C0B0EE000BF4FF00D0B0AE000BF4FF016
:1007E0000E0B06E000BF4FF00F0B02E0002001905F
:1007F00000BF01E000200190012000900198B0B9F5
:1008000024B9F5A10398FFF77AFF05E0012C03D185
:10081000FC490398FFF773FF08F10108B8F10A0FCC
:1008200023D3F9A10398FFF76AFF002081E79DF821
:1008300008100398FFF73CFF012D03D1AA460120C1
:1008400000900CE04FF0010907E0009800FB0AF06F
:10085000009009F1010000F0FF09A945F5DB0098BF
:100860000BFB00FB5F44681EC5B2002D3FF777AF5E
:10087000376001205DE770B504460D4629462046E5
:10088000FFF73DFFECA12046FFF739FF70BD2DE9D2
:10089000F04105460C460A2094FBF0F100FB1140A4
:1008A000C6B20A2094FBF0F00A2190FBF1F201FBA2
:1008B0001200C7B2642094FBF0F090FBF1F201FB50
:1008C000120000F0FF0808F13000C1B22846FFF71F
:1008D000EFFE07F13000C1B22846FFF7E9FE06F14E
:1008E0003000C1B22846FFF7E3FEBDE8F0812DE9F4
:1008F000F04705460C460A2094FBF0F100FB11403E
:10090000C6B20A2094FBF0F00A2190FBF1F201FB41
:100910001200C7B2642094FBF0F090FBF1F201FBEF
:10092000120000F0FF084FF47A7094FBF0F090FB97
:10093000F1F201FB120000F0FF0942F2107094FB8B
:10094000F0F090FBF1F201FB120000F0FF0A0AF157
:100950003000C1B22846FFF7ABFE09F13000C1B24A
:100960002846FFF7A5FE08F13000C1B22846FFF780
:100970009FFE07F13000C1B22846FFF799FE06F14D
:100980003000C1B22846FFF793FEBDE8F0872DE99D
:10099000F34F83B00C460A20B4FBF0F100FB114585
:1009A000B4FBF0F00A21B0FBF1F201FB1206642067
:1009B000B4FBF0F0B0FBF1F201FB12074FF47A70D8
:1009C000B4FBF0F0B0FBF1F201FB120842F2107040
:1009D000B4FBF0F0B0FBF1F201FB12099748B4FB55
:1009E000F0F0B0FBF1F201FB120A9548B4FBF0F015
:1009F000B0FBF1F201FB120B9248B4FBF0F0B0FB3C
:100A0000F1F201FB120002908F48B4FBF0F0B0FB52
:100A1000F1F201FB120001908C48B4FBF0F0B0FB46
:100A2000F1F201FB1200009000983030C1B203983F
:100A3000FFF73EFE01983030C1B20398FFF738FE51
:100A400002983030C1B20398FFF732FE0BF130004C
:100A5000C1B20398FFF72CFE0AF13000C1B203982F
:100A6000FFF726FE09F13000C1B20398FFF720FE20
:100A700008F13000C1B20398FFF71AFE07F1300009
:100A8000C1B20398FFF714FE06F13000C1B203981B
:100A9000FFF70EFE05F13000C1B20398FFF708FE24
:100AA00005B0BDE8F08F2DE9F04107460D4601265F
:100AB00000BFB00045FA00F000F00F04092C02DD81
:100AC00004F1370001E004F13000C1B23846FFF70D
:100AD000EFFD3000A6F10101CEB2EAD1BDE8F08110
:100AE0002DE9F04107460D4659A13846FFF707FEAC
:100AF000012600BFB00045FA00F000F00F04092CF9
:100B000002DD04F1370001E004F13000C1B23846E3
:100B1000FFF7CEFD3000A6F10101CEB2EAD1BDE86B
:100B2000F0812DE9F04107460D46032600BFB000D5
:100B300045FA00F000F00F04092C02DD04F1370043
:100B400001E004F13000C1B23846FFF7B1FD3000DA
:100B5000A6F10101CEB2EAD1BDE8F0812DE9F04164
:100B600007460D463AA13846FFF7C9FD032600BFE8
:100B7000B00045FA00F000F00F04092C02DD04F18A
:100B8000370001E004F13000C1B23846FFF790FDB4
:100B90003000A6F10101CEB2EAD1BDE8F0812DE925
:100BA000F04107460D46072600BFB00025FA00F0C9
:100BB00000F00F04092C02DD04F1370001E004F11C
:100BC0003000C1B23846FFF773FD3000A6F10101D5
:100BD000CEB2EAD1BDE8F081506C656173652065E5
:100BE0006E746572206120636861722066726F6D39
:100BF0002027302720746F202739272121210D0A33
:100C000000000000E82500005265616368206C69FF
:100C10006D69746174696F6E206F662072652D74E2
:100C2000726965732E2052657475726E2046414953
:100C30004C45440D0A0000000A0D0000A08601008A
:100C400040420F008096980000E1F50500CA9A3BEB
:100C5000307800002DE9F04107460D46AFF2100153
:100C60003846FFF74CFD072600BFB00025FA00F01C
:100C700000F00F04092C02DD04F1370001E004F15B
:100C80003000C1B23846FFF713FD3000A6F1010174
:100C9000CEB2EAD1BDE8F08110B50446052C3BD2B6
:100CA000DFE804F0030E19242F00012202210020A6
:100CB00000F007F901220321002000F002F92DE0E5
:100CC00001220F21002000F0FCF801221021002059
:100CD00000F0F7F822E001220A21002000F0F1F8EC
:100CE00001220B21002000F0ECF817E0022211464F
:100CF000002000F0E6F802220321002000F0E1F8D5
:100D00000CE003221621002000F0DBF80322092169
:100D1000022000F0D6F801E000BFFEE700BF10BDE2
:100D20001CB52A48007818B901202849087000E04D
:100D30001CBD0020FFF7B0FF684600F011FD6946BA
:100D4000002000F08BFB0121002000F09FFCAFF29F
:100D500051601F490860AFF2E1401E490860AFF2E0
:100D6000AF601D490860AFF287201C490860AFF2F0
:100D700013201B490860AFF223101A490860AFF234
:100D8000D92019490860AFF2652018490860AFF210
:100D9000F11017490860AFF2095016490860AFF228
:100DA000B14015490860AFF2194014490860AFF22C
:100DB000ED6013490860AFF29D6012490860AFF220
:100DC000E3601149086000BFB2E700004C0000106A
:100DD000100000101400001018000010280000106F
:100DE0002C000010300000103400001038000010FB
:100DF0003C0000101C000010200000102400001017
:100E000040000010480000104400001010B50246D9
:100E1000002001EB4213F74C04EB830010BD0246A7
:100E20000520062A4AD2DFE802F0032F393A3B3D7B
:100E3000062907DD0A2901DB0B2903DD0E2903DB67
:100E4000162901DC00201EE00C2905D00D2903D055
:100E5000172903DB1A2901DC012014E01D2903D026
:100E60001E2901D01F2901D102200CE01B2901D02D
:100E70001C2901D1032006E0072903D0082901D04D
:100E8000092900D104201AE01D2901DC002004E01A
:100E90001E2901D01F2900D1012010E000BF00BF92
:100EA00000200CE0012901DD042901D1002004E02B
:100EB000022901D0032900D1032000E000BF00BFB8
:100EC00070472DE9F04106460F4615460024394685
:100ED0003046FFF7A4FF8046B8F1050F02D1C6489F
:100EE000BDE8F08139463046FFF790FF04462068A0
:100EF00020F00700206005F007012068084320600B
:100F00000020EDE72DE9F04107468846164600240B
:100F100041463846FFF783FF0546052D02D1B64806
:100F2000BDE8F08135B1012D04D0042D02D0B248C6
:100F3000401CF5E741463846FFF768FF0446206845
:100F400020F018002060182101EAC601206808433B
:100F500020600020E4E72DE9F04107468846164668
:100F6000002441463846FFF75AFF0546052D02D1B9
:100F7000A148BDE8F08125B1042D02D09E48401C57
:100F8000F7E741463846FFF741FF044626B9206897
:100F900020F02000206003E0206840F02000206066
:100FA0000020E6E72DE9F041074688461546002473
:100FB00041463846FFF733FF0646052E02D18E48DC
:100FC000BDE8F081022E02D18B48401CF8E7414673
:100FD0003846FFF71BFF044625B9206820F0400083
:100FE000206003E0206840F0400020600020E7E738
:100FF0002DE9F0410746884616460024414638460A
:10100000FFF70DFF0546052D02D17B48BDE8F081B5
:1010100025B1042D02D07848401CF7E741463846F8
:10102000FFF7F4FE044626B9206820F40070206023
:1010300003E0206840F4007020600020E6E72DE91E
:10104000F041074688461546002441463846FFF7DA
:10105000E6FE0646052E02D16748BDE8F081032E64
:1010600002D06548401CF8E741463846FFF7CEFEFF
:10107000044625B1206820F48070206003E02068D9
:1010800040F4807020600020E7E72DE9F04107463A
:1010900088461546002441463846FFF7C0FE0646FE
:1010A000052E02D15448BDE8F081032E02D05248EB
:1010B000401CF8E741463846FFF7A8FE044625B134
:1010C000012D0CD0022D1ED113E0012241463846DD
:1010D000FFF7B5FF206820F40070206016E00022C2
:1010E00041463846FFF7ABFF206820F400702060CF
:1010F0000CE0012241463846FFF7A1FF206840F48A
:101100000070206002E04FF0FF30CCE700BF00200D
:10111000C9E72DE9F04107468846164600244146B6
:101120003846FFF77CFE0546052D02D13248BDE862
:10113000F08135B1012D04D0042D02D02E48401C81
:10114000F5E741463846FFF761FE044626B92068B8
:1011500020F48060206003E0206840F4806020601C
:101160000020E4E72DE9F0410746884615460024B3
:1011700041463846FFF753FE0646052E02D11E486B
:10118000BDE8F081012E02D01B48401CF8E7414623
:101190003846FFF73BFE044625B1206820F080006A
:1011A000206003E0206840F0800020600020E7E736
:1011B0002DE9F04105460E461746002431462846E3
:1011C000FFF72DFE8046B8F1050F02D10A48BDE8B1
:1011D000F0810DB91A2E02D00748401CF7E73146BE
:1011E0002846FFF713FE044647B1206840F48030DC
:1011F000206007E000C0024001000010206820F4D9
:10120000803020600020E2E72DE9F0410746884663
:101210001646002441463846FFF701FE0546052DD7
:1012200002D10D48BDE8F081012D04D0042D02D07B
:101230000948401CF6E741463846FFF7E7FD0446FB
:1012400026B1206820F48070206003E0206840F41C
:10125000807020600020E5E70100001001460020BA
:1012600021B1022904D0032906D103E0F74804E0A4
:10127000F74802E0F74800E000BF00BF70472DE9E3
:10128000F34F8BB08846002009900120FEF796FFAF
:1012900008904FF0FF300390002006908246002116
:1012A0000C460D46012648E0002007903DE00798D7
:1012B000304400FB08F700210907089841EA1011A3
:1012C00002070023A2FB060C01FB06C102FB03116F
:1012D0003A46CDE90001FEF7CBFFCDE90401DDF888
:1012E00010B0DDF81490BBF1004F03D9CBF1000B27
:1012F00009F10109B9F1000F02D0B9F5803F00D919
:1013000010E0039883450CD2CDF80CB000254C4674
:1013100007980690B246DDF80CB0BBF1000F00D183
:1013200006E000BF0798401C07900798B042BED364
:1013300000BF039800B902E0761C0F2EB4D900BF9D
:10134000002184EA01006940084302D10DB0BDE8E4
:10135000F08F0898000900FB0AF706985044002116
:10136000A0FB042301FB043100FB05100346CDE97B
:10137000002038460021FEF77BFF0290029880454E
:1013800004D90298A8EB0000039003E00298A0EBB8
:1013900008000390642103984843B0FBF8F00390E1
:1013A0000398032858D20B98012819D1AA48007B2A
:1013B00040F08000A8490873200A40EA05600871DF
:1013C0000C700846007B00F07F000873F02000EAF4
:1013D0000A10069901F00F0108439F49886239E01D
:1013E0000B9804281BD19D48C06840F080009B49A1
:1013F000C860200A40EA0560C0B24860E0B20860F8
:101400000846C06800F07F00C860F02000EA0A10BB
:10141000069901F00F010843904988621AE00B9881
:10142000FFF71CFF0746387B40F080003873200A26
:1014300040EA056038713C70387B00F07F003873FB
:10144000F02000EA0A10069901F00F01084387F81E
:10145000280000BF01200990099877E72DE9F041A5
:1014600006460F46052E3ED2DFE806F0033E040591
:10147000720000BF00BF3046FFF7F0FE054626B9F8
:1014800001210820FEF7B1FE0CE0022E04D101215B
:101490000806FEF7AAFE05E0032E03D10121480647
:1014A000FEF7A3FE072028720020287200E02C78A7
:1014B000287D00F001000028F9D1802085F8300057
:1014C00000BF287D00F020000028FAD0002085F819
:1014D000300068602873286285F84C0085F8540055
:1014E00085F850002C7D5DE001211020FEF77DFE87
:1014F0000720594908720020087201E05648047814
:101500005548007D00F001000028F7D180205249A5
:101510003031087000BF5048007D00F020000028E6
:10152000F9D000204C49303108704B4948600873AD
:10153000086281F84C00484954310870464981F8E6
:1015400050000846047D002008740846047E29E007
:1015500001210802FEF749FE07204049886000206B
:10156000886001E03D4804683C48406900F00100A3
:101570000028F7D101203949C86500BF37484069C4
:1015800000F020000028F9D000203449C8654860E8
:10159000C8600862C8644865086508464469002058
:1015A000486200BF00BF30463968FFF768FE012E71
:1015B00004D12948007B00F0C0040EE0042E04D1C1
:1015C0002648C06800F0C00407E03046FFF746FE3A
:1015D0000546287B00F0C00400BF787930B10128AF
:1015E00006D0022807D0032808D108E000BF09E090
:1015F00044F0010406E044F0020403E000BF44F0BC
:10160000030400BF00BF3879C0B144F00804387942
:10161000012806D0022806D0032807D004280BD1C1
:1016200007E000BF09E044F0100406E044F02004A5
:1016300003E044F0300400E000BF00BFB87980B19F
:1016400001280DD144F004040CE0000000C000406B
:101650000080094000C009400000014000400A40ED
:1016600000BF00BF00BF012E02D1F7490C730BE091
:10167000042E03D1E0B2F549C86005E03046FFF71B
:10168000EDFD05462C7300BFBDE8F08170B5044642
:101690000D46012D1ED1012C08D1EB4830300078C9
:1016A00040F08000E84981F830002FE0042C06D19A
:1016B000E648C06D40F00100E449C86526E02046D8
:1016C000FFF7CCFD064696F8300040F0800086F823
:1016D00030001BE0012C07D1DB48303000780020BF
:1016E000D94981F8300011E0042C05D1D748C06DEC
:1016F0000020D649C86509E02046FFF7AFFD064641
:1017000096F83000002086F8300000BF70BD10B59C
:10171000044600212046FFF7B9FF24B90021082024
:10172000FEF763FD1BE0012C04D100211020FEF721
:101730005CFD14E0022C04D10021E005FEF755FD0C
:101740000DE0032C05D100214FF00070FEF74DFD98
:1017500005E0042C03D10021A001FEF746FD10BDD9
:101760004FF4E13101600321417100210171817168
:101770007047052814D2DFE800F00306090C0F00BB
:10178000B34B19700CE0B04B197009E0B14B1970F4
:1017900006E0B14B197003E0CAB2AC4B1A6000BF4F
:1017A00000BF70470146052914D2DFE801F00306A7
:1017B000090C0F00A64800787047A3480078FBE7A3
:1017C000A4480078F8E7A4480078F5E79F48006847
:1017D000C0B2F1E70020EFE72DE9FF4F81B080466E
:1017E0008A469346574600200090B8F1050F18D25C
:1017F000DFE808F003070B0F130095481430009042
:101800000FE09148143000900BE0924814300090A3
:1018100007E091481430009003E08C4814300090A9
:1018200000BF00BF5C460498012825D1002520E0B8
:101830004FF0FF3905E0B9F1000F00D107E0A9F141
:1018400001090098006800F020000028F3D000BFD4
:10185000B9F1000F00D10EE0102607E017F8011BC8
:101860004046FFF786FF761E641E6D1C0EB1002CED
:10187000F4D1002CDCD119E0002514E004B914E007
:101880000098006800F0200000B90EE0102607E084
:1018900017F8011B4046FFF76CFF641E761E6D1C97
:1018A0000EB1002CF4D1002CE8D100BF284605B0C1
:1018B000BDE8F08F2DE9F04705460F469046994662
:1018C0003C464FF0000A052D1DD2DFE805F0030865
:1018D0000D121700DFF878A10AF1140A15E0DFF8FD
:1018E00068A10AF1140A10E0DFF868A10AF1140AED
:1018F0000BE0DFF864A10AF1140A06E0DFF84CA15E
:101900000AF1140A01E000BFFEE700BF4246B9F148
:10191000010F1AD1002315E04FF0FF3602E006B99F
:1019200006E0761EDAF8000000F001000028F6D08C
:1019300000BF06B908E02846FFF734FF04F8010BA2
:10194000521E5B1C002AE7D111E000230CE0DAF8FC
:10195000000000F0010000B908E02846FFF722FF70
:1019600004F8010B5B1C521E002AF0D100BF184680
:10197000BDE8F087052827D2DFE800F0030A111838
:101980001F003349097B41F04001314A11731BE0CC
:101990002D49097B41F040012B4A117314E02D4978
:1019A000097B41F040012B4A11730DE02A49097B64
:1019B00041F04001284A117306E02449C96841F00A
:1019C0004001224AD16000BF00BF7047F0B5044615
:1019D0000B4600210025052C1DD2DFE804F003088A
:1019E0000D1217001A49091D40F2073513E0164978
:1019F000091D40F28F350EE01649091D40F20735EA
:101A000009E01549091D40F2073504E00F49091D99
:101A100040F2073500BF00BF072B1FD2DFE803F0FD
:101A20000406080A0C0E1100012019E0022017E03C
:101A3000042015E0082013E0802011E04FF48070AE
:101A40000EE04FF400700BE00000014000400A403F
:101A500000C000400080094000C0094000BFFEE710
:101A600000BF012A05D10E6800EA05073E430E605B
:101A700004E00E6825EA00073E400E60F0BD014616
:101A8000052914D2DFE801F00306090C0F00FE4817
:101A9000007D7047FD48007DFBE7FD48007DF8E7CD
:101AA000FC48007DF5E7FC484069C0B2F1E7002042
:101AB000EFE70146052922D2DFE801F003090F15FF
:101AC0001B00F148806840F2CF3210407047EF4869
:101AD000806840F2CF321040F8E7ED48806840F26D
:101AE000CF321040F2E7EB48806840F2CF3210402E
:101AF000ECE7E948806840F2CF321040E6E700208A
:101B0000E4E70146002205291DD2DFE801F00308C1
:101B10000D121700DC48007D00F0400213E0DB48A6
:101B2000007D00F040020EE0D948007D00F0400248
:101B300009E0D848007D00F0400204E0D648406942
:101B400000F0400200BF00BF02F0400008B10020DA
:101B500070470120FCE710B50246002040F001006C
:101B6000CB7833B1012B06D0022B07D0032B08D141
:101B700008E000BF09E040F0400006E040F08000CF
:101B800003E000BF40F0C00000BF00BF4B78012B56
:101B900001D140F004000B78012B01D140F002008C
:101BA0008B78012B01D140F00800052A1DD2DFE817
:101BB00002F003080D12170000F0CF03B24C23729D
:101BC00013E000F0CF03B14C23720EE000F0CF031E
:101BD000AF4C237209E000F0CF03AE4C237204E057
:101BE00000F0CF03AC4CA36000BF00BF10BD0021CC
:101BF0008170C17001210170417070472DE9F04181
:101C00000746884615460026012D0BD198F800009E
:101C1000012801D146F0020698F80100012801D1FF
:101C200046F00406012F19D1012D13D19748007BEE
:101C300040F080009549087300200870087108463C
:101C4000007B20F0800008731020886246F00100BD
:101C500008623AE000208D49086236E0042F19D16D
:101C6000012D13D18C48C06840F080008A49C860BB
:101C70000020086048600846C06820F08000C86006
:101C80001020886246F0010008621EE000208249B0
:101C900008621AE03846FFF7E1FA0446012D11D137
:101CA000207B40F080002073002020702071207B7A
:101CB00020F080002073102084F8280046F00100F6
:101CC000206201E00020206200BFBDE8F08170B515
:101CD00005460C46012D05D16C48006A20436B492E
:101CE00008620FE0042D05D16B48006A20436A4961
:101CF000086207E02846FFF7B1FA0646306A20433B
:101D0000306200BF70BD042800D07047012906D1A1
:101D1000614A526A42F002025F4B5A6206E029B9F8
:101D20005D4A526A02F03D025B4B5A6200BFECE72B
:101D3000042800D07047012906D1574A526A42F060
:101D40000102554B5A6205E0534A526A02F03E02C4
:101D5000514B5A6200BFEDE730B5042800D030BDCA
:101D60004C07A30E4C4C646A24F0380243F0040480
:101D7000224302F03F04484D6C6200BFEFE730B5EC
:101D80000023012800D030BD11B1012904D101E0A8
:101D9000012302E0022300E000BF00BF012A05D1B9
:101DA0003A4C247C1C43394D2C7406E0374C247C7F
:101DB000F3259D432C40354D2C7400BFE3E730B52F
:101DC0000346012B00D030BD21B1012904D00229E6
:101DD00006D103E0102004E0402002E0802000E073
:101DE00000BF00BF012A05D1284C247C0443274DA5
:101DF0002C7406E0254C247CF32585432C40234D90
:101E00002C7400BFDFE70146012901D00020704794
:101E10001E48007EFBE72DE9F05F07460C460025D3
:101E2000012F0AD1DFF8648008F15408A8F10409F1
:101E3000164E0C36A9F1040A19E0042F0AD1DFF876
:101E4000588008F15408A8F10409134E0C36A9F182
:101E5000040A0CE03846FFF701FA83460BF15408F8
:101E60000BF150090BF10C060BF14C0A00BFE078A6
:101E700001281BD145F010056079012801D145F0FA
:101E800020052079012809E000C000400000014041
:101E90000080094000C0094000400A4003D1012FE2
:101EA00001D145F00805E079C8F800002078012844
:101EB00001D145F00105A078012804D145F00405C1
:101EC000A079C9F80000607808B945F0020505F06E
:101ED0003F00CAF80000306840F038003060BDE8CC
:101EE000F09F2DE9F04105460E46012D01D13A4CF7
:101EF0000AE0042D01D1394C06E02846FFF7AEF97F
:101F0000074607F1540400BF012E04D1206820F0D9
:101F10000200206003E0206840F002002060BDE87D
:101F2000F0812DE9FF4F81B006468B469846012E81
:101F300004D1294C483C284D403D0FE0042E04D1EB
:101F4000264C483C254D403D08E03046FFF786F9D9
:101F500082460AF10C040AF1140500BFB8F1000F23
:101F600015D02068C7B2B94629F01009C4F800900E
:101F7000012359463046039AFFF72EFC009000BF1C
:101F8000286800F040000028FAD027600CE0012308
:101F900059463046039AFFF71FFC009000BF28689F
:101FA00000F040000028FAD0009805B0BDE8F08F9E
:101FB00013B5044601231A4601A92046FFF7B1FFD5
:101FC0001CBD70B504460D46164600233246294610
:101FD0002046FFF7A6FF70BD5400014054400A4060
:101FE00070B505460120FEF7E9F80446204670BDAD
:101FF0002DE9F04781460C464846FFF7F1FF0026E1
:10200000054600232946A1FB047C06FB04C205FB10
:102010000321D84A3846FEF72BF905462846BDE885
:10202000F08701464FF0FF30B1F1402F01D1002081
:102030000DE0D14A914201D1012008E0CF4A9142FE
:1020400001D1022003E0CE4A914200D10320704723
:1020500010B50246106801248C402040C3B20BB179
:10206000012010BD0020FCE730B5024610680C1DB1
:102070000125A5402840C3B20BB1012030BD00208E
:10208000FCE701228A40026070470A1D0123934049
:102090000360704720B90A4601231370536003E0C0
:1020A0000A460023537000BF70472DE9F0470446ED
:1020B0000F461546B4F1402F04D101210220FEF74E
:1020C00094F816E0AC48844204D101210420FEF7C4
:1020D0008CF80EE0A948844204D101218805FEF75E
:1020E00084F806E0A648844203D10121C805FEF722
:1020F0007CF8206F20F003002067206F206700200D
:10210000A0602061E060606840F00200606060688C
:1021100020F00200606087B92E46307818B97068E8
:10212000401EE06017E02046FFF77BFF81467168A4
:10213000FFF75EFF401EE0600DE0A846206F20F034
:102140000C002067454698F80100012803D1A06AD9
:1021500040F00400A0624FF0FF302060BDE8F0873F
:1021600010B5044600206060B4F1402F04D1002176
:102170000220FEF73AF818E07F48844204D100219B
:102180000420FEF732F810E07C48844205D100219B
:102190004FF48000FEF729F807E07948844204D123
:1021A00000214FF48000FEF720F810BD012904D172
:1021B000426842F00102426003E0426822F00102FC
:1021C00042607047416841F002014160416821F07E
:1021D00002014160704710B50A7832B1012A07D078
:1021E000022A08D0032A0CD108E08A6882610AE03A
:1021F0008A68C26107E08A68026204E08A68426213
:1022000001E000BFFEE700BF42690B7803EB430427
:102210000723A3409A4342614A783AB142690B7856
:1022200003EB43040123A3401A434261CA7842B13D
:1022300042690B7803EB43035B1C01249C4022435F
:1022400042618A7842B142690B7803EB43039B1CDD
:1022500001249C4022434261C26B0B78042404EBAE
:1022600043040323A3409A43C2630A7902F00302A2
:102270000B78042404EB43039A40C36B1A43C263F4
:1022800010BD31B1012906D0022906D0032908D199
:1022900005E0826107E0C26105E0026203E042629C
:1022A00001E000BFFEE700BF704710B5826A0B78FF
:1022B00003EB43040723A3409A4382624A783AB16E
:1022C000826A0B7803EB43040123A3401A43826222
:1022D0008A7842B1826A0B7803EB43035B1C0124CA
:1022E0009C4022438262CA7842B1826A0B7803EB37
:1022F00043039B1C01249C402243826210BD024682
:1023000009B9D06A7047106BFCE71EB504464FF060
:10231000FF304FF04021086000208DF800000120C0
:102320008DF801008DF803008DF8020000208DF873
:102330000400029469464FF04020FFF74CFF012152
:102340004FF04020FFF732FF00BF4FF04020006801
:1023500000F001000028F8D04FF04020FFF732FFD6
:102360001EBD10B504464FF47A7104FB01F0FFF76F
:10237000CCFF10BD40420F0000800040000009402B
:102380000040094010B500215248FFF761FE0128C6
:1023900004D151A10020584A1268904700214D48AD
:1023A000FFF76FFE10BD10B500214FF04020FFF782
:1023B0004FFE012804D151A100204F4A12689047D6
:1023C00000214FF04020FFF75CFE10BD704710B5B4
:1023D00051490020514A1268904710BDFEF7A0FCF9
:1023E000FFF7F5FF03221D211046FEF76AFD0322C9
:1023F0001E211046FEF765FD03221F211046FEF741
:1024000060FD0020464908700120486000204549D1
:102410000870012048700020C8708870032008717F
:1024200042F2107088603E4A00212A48FFF73DFEC4
:102430003C492848FFF7CFFE01203A490870487010
:102440000020C87088700320087143F698208860C7
:10245000334A00211F48FFF728FE32491D48FFF785
:10246000BAFE02202F490870012048700020C87071
:1024700088700320087144F620608860284A002193
:102480001448FFF712FE27491248FFF7A4FE022066
:102490000921002807DACA06140E234A00F00F03A8
:1024A0001B1FD45403E0CA06130E204A135400BF66
:1024B0000220012181404209920002F1E022C2F88B
:1024C000001100BF01210348FFF770FE00BFFEE7C7
:1024D000FFF784FF0080004054494D31204D617466
:1024E00063683020696E74657272757074206F63F2
:1024F0006375722E2E2E0000140000104D6174635F
:102500006820696E74657272757074206F6363758C
:10251000722E2E2E0000000050000010100000103F
:10252000B4010010C001001018ED00E000E400E06C
:10253000202A04DB203A21FA02F00021704721FA18
:1025400002F3D040C2F1200291400843194670477F
:10255000064C074D06E0E06840F0010394E80700F0
:1025600098471034AC42F6D3FDF7C0FD4426000076
:102570006426000070B58C1810F8015B15F0070395
:1025800001D110F8013B2A1106D110F8012B03E00C
:1025900010F8016B01F8016B5B1EF9D12B0705D414
:1025A0000023521E0DD401F8013BFAE710F8013B5D
:1025B000CB1A921C03E013F8015B01F8015B521E79
:1025C000F9D5A142D8D3002070BD02E008C8121F7F
:1025D00008C1002AFAD17047002001E001C1121F92
:1025E000002AFBD170470000506C6561736520655F
:1025F0006E746572206120636861722066726F6D0F
:102600002027302720746F202739272C20616E6403
:102610002027612F41272C2027622F42272C20635F
:102620002F43272C2027642F44272C2027652F4554
:102630002720616E642027662F46272121210D0A5D
:10264000000000006426000000000010C00100002F
:102650007425000034270000C00100101014000091
:10266000D825000011140E27073C8793030404406B
:102670006CDC020A4D2A01181D0A0D2048656C6C9D
:102680006F204E58502053656D69636F6E6475639B
:10269000746F7273201C181B54696D6572204D6134
:1026A00074636820496E7465727275707420646515
:1026B0006D6F1E581409202D204D43553A204C5063
:1026C00043313737785F3878165814436F72653A5C
:1026D0002041524D20434F525445582D4D331A1D21
:1026E000554152541F38176D6D756E696361746979
:1026F0006F6E3A20313135323030206270733E5582
:10270000736520747708233E7820746F67676C6563
:10271000204D4154782E30206174206672657175A9
:10272000656E63792031487A0A0DFEE901E30A0DEE
:042730001201000092
:04000005000000E512
:00000001FF
