:020000040000FA
:1000000040180010F9000000050100000701000081
:10001000090100000B0100000D01000000000000BC
:100020000000000000000000000000000F010000C0
:100030001101000000000000130100001501000084
:10004000170100001701000017010000371400001D
:100050001701000017010000170100001701000040
:100060001701000017010000170100001701000030
:100070001701000017010000170100001701000020
:100080001701000017010000170100001701000010
:100090001701000017010000170100001701000000
:1000A00017010000170100001701000017010000F0
:1000B00017010000170100001701000017010000E0
:1000C00017010000170100001701000017010000D0
:1000D00017010000170100001701000017010000C0
:1000E00017010000DFF80CD001F080FC0048004749
:1000F000E316000040180010074880470748804773
:1001000007480047FEE7FEE7FEE7FEE7FEE7FEE7FB
:10011000FEE7FEE7FEE7FEE7B9050000E716000090
:10012000E500000001463B48704770B506460D46A5
:100130003046FFF7F7FF0446206820F48030206047
:10014000012D03D1206840F48030206070BD10B5CF
:10015000044631480078012800D110BD02221A213E
:10016000002000F000FB01221A21002000F04CFCCE
:1001700001221A21002000F06DFC00212046FFF72B
:10018000D4FF01202449087000BFE6E72DE9F041C3
:1001900007460C463846FFF7C5FF0646306800F4B0
:1001A0008035C4F3090045EA80153560BDE8F0816B
:1001B00070B506460D463046FFF7B4FF044660684A
:1001C00020F00F006060287818B1606840F00200ED
:1001D0006060687818B1606840F004006060A878DA
:1001E00018B1606840F00800606070BD70B50546E9
:1001F0000C462846FFF796FF0646A0B2B06070BDD9
:1002000070B504462046FFF78DFF0546686800F08C
:10021000010070BD00C00840100000102DE9F05F23
:100220000546002092469B46884606468146402465
:100230001BE0284641464746224601F06AFB5346EA
:100240005A46C01A914110D311461846224600F072
:100250003CF82D1A67EB01084F4622460120002189
:1002600000F033F817EB00094E41201EA4F1010401
:10027000DFDC484631462A464346BDE8F09F0EB5CE
:1002800040F2334102910021CDE900110A460B46AC
:1002900001F05EFB03B000BDC1F30A5210B5C1F31B
:1002A000130140F2FF3341F480119A4201DA002039
:1002B00010BD40F233439A42A2F2334203DC524271
:1002C00001F027FB10BD904010BD202A04DB203A2E
:1002D00000FA02F1002070479140C2F1200320FA99
:1002E00003F3194390407047012201F038BC00220B
:1002F00013461046114601F09DBA7047FFFFFFFFFD
:1003000030B5E248006800F48070002872D1DF4800
:100310000830006800F0010070BBDC48006800F0A5
:100320001F0008B9002006E0D848006800F01F0050
:10033000D749B1FBF0F0D7490860D448A430006831
:1003400000F01F0008B9002007E0D048A430006882
:1003500000F01F00CE49B1FBF0F0CF490860CB4858
:10036000001F006800F00100401CCA490968B1FB89
:10037000F0F0CA490860BEE0C4489C30006800F054
:10038000400038B90020C3490860C3490860C34928
:100390000860B0E0BD48006800F01F0008B9002008
:1003A00006E0BA48006800F01F00B949B1FBF0F060
:1003B000B8490860B548A430006800F01F0008B9CB
:1003C000002007E0B148A430006800F01F00B049E9
:1003D000B1FBF0F0B0490860AC48001F006800F0C5
:1003E0000100401CAB490968B1FBF0F0AB49086063
:1003F00081E0FFE7A5487C38006800F4807038B9D8
:100400000020A4490860A4490860A449086072E07B
:100410009E480830006800F0010070BB9B4C7C3C9B
:10042000246804F01F04601C9D4CD4F8044104F0BF
:100430001F01964CA434246804F01F02984CD4F891
:10044000004104F00104631C09B9002403E0904C4E
:100450004443B4FBF1F48F4D2C600AB9002403E04F
:100460008B4C4443B4FBF2F48B4D2C60894C2468D4
:10047000B4FBF3F4894D2C603DE0FFE783489C30EA
:10048000006800F0400038B90020824908608249C5
:100490000860824908602EE07C4C7C3C246804F0B3
:1004A0001F04601C7E4CD4F8044104F01F01774CFB
:1004B000A434246804F01F02794CD4F8004104F0FD
:1004C0000104631C09B9002403E0714C4443B4FBEC
:1004D000F1F4704D2C600AB9002403E06C4C4443E5
:1004E000B4FBF2F46C4D2C606A4C2468B4FBF3F45A
:1004F0006A4D2C6000BF6548001D006800F48070E4
:1005000098B36248001D006800F01F0020B1042865
:1005100006D0062824D104E000206249086023E0C8
:1005200000BF5A4A7C3A126802F01F02501C5C4A13
:10053000D2F8082102F01F01544A0832126802F072
:10054000010232B1524A4243B2FBF1F2554B1A60FA
:1005500005E04F4A4243B2FBF1F2524B1A6003E00E
:1005600000205049086000BF25E0FFE74748001D14
:10057000006800F40070D8B144480830006800F00A
:10058000010050B141485C38006800F01F00401C79
:100590003F494843434908600DE03C487C380068C7
:1005A00000F01F00401C3A4948433E49086002E001
:1005B00000203C49086030BD00B5212033499C3102
:1005C000086000BF31489C30006800F040000028FF
:1005D000F8D001202D490831086009203049C1F8C0
:1005E000840001202E4980310860AA2027497839EB
:1005F00008605520086000BF24487C38006800F47B
:1006000080600028F8D0232020496039086001204C
:100610002349C1F8A000AA201C4958390860552078
:100620001F49C1F8AC0000BF18485C38006800F4EE
:1006300080600028F8D040F201101449086040F2B0
:1006400001201749C1F8080101201049091F08605D
:1006500002200E49A431086013480C494039086053
:1006600088150F49C1F8C8010846D0F8B00140F01C
:1006700003000649AC31086045F23A0008490860B9
:1006800000200A490860FFF73BFE00BD04C10F408F
:10069000001BB7000000001004000010080000104C
:1006A00000C00F400C000010DE87280408ED00E0B9
:1006B00010B50246002001EB4213F74C04EB830017
:1006C00010BD02460520062A4AD2DFE802F0032FB9
:1006D000393A3B3D062907DD0A2901DB0B2903DDF9
:1006E0000E2903DB162901DC00201EE00C2905D0B1
:1006F0000D2903D0172903DB1A2901DC012014E09E
:100700001D2903D01E2901D01F2901D102200CE090
:100710001B2901D01C2901D1032006E0072903D0A1
:10072000082901D0092900D104201AE01D2901DC83
:10073000002004E01E2901D01F2900D1012010E073
:1007400000BF00BF00200CE0012901DD042901D118
:10075000002004E0022901D0032900D1032000E099
:1007600000BF00BF70472DE9F04106460F46154611
:10077000002439463046FFF7A4FF8046B8F1050F44
:1007800002D1C648BDE8F08139463046FFF790FFF8
:100790000446206820F00700206005F0070120686B
:1007A000084320600020EDE72DE9F0410746884628
:1007B0001646002441463846FFF783FF0546052DBF
:1007C00002D1B648BDE8F08135B1012D04D0042D29
:1007D00002D0B248401CF5E741463846FFF768FFB3
:1007E0000446206820F018002060182101EAC601A4
:1007F0002068084320600020E4E72DE9F041074627
:1008000088461646002441463846FFF75AFF0546FB
:10081000052D02D1A148BDE8F08125B1042D02D0FB
:100820009E48401CF7E741463846FFF741FF044623
:1008300026B9206820F02000206003E0206840F006
:10084000200020600020E6E72DE9F04107468846B9
:100850001546002441463846FFF733FF0646052E6D
:1008600002D18E48BDE8F081022E02D18B48401C97
:10087000F8E741463846FFF71BFF044625B92068D4
:1008800020F04000206003E0206840F0400020603D
:100890000020E7E72DE9F041074688461646002488
:1008A00041463846FFF70DFF0546052D02D17B482E
:1008B000BDE8F08125B1042D02D07848401CF7E74F
:1008C00041463846FFF7F4FE044626B9206820F476
:1008D0000070206003E0206840F400702060002079
:1008E000E6E72DE9F04107468846154600244146D3
:1008F0003846FFF7E6FE0646052E02D16748BDE8FA
:10090000F081032E02D06548401CF8E74146384686
:10091000FFF7CEFE044625B1206820F480702060E9
:1009200003E0206840F4807020600020E7E72DE9B4
:10093000F041074688461546002441463846FFF7F1
:10094000C0FE0646052E02D15448BDE8F081032EB4
:1009500002D05248401CF8E741463846FFF7A8FE4F
:10096000044625B1012D0CD0022D1ED113E0012229
:1009700041463846FFF7B5FF206820F4007020603C
:1009800016E0002241463846FFF7ABFF206820F40E
:10099000007020600CE0012241463846FFF7A1FFBD
:1009A000206840F40070206002E04FF0FF30CCE798
:1009B00000BF0020C9E72DE9F041074688461646EA
:1009C000002441463846FFF77CFE0546052D02D13E
:1009D0003248BDE8F08135B1012D04D0042D02D09C
:1009E0002E48401CF5E741463846FFF761FE0446B5
:1009F00026B9206820F48060206003E0206840F47D
:100A0000806020600020E4E72DE9F0410746884639
:100A10001546002441463846FFF753FE0646052E8C
:100A200002D11E48BDE8F081012E02D01B48401CB7
:100A3000F8E741463846FFF73BFE044625B12068FB
:100A400020F08000206003E0206840F080002060FB
:100A50000020E7E72DE9F04105460E461746002441
:100A600031462846FFF72DFE8046B8F1050F02D12A
:100A70000A48BDE8F0810DB91A2E02D00748401C83
:100A8000F7E731462846FFF713FE044647B12068D2
:100A900040F48030206007E000C0024001000010F8
:100AA000206820F4803020600020E2E72DE9F0414A
:100AB000074688461646002441463846FFF701FEA1
:100AC0000546052D02D10D48BDE8F081012D04D069
:100AD000042D02D00948401CF6E741463846FFF78E
:100AE000E7FD044626B1206820F48070206003E012
:100AF000206840F4807020600020E5E701000010CD
:100B000010B5DD480078012800D110BD012148074B
:100B100000F025FA0020D9490860D949C1F8300110
:100B2000D64940310860D54960310860D3498031E9
:100B30000860D249A0310860D049C0310860CF496F
:100B4000E0310860FF20CE49886008610120CA4971
:100B5000087000BFD9E770B50146C948C0690E7872
:100B60000125B540EDB2284008B1002070BDC54D4B
:100B7000086855F820200D780120A840C0B2C04D6B
:100B8000A8600D780120A840C0B2BD4D28610020AA
:100B9000D0601061086A9060486907287ED2DFE85B
:100BA00000F0041B436B961C4400C8681060086981
:100BB00050608888C0F30B0040F410300D7A05F0C7
:100BC000070540EA85400D7A05F0070540EA4550E3
:100BD00040F00C40D0607CE000BFC8681060AA4DB7
:100BE000C86955F820005060A84DC869285C00F01D
:100BF0000705486865F31F30A44ECD69755D05F0A3
:100C0000070540EAC530A24ECD69755D05F00705C0
:100C100040EA8540CD69755D05F0070540EA45501D
:100C200040F00440D06054E000BF974D886955F80B
:100C30002000106008695060944D8869285C00F0BD
:100C40000705486865F31F30904E8D69755D05F0A6
:100C5000070540EAC5308E4E8D69755D05F00705C4
:100C600040EA85408D69755D05F0070540EA45500D
:100C700040F00840D0602CE0834D886955F8200092
:100C80001060C86955F820005060804D8869285C64
:100C900000F00705486865F31F3000E017E07B4E61
:100CA000CD69755D05F0070540EAC530784E8D6960
:100CB000755D05F0070540EA8540CD69755D05F075
:100CC000070540EA455040F00040D06001E00020B8
:100CD0004CE700BF886908281BD08869092818D00C
:100CE00088690F280BD96B48D0F8C4010D7E103DE0
:100CF0000126AE403043674DC5F8C40109E06548A0
:100D0000D0F8C4010E7E0125B540A843614DC5F859
:100D1000C401C86908281BD0C869092818D0C86947
:100D20000F280BD95B48D0F8C4010D7F103D012678
:100D3000AE403043574DC5F8C40109E05548D0F8DE
:100D4000C4010E7F0125B540A843524DC5F8C4012A
:100D500001204B4D286300BF4948006B00F00100A3
:100D60000028F9D08B690F2B02D9A3F1100000E005
:100D700018460346CC690F2C02D9A4F1100000E0FC
:100D800020460446087D00F007004FF4404545EA40
:100D9000C02003F01F0540EA450004F01F0540EAAB
:100DA000851010610120E1E60246364B53F822001F
:100DB000012904D1036943F00103036103E00369DE
:100DC00023F00103036170470246052A3BD2DFE8A6
:100DD00002F0030E19242F002948006801238B40DC
:100DE000DBB2184008B1012070470020FCE724481E
:100DF000436801208840C0B203400BB10120F3E7F3
:100E00000020F1E71E48C06801238B40DBB2184088
:100E100008B10120E8E70020E6E7194883690120CE
:100E20008840C0B203400BB10120DDE70020DBE7C2
:100E30001348406901238B40DBB2184008B1012000
:100E4000D2E70020D0E70E48C36901208840C0B235
:100E500003400BB10120C7E70020C5E728B90122F4
:100E60008A40D2B2064B9A6004E001228A40D2B294
:100E7000034B1A6170470000B400001010010820F5
:100E80000000082094000010140000102C23000023
:100E90004C23000000C00F4070B506460D4636B129
:100EA000012E11D0022E1DD0032E3DD128E0464840
:100EB000006820F01F0405F01F0004434348C0F8F9
:100EC0000441FFF71DFA31E03F48A430006820F0EC
:100ED0001F0405F01F0004433C48C0F8A841FFF779
:100EE0000FFA23E03848001F006820F0010405F0E5
:100EF000010004433548C0F80041FFF701FA15E04E
:100F00003148001D006820F01F0405F01F00044355
:100F10002E48D0F8080105F01F0108432A49091D91
:100F20000860FFF7EDF901E000BFFEE700BF70BD0C
:100F3000014631B1012907D0022908D003290CD17B
:100F400008E023480068704722480068FBE7224811
:100F50000068F8E721480068F5E700BFFEE70129CF
:100F600007D1194A403A12680243184BC3F8C4200B
:100F700007E031B9144A403A12688243134BC3F870
:100F8000C4207047002010494439086030BF7047C2
:100F900004201349086000200B494439086030BF21
:100FA000704704200E490860012007494439086051
:100FB00030BF704704200A490860032002494439C1
:100FC000086030BF7047000004C10F4000C00F40F0
:100FD0000000001004000010080000100C000010B9
:100FE00010ED00E070B505460120FFF7A1FF0446B3
:100FF000204670BD2DE9F04781460C464846FFF774
:10100000F1FF0026054600232946A1FB047C06FBD0
:1010100004C205FB0321D74A3846FFF7FFF805460F
:101020002846BDE8F08701464FF0FF30B1F1402F70
:1010300001D100200DE0D04A914201D1012008E009
:10104000CE4A914201D1022003E0CD4A914200D123
:101050000320704710B50246106801248C402040E0
:10106000C3B20BB1012010BD0020FCE710B5024651
:10107000106801248C402040C3B20BB1012010BD88
:101080000020FCE701228A400260704701228A406A
:101090000260704720B90A4601231370536003E0D1
:1010A0000A460023537000BF70472DE9F0470446FD
:1010B0000F461546B4F1402F04D101210220FFF75D
:1010C0004EFF16E0AC48844204D101210420FFF712
:1010D00046FF0EE0A948844204D101218805FFF7AC
:1010E0003EFF06E0A648844203D10121C805FFF770
:1010F00036FF206F20F003002067206F206700205C
:10110000A0602061E060606840F00200606060689C
:1011100020F00200606087B92E46307818B97068F8
:10112000401EE06017E02046FFF77DFF81467168B2
:10113000FFF760FF401EE0600DE0A846206F20F042
:101140000C002067454698F80100012803D1A06AE9
:1011500040F00400A0624FF0FF302060BDE8F0874F
:1011600010B5044600206060B4F1402F04D1002186
:101170000220FFF7F4FE18E07F48844204D10021EA
:101180000420FFF7ECFE10E07C48844205D10021EA
:101190004FF48000FFF7E3FE07E07948844204D172
:1011A00000214FF40000FFF7DAFE10BD012904D141
:1011B000426842F00102426003E0426822F001020C
:1011C00042607047416841F002014160416821F08E
:1011D00002014160704710B50A7832B1012A07D088
:1011E000022A08D0032A0CD108E08A6882610AE04A
:1011F0008A68C26107E08A68026204E08A68426223
:1012000001E000BFFEE700BF42690B7803EB430437
:101210000723A3409A4342614A783AB142690B7866
:1012200003EB43040123A3401A434261CA7842B14D
:1012300042690B7803EB43035B1C01249C4022436F
:1012400042618A7842B142690B7803EB43039B1CED
:1012500001249C4022434261C26B0B78042404EBBE
:1012600043040323A3409A43C2630A7902F00302B2
:101270000B78042404EB43039A40C36B1A43C26304
:1012800010BD31B1012906D0022906D0032908D1A9
:1012900005E0826107E0C26105E0026203E04262AC
:1012A00001E000BFFEE700BF704710B5826A0B780F
:1012B00003EB43040723A3409A4382624A783AB17E
:1012C000826A0B7803EB43040123A3401A43826232
:1012D0008A7842B1826A0B7803EB43035B1C0124DA
:1012E0009C4022438262CA7842B1826A0B7803EB47
:1012F00043039B1C01249C402243826210BD024692
:1013000009B9D06A7047106BFCE71EB504464FF070
:10131000FF304FF04021086000208DF800000120D0
:101320008DF801008DF803008DF8020000208DF883
:101330000400029469464FF04020FFF74CFF012162
:101340004FF04020FFF732FF00BF4FF04020006811
:1013500000F001000028F8D04FF04020FFF732FFE6
:101360001EBD10B504464FF47A7104FB01F0FFF77F
:10137000CCFF10BD40420F0000800040000009403B
:101380000040094018B5024609B9D74B00E0D74BD9
:101390001846002300934AE0009B0F2B0BD8D44B38
:1013A000009C53F824305343DC2404EB1333009C9B
:1013B00040F824302DE0009B1E2B0DD8009BC3F17C
:1013C0001E03CB4C54F823305343DC2404EB13337B
:1013D000009C40F824301CE0009B2D2B0CD8009B77
:1013E0001E3BC34C54F823305343DC24A4EB13338B
:1013F000009C40F824300CE0009BC3F13C03BC4C43
:1014000054F823305343DC24A4EB1333009C40F8FE
:101410002430009B50F82330B3F5806F04D340F2A2
:10142000FF33009C40F82430009B5B1C0093009B22
:101430003C2BB1D318BD10B50021AE48FFF70AFE12
:10144000012837D10021AB48FFF71CFEAA480078DD
:1014500080F00100A8490870A849A94A127851F8FB
:101460002210A84A127851F82200A3490978FFF700
:1014700089FFA148007808B99B4800E09B48A24931
:1014800008609D48007808B9974800E097489F4950
:10149000C8600846FFF75FFB01210020FFF784FCCE
:1014A00098480078401CC0B296490870102801D1B5
:1014B0000020087010BD2DE9F84F0020009028E0B2
:1014C000B422009951430809FEF7D9FE0646904A16
:1014D000904B00F03DF9044600228F4B00F0AAF932
:1014E000804689464046494600F0D0FE82468B46FB
:1014F00000224FF081435046594600F029F9044636
:10150000FEF7CAFE8549009A41F822000098401C67
:10151000009000981028D3D30020009014E04FF0E2
:1015200011347F4D0098FEF7AAFE804622462B46D6
:1015300000F00EF90646FEF7AFFE7A49009A41F830
:1015400022000098401C009000980F28E7D34FF429
:1015500000707449C8630020009019E00024724DA7
:101560000098FEF78CFE804622462B4600F0F0F8ED
:101570000646FEF791FE0099C1F110016B4A42F850
:1015800021001146009A41F822000098401C00906A
:1015900000980828E2D90020009011E0009808285F
:1015A00006D84FF400706249009A41F8220004E026
:1015B00000205F49009A41F822000098401C0090EA
:1015C00000981028EAD3BDE8F88F10B5044624012E
:1015D0005848B0FBF4F0584988604648FFF7FBFDD7
:1015E00010BD10B504460120544908704860002021
:1015F0005149087001204870C87000208870087137
:1016000024014C48B0FBF4F088604C4A0021394872
:10161000FFF74BFD48493748FFF7DDFD10BD10B51A
:10162000032001218140464A430942F8231000BFAC
:1016300000BF012181404209920002F1E022C2F87C
:10164000001100BF01212B48FFF7B0FD10BD10B500
:1016500000212848FFF7AAFD032001218140394AD3
:10166000430942F8231000BF10BDFFF724FF0024F8
:1016700007E000201D4941F824001B4941F82400DF
:10168000641C3C2CF5D31C480178DC20FFF77AFE63
:1016900001202D49487000208870FEF758FD012078
:1016A000FFF746FC04462948B4FBF0F4214600202D
:1016B000FEF79CFD24490020FEF77AFD00240FE090
:1016C000094850F824100020FEF760FD00BF0020FC
:1016D000FEF796FD0028FAD0641C3C2C00D10024B3
:1016E000EEE7FFF7C2FF7047500200104003001002
:1016F000D000001000000940BA000010BC0000102B
:10170000B9000010B8000010400200101C010010C9
:101710001E264454FB210940008066404001001011
:10172000111141400002001000005040C0010010A3
:101730008001001040420F00300400101001001022
:1017400080E200E080E100E0CC00001040190100E0
:101750002DE9FE4F81EA030404F0004421F000412A
:1017600000944FF0000B23F0004350EA01045ED0D8
:1017700052EA03045BD0C3F30A54C1F30A552C4464
:10178000A4F2F3340194A0FB0254C1F3130141F419
:101790008011C3F3130343F4801301FB024400FBE5
:1017A000034E840A970A44EA815447EA8357A4FB0C
:1017B000076802958D0A05FB07854FEA932C04FB09
:1017C0000C542705029D4FEA065847EA1637B5EB39
:1017D00008056EEB070C870E920E47EA811742EA66
:1017E0008312A7FB0201B6EB0B0164EB00042B0D87
:1017F00043EA0C335E1844EB1C50DA465146E7FBD3
:101800000201C5F313044FEA0B3343EA14534FEAC2
:101810000432019C43EA0603A4F10C040294009CE8
:10182000CDE900B400F094F803B0BDE8F08F0020DB
:101830000146F9E72DE9F04D81EA030404F0004B7D
:1018400021F0004514464FF0000A23F0004150EA11
:10185000050220D054EA01021DD0C5F30A57024602
:10186000C5F31303C1F31300C1F30A5640F4801506
:1018700043F48013A7EB0608101BD64608F2FD3888
:1018800073EB050002D308F1010801E092185B41F7
:10189000B8F1000F03DA00200146BDE8F08D00200A
:1018A0004FF48011064684460EE0171B73EB0507C4
:1018B00005D3121B63EB050306434CEA010C4908F0
:1018C0004FEA300092185B4150EA0107EDD152EA2D
:1018D000030012D082EA040083EA0501084305D020
:1018E000101BAB4106D20122002306E000224FF07C
:1018F000004302E06FF0010253101AEB06004CEBBC
:10190000085110EB0A0041EB0B01BDE8F04D00F06F
:1019100010B8202A04DB203A21FA02F00021704797
:1019200021FA02F3D040C2F1200291400843194647
:10193000704710B5141E73F1000408DA401C41F121
:10194000000192185B411A4301D120F0010010BD43
:101950002DE9F04D92469B4611B1B1FA81F202E0B9
:10196000B0FA80F220329046FEF7AFFC04460F46F4
:1019700040EA0A0041EA0B0153465A46084313D095
:10198000114653EA010019D0C8F140025046FFF752
:10199000C0FF05460E46504659464246FEF795FCA6
:1019A000084305D0012004E020463946BDE8F08D0B
:1019B0000020054346EAE0762C4337430A98630546
:1019C000E40AA0EB08000022FD0A44EA47540A306A
:1019D00002D500200146E9E7010510196941DDE95A
:1019E000084500196941BDE8F04DA2E7064C074DD6
:1019F00006E0E06840F0010394E8070098471034DF
:101A0000AC42F6D3FEF772FB90240000B024000035
:101A10002DE9FE4F804681EA0300C00F0C4600907E
:101A200021F0004123F00045B8EB0200A94105D2A6
:101A30004046214690461C460B46024623F0004095
:101A4000104347D0270DC7F30A00C3F30A51029091
:101A5000401A019040286BDAC3F3130040F4801B56
:101A60000098924620B10023D2EB030A63EB0B0BE4
:101A700001985946C0F140025046FEF726FC064642
:101A80000D4650465946019A00F0B0F810EB080098
:101A90006141002487EA115284EAE7731A4340D077
:101AA000009A62B3019A012A4FEA075215DC001B23
:101AB00061EB02014FF0004202EA0752CDE9004219
:101AC000001C41F5801132462B46FFF741FF03B061
:101AD000BDE8F08F40462146F9E7001B61EB0201AB
:101AE000001C41F5801300185B412018A2F5001777
:101AF00047EB030140EAD570B6196D4111E06D085E
:101B00004FEA360645EAC0754FEA0752001B61EB03
:101B10000201001C41F5801149084FEA300000190C
:101B2000514132462B4603B0BDE8F04FFFF701BFED
:101B30000098012240000023D0EB020263EBE07327
:101B4000009821464FEAE074B8EB000061EB040115
:101B5000E9E783F000435BE781F0004158E770B5A7
:101B600021F0004303430CD0C1F30A550024D5EB08
:101B7000040564EB0403D617AD1AB34102DB002061
:101B8000014670BD201841EB025170BD0EB5C10F6A
:101B900080EAE0700844CA07002140F233438DE830
:101BA0000E000A460B46FFF7D3FE03B000BD70B52A
:101BB000C1F30A5201F000450024C1F3130140F2C1
:101BC000FF3341F480119A4201DA002070BD40F2E7
:101BD00033439A42A2F2334203DC5242FFF799FEAA
:101BE00000E090402C43F1D0404270BD202A06DB3B
:101BF000CB17203A41FA02F043EAE07306E041FADB
:101C000002F3D040C2F120029140084319467047C8
:101C1000490050EAC12018BF04204A0D18BF40F007
:101C2000010040F2FF72B2EB515F08BF40F00200CA
:101C3000012808BF052070472DE9F74F144694B0DE
:101C40000021C4E902111599079121F00045C94905
:101C50008D4206DC1599C4E9000117B00020BDE8EB
:101C6000F08FC549DFF814A3A9423CDD0799C44EA3
:101C70000029C44FC44A1599534619DDFFF769FF7F
:101C8000554506D0C14AC24BFFF763FFC4E90001C6
:101C90000AE04FF0D352BE4BFFF75BFF32463B46A4
:101CA000FFF757FFC4E9000117B00120BDE8F08F2E
:101CB000FFF7AEFE554506D0B44AB54BFFF7A8FE78
:101CC000C4E900010AE04FF0D352B14BFFF7A0FE88
:101CD00032463B46FFF79CFEC4E9000117B04FF0C7
:101CE000FF30BDE8F08FAB49A942159978DB21F0B0
:101CF000004183468846A84AA84BFFF729FD0022E9
:101D0000A74BFFF785FEFFF752FF0990FFF73EFF55
:101D100006460F469C4A5346FFF71AFD43465A466D
:101D2000FFF71AFF80468A46984A994B3046394653
:101D3000FFF70EFD2A0D01250B9242465346FFF791
:101D40000BFF032DC4E9000139D00B98C1F30A51F0
:101D5000401A05EB45111139814230DA9148C346EA
:101D6000784400EB0510CDF80CA00C90D0E90023CE
:101D700030463946FFF7ECFC02460B4604910690CC
:101D800058460399FFF7E5FE80468A4602460B4611
:101D900058460399FFF7DDFE049B069AFFF7D9FE2C
:101DA00083460C9803913946D0E902233046FFF769
:101DB000CFFC5A46039BFFF7CCFE6D1CBDE707988E
:101DC0000028A2BF099817B0BDE8F08F616881F0C4
:101DD00000416160099817B04042BDE8F08FFFE70D
:101DE00084461598C1F31301C0F30A50A0F2F530F0
:101DF0004FEA601800F01F06C6F120001390002083
:101E00000690079041F4801E05206D4676B1664A23
:101E100008EB00017A4452F8213002EB8101B34013
:101E20004A68139922FA01F1194305E05F4908EB6A
:101E30000002794451F82210A1FB0E27A1FB0C13DC
:101E40001A449A4234BF0123002303EB070A05EB2F
:101E50008003D3E901B70F448F4234BF0121002131
:101E600093448B4411B1934502D903E0934501D2C9
:101E7000012100E00021C3E901B7514445F82010D9
:101E8000011EA0F10100C1DC0298059F00F1005085
:101E9000800F12900298DDE903568000FFF776FE6E
:101EA000834628460D91FEF7EAF96FF01D02FFF711
:101EB00056FECDE90E013046FEF7E1F96FF03D0226
:101EC000FFF74DFE80468A463846FEF7D8F96FF098
:101ED0005D02FFF744FE0746424653461191FFF765
:101EE00097FDDDE90E23FFF793FD5A460D9BFFF7A3
:101EF0008FFD00250E465A4628460D9BFFF729FE0A
:101F0000DDE90E23FFF725FE42465346FFF721FE8B
:101F10003A46119BFFF720FEDFF898A0244A53466B
:101F2000FFF716FC07468846234A244B31462846CD
:101F3000FFF70EFC3A464346FFF76AFD0746884620
:101F40004FF0A842534631462846FFF701FC3A4677
:101F50004346FFF75DFD159A12F0004F04D0129A28
:101F600081F0004152421292C4E90001129817B068
:101F7000BDE8F08FFB21E93F7CD90240FB21F93F0E
:101F80007370032E8A19A33B000040543163621A18
:101F900061B4D03DFB21394183C8C96D305FE43F56
:101FA0000000E03F3C060000B80500009A05000074
:101FB000182D4454FB21F93D3326A611460B113C44
:101FC0002DE9FF4D21F0004807460C46B8F1795F36
:101FD00008DAFFF7ECFD002801BF0020324904B009
:101FE000BDE8F08D3A46234610461946FFF7B0FB90
:101FF000054602462D480E460B460621784400F061
:102000005DF82A463346FFF7A3FBDDE9022382464B
:102010008B4638462146FFF79BFB04460F46524647
:102020005B4628463146FFF793FB22463B46FFF7C7
:1020300090FD07468A464FF0FF3228463146FFF7AB
:102040008EFD1B4A90450ADA3A465346FFF781FD5A
:1020500004B00022BDE8F04D134BFFF77DBD154ADB
:102060004245A8BFA8F500154FF00004B8BF124DB7
:1020700022462B46FFF76DFD0646884622462B4634
:1020800000200949FFF765FD04460D463A465346D0
:1020900030464146FFF75DFD04B022462B46BDE8C1
:1020A000F04DFFF759BD00000000F03F7003000045
:1020B0003333D33F0000E93F0000D23F2DE9F04128
:1020C0004F1E00EBC7010446D1E9000115461E462C
:1020D00037F006020DD02A463346FFF739FB7F1E44
:1020E00004EBC703D3E90023FFF792FC37F00602A5
:1020F000F1D1022F25D0042F13D0062F18BFBDE831
:10210000F0812A463346FFF723FBD4E90A23FFF781
:102110007FFC2A463346FFF71BFBD4E90823FFF771
:1021200077FC2A463346FFF713FBD4E90623FFF773
:102130006FFC2A463346FFF70BFBD4E90423FFF775
:1021400067FC2A463346FFF703FBD4E90223FFF777
:102150005FFC2A463346FFF7FBFAD4E90023BDE8CB
:10216000F041FFF755BC00002DE9FF4D054621F079
:10217000004084B00C46B0F1795F0BDA2846FFF7D7
:1021800047FD042808BF00F065F8284608B021463E
:10219000BDE8F08D2A460B461046FFF7D9FA0646F1
:1021A0000F462A462346FFF7D3FA804626488A463A
:1021B00032463B4605217844FFF780FF834610985E
:1021C000029160B3214A224B40465146FFF7C0FAC4
:1021D000CDE900015A4640465146029BFFF7B8FA46
:1021E00082468846DDE906014FF0FF32FFF7B7FC73
:1021F00052464346FFF7ADFC32463B46FFF7A8FA8E
:10220000DDE90623FFF7A5FCDDE90023FFF7A1FCCC
:1022100008B02A462346BDE8F04DFFF79DBC0B46AB
:102220005A4630463946FFF793FA084A084BFFF7FB
:10223000EFFB42465346FFF78BFA08B02A46234687
:10224000BDE8F04DFFF7E4BBAE020000495555551F
:102250005555C5BF024A00201107FFF780BC00009A
:1022600001FDFFFF02E008C8121F08C1002AFAD1D1
:102270007047002001E001C1121F002AFBD1704706
:1022800001490860704700001801001000B5254B97
:1022900021F0004287B09A4203DC002213460092EC
:1022A0002BE0214B9A4208D140B94FF00100FFF7D3
:1022B000E7FFFEF71CF807B000BD03DBFEF714F8DC
:1022C00007B000BD02AAFFF7B7FC10F003014FF002
:1022D00001000DD0012914D002291AD00DF1080CEB
:1022E0009CE80F00FFF76CFE07B081F0004100BDD5
:1022F0000DF1080C00909CE80F00FFF735FF07B0C8
:1023000000BD0DF1080C9CE80F00FFF759FE07B067
:1023100000BD0DF1080C00909CE80F00FFF724FFB2
:10232000E2E70000FB21E93F0000F07F000201012D
:102330000101010100000000000000000000000099
:102340000000040400000000000000000002000083
:102350000000000002000000000000000202020273
:102360000202020200000000000002020000000061
:102370004C5555555555A53F7751C1166CC156BFA3
:102380009015CB19A001FA3EAD529C804F7E92BEB3
:10239000C4B1B4BD9EEE213ED43888BEE9FAA8BDD2
:1023A00000004054FB21F93F3163621A61B4D03D13
:1023B0000000601A61B4D03D7370032E8A19A33BEC
:1023C0000000002E8A19A33BC14920259A837B393E
:1023D00000000000000000006E83F9A22915444EA1
:1023E000D15727FCC0DD34F5999562DB4190433C21
:1023F000AB6351FE61C5BBDE3A6E24B7E0D24D42FD
:10240000EA2E49061C92D1091CEB1DFE3EA729B1FC
:10241000F53582E88444BB2E26709CE9417E5FB48A
:1024200039D69139F43953838B5F849C3B28F9BDAD
:10243000FF97F81F0F9805DE8B112FEF1F6D0A5ABB
:10244000CF7E366DB709CB27663F464F2DEA5F9E9C
:10245000C7BA27757BF1E5EBF739073DEA92528A57
:10246000B15FFB6B085D8D1FA6F810111111813F44
:10247000D561C119A0012ABF7DFEB157E31DC73E3A
:10248000EB9C2B8AE6E55ABE7CD5CF5A3AD9E53D7E
:10249000B0240000000000101C01000064220000B5
:1024A000CC2500001C01001024170000722200003F
:1024B000000E27070087930300879303006CDC025C
:1024C000000000000000000080000C400880084070
:1024D00008800840080003400800034008C00A4084
:1024E00008C00A400440034000C0084000C000404B
:1024F00000C0004000000140000001400080094091
:1025000000800940184000401C40004018800040F6
:102510001C800040180009401C00094008800A4047
:102520000C800A40000000000000000000C00940CC
:1025300000C0094000400A4000400A4018400940DD
:102540001C4009400001082020010820400108200B
:102550006001082080010820A0010820C001082097
:10256000E001082000000000000100004001001010
:10257000C0010010000200108001001000000000E7
:102580000000000066010000110300006F0400005D
:10259000070600008D070000C3080000200A0000A5
:1025A000600B0000530C0000560D0000120E0000DE
:1025B000CF0E0000630F0000BC0F000000100000F1
:0C25C0000000000000000000000000000F
:04000005000000E512
:00000001FF
