:020000040000FA
:10000000685A0010F9000000050100000701000017
:10001000090100000B0100000D01000000000000BC
:100020000000000000000000000000000F010000C0
:100030001101000000000000130100001501000084
:100040001701000017010000170100001701000050
:100050001701000017010000170100001701000040
:100060001701000017010000170100001701000030
:100070001701000017010000170100001701000020
:100080001701000017010000170100001701000010
:100090001701000017010000170100001701000000
:1000A0001D400000170100001701000017010000AB
:1000B00017010000170100001701000017010000E0
:1000C00017010000170100001701000017010000D0
:1000D00017010000170100001701000017010000C0
:1000E00017010000DFF80CD004F014FD00480047B1
:1000F000070D0000685A00100748804707488047EE
:1001000007480047FEE7FEE7FEE7FEE7FEE7FEE7FB
:10011000FEE7FEE7FEE7FEE799050000710D00002F
:10012000E500000010B5044621460020154A12687B
:10013000904710BD10B504460EE020780A2807D17C
:1001400014F8010BFFF7EEFF0D20FFF7EBFF03E0C4
:1001500014F8010BFFF7E6FF20780028EDD110BD61
:100160000FB408B503A800900748009A029904F05C
:1001700083FD002000900448FFF7DCFF01B05DF82C
:1001800014FB00008C010010383A001070B50646D0
:100190000D4636B1012E12D0022E1ED0032E3ED1B6
:1001A00029E04448006820F01F0405F01F0040EAE1
:1001B00004044148C0F8044100F0A2F831E03F488F
:1001C000006820F01F0405F01F0040EA04043A48CC
:1001D000C0F8A84100F094F823E03948006820F006
:1001E000010405F0010040EA04043348C0F800416E
:1001F00000F086F815E03348006820F01F0405F091
:100200001F0040EA04042C48D0F8080105F01F0143
:1002100040EA01002B49086000F072F801E000BFDD
:10022000FEE700BF70BD014631B1012907D00229A8
:1002300008D003290CD108E0234800687047234800
:100240000068FBE722480068F8E722480068F5E705
:1002500000BFFEE7012907D11F4A126842EA0002E7
:10026000154BC3F8C42007E031B91B4A126822EAD3
:100270000002114BC3F8C4207047002017490860E2
:1002800030BF7047042016490860002013490860F9
:1002900030BF704704201249086001200F490860F0
:1002A00030BF704704200E49086003200B490860E6
:1002B00030BF704704C10F4000C00F40A8C10F40BD
:1002C00000C10F4008C10F400000001004000010E2
:1002D000080000100C000010C4C00F40C0C00F4048
:1002E00010ED00E002E008C8121F08C1002AFAD190
:1002F000704770474D535F496E697400FFFFFFFF01
:1003000030B5D848006810F4807F6BD1D6480068BB
:1003100010F0010F2CD1D348006810F01F0F01D14D
:10032000002006E0CF48006800F01F00CF49B1FB75
:10033000F0F0CF490860CF48006810F01F0F01D1DE
:10034000002006E0CB48006800F01F00C749B1FB61
:10035000F0F0C9490860C948006800F0010000F1E8
:100360000100C3490968B1FBF0F0C5490860B6E077
:10037000C448006810F0400F07D10020BC49086055
:10038000BD490860BE490860A9E0B648006810F0A1
:100390001F0F01D1002006E0B248006800F01F00E6
:1003A000B249B1FBF0F0B2490860B248006810F001
:1003B0001F0F01D1002006E0AE48006800F01F00CA
:1003C000AA49B1FBF0F0AC490860AC48006800F005
:1003D000010000F10100A6490968B1FBF0F0A8494D
:1003E00008607CE0A848006810F4807F07D10020F6
:1003F0009F490860A0490860A14908606FE09A48D9
:10040000006810F0010F2ED19F4C246804F01F04E7
:1004100004F101009D4CD4F8044104F01F01954CF7
:10042000246804F01F02994CD4F8004104F0010440
:1004300004F1010309B9002403E08C4C4443B4FBEC
:10044000F1F48B4D2C600AB9002403E0874C44433F
:10045000B4FBF2F4884D2C60854C2468B4FBF3F4B3
:10046000874D2C603BE08748006810F0400F07D1B3
:1004700000207F49086080490860814908602EE0BB
:10048000814C246804F01F0404F101007F4CD4F86F
:10049000044104F01F01774C246804F01F027B4CD8
:1004A000D4F8004104F0010404F1010309B9002467
:1004B00003E06E4C4443B4FBF1F46D4D2C600AB97B
:1004C000002403E0694C4443B4FBF2F46A4D2C6011
:1004D000674C2468B4FBF3F4694D2C6000BF6C4892
:1004E000006810F4807F31D06948006810F01F0068
:1004F00004D0042806D0062823D104E00020654952
:10050000086022E000BF604A126802F01F0202F198
:1005100001005E4AD2F8082102F01F01524A126817
:1005200012F0010F06D0514A4243B2FBF1F2594B8F
:100530001A6005E04D4A4243B2FBF1F2554B1A6096
:1005400003E000205349086000BF24E050480068E1
:1005500010F4007F1CD04448006810F0010F0BD04D
:100560004D48006800F01F0000F101003F4900FB0A
:1005700001F0484908600EE04348006800F01F00A1
:1005800000F10100394900FB01F04249086002E036
:1005900000204049086030BD00B52120394908607D
:1005A00000BF3848006810F0400FFAD001202E49F3
:1005B00008604FF009003549C1F884004FF0010090
:1005C000364908604FF0AA00354908604FF05500E1
:1005D000086000BF2C48006810F4806FFAD0232018
:1005E000304908604FF001002849C1F8A0004FF0E1
:1005F000AA002D4908604FF055002449C1F8AC000D
:1006000000BF2548006810F4806FFAD040F2011056
:100610001449086040F201201C49C1F808014FF05C
:100620000100164908604FF00200124908601F4897
:100630001F4908604FF480701449C1F8C80108468A
:10064000D0F8B00140F003001A49086045F23A00C2
:100650000E4908604FF0000017490860FFF750FE90
:1006600000BD000004C10F400CC10F40001BB700CB
:1006700000000010A8C10F400400001000C10F408E
:1006800008000010A0C10F4088C00F4000C00F40FC
:1006900008C10F400C000010A8C00F4080C00F40E0
:1006A0008CC00F40A4C00F40ACC00F40DE872804B0
:1006B000C4C00F40B0C10F4008ED00E02DE9F05F6D
:1006C0008046894616469A46DDE90A5B002704E023
:1006D0000020FC490968C8557F1C1F2FF8D335B18D
:1006E000032D08D0122D08D0252D08D101E00024BB
:1006F00008E0082406E0122404E0242402E009FBB8
:1007000006F400BF00BFF049EE48006803F082FF26
:10071000EE480168EB480068001D03F07BFF2146AE
:10072000E8480068083003F075FFBAF1010F01D105
:10073000002000E05046E34909680873E14800687A
:1007400080F80EB0DF480068C573032D01D0122D6C
:1007500003D1DC490968CC7405E04146D9480068FA
:10076000113003F075FF3146D6480068163003F0AB
:1007700088FFBDE8F09F7CB5044606201221802347
:100780000022CDE9001011461046FFF797FF1F2306
:10079000CC484FF400210268CD48006803F0E1FC2A
:1007A00005465DBB2423C7484FF480110268C94841
:1007B000006803F0D6FC054605BB74B100260AE0CC
:1007C000C0480068007804F8010BBE480068401C6F
:1007D000BC490860761C242EF2D30D23B9484FF48F
:1007E00080110268BB48006803F0BBFC05462DB9C8
:1007F000B4480068007B08B16FF0090528467CBD4D
:100800007CB505460E460A20252180230022CDE92D
:10081000001011461046FFF751FF1F23A9484FF45F
:1008200000210268AA48006803F09BFC04463CBB18
:100830000823A44859040268A648006803F091FC04
:100840000446ECB925B19F48006803F0F1FE28602A
:100850002EB19C480068001D03F0EAFE30600D23B5
:1008600098484FF4801102689A48006803F079FCB8
:1008700004462CB993480068007B08B16FF0090466
:1008800020467CBD1CB50620032180230022CDE933
:10089000001011461046FFF711FF1F2389484FF43F
:1008A000002102688A48006803F05BFC0446DCB95A
:1008B000122384484FF4801102688648006803F0D0
:1008C00050FC044684B90D237E484FF48011026821
:1008D0008048006803F045FC04462CB9794800685C
:1008E000007B08B16FF0090420461CBD1CB5062032
:1008F000002101230A46CDE900100846FFF7DEFE7D
:100900001F2370484FF4002102687148006803F00B
:1009100028FC044684B90D236A484FF4801102680C
:100920006C48006803F01DFC04462CB9654800685B
:10093000007B08B16FF0090420461CBD1CB561485E
:100940000068012100231A46CDE90010FE21A120F4
:1009500003F081FD044620461CBD2DE9F04105460B
:100960000E461746FFF7EAFF4FF050080AE0FFF780
:10097000BDFF044604B908E0FFF784FFA8F10100B9
:1009800000F0FF08B8F1000FF1D100BF44B12346D9
:100990004B22514951A0FFF7E3FB2046BDE8F0810F
:1009A00029463046FFF72CFF044655492868086061
:1009B0003846FFF7E0FE04462046EFE72DE9FC4706
:1009C00081460D461646B046002703E0002008F891
:1009D000010B7F1C4A4800686843B842F6D80A20D9
:1009E000282180232A46CDE9001045480168484661
:1009F000FFF764FE1F2333484FF400210268344898
:100A0000006803F0AEFB0446ECB93D48006800FB0B
:100A100005F332464FF480112E48006803F0A1FB25
:100A2000044684B90D2327484FF4801102682948F1
:100A3000006803F096FB04462CB922480068007B4E
:100A400008B16FF009042046BDE8FC872DE9FC41A0
:100A500006460D4617460A202A2100232A46CDE9DC
:100A60000010274801683046FFF728FE1F2315486D
:100A70004FF4002102681648006803F072FB044638
:100A8000ECB91F48006800FB05F33A464FF400211B
:100A90000F48006803F065FB044684B90D2309483C
:100AA0004FF4801102680B48006803F05AFB0446BB
:100AB0002CB904480068007B08B16FF00904204697
:100AC000BDE8FC81F40100105553424310000010B2
:100AD000E0010010DC010010F40200004552524F0A
:100AE000523A20496E202573206174204C696E654E
:100AF000202575202D207263203D2025640A0000EA
:100B00001400001010B59B4900209B4A12689047C2
:100B100010BD2DE9F0470024A04600264FF0FF3914
:100B200012E02046641C01F0DAFC054615B90020ED
:100B3000BDE8F0875420405D10F0100F04D1286DFF
:100B400010B18E48056000E0EBE700BF002413E021
:100B50008A480068005D2E2801D1A1460DE0874833
:100B60000068005D08B14F2C00D306E083480068A0
:100B7000005D83490855641CEAE700BF5F222046F8
:100B8000641C7F490A544FF001082DE008F1300041
:100B90007B490855B9F1000F0DDB002609E009EB90
:100BA000060076490968095CA019401C744A115472
:100BB000761C042EF3D90021A019401C704A115450
:100BC0000121104601F02AF90746002F0BDD3846B7
:100BD00001F069FB08F10108B8F10A0F04D3641CA5
:100BE0004FF0010800E000E0D0E700BF01209FE7E0
:100BF0002DE9F0410027FFF78CFF20B961A0FFF736
:100C0000AFFABDE8F08101215C48006801F006F907
:100C10000546002D33DD0221594801F0FFF8064654
:100C2000002E20DD564A554801685BA0FFF798FA70
:100C300000BF4FF47A625F480168284601F0B1F9BD
:100C4000044622465B480168304601F0A4FA381990
:100C50000746014658A0FFF783FA002CE9D1304639
:100C600001F021FB04E0464957A0FFF779FAC8E7F5
:100C7000284601F018FB5AA0FFF772FA05E03F483A
:100C8000016851A0FFF76CFABBE700BFB9E72DE997
:100C9000F843064600270025304601F017FB804642
:100CA000314653A0FFF75CFA5BA05DA35DA25FA194
:100CB00000905FA0FFF754FAB8F1000F21D11FE0B8
:100CC000384601F00CFC04460CB9BDE8F88354200A
:100CD000005D10F0100F08D06D1C5AA35BA22946CE
:100CE0005BA00094FFF73CFA09E0206D38B16D1C61
:100CF000009456A329465BA0226DFFF731FA7F1CB2
:100D0000DEE700BFE1E710B58CB001F039FFFFF777
:100D1000F9FE03F018F958A0FFF722FA5BA0FFF7DD
:100D20001FFA03F0C8FB0446CCB903F060FCB0B96D
:100D30005EA0FFF715FA01AA0BA90AA8FFF70DFE9E
:100D4000044654B900F0F0F804461CB95FA0FFF760
:100D50009EFF09E000200CB010BD0020FBE75CA066
:100D6000FFF7FEF90020F6E7FFF742FF00BFFEE7BE
:100D70007047000018000010880100107C0100106E
:100D80000C0200104E6F2066696C6520746F206342
:100D90006F70790A00000000436F7079696E6720F8
:100DA00066696C6520257320746F2025732E2E2EA6
:100DB0000A000000FC010010746F745F62797465B2
:100DC00073203D2025750A00436F756C64206E6F9B
:100DD00074206F70656E2066696C652025730A004B
:100DE000436F707920636F6D706C657465640A0081
:100DF00046696C65732F466F6C6465727320696E0B
:100E000020746865206469726563746F727920224A
:100E10002573223A0A0000004E616D650000000053
:100E20004449520053697A65000000004E6F2E005D
:100E30002533730925313073092536730925730A63
:100E4000000000003C4449523E0000002000000029
:100E50002533640925313073092536730925730A52
:100E600000000000253364092531306409253673FC
:100E70000925730A00000000486F737420496E69E9
:100E80007469616C697A65640A000000436F6E6E74
:100E90006563742061204D6173732053746F7261B8
:100EA0006765206465766963650A00004D61737348
:100EB0002053746F7261676520646576696365208D
:100EC000636F6E6E65637465640A00002E00000037
:100ED0004E6F742061204D6173732053746F726183
:100EE0006765206465766963650A000010B5FE4C8D
:100EF000648B14B1FC4C618B01E0FB4CE169FA4C52
:100F0000E46B0B1BF84CA47BB3FBF4F240F6F574D6
:100F1000A24201D2002006E04FF6F574A24201D2AF
:100F2000012000E0022010BD2DE9F0410020EF4932
:100F30000860EF48486001F108040020A060E0600C
:100F4000206020616061207600250CE0C5EBC500C3
:100F5000E84901EB80040020A060E060206020618F
:100F6000606120766D1C022DF0DBE34801210268F0
:100F70000020FFF723FDE048006800F5FF7003F054
:100F8000F6F90746A7F52A40553802D06FF0160645
:100F9000C0E0D94800680078EB2812D0D648006835
:100FA0000078E9280DD0D448006800F5E37003F01C
:100FB00021FBCD4908600868CF490A680121FFF785
:100FC000FDFC002507E0E81CCB490968095CC64820
:100FD000001D41556D1C082DF5DBC74800680B301E
:100FE00003F0C5F9C0498881C3480068407B887315
:100FF000C14800680E3003F0BAF9BB4909880844BB
:10100000B9498882BC480068007C8875BA48006885
:10101000113003F0ACF9B4490883B74800681330C5
:1010200003F0A5F9B0494883B3480068203003F0C5
:10103000E1FAAD49C86108468089897B4843AA49DD
:101040000861FFF753FFA84981F83200084690F87D
:10105000320020B1084690F83200012807D1A64896
:101060000068163003F083F99F49088422E0A24803
:101070000068243003F0BEFA9B4948629E4800682D
:10108000283003F074F9984908859B4800682A3095
:1010900003F06DF994494885974800682C3003F0B7
:1010A000A9FA9149C86294480068303003F05FF9AA
:1010B0008D4908868C48818A90F83200022802D136
:1010C0008948406A01E08848008C874A927D00FB8D
:1010D00002108549886308468089401E098B00EB11
:1010E00041108149898990FBF1F07F4948630846A6
:1010F000806B496B08447C49C8630026084690F819
:101100003200012806D0084690F83200022801D0AB
:101110006FF014063046BDE8F08101467248C26B9C
:10112000881E714B9B7B00FB032070472DE9F0412B
:1011300004466D4890F83200022801D1A00000E07A
:101140006000074668488089B7FBF0F06649898AE5
:1011500000EB010864488089B7FBF0F100FB1175D2
:101160006548012102684046FFF728FC5E4890F878
:101170003200022805D160480068405920F07046CE
:1011800002E05D480068465B3046BDE8F08170B51E
:1011900005462846FFF7CAFF06463446524890F8EF
:1011A000320018B940F6F870844210D24E4890F8D8
:1011B0003200012803D14FF6F870844207D24A4822
:1011C00090F83200022803D14C48844200D3002416
:1011D000204670BD70B505462C4605E02846FFF751
:1011E000D6FF044604B12546002CF7D1284670BD31
:1011F0002DE9F0473C4890F83200022801D1042044
:1012000000E0022080463848848A90F832000228A4
:1012100002D13548406A01E03348008C3249897D6B
:1012200000FB01F623E03448012102682046FFF765
:10123000C5FB002516E030490968481903F0DAF9C2
:1012400020F07049B9F1000F0BD12748808A201A8D
:101250002549898900FB0150B0FBF8F73846BDE805
:10126000F087454420488089A842E4D8641C1E4881
:10127000808A3044A042D6D80020F0E72DE9F0471C
:1012800006460C46184890F83200022801D1B000FA
:1012900000E07000074614488089B7FBF0F012495F
:1012A000898A00EB010810488089B7FBF0F100FB48
:1012B00011751148012102684046FFF77FFB0A487B
:1012C00090F8320002281ED10B48006810F80590F3
:1012D0004FF0000924F0704449EA040906490968FE
:1012E000481949460CE00000AC38001024390010C1
:1012F0005C020010EC380010F8010010F8FFFF0F3E
:1013000003F088F905E0A1B2FE4A1268501902F014
:1013100096FFFC48012102684046FFF797FBBDE8B5
:10132000F08730B5014600200B220DE010F0010FD0
:1013300001D0802300E0002303EB600411F8015B7F
:101340006319D8B2531E5AB2002AEFD130BD0146FC
:10135000087808B9012070470878E52801D10220F3
:10136000F9E7C87A0F2801D10320F4E70420F2E757
:10137000002201E0401C521C082AFBD3002204E09A
:1013800003780B70491C401C521C032AF8D300231D
:101390000B70491E02E000230B70491E0B78202BB6
:1013A000F9D07047002204E003780B70491C401C00
:1013B000521C082AF8D300230B70491E02E00023B8
:1013C0000B70491E0B78202BF9D0704778B5064674
:1013D0000C466D4621463046FFF7E4FF294630466D
:1013E000FFF7C6FF00E0641C20780028FBD12878B6
:1013F00010B12E202070641C03E028782070641C3B
:101400006D1C28780028F8D1207078BD024613E0C2
:1014100010780B78984209D01378087820308342EE
:1014200004D0137808782038834202D1521C491C1A
:1014300002E06FF013007047107810B108780028B0
:10144000E6D1107818B9087808B90020F3E76FF0F2
:101450001300F0E72DE9FF4F85B081468A46002052
:101460000490D9F8004000270026834601900090A0
:1014700000BF04E00020A4498855701C46B2502EDD
:10148000F8DB607B019094F8008018F0800F03D0A7
:10149000002009B0BDE8F08F18F0400F01D1002006
:1014A000F7E708F01F00009069E000200390617BDF
:1014B0000198814201D00020EBE794F8008008F009
:1014C0001F010098814201D00020E2E70098401EF1
:1014D000C0B2009001250BE0605D10B901200390BF
:1014E00008E0625D3846791CCFB287490A54AD1CCA
:1014F0000A2DF1D900BF0E250BE0605D10B9012067
:1015000003900BE0625D3846791CCFB27E490A54E5
:10151000AD1C192D02D803980028EED000BF1C2561
:101520000BE0605D10B9012003900BE0625D38466E
:10153000791CCFB274490A54AD1C1F2D02D80398F0
:101540000028EED000BF00223846791CCFB26E4989
:101550000A5420340498203004900898A0420ED8F1
:101560000798C9F80000079CDAF80000401CCAF888
:101570000000DAF800000121079AFFF71FFAE07A6D
:101580000F2892D0002F2ADD78B20290781E46B242
:1015900020E05D48805D00B1D6B90EB9B34602E0E7
:1015A000701C4FFA80FB0FE0574810F80B0038B161
:1015B000554810F80B10129801701298401C1290A8
:1015C0000BF101004FFA80FB02988345ECDB029699
:1015D000701E46B2002EDCDA002112980170C9F8A4
:1015E00000400498C0B254E72DE9F04397B0054697
:1015F0000F4614464FF00008C146424928680A6861
:101600000121FFF7DBF93F48006802908DE0029866
:10161000FFF79DFEC6B2042E2AD103A90298FFF758
:10162000D5FE03A93846FFF7F1FE002875D10298D0
:10163000143002F09CFE354901EA0040A060029897
:101640001A3002F094FEA1680843A0600020E06018
:1016500002981C3002F0CEFF2060286820612949E2
:1016600002980968401A6061002017B0BDE8F08355
:10167000032E52D1029890F80D9003A800902448B0
:1016800080892049096843181E482946026802A833
:10169000FFF7E0FE8046B8F1000F3EDD03A93846B3
:1016A000FFF7B4FE68BB03A90298FFF78FFE02980C
:1016B000FFF74DFEC6B2042E2CD10298FFF731FE83
:1016C000484527D10298143002F051FE0F4901EA33
:1016D0000040A06002981A3002F049FEA168084359
:1016E000A0600020E06002981C3002F083FF2060C0
:1016F00028682061034902980968401A6061002047
:10170000B3E70AE0F80100105C3800100000FFFFAA
:10171000AC380010029820380290012E02D16FF0F0
:101720001900A2E7029820300290FE488089FE4905
:1017300009680844029988423FF669AF6FF01300C8
:1017400093E7F0B5024600230024F025002108E0CD
:10175000002001EB8106F54F07EB06163070481CA0
:10176000C1B20329F4DB002130E0505C38B900201D
:1017700003EB8306ED4F07EB0616305528E0505C6F
:101780005C280ED1002003EB8306E84F07EB06161A
:101790003055581CC3B20024032B15DB6FF01A0020
:1017A000F0BD505C03EB8306E04F07EB06163055A7
:1017B000601CC4B2502C07DB505C5C2804D0505C29
:1017C00010B16FF01A00EBE7481CC1B2A942CCD3AC
:1017D00000BFD74803700020E2E72DE9F84F8246AA
:1017E0000F464FF00009BAF1000F02D05046FFF744
:1017F000A8FFCC4890F8320002280AD1C948C66A2E
:101800003046FFF78AFC0446C648807B00EB04089C
:101810000CE0C448806BC349897BB0FBF1F6C1483A
:10182000846B806BBF49496B00EB010833E0009487
:101830001CE009EB8900BD4A02EB00113A466846FC
:10184000FFF7D2FE054645B9B9480078814504DA6C
:1018500009F1010000F0FF090BE015F1140002D0BE
:101860002846BDE8F88F0098401C0090009840453D
:10187000DFD300BF0DB9BE6803E03046FFF787FC39
:10188000064606B908E03046FFF747FC0446A5487F
:10189000807B00EB0408CAE700BF6FF01300E0E7AD
:1018A0002DE9F05F82468846BAF1000F14D19D48B9
:1018B00090F83200022808D19A49C86AFFF72DFC37
:1018C00004469848817B0E190DE09648846B806B26
:1018D0009449496B461806E05046FFF71EFC044643
:1018E0009048817B0E1925462FE06FF0130B8E4830
:1018F000012102682846FFF761F88B48076815E068
:101900003846FFF724FD00F0FF09B9F1020F02D0BD
:10191000B9F1010F09D1C8F8105083480068381A8E
:10192000C8F814004FF0000B07E020377D4880898D
:101930007D4909680844B842E2D800BF1BF1140091
:1019400002D05846BDE8F09F6D1CB542CDD36FF074
:101950001800F7E70146002002E0421CD0B2491C03
:101960000A78002AF9D170472DE9F04305460E4662
:101970004FF00008C1462846FFF7ECFF80460023E1
:10198000002703E00020F055781CC7B20B2FF9DBCD
:1019900001E0581CC3B2E85C2E28FAD0002412E003
:1019A000285D20280DD0285D612806DB285D7A2877
:1019B00003DBE85C2038305501E0E85C3055601C02
:1019C000C4B2581CC3B2434504DAE85C2E2801D0E7
:1019D000082CE5DBA8F10100C3B203E003B904E081
:1019E000581EC3B2E85C2E28F8D100BFA8EB030054
:1019F00000F0FF09581CC3B2B9F1000F0DDD63B14F
:101A0000002708E01846591CCBB2295C07F10800F2
:101A10003154781CC7B24F45F4DB03E02020305529
:101A2000601CC4B2062CF9DB7E20B0713120F0714D
:101A3000BDE8F0832DE9F04F85B081460F464FF0A9
:101A4000000AD34600254846FFF784FF82466946D0
:101A50004846FFF789FF0AF10C000D2190FBF1F0D9
:101A6000C0B20490D7F810B07D692F4801210268F8
:101A70005846FEF7A3FF0026B0466846FFF751FC24
:101A80000390DDF81080A6E0A8F1010000EB8001D2
:101A900001EBC000C6B201241DE056450CDC19F86C
:101AA00006002919204A1268505400212819401CA8
:101AB0001D4A126811540AE0FF2029191A4A1268B7
:101AC0005054FF212819401C174A12681154701CE9
:101AD000C6B2A01CC4B20A2CDFDD0E241DE05645A0
:101AE0000CDC19F8060029190F4A1268505400211D
:101AF0002819401C0C4A126811540AE0FF202919C9
:101B0000094A12685054FF212819401C064A1268DD
:101B10001154701CC6B2A01CC4B2192CDFDD1C24E9
:101B200026E00000AC380010F80100104839001021
:101B30008001001056450CDC19F806002919FE4AF0
:101B40001268505400212819401CFB4A1268115495
:101B50000AE0FF202919F84A12685054FF21281979
:101B6000401CF54A12681154701CC6B2A01CC4B2C5
:101B70001F2CDFDD0F21F048026805F10B00115426
:101B8000ED4903980A6805F10D0150540498804509
:101B900005D108F14000E8490968485503E0E648E6
:101BA000006800F805802035E4488089A8420ED8F6
:101BB000E14938690A680121FEF748FF0BF1010B82
:101BC000DD48012102685846FEF7F8FE0025A8F11D
:101BD000010000F0FF08B8F1000F3FF755AF0024F7
:101BE00007E01DF804002919D34A12685054601CFC
:101BF000C4B20B2CF5DB2021CF48026805F10B00A5
:101C00001154CD48012102685846FEF71FFFC7F85E
:101C100010B07D6105B0BDE8F08F70B506460D4689
:101C2000C54928690A680121FEF7C8FE002416E0AC
:101C300030782E280BD106E0202069692144BE4A65
:101C400012685054641C082CF6D3761C06E03078D9
:101C500069692144B84A12685054761C641C082CE7
:101C6000E6D3082415E030782E280AD106E020209B
:101C700069692144B04A12685054641C0B2CF6D395
:101C800006E0307869692144AB4A12685054761CEA
:101C9000641C0B2CE7D3202069692144A64A1268F2
:101CA00050540C2406E0002069692144A24A1268BD
:101CB0005054641C202CF6D39F4928690A680121DE
:101CC000FEF7C4FE70BD2DE9F04106460D46002426
:101CD0003046FFF736FD9A48077829463046FFF729
:101CE0007CFD044614B92046BDE8F081002F1ADDC2
:101CF00093480078401E9249087029460020FFF75B
:101D00006CFD044614B16FF01300EDE78C480078C9
:101D1000401C8B4908702946A868FFF7C1FD04469E
:101D20004CB12046E0E729460020FFF7B9FD044604
:101D30000CB12046D8E78249097801EB8101814A3C
:101D400002EB0110FFF706FE0B280ADC7C4909783C
:101D500001EB81017B4A02EB01102946FFF75DFF91
:101D600009E07749097801EB8101764A02EB01101D
:101D70002946FFF75FFE2046B6E770B504462669A0
:101D800065696D48012102683046FEF717FEA268BA
:101D9000110C694A136805F11402981802F04FFA01
:101DA000228991B2644A136805F11A02981802F068
:101DB00046FA614A2168136805F11C02981802F07E
:101DC00029FC5D48012102683046FEF73FFE70BDE8
:101DD00070B504462569666957480121026828469E
:101DE000FEF7ECFD544A2168136806F11C029818AE
:101DF00002F010FC5048012102682846FEF726FE3A
:101E000070BD0246002004E011F8013B02F8013BDE
:101E1000401C0B78002BF7D1137070472DE9F0416F
:101E200080460F4600260024651E00BF681C05463C
:101E3000C0EBC000444901EB8000007E18B9C5EB3F
:101E4000C50001EB80040CB9012DEFDB1CB96FF06C
:101E50001500BDE8F081012F09D121464046FFF76A
:101E6000BCFC064666B9012020766E1C08E02146BF
:101E70004046FFF728FF064616B9012020766E1C63
:101E80003046E6E72DE9FF4F83B0884616461C46EC
:101E90004FF0000A2948C16B0398801E274A927BA5
:101EA00000FB0210029025488089B8FBF0F10298EF
:101EB0000844019021488089B4FBF0F087B21F48A4
:101EC0008089B8FBF0F100FB1189B9F1000F25D032
:101ED0001948012102680198FEF770FD17488089B2
:101EE000A0EB0900A04204D814488089A0EB0900A7
:101EF00000E0204683464D4605E00F480068405DFF
:101F00003070761C6D1C09EB0B00A842F5D8DA4442
:101F1000D844A4EB0B040198401C01900748808929
:101F2000B4FBF0F038B305488089B4FBF0F087B219
:101F300032463946019809E0F8010010AC3800102B
:101F40008001001048390010EC380010FEF736FD13
:101F5000F748808907FB0066F548808907FB00AADF
:101F6000F348808907FB0088F148808907FB10440B
:101F700001983844019084B1EE480121026801982B
:101F8000FEF71CFD002505E0EA480068405D307062
:101F9000761C6D1CA542F7D3A244504607B0BDE89D
:101FA000F08F2DE9F84F824688469146AAF101004C
:101FB000C0EBC000E04901EB80044FF0000B20684B
:101FC00010B90020BDE8F88F2068484501D94D467A
:101FD00000E0256800BFA068FFF7D9F807460FBBEF
:101FE000D34920680969B0FBF1F201FB1200E168F6
:101FF000884201D10020E5E7CD4920680969B0FB9E
:10200000F1F201FB1200E168401AA84208D2C84967
:1020100020680969B0FBF1F201FB1200E168451A82
:1020200000950CE0C2480069E168401AA84205D258
:10203000BF480069E168401A009000E00095D4E9CB
:1020400002014246009BFFF71DFF0646B044B34421
:10205000AD1BE1688819B6490969884202D300209E
:10206000E06002E0E0683044E060E06820B90FB171
:10207000384600E0A068A060002DACD15846A1E72A
:102080002DE9FF4F83B0884616461C464FF0000AE4
:102090000398FFF742F80290A5488089B8FBF0F159
:1020A000029808440190A2488089B4FBF0F087B2FE
:1020B0009F488089B8FBF0F100FB1189B9F1000F4E
:1020C0002BD09C48012102680198FEF777FC9848C4
:1020D0008089A0EB0900A04204D895488089A0EB34
:1020E000090000E0204683464D4605E030789149DE
:1020F00009684855761C6D1C09EB0B00A842F5D801
:102100008C48012102680198FEF7A0FCDA44D8440B
:10211000A4EB0B040198401C019085488089B4FB16
:10212000F0F0E0B182488089B4FBF0F087B232462B
:1021300039460198FEF78AFC7D48808907FB0066D6
:102140007B48808907FB00AA7948808907FB0088C3
:102150007748808907FB1044019838440190B4B156
:102160007448012102680198FEF728FC002505E06B
:102170003078704909684855761C6D1CA542F7D324
:102180006C48012102680198FEF760FCA2445046A9
:1021900007B0BDE8F08F2DE9F84F8246884691469A
:1021A000AAF10100C0EBC000634901EB80044FF0CD
:1021B000000B4E46B9F1000F0ED0206878B9FFF73A
:1021C00017F805464FF0FF312846FFF757F8A5608E
:1021D0002046FFF7D2FD02E00020BDE8F88FA0689E
:1021E000FEF7F8FFA060524920680969B0FBF1F2E0
:1021F00001FB1200E060E068A0B9206890B18EB1E8
:10220000E06878B9FEF7F4FF05460DB95846E4E7F3
:102210002946A068FFF732F86FF070412846FFF7B3
:102220002DF8A56000BF42480069E168401AB0423D
:1022300005D23F480069E168401A009000E000962E
:10224000D4E902014246009BFFF71AFF0746B84453
:10225000BB44F61B2068384420602046FFF7B8FDD9
:10226000E068384432490969884202D30020E060BE
:1022700002E0E0683844E0608EB1E06878B9FEF7CB
:10228000B7FF05460DB95846A7E72946A068FEF7EF
:10229000F5FF6FF070412846FEF7F0FFA560002EB5
:1022A000C1D1584699E770B50546681EC0EBC0001D
:1022B000214901EB80042046FFF78AFD0020A06041
:1022C000E060206020616061207670BD2DE9F14FF3
:1022D0009AB01A4C002004900390A4F108004568BD
:1022E000207E20BB16A11A98FFF790F8A0B91048DD
:1022F00090F83200022803D10D48C06AA06006E0C1
:102300000B48806B0A49897BB0FBF1F0A06000208C
:10231000E0600120207645E021461A98FFF75DFA3B
:102320008046B8F1000F0DD1012020763AE00EE092
:10233000AC380010F8010010EC3800102C390010F7
:102340002E0000006FF013001BB0BDE8F08F4FF0BF
:10235000000A00BF20E06A4840680AEBCA0202EBAC
:10236000420200EB82011A98FFF750F880B96448E6
:1023700040680AEBCA0202EB420200EB820000F165
:1023800050011C22204602F0CAF90120207607E005
:102390000AF101001FFA80FA594800685045DAD85E
:1023A00000BF00BF002056490860A068FEF7B5FED8
:1023B00081465448817B01EB090BCDF8649088E09D
:1023C0005148012102681998FEF7F8FA4E48006852
:1023D000029072E06FF013080298FEF7B8FFC6B2E1
:1023E000042E01D0032E62D1029F042E0AD105A92A
:1023F0000298FEF7EBFF05A92846FFF702FD4FF014
:1024000000082CE0032E2AD10298407B039005A8F7
:1024100000903C4880893C49096843183A4819A90A
:10242000026802A8FFF716F804900498002816DD49
:1024300005A92846FFF7E5FC029F05A90298FEF7CB
:10244000C5FF0298FEF783FFC6B2042E07D102989B
:10245000FEF767FF0399884201D14FF00008B8F1F9
:10246000000F24D1F97A5420415507F1140001F0EE
:102470007EFF264901EA0041A96507F11A0001F033
:1024800076FFA96D0843A8650021E96507F11C00E6
:1024900002F0B0F82865199929661B480068391AB6
:1024A00069666C3516480068401C15490860012EA5
:1024B00000D10AE002982030029012488089124927
:1024C000096808440299884284D800BF1998401CC2
:1024D000199019985845FFF473AF002034E701466E
:1024E00007480068884201D80020704704484068C7
:1024F00001EBC10303EB430300EB83021046F4E757
:1025000024390010AC380010F80100100000FFFF63
:1025100013B5044601231A4601A9204601F079F8B3
:102520001CBD38B504460020009001231A466946B8
:10253000204601F0DBF89DF8000038BD70B5054677
:102540000C460CB9002070BD00230122214628460C
:1025500001F0CCF808B10120F5E70020F3E770B5F1
:1025600006460D462C4604E014F8011B3046FFF7E2
:10257000CFFF20780028F7D170BD2DE9FF4F83B041
:102580000C4615461E46002002900190002D03DCEB
:10259000306007B0BDE8F08F4FF00008012C01D18A
:1025A000102003E00CB90A2000E000208246BAF1B6
:1025B000000F02D100203060EBE7002785E001200A
:1025C000019001231A4602A9039801F08FF89DF8A3
:1025D0000800302808DB9DF80800392804DC9DF845
:1025E0000800A0F1300B37E0012C33D14FF0100A76
:1025F0009DF80800612811D008DCA0F141000628F0
:1026000024D2DFE800F00C1014181C2062380528D2
:102610001CD2DFE800F0070B0F13170000BF4FF0CC
:102620000A0B16E000BF4FF00B0B12E000BF4FF09B
:102630000C0B0EE000BF4FF00D0B0AE000BF4FF097
:102640000E0B06E000BF4FF00F0B02E000200190E0
:1026500000BF01E000200190012000900198B0B976
:1026600024B9F5A10398FFF77AFF05E0012C03D107
:10267000FC490398FFF773FF08F10108B8F10A0F4E
:1026800023D3F9A10398FFF76AFF002081E79DF8A3
:1026900008100398FFF73CFF012D03D1AA46012043
:1026A00000900CE04FF0010907E0009800FB0AF0F1
:1026B000009009F1010000F0FF09A945F5DB009841
:1026C0000BFB00FB5F44681EC5B2002D3FF777AFE0
:1026D000376001205DE770B504460D462946204667
:1026E000FFF73DFFECA12046FFF739FF70BD2DE954
:1026F000F04105460C460A2094FBF0F100FB114026
:10270000C6B20A2094FBF0F00A2190FBF1F201FB23
:102710001200C7B2642094FBF0F090FBF1F201FBD1
:10272000120000F0FF0808F13000C1B22846FFF7A0
:10273000EFFE07F13000C1B22846FFF7E9FE06F1CF
:102740003000C1B22846FFF7E3FEBDE8F0812DE975
:10275000F04705460C460A2094FBF0F100FB1140BF
:10276000C6B20A2094FBF0F00A2190FBF1F201FBC3
:102770001200C7B2642094FBF0F090FBF1F201FB71
:10278000120000F0FF084FF47A7094FBF0F090FB19
:10279000F1F201FB120000F0FF0942F2107094FB0D
:1027A000F0F090FBF1F201FB120000F0FF0A0AF1D9
:1027B0003000C1B22846FFF7ABFE09F13000C1B2CC
:1027C0002846FFF7A5FE08F13000C1B22846FFF702
:1027D0009FFE07F13000C1B22846FFF799FE06F1CF
:1027E0003000C1B22846FFF793FEBDE8F0872DE91F
:1027F000F34F83B00C460A20B4FBF0F100FB114507
:10280000B4FBF0F00A21B0FBF1F201FB12066420E8
:10281000B4FBF0F0B0FBF1F201FB12074FF47A7059
:10282000B4FBF0F0B0FBF1F201FB120842F21070C1
:10283000B4FBF0F0B0FBF1F201FB12099748B4FBD6
:10284000F0F0B0FBF1F201FB120A9548B4FBF0F096
:10285000B0FBF1F201FB120B9248B4FBF0F0B0FBBD
:10286000F1F201FB120002908F48B4FBF0F0B0FBD4
:10287000F1F201FB120001908C48B4FBF0F0B0FBC8
:10288000F1F201FB1200009000983030C1B20398C1
:10289000FFF73EFE01983030C1B20398FFF738FED3
:1028A00002983030C1B20398FFF732FE0BF13000CE
:1028B000C1B20398FFF72CFE0AF13000C1B20398B1
:1028C000FFF726FE09F13000C1B20398FFF720FEA2
:1028D00008F13000C1B20398FFF71AFE07F130008B
:1028E000C1B20398FFF714FE06F13000C1B203989D
:1028F000FFF70EFE05F13000C1B20398FFF708FEA6
:1029000005B0BDE8F08F2DE9F04107460D460126E0
:1029100000BFB00045FA00F000F00F04092C02DD02
:1029200004F1370001E004F13000C1B23846FFF78E
:10293000EFFD3000A6F10101CEB2EAD1BDE8F08191
:102940002DE9F04107460D4659A13846FFF707FE2D
:10295000012600BFB00045FA00F000F00F04092C7A
:1029600002DD04F1370001E004F13000C1B2384665
:10297000FFF7CEFD3000A6F10101CEB2EAD1BDE8ED
:10298000F0812DE9F04107460D46032600BFB00057
:1029900045FA00F000F00F04092C02DD04F13700C5
:1029A00001E004F13000C1B23846FFF7B1FD30005C
:1029B000A6F10101CEB2EAD1BDE8F0812DE9F041E6
:1029C00007460D463AA13846FFF7C9FD032600BF6A
:1029D000B00045FA00F000F00F04092C02DD04F10C
:1029E000370001E004F13000C1B23846FFF790FD36
:1029F0003000A6F10101CEB2EAD1BDE8F0812DE9A7
:102A0000F04107460D46072600BFB00025FA00F04A
:102A100000F00F04092C02DD04F1370001E004F19D
:102A20003000C1B23846FFF773FD3000A6F1010156
:102A3000CEB2EAD1BDE8F081506C65617365206566
:102A40006E746572206120636861722066726F6DBA
:102A50002027302720746F202739272121210D0AB4
:102A600000000000585500005265616368206C69E1
:102A70006D69746174696F6E206F662072652D7464
:102A8000726965732E2052657475726E20464149D5
:102A90004C45440D0A0000000A0D0000A08601000C
:102AA00040420F008096980000E1F50500CA9A3B6D
:102AB000307800002DE9F04107460D46AFF21001D5
:102AC0003846FFF74CFD072600BFB00025FA00F09E
:102AD00000F00F04092C02DD04F1370001E004F1DD
:102AE0003000C1B23846FFF713FD3000A6F10101F6
:102AF000CEB2EAD1BDE8F08110B50446052C3BD238
:102B0000DFE804F0030E19242F0001220221002027
:102B100000F0FBF801220321002000F0F6F82DE080
:102B200001220F21002000F0F0F8012210210020E6
:102B300000F0EBF822E001220A21002000F0E5F885
:102B400001220B21002000F0E0F817E002221146DC
:102B5000002000F0DAF802220321002000F0D5F86E
:102B60000CE003221621002000F0CFF803220921F7
:102B7000022000F0CAF801E000BFFEE700BF10BD70
:102B80001CB50020FFF7B8FF684600F007FD694656
:102B9000002000F087FB0121002000F096FCAFF23E
:102BA00041601D490860AFF2D1401C490860AFF296
:102BB0009F601B490860AFF277201A490860AFF2A6
:102BC000032019490860AFF2131018490860AFF2EA
:102BD000C92017490860AFF2552016490860AFF2C6
:102BE000E11015490860AFF2F94014490860AFF2EE
:102BF000A14013490860AFF2094012490860AFF2E2
:102C0000DD6011490860AFF28D6010490860AFF2D5
:102C1000D3600F4908601CBD8401001088010010BA
:102C20008C0100109C010010A0010010A4010010F4
:102C3000A8010010AC010010B001001090010010BC
:102C40009401001098010010B4010010BC010010A4
:102C5000B801001010B50246002001EB4213F74CFA
:102C600004EB830010BD02460520062A4AD2DFE8A5
:102C700002F0032F393A3B3D062907DD0A2901DB23
:102C80000B2903DD0E2903DB162901DC00201EE0E1
:102C90000C2905D00D2903D0172903DB1A2901DCE3
:102CA000012014E01D2903D01E2901D01F2901D1C4
:102CB00002200CE01B2901D01C2901D1032006E0D1
:102CC000072903D0082901D0092900D104201AE0DE
:102CD0001D2901DC002004E01E2901D01F2900D19C
:102CE000012010E000BF00BF00200CE0012901DD41
:102CF000042901D1002004E0022901D0032900D1D8
:102D0000032000E000BF00BF70472DE9F0410646F8
:102D10000F461546002439463046FFF7A4FF80468B
:102D2000B8F1050F02D1C648BDE8F08139463046FA
:102D3000FFF790FF0446206820F00700206005F0B0
:102D400007012068084320600020EDE72DE9F041ED
:102D5000074688461646002441463846FFF783FF5B
:102D60000546052D02D1B648BDE8F08135B1012DEB
:102D700004D0042D02D0B248401CF5E74146384645
:102D8000FFF768FF0446206820F018002060182133
:102D900001EAC6012068084320600020E4E72DE92D
:102DA000F041074688461646002441463846FFF75C
:102DB0005AFF0546052D02D1A148BDE8F08125B195
:102DC000042D02D09E48401CF7E741463846FFF7E5
:102DD00041FF044626B9206820F02000206003E06F
:102DE000206840F0200020600020E6E72DE9F04157
:102DF000074688461546002441463846FFF733FF0C
:102E00000646052E02D18E48BDE8F081022E02D181
:102E10008B48401CF8E741463846FFF71BFF044645
:102E200025B9206820F04000206003E0206840F0D1
:102E3000400020600020E7E72DE9F0410746884682
:102E40001646002441463846FFF70DFF0546052D7E
:102E500002D17B48BDE8F08125B1042D02D078482D
:102E6000401CF7E741463846FFF7F4FE044626B912
:102E7000206820F40070206003E0206840F40070B7
:102E800020600020E6E72DE9F04107468846154618
:102E9000002441463846FFF7E6FE0646052E02D1DD
:102EA0006748BDE8F081032E02D06548401CF8E772
:102EB00041463846FFF7CEFE044625B1206820F48F
:102EC0008070206003E0206840F480702060002063
:102ED000E7E72DE9F04107468846154600244146BC
:102EE0003846FFF7C0FE0646052E02D15448BDE81D
:102EF000F081032E02D05248401CF8E74146384684
:102F0000FFF7A8FE044625B1012D0CD0022D1ED1DD
:102F100013E0012241463846FFF7B5FF206820F450
:102F20000070206016E0002241463846FFF7ABFFF4
:102F3000206820F4007020600CE0012241463846F1
:102F4000FFF7A1FF206840F40070206002E04FF01E
:102F5000FF30CCE700BF0020C9E72DE9F04107466C
:102F600088461646002441463846FFF77CFE054653
:102F7000052D02D13248BDE8F08135B1012D04D0D4
:102F8000042D02D02E48401CF5E741463846FFF795
:102F900061FE044626B9206820F48060206003E0CA
:102FA000206840F4806020600020E4E72DE9F041D3
:102FB000074688461546002441463846FFF753FE2B
:102FC0000646052E02D11E48BDE8F081012E02D032
:102FD0001B48401CF8E741463846FFF73BFE0446D5
:102FE00025B1206820F08000206003E0206840F0D8
:102FF000800020600020E7E72DE9F04105460E46FD
:103000001746002431462846FFF72DFE8046B8F1CA
:10301000050F02D10A48BDE8F0810DB91A2E02D081
:103020000748401CF7E731462846FFF713FE0446E1
:1030300047B1206840F48030206007E000C00240C3
:1030400001000010206820F4803020600020E2E7BA
:103050002DE9F04107468846164600244146384689
:10306000FFF701FE0546052D02D10D48BDE8F081B0
:10307000012D04D0042D02D00948401CF6E741463A
:103080003846FFF7E7FD044626B1206820F480703B
:10309000206003E0206840F4807020600020E5E7B5
:1030A000010000100146002021B1022904D00329AB
:1030B00006D103E0F74804E0F74802E0F74800E0F3
:1030C00000BF00BF70472DE9F34F8BB0884600204A
:1030D00009900120FDF7A7F808904FF0FF3003900A
:1030E00000200690824600210C460D46012648E04D
:1030F000002007903DE00798304400FB08F70021CE
:103100000907089841EA101102070023A2FB060CE8
:1031100001FB06C102FB03113A46CDE9000101F0B3
:10312000CDFACDE90401DDF810B0DDF81490BBF163
:10313000004F03D9CBF1000B09F10109B9F1000FE0
:1031400002D0B9F5803F00D910E0039883450CD236
:10315000CDF80CB000254C4607980690B246DDF835
:103160000CB0BBF1000F00D106E000BF0798401C77
:1031700007900798B042BED300BF039800B902E0A1
:10318000761C0F2EB4D900BF002184EA01006940EB
:10319000084302D10DB0BDE8F08F0898000900FB8C
:1031A0000AF7069850440021A0FB042301FB0431D8
:1031B00000FB05100346CDE900203846002101F050
:1031C0007DFA02900298804504D90298A8EB00008D
:1031D000039003E00298A0EB080003906421039899
:1031E0004843B0FBF8F003900398032858D20B989B
:1031F000012819D1AA48007B40F08000A849087333
:10320000200A40EA056008710C700846007B00F057
:103210007F000873F02000EA0A10069901F00F0100
:1032200008439F49886239E00B9804281BD19D48C8
:10323000C06840F080009B49C860200A40EA0560F1
:10324000C0B24860E0B208600846C06800F07F0085
:10325000C860F02000EA0A10069901F00F01084347
:10326000904988621AE00B98FFF71CFF0746387BED
:1032700040F080003873200A40EA056038713C70E5
:10328000387B00F07F003873F02000EA0A100699BE
:1032900001F00F01084387F8280000BF01200990C2
:1032A000099877E72DE9F04106460F46052E3CD2F6
:1032B000DFE806F0033C04056C0000BF00BF3046A9
:1032C000FFF7F0FE054626B901210820FCF7C2FFF2
:1032D0000CE0022E04D101210806FCF7BBFF05E03B
:1032E000032E03D101214806FCF7B4FF0720287202
:1032F0000020287200E02C78287D10F0010FFAD110
:10330000802085F8300000BF287D10F0200FFBD012
:10331000002085F8300068602873286285F84C002A
:1033200085F8540085F850002C7D57E001211020CD
:10333000FCF790FF07205A4908720020087201E04C
:10334000574804785648007D10F0010FF8D18020CE
:103350005549087000BF5248007D10F0200FFAD088
:103360000020514908704E4948600873086281F88E
:103370004C004E4908704A4981F850000846047DC7
:103380004FF0000008740846047E27E0012108027F
:10339000FCF760FF0720434988600020886001E057
:1033A000404804683F48406910F0010FF8D10120FF
:1033B0003C49C86500BF3B48406910F0200FFAD077
:1033C00000203849C8654860C8600862C86448651C
:1033D0000865084644690020486200BF00BF3046C7
:1033E0003968FFF770FE012E04D12D48007B00F0F4
:1033F000C0040EE0042E04D12A48C06800F0C004C6
:1034000007E03046FFF74EFE0546287B00F0C0047B
:1034100000BF787930B1012806D0022807D00328F0
:1034200008D108E000BF09E044F0010406E044F0E0
:10343000020403E000BF44F0030400BF00BF38797A
:10344000C0B144F008043879012806D0022806D01B
:10345000032807D004280BD107E000BF09E044F09F
:10346000100406E044F0200403E044F0300400E0DF
:1034700000BF00BFB87928B1012802D144F004048C
:1034800001E000BF00BF00BF012E11D1044804734A
:1034900019E0000000C000400080094000C0094061
:1034A0000000014000400A4030000140540001404B
:1034B000042E02D1F848C46005E03046FFF7F2FD63
:1034C00005462C7300BFBDE8F08170B504460D467B
:1034D000012D1DD1012C07D1F048007840F080006B
:1034E000EF4981F830002FE0042C06D1EA48C06D86
:1034F00040F00100E849C86526E02046FFF7D2FD0C
:10350000064696F8300040F0800086F830001BE058
:10351000012C07D1E14800784FF00000E04981F824
:10352000300011E0042C05D1DB48C06D0020DA49E1
:10353000C86509E02046FFF7B5FD064696F830005D
:10354000002086F8300000BF70BD10B50446002191
:103550002046FFF7BAFF24B900210820FCF77AFEC5
:103560001BE0012C04D100211020FCF773FE14E0B5
:10357000022C04D10021E005FCF76CFE0DE0032CC9
:1035800005D100214FF00070FCF764FE05E0042C2B
:1035900003D10021A001FCF75DFE10BD4FF4E13125
:1035A000016003214171002101718171704705287B
:1035B00013D2DFE800F00306090C0F00B94A1170BE
:1035C0000BE0B74A117008E0B74A117005E0B74A3E
:1035D000117002E0B04A116000BF00BF70470146A1
:1035E000052914D2DFE801F00306090C0F00AD48ED
:1035F00000787047AA480078FBE7AB480078F8E706
:10360000AA480078F5E7A4480068C0B2F1E70020B6
:10361000EFE72DE9FF4F81B080468A469346574633
:1036200000200090B8F1050F18D2DFE808F003077A
:103630000B0F13009B48143000900FE09848143093
:1036400000900BE098481430009007E09748143041
:10365000009003E090481430009000BF00BF5C462B
:103660000498012824D100251FE04FF0FF3905E020
:10367000B9F1000F00D106E0A9F101090098006836
:1036800010F0200FF4D000BFB9F1000F00D10EE010
:10369000102607E017F8011B4046FFF788FF761E4B
:1036A000641E6D1C0EB1002CF4D1002CDDD119E08C
:1036B000002514E004B914E00098006810F0200F11
:1036C00000D10EE0102607E017F8011B4046FFF777
:1036D0006EFF641E761E6D1C0EB1002CF4D1002C02
:1036E000E8D100BF284605B0BDE8F08F2DE9F04FC6
:1036F0000646884691469B4645464FF0000A052EF1
:103700001DD2DFE806F003080D121700DFF894A1C0
:103710000AF1140A13E0DFF888A10AF1140A0EE096
:10372000DFF884A10AF1140A09E0DFF880A10AF1A8
:10373000140A04E0DFF860A10AF1140A00BF00BF18
:103740004A46BBF1010F19D1002414E04FF0FF37B6
:1037500002E007B905E07F1EDAF8000010F0010F63
:10376000F7D000BF07B908E03046FFF738FF05F88B
:10377000010B521E641C002AE8D111E000240CE069
:10378000DAF8000010F0010F00D108E03046FFF732
:1037900026FF05F8010B641C521E002AF0D100BF61
:1037A0002046BDE8F08F052827D2DFE800F0030AA5
:1037B00011181F003B49097B41F04001394A117340
:1037C0001BE03749097B41F04001354A117314E091
:1037D0003549097B41F04001334A11730DE033490B
:1037E000097B41F04001314A117306E02A49C9685A
:1037F00041F04001284AD16000BF00BF7047F0B5DA
:1038000004460D4600210026052C1DD2DFE804F0F9
:1038100003080D1217002349091D40F2073613E073
:103820001F49091D40F28F360EE01F49091D40F265
:10383000073609E01D49091D40F2073604E0164924
:10384000091D40F2073600BF00BF072D15D2DFE883
:1038500005F00406080A0C0E110001200DE00220FC
:103860000BE0042009E0082007E0802005E04FF489
:10387000807002E04FF4007000BF00BF012A05D144
:103880000B6800EA06073B430B6004E00B6826EA7E
:1038900000073B400B60F0BD00400A403000014093
:1038A0000000014000C000400080094000C0094005
:1038B0000146052914D2DFE801F00306090C0F00C8
:1038C000FE48007D7047FE48007DFBE7FD48007D17
:1038D000F8E7FD48007DF5E7FC484069C0B2F1E734
:1038E0000020EFE70146052922D2DFE801F00309B5
:1038F0000F151B00F148806840F2CF32104070472E
:10390000EF48806840F2CF321040F8E7ED48806819
:1039100040F2CF321040F2E7EB48806840F2CF32FD
:103920001040ECE7E948806840F2CF321040E6E70B
:103930000020E4E70146002205291DD2DFE801F05E
:1039400003080D121700DD48007D00F0400213E06F
:10395000DB48007D00F040020EE0DA48007D00F018
:10396000400209E0D848007D00F0400204E0D7485A
:10397000406900F0400200BF00BF12F0400F01D0CC
:10398000002070470120FCE710B50246002040F0FF
:103990000100CB7833B1012B06D0022B07D0032BCB
:1039A00008D108E000BF09E040F0400006E040F028
:1039B000800003E000BF40F0C00000BF00BF4B78B4
:1039C000012B01D140F004000B78012B01D140F014
:1039D00002008B78012B01D140F00800052A1DD28E
:1039E000DFE802F003080D12170000F0CF03B34C1C
:1039F000237213E000F0CF03B14C23720EE000F00D
:103A0000CF03B04C237209E000F0CF03AE4C237219
:103A100004E000F0CF03AD4CA36000BF00BF10BDB9
:103A200000218170C17001210170417070472DE942
:103A3000F0410746884615460026012D0BD198F81F
:103A40000000012801D146F0020698F80100012883
:103A500001D146F00406012F19D1012D13D1984848
:103A6000007B40F0800096490873002008700871C0
:103A70000846007B20F0800008731020886246F022
:103A8000010008623AE000208D49086236E0042F08
:103A900019D1012D13D18D48C06840F080008B49A9
:103AA000C8600020086048600846C06820F08000B8
:103AB000C8601020886246F0010008621EE0002005
:103AC000824908621AE03846FFF7ECFA0446012DF5
:103AD00011D1207B40F080002073002020702071E5
:103AE000207B20F080002073102084F8280046F00E
:103AF0000100206201E00020206200BFBDE8F081EB
:103B000070B505460C46012D05D16D48006A20436D
:103B10006B4908620FE0042D05D16C48006A204310
:103B20006A49086207E02846FFF7BCFA0646306A91
:103B30002043306200BF70BD042800D070470129C7
:103B400006D1624A526A42F00202604B5A6206E0B3
:103B500029B95E4A526A02F03D025C4B5A6200BFCC
:103B6000ECE7042800D07047012906D1574A526A71
:103B700042F00102554B5A6205E0544A526A02F083
:103B80003E02524B5A6200BFEDE730B5042800D028
:103B900030BD4C07A30E4D4C646A24F0380243F04C
:103BA0000404224302F03F04484D6C6200BFEFE77B
:103BB00030B50023012800D030BD11B1012904D156
:103BC00001E0012302E0022300E000BF00BF012A60
:103BD00005D13B4C247C1C43394D2C7406E0384CF9
:103BE000247CF3259D432C40354D2C7400BFE3E726
:103BF00030B50346012B00D030BD21B1012904D0DE
:103C0000022906D103E0102004E0402002E08020D9
:103C100000E000BF00BF012A05D1294C247C0443E9
:103C2000274D2C7406E0264C247CF32585432C403C
:103C3000234D2C7400BFDFE70146012901D000208D
:103C400070471F48007EFBE72DE9F05F07460C46F2
:103C50000025012F0AD1DFF8688008F15408A8F187
:103C60000409174E0C36A9F1040A19E0042F0AD1F1
:103C7000DFF8588008F15408A8F10409134E0C36F7
:103C8000A9F1040A0CE03846FFF70CFA83460BF161
:103C900054080BF150090BF10C060BF14C0A00BF54
:103CA000E07801281BD145F010056079012801D189
:103CB00045F02005207901280ED109E000C0004020
:103CC000000001400080094000C0094000400A4057
:103CD000012F01D145F00805E079C8F800002078EF
:103CE000012801D145F00105A078012804D145F053
:103CF0000405A079C9F80000607808B945F002050C
:103D0000CAF80050306840F038003060BDE8F09FDD
:103D10002DE9F04105460E46012D01D1394C0AE04E
:103D2000042D01D1384C06E02846FFF7BBF90746C1
:103D300007F1540400BF012E04D1206820F00200D6
:103D4000206003E0206840F002002060BDE8F081C0
:103D50002DE9FF4F81B006468B469846012E04D1CF
:103D6000284C483C274D403D0FE0042E04D1264C02
:103D7000483C254D403D08E03046FFF793F9824628
:103D80000AF10C040AF1140500BFB8F1000F14D0B9
:103D90002068C7B2B94629F01009C4F80090012381
:103DA00059463046039AFFF734FC009000BF28685C
:103DB00010F0400FFBD027600BE00123594630463E
:103DC000039AFFF726FC009000BF286810F0400F10
:103DD000FBD0009805B0BDE8F08F13B50446012371
:103DE0001A4601A92046FFF7B3FF1CBD70B5044673
:103DF0000D4616460023324629462046FFF7A8FF07
:103E000070BD00005400014054400A4008B5002134
:103E1000009102E00099491C00918100009A9142B2
:103E2000F8D808BD18B504460020009006E04FF40D
:103E30007A70FFF7EBFF0098401C00900098A042BA
:103E4000F5D318BD002107E0002240F82120A0F89A
:103E50008020C0F88420491C2029F5D37047002118
:103E6000016041608160C160704700210160416074
:103E70008160C160704710B54FF00054F94804608C
:103E800004F58070F849086004F58870F749086007
:103E900004F59070F649086004F59870F5490860DB
:103EA00004F5A070F449086004F5A870F3490860AF
:103EB00004F5E870F249086004F58050F1490860A3
:103EC000084600681230F04908600846006809306A
:103ED000EE490860E6480068FFF7C7FFE54800685C
:103EE000FFF7C3FFE4480068FFF7BFFFDE48006844
:103EF000FFF7B5FFDD480068FFF7B1FFD94800685C
:103F0000FFF7A0FF3220FFF78DFF0020E049486057
:103F10000862886201208860DE484863084640687D
:103F200020F0C00040F08000486060130865CD4874
:103F3000006888610846C068C9680843D449C860F9
:103F4000D548086110BD10B5D448006840F0004065
:103F5000D349C1F8C4004FF01900D249086000BF2E
:103F6000D148006800F019001928F9D10120CF4983
:103F7000086002464FF01D014FF00000FEF7C5FE3D
:103F800001221E210020FEF7C0FE0122092102208D
:103F9000FEF7BBFE012212211046FEF7B6FE0222FA
:103FA00013210120FEF7B1FE01221B211046FEF76E
:103FB000ACFE01221F210020FEF7A7FE03220E21E6
:103FC0000020FEF7A2FE01220D210020FEF79DFE3B
:103FD00001220C210020FEF798FE01221F2110462D
:103FE000FEF793FEFFF747FF1820012181404209A9
:103FF0004FF0E02303EB8202C2F8001100BF002162
:10400000002806DACA00AA4B00F00F04241F1A5534
:1040100002E0CA00A74B1A5400BF10BD9C4AD068EA
:104020001169084200D17047084010F0400F75D068
:10403000974A526D12F4803F2CD0954A126D12F4BB
:10404000004F06D09C4A126842F001029A4B1A6057
:104050001CE08F4A526D12F0010F0ED00022974BD8
:104060001A70974B1A60944A126842F00102924B00
:104070001A600122934B1A6008E08F4A126822F0FE
:1040800001028D4B1A6000228E4B1A604FF4803271
:104090007F4B5A657E4A926D12F4803F2CD07C4A49
:1040A000126D12F4004F06D0834A126842F00202E9
:1040B000814B1A601CE0764A926D12F0010F0ED00F
:1040C00000227E4B1A707E4B1A607B4A126842F0C7
:1040D0000202794B1A6001227A4B1A6008E0764A94
:1040E000126822F00202744B1A600022754B1A60AB
:1040F0004FF48032664B9A65654A526D12F4801F08
:1041000003D04FF48012624B5A65614A926D12F4EB
:10411000801F03D04FF480125D4B9A6510F0020FA0
:104120000AD00122664B1A604F4A126812680F23A8
:1041300003EA1272614B1A7010F0100F04D0624A39
:104140001268521C604B1A60514AD06000BF6AE787
:1041500000BF5B4800680028FBD000205849086079
:1041600070471FB581B0044641480068844209D1B8
:10417000029818B94FF00070009005E04FF04070C1
:10418000009001E000200090029840F48020009907
:10419000084340F070403449096808600020334902
:1041A0000968086030480068426000202F490968AB
:1041B00048602E4800682C490968886000202B4917
:1041C00009688860581E104427490968C8600020A3
:1041D00026490968C860A06800F002002249096801
:1041E0000843A0602148006860600020E06020482B
:1041F000006884420CD126480462806840F00200C6
:10420000234988600846406840F0100048600BE091
:104210001F488462806840F004001D498860084699
:10422000406840F020004860FFF792FF2348007884
:1042300010B9002005B010BD4FF0FF30FAE703B50C
:104240009DF8041001709DF8051041700CBD2DE91A
:10425000F04305460E4617469846DDF81C900024AC
:1042600039E00000EC010010E4010010E80100104A
:10427000D8010010DC010010E0010010F401001072
:10428000F80100100002001004020010FC010010F0
:1042900000C00820DF2E782752000080C4C00F40E5
:1042A00000C00F40F4CF0820F8CF082010C108202C
:1042B00018ED00E000E400E0C8010010D00100109B
:1042C000CC010010C0010010D40100100020F14901
:1042D00009680855641C4C45F8DBEE480068057019
:1042E000EC48006846703946EA480068801CFFF7D1
:1042F000A6FF4146E7480068001DFFF7A0FF4946BA
:10430000E4480068801DFFF79AFFBDE8F0832DE9BF
:10431000F84706460F4690469946DDE9094A4B465E
:104320004246394630460094FFF791FF0823D948AA
:1043300000210268D8480068FFF713FF05469DB9C1
:1043400044B1234652464FF40021D3480068FFF79A
:1043500008FF054645B900231A464FF48011CE48A0
:104360000068FFF7FEFE05462846BDE8F88708B559
:10437000014608788DF8000048788DF80100BDF8F6
:10438000000008BD10B5C548026800245078022816
:1043900002D06FF00A0010BD107802444BE0507854
:1043A000042802D0052842D10FE0507908280BD10B
:1043B0009079062808D1D079502805D10124002011
:1043C000B74908701078024434E0D07800F0030058
:1043D000022829D1907810F0800F12D0101DFFF71D
:1043E000C6FF917801F07F01012343EAC11141F436
:1043F000805141EA0040AB490968086010780244E6
:1044000014E0101DFFF7B3FF917801F07F01012345
:1044100043EAC11141F4006141EA0040A249096840
:1044200008601078024401E01078024402E010783D
:10443000024400BF00BF99480068801CFFF797FF47
:104440009649096808449042A9D10CB10020A2E71E
:104450006FF00B009FE72DE9F84706460F469046A0
:104460009946DDE9094A4B464246394630460094B2
:10447000FFF7EDFE082387480021026886480068A0
:10448000FFF76FFE05469DB944B1234652464FF4EF
:10449000801181480068FFF764FE054645B9002396
:1044A0001A464FF400217C480068FFF75AFE054683
:1044B0002846BDE8F8873CB500BF7C480068002866
:1044C000FBD06420FFF7AEFC7948006810F0010FC4
:1044D0000CD010207749486500BF7648406D10F039
:1044E000100FFAD14FF48010724948657048006887
:1044F00010F0020F0CD010206E49886500BF6D4887
:10450000806D10F0100FFAD14FF480106949886562
:10451000C820FFF787FC4FF490105F4909680860D6
:1045200065480068122100234FF48072CDE9001025
:1045300006218020FFF78FFF04460CB120463CBDCA
:104540005D480068C079000453490968086000208C
:1045500000900346012205210190FFF7D8FE044692
:104560000CB12046EBE70220FFF75CFC4A480068EC
:10457000006840F001004849096808604748006841
:10458000092100234FF40072CDE90010062180209C
:10459000FFF761FF04460CB12046D0E73F480068B2
:1045A000801CFFF7E4FE05463C48006800234FF4FA
:1045B00000720621CDE900508020FFF74CFF044631
:1045C0000CB12046BBE7FFF7DDFE04460CB12046E8
:1045D000B5E7002000900346012209210190FFF772
:1045E00096FE04466420FFF71DFC2046A7E72C48F2
:1045F0000078704708B5014608788DF800004878C3
:104600008DF8010088788DF80200C8788DF80300D5
:10461000009808BD03B59DF8041001709DF80510C1
:1046200041709DF8061081709DF80710C1700CBD97
:1046300008B50146C8788DF8000088788DF801002B
:1046400048788DF8020008788DF80300009808BDBE
:1046500003B59DF8071001709DF8061041709DF894
:10466000051081709DF80410C1700CBD08B501469D
:1046700048788DF8000008788DF80100BDF800003A
:1046800008BD03B59DF8051001709DF80410417038
:104690000CBD0000F4010010D8010010040200104D
:1046A000C4010010DC010010E0010010C001001086
:1046B000C801001000C00820000200102DE9F05FC2
:1046C0000546002092469B46884606468146402481
:1046D0001BE0284641464746224600F057F853461D
:1046E0005A46C01A914110D311461846224600F08E
:1046F0003EF82D1A67EB01084F46224601200021A3
:1047000000F035F817EB00094E41201EA4F101041A
:10471000DFDC484631462A464346BDE8F09F40EA82
:1047200001039B0703D009E008C9121F08C0042A2F
:10473000FAD203E011F8013B00F8013B521EF9D216
:10474000704730B50B46014600202022012409E0C5
:1047500021FA02F59D4205D303FA02F5491B04FA3A
:1047600002F52844151EA2F10102F1DC30BD202A19
:1047700004DB203A00FA02F1002070479140C2F1B8
:10478000200320FA03F3194390407047202A04DBEA
:10479000203A21FA02F00021704721FA02F3D040BA
:1047A000C2F1200291400843194670472DE9FE4F9F
:1047B000804681EA0300C00F0C46009021F00041C2
:1047C00023F00045B8EB0200A94105D2404621463E
:1047D00090461C460B46024623F00040104304D18D
:1047E0004046214603B0BDE8F08F270DC7F30A000D
:1047F000C3F30A510290401A0190402866DAC3F3CD
:10480000130040F4801B0098924620B10023D2EBA5
:10481000030A63EB0B0B01985946C0F14002504666
:10482000FFF7A5FF06460D4650465946019A00F08F
:1048300083F910EB08006141002487EA115284EAF1
:10484000E7731A433BD0009A3AB3019A012A4FEA20
:10485000075210DC001B61EB02014FF0004202EA3C
:104860000752CDE90042001C41F5801132462B462B
:1048700000F081F9B6E7001B61EB0201001C41F575
:10488000801300185B412018A2F5001747EB0301C5
:1048900040EAD570B6196D4111E06D084FEA360651
:1048A00045EAC0754FEA0752001B61EB0201001C8C
:1048B00041F5801149084FEA300000195141324654
:1048C0002B4603B0BDE8F04F00F048B90098012234
:1048D00040000023D0EB020263EBE0730098214616
:1048E0004FEAE074B8EB000061EB0401E9E783F004
:1048F00000435BE781F0004158E72DE9FE4F81EA74
:10490000030404F0004421F0004100944FF0000B38
:1049100023F0004350EA010402D052EA030404D118
:104920000020014603B0BDE8F08FC3F30A54C1F381
:104930000A552C44A4F2F3340194A0FB0254C1F3B1
:10494000130141F48011C3F3130343F4801301FBFB
:10495000024400FB034E840A970A44EA815447EA62
:104960008357A4FB076802958D0A05FB07854FEA6C
:10497000932C04FB0C542705029D4FEA065847EA86
:104980001637B5EB08056EEB070C870E920E47EA5B
:10499000811742EA8312A7FB0201B6EB0B0164EB1D
:1049A00000042B0D43EA0C335E1844EB1C50DA462E
:1049B0005146E7FB0201C5F313044FEA0B3343EA08
:1049C00014534FEA0432019C43EA0603A4F10C0499
:1049D0000294009CCDE900B400F0CDF8A2E72DE9E7
:1049E000F04D81EA030404F0004B21F00045144629
:1049F0004FF0000A23F0004150EA050220D054EAAB
:104A000001021DD0C5F30A570246C5F31303C1F3D3
:104A10001300C1F30A5640F4801543F48013A7EB4A
:104A20000608101BD64608F2FD3873EB050002D3CA
:104A300008F1010801E092185B41B8F1000F03DAB8
:104A400000200146BDE8F08D00204FF4801106469D
:104A500084460EE0171B73EB050705D3121B63EBAF
:104A6000050306434CEA010C49084FEA300092184E
:104A70005B4150EA0107EDD152EA030012D082EA0D
:104A8000040083EA0501084303D100224FF00043EC
:104A900008E0101BAB4102D20122002302E06FF0BC
:104AA000010253101AEB06004CEB085110EB0A0000
:104AB00041EB0B01BDE8F04D00F050B8C1F30A52D4
:104AC000C1F3130140F2FF3341F480119A4202DA3C
:104AD00000200146704740F233439A42A2F233422B
:104AE00002DC5242FFF752BEFFF741BE30B500294B
:104AF00004DB4FF00044404264EB0101002B04DB77
:104B00004FF00044524264EB0303994208BF9042C5
:104B100030BD0000064C074D06E0E06840F00103A0
:104B200094E8070098471034AC42F6D3FBF7DEFA5E
:104B3000B4550000D4550000202A06DBCB17203ADC
:104B400041FA02F043EAE07306E041FA02F3D04092
:104B5000C2F12002914008431946704710B5002B5E
:104B600008DA401C41F1000192185B411A4301D15F
:104B700020F0010010BD2DE9F04D92469B4611B189
:104B8000B1FA81F202E0B0FA80F220329046FFF7EB
:104B9000EEFD04460F4640EA0A0041EA0B01534687
:104BA0005A46084303D120463946BDE8F08D1146E8
:104BB00053EA010015D0C8F140025046FFF7E6FD68
:104BC00005460E46504659464246FFF7D0FD08437B
:104BD00001D0012000E00020054346EAE0762C43A6
:104BE00037430A984FEA4453A0EB08004FEAD42415
:104BF0000A304FF0000244EA47544FEAD72502D565
:104C000000200146D1E7010510196941DDE9084599
:104C100000196941BDE8F04DA0E770B501EB020451
:104C200010F8015B15F0070301D110F8013B2A11C0
:104C300006D110F8012B03E010F8016B01F8016BAD
:104C40005B1EF9D12B0705D40023521E0FD401F8A7
:104C5000013BFAE710F8013B02F10202A1EB03036A
:104C600003E013F8015B01F8015B521EF9D5A14284
:104C7000D6D3002070BD000037B514460846064B59
:104C80006A46214600F0C0F804466946002000F05C
:104C90005EFC20463EBD00004F550000002001E0B4
:104CA00001C1121F002AFBD1704700002DE9FF5FF0
:104CB000DDE90220010DDDF838B0024310D10F9874
:104CC00001244CA2012808D0002100980F9BC0E9C4
:104CD0000021C0E90243BDE8FF9F6FEA0B01F4E742
:104CE000A1F2FF3144F6105041430D140F980128F2
:104CF0000ED0A5EB0B00401C4FF000043E4EDFF839
:104D0000FC90B0F1000AA04605DACAF1000717E0EE
:104D1000CBF10000F0E7074612E0F80707D0224683
:104D2000334640464946FFF7E8FD8046894622461D
:104D3000334610461946FFF7E0FD04460E467F1045
:104D4000002FEAD1DDE90201BAF1000F42464B46DD
:104D500002DAFFF7D2FD01E0FFF741FE04460E46FE
:104D60000022274BFFF7C2FE03D84FF0FF30014669
:104D700007E00022234B20463146FFF717FDFFF7DF
:104D80009DFE102409E0002C0ADB0A220023FFF715
:104D900095FC019B30321A55641E50EA0102F2D193
:104DA000641C019AC4F1110314440F9A012A09D01A
:104DB0000122084301D15B450FDD4FF0000205F1F0
:104DC00001050DE0084303D1A3EB0B056D1E09E0BF
:104DD00000204FF0110B0F9088E701DA00226D1EC2
:104DE000002A83D000980F99C0E90231C0E900453C
:104DF00071E7000030000000000024400000F03F98
:104E00000000F0430000E03F2DE9FF4F95B09B46C6
:104E100089460646002512E2252878D10024761C12
:104E2000F94A2746012105943378203B01FA03F023
:104E3000104202D00443761CF6E730782A2811D0BD
:104E40006FF02F033078A0F13002092A16D8059AA6
:104E500044F0020402EB820203EB42021044761C8F
:104E60000590EFE759F8042B0592002A03DA504227
:104E700044F40054059044F00204761C30782E2847
:104E800016D116F8010F44F004042A280DD06FF053
:104E90002F023078A0F13003092B09D807EB8703E4
:104EA00002EB4303C718761CF3E759F8047B761C22
:104EB00030786C280FD006DC4C2817D068280DD02D
:104EC0006A2814D104E0742810D07A280FD10DE09C
:104ED00044F400140AE044F4801401E044F4401463
:104EE0007278824202D1761C04F58014761C3078E8
:104EF00066280BD013DC582877D009DC002875D041
:104F00004528F6D04628F4D047281AD19FE118E06A
:104F1000632835D0642879D0652812D197E17028AC
:104F200073D008DC6728F1D069286FD06E280DD0C7
:104F30006F2806D1B5E073282CD0752875D0782855
:104F400074D05A46179990476D1C76E1C4F302500D
:104F5000022809D003280DD0D9F8001004280DD05C
:104F60000D6009F1040968E1D9F80010EA17C1E9F8
:104F70000052F6E7D9F800100D80F2E70D70F0E767
:104F800019F8041B8DF8001000208DF80100EA4686
:104F9000012003E059F804AB4FF0FF3061074FF0F8
:104FA000000102D40DE008F101018846B9420FDA90
:104FB0008045F8DB1AF808100029F4D108E008F160
:104FC000010188468142FADB1AF808100029F6D15F
:104FD00005985B46A0EB080721463846179A00F073
:104FE0009EFA284400EB080507E04DE02BE10DE0B8
:104FF0001AF8010B5A4617999047B8F10108F7D2F1
:105000005B4621463846179A14E142E00A22009294
:10501000C4F302524FF0000A022A08D059F804CB18
:10502000032A4FEAEC710AD00DE029E02AE009F1E9
:10503000070121F00702F2E802C1914609E00FFAE8
:105040008CFC4FEAEC71042A03D14FFA8CFC4FEA36
:10505000EC71002907DA0A460021DCF1000C61EB53
:1050600002012D2202E0220504D52B228DF8042016
:10507000012203E0E20701D02022F7E7904653E047
:105080000A2102E010220DE010214FF0000A0091E9
:105090000BE010224FF0000A44F0040408270092AD
:1050A00003E008224FF0000A0092C4F30252022AE1
:1050B00005D059F804CB0021032A08D009E009F1F2
:1050C000070121F00702F2E802C1914605E01FFA4C
:1050D0008CFC042A01D10CF0FF0C4FF000082207D1
:1050E00022D5702827D0009B83F0100353EA0A03CF
:1050F00009D15CEA010206D030228DF804208DF837
:10510000050002229046009B83F0080353EA0A033D
:105110000AD15CEA010201D1620705D530228DF87F
:1051200004204FF001087F1E582809D037A00390B3
:105130000EA8029013E040228DF804200122E1E73E
:1051400037A0F4E753466046009AFFF7B7FA844663
:105150000398825C0298A0F10100029002705CEA60
:105160000100EFD1029806A9A1EB000000F1200A8E
:10517000600702D524F4803400E00127574502DDA2
:10518000A7EB0A0000E0002000EB0A010090059860
:105190004144A0EB01000590E00306D45B462146A4
:1051A000179A059800F0BBF90544002706E001A80E
:1051B0005A46C05D179990476D1C7F1C4745F6DB2A
:1051C000E0030CD55B462146179A059800F0A7F935
:1051D000054404E030205A46179990476D1C009909
:1051E000481E00900029F5DC08E0029802995A4612
:1051F0000078491C0291179990476D1CBAF1000183
:10520000AAF1010AF1DC6BE10928010030313233E7
:1052100034353637383961626364656600000000F2
:1052200030313233343536373839414243444546DC
:105230000000000000F060F9054406F10106307836
:1052400000287FF4E9AD19B02846BDE8F08F620769
:1052500000D4062709F1070222F0070CFCE802231C
:10526000E14603F000485FEA080C02D00FF27C2C04
:105270000DE05FEA045C02D50FF2742C07E05FEAF0
:10528000C47C02D00FF26C2C01E0AFF2700C4FF036
:10529000FF3823F00043CDF850C065280CD006DC61
:1052A000452809D046281DD047283ED13EE0662833
:1052B00018D0672839D139E00021112F01DB1120E6
:1052C00000E0781CCDE9000106A90EA8FFF7EEFC6E
:1052D000DDE90F010E9A03910021009207F1010A06
:1052E00004914EE04FF000400097CDE9011006A96F
:1052F0000EA8FFF7DBFCDDE90F0203920E9B11996C
:105300000022DDF80CA00093049219B907F1010105
:1053100000EB010AB7EB0A0004D4C0F1FF3007F13B
:10532000010A0490AAEB0700019046E0012F00DA81
:1053300001270021112F01DD112000E03846CDE9C1
:10534000000106A90EA8FFF7B1FCDDE90F010E9AD6
:105350000391002104910092BA4621070CD40399CD
:10536000514500DA8A46BAF1010F05DD009AAAF12B
:105370000101515C302908D0B84202DA10F1040F63
:1053800006DA0121CDE9011017E0AAF10101E9E7F0
:10539000002805DC049901440491AAEB000102E015
:1053A000411C514500DD8A460499A0EB010000F143
:1053B000010001904FF000400290200704D40198B2
:1053C000504501DBCDF8048000208DF84F00029895
:1053D0000DF14F07B0F1004F25D02B200E90029811
:1053E0004FF0020800280CDA404202902D200E9067
:1053F00007E00A210298FFF7A4F93031029007F87C
:10540000011DB8F10001A8F10108F2DC02980028A2
:10541000EFD1791E0E980870307800F0200040F02F
:10542000450007F8020D12A8A0EB070000F10708DD
:105430001498007800B1012000EB0A01019801EBFB
:10544000E07105984144A0EB0100A0F10100059036
:10545000E00306D45B462146179A059800F05FF8F2
:1054600005441498007820B15A461799904705F1E1
:105470000105E00323D55B462146179A059800F005
:105480004EF805441BE00498002807DBDDE9030122
:10549000884203DD0098405C179901E0179930209D
:1054A0005A46904704986D1C401C04900198401E79
:1054B000019004D12E205A46179990476D1CBAF1DD
:1054C0000001AAF1010ADEDC05E017F8010B5A46DB
:1054D000179990476D1CB8F10001A8F10108F4DCA0
:1054E0005B462146179A0598A4E600002D000000AF
:1054F0002B000000200000002DE9F04104460025AB
:105500001E461746880405D406E039462020B047D9
:1055100005F10105641EF8D52846BDE8F0812DE9A6
:10552000F041044600251E469046C80301D53027A9
:1055300000E02027880405D506E041463846B047FC
:1055400005F10105641EF8D52846BDE8F0810A681A
:10555000531C0B6010707047506C6561736520655B
:105560006E746572206120636861722066726F6D6F
:105570002027302720746F202739272C20616E6464
:105580002027612F41272C2027622F42272C2063C0
:105590002F43272C2027642F44272C2027652F45B5
:1055A0002720616E642027662F46272121210D0ABE
:1055B00000000000D4550000000000100C020000A4
:1055C0001A4C0000985600000C0200105C580000B5
:1055D0009C4C000011140E27073C87930304846C35
:1055E000DC020C4D0A0D2A01181D0A0D2048656CBD
:1055F0006C6F204E58502053656D69636F6E6475F3
:1056000063746F7273201C18175541525420486FF1
:105610007374204C697465206578616D706C651ACF
:10562000581409202D204D43553A204C5043313712
:1056300037785F3878165814436F72653A204152B4
:105640004D20434F525445582D4D331A394D38197A
:10565000436F6D6D756E69636174696F6E3A203169
:1056600031353230302062706F7D5468697365184F
:105670000B7573656420746F2074657F4C555342BD
:10568000882D66756E633B0C402E0A0DFEC9010322
:085690004C0A0D024701000065
:04000005000000E512
:00000001FF
