:020000040000FA
:1000000010140010F90000000501000007010000B5
:10001000090100000B0100000D01000000000000BC
:100020000000000000000000000000000F010000C0
:100030001101000000000000130100001501000084
:100040001701000017010000170100001701000050
:100050001701000017010000170100001701000040
:100060001701000017010000170100001701000030
:100070001701000017010000170100001701000020
:100080001701000017010000170100001701000010
:100090001701000017010000170100001701000000
:1000A00017010000170100001701000017010000F0
:1000B00017010000170100001701000017010000E0
:1000C00017010000170100001701000017010000D0
:1000D0001701000017010000210B000017010000AC
:1000E00017010000DFF80CD000F0C2F8004800470C
:1000F000F50B0000101400100748804707488047A0
:1001000007480047FEE7FEE7FEE7FEE7FEE7FEE7FB
:10011000FEE7FEE7FEE7FEE7B9050000F90B000089
:10012000E500000070B506460D4636B1012E11D02F
:10013000022E1DD0032E3DD128E04648006820F055
:100140001F0405F01F0004434348C0F8044100F0B9
:10015000D7F831E03F48A430006820F01F0405F0D4
:100160001F0004433C48C0F8A84100F0C9F823E050
:100170003848001F006820F0010405F00100044326
:100180003548C0F8004100F0BBF815E03148001DCB
:10019000006820F01F0405F01F0004432E48D0F82B
:1001A000080105F01F0108432A49091D086000F0F5
:1001B000A7F801E000BFFEE700BF70BD014631B106
:1001C000012907D0022908D003290CD108E02348CF
:1001D0000068704722480068FBE722480068F8E79B
:1001E00021480068F5E700BFFEE7012907D1194A59
:1001F000403A12680243184BC3F8C42007E031B9F3
:10020000144A403A12688243134BC3F8C420704723
:10021000002010494439086030BF7047042013495A
:10022000086000200B494439086030BF7047042043
:100230000E490860012007494439086030BF704703
:1002400004200A490860032002494439086030BF8D
:100250007047000004C10F4000C00F4000000010B4
:1002600004000010080000100C00001010ED00E069
:10027000064C074D06E0E06840F0010394E80700F3
:1002800098471034AC42F6D3FFF730FFB4020000B9
:10029000D402000002E008C8121F08C1002AFAD1E7
:1002A00070477047002001E001C1121F002AFBD1F6
:1002B00070470000040C0000000000101000000057
:1002C00094020000140C0000100000100014000044
:1002D000A402000000000000000000000000000078
:1002E000000000000000000000000000000000000E
:1002F000000000000000000000000000FFFFFFFF02
:1003000030B5E248006800F48070002872D1DF4800
:100310000830006800F0010070BBDC48006800F0A5
:100320001F0008B9002006E0D848006800F01F0050
:10033000D749B1FBF0F0D7490860D448A430006831
:1003400000F01F0008B9002007E0D048A430006882
:1003500000F01F00CE49B1FBF0F0CF490860CB4858
:10036000001F006800F00100401CCA490968B1FB89
:10037000F0F0CA490860BEE0C4489C30006800F054
:10038000400038B90020C3490860C3490860C34928
:100390000860B0E0BD48006800F01F0008B9002008
:1003A00006E0BA48006800F01F00B949B1FBF0F060
:1003B000B8490860B548A430006800F01F0008B9CB
:1003C000002007E0B148A430006800F01F00B049E9
:1003D000B1FBF0F0B0490860AC48001F006800F0C5
:1003E0000100401CAB490968B1FBF0F0AB49086063
:1003F00081E0FFE7A5487C38006800F4807038B9D8
:100400000020A4490860A4490860A449086072E07B
:100410009E480830006800F0010070BB9B4C7C3C9B
:10042000246804F01F04601C9D4CD4F8044104F0BF
:100430001F01964CA434246804F01F02984CD4F891
:10044000004104F00104631C09B9002403E0904C4E
:100450004443B4FBF1F48F4D2C600AB9002403E04F
:100460008B4C4443B4FBF2F48B4D2C60894C2468D4
:10047000B4FBF3F4894D2C603DE0FFE783489C30EA
:10048000006800F0400038B90020824908608249C5
:100490000860824908602EE07C4C7C3C246804F0B3
:1004A0001F04601C7E4CD4F8044104F01F01774CFB
:1004B000A434246804F01F02794CD4F8004104F0FD
:1004C0000104631C09B9002403E0714C4443B4FBEC
:1004D000F1F4704D2C600AB9002403E06C4C4443E5
:1004E000B4FBF2F46C4D2C606A4C2468B4FBF3F45A
:1004F0006A4D2C6000BF6548001D006800F48070E4
:1005000098B36248001D006800F01F0020B1042865
:1005100006D0062824D104E000206249086023E0C8
:1005200000BF5A4A7C3A126802F01F02501C5C4A13
:10053000D2F8082102F01F01544A0832126802F072
:10054000010232B1524A4243B2FBF1F2554B1A60FA
:1005500005E04F4A4243B2FBF1F2524B1A6003E00E
:1005600000205049086000BF25E0FFE74748001D14
:10057000006800F40070D8B144480830006800F00A
:10058000010050B141485C38006800F01F00401C79
:100590003F494843434908600DE03C487C380068C7
:1005A00000F01F00401C3A4948433E49086002E001
:1005B00000203C49086030BD00B5212033499C3102
:1005C000086000BF31489C30006800F040000028FF
:1005D000F8D001202D490831086009203049C1F8C0
:1005E000840001202E4980310860AA2027497839EB
:1005F00008605520086000BF24487C38006800F47B
:1006000080600028F8D0232020496039086001204C
:100610002349C1F8A000AA201C4958390860552078
:100620001F49C1F8AC0000BF18485C38006800F4EE
:1006300080600028F8D040F201101449086040F2B0
:1006400001201749C1F8080101201049091F08605D
:1006500002200E49A431086013480C494039086053
:1006600088150F49C1F8C8010846D0F8B00140F01C
:1006700003000649AC31086045F23A0008490860B9
:1006800000200A490860FFF73BFE00BD04C10F408F
:10069000001BB7000000001004000010080000104C
:1006A00000C00F400C000010DE87280408ED00E0B9
:1006B00001460020062915D2DFE801F00305080BEA
:1006C0000E11FE480FE0FD4820300CE0FB484030A2
:1006D00009E0FA48603006E0F848803003E0F74867
:1006E000A03000E000BF00BF70470146002006298F
:1006F00015D2DFE801F00305080B0E11EF480FE0FB
:10070000EE4820300CE0ED48403009E0EB48603026
:1007100006E0EA48803003E0E848A03000E000BF8F
:1007200000BF704701460020062915D2DFE801F01E
:100730000305080B0E11E1480FE0E04820300CE003
:10074000DE48403009E0DD48603006E0DB488030BC
:1007500003E0DA48A03000E000BF00BF704710B5EA
:100760000121C803FFF741FD10BD10B500214FF472
:100770000040FFF73AFD10BD2DE9F04107460D4658
:1007800016463846FFF794FF04463CB11EB1206878
:100790002843206002E02068A8432060BDE8F08183
:1007A00070B506460C463046FFF782FF054605B198
:1007B000AC6170BD70B506460C463046FFF778FF59
:1007C000054605B1EC6170BD70B505460E46144690
:1007D00024B931462846FFF7EDFF03E031462846AD
:1007E000FFF7DEFF70BD70B505462846FFF760FFD6
:1007F00004460CB1606970BD0020FCE718B912B95D
:10080000AF4B196017E0022804D11AB9AC4B203362
:10081000196010E028B9012A03D1A94B1B1D1960EA
:1008200009E0022805D1012A03D1A54B2433196020
:1008300001E000BFFEE7704703463BB932B9A0486C
:100840000C380068C84000F001007047022B07D147
:1008500032B99B4814300068C84000F00100F4E74A
:1008600043B9012A06D1964808380068C84000F00C
:100870000100EAE7022B08D1012A06D1904818307E
:100880000068C84000F00100DFE700BFFEE718B9CC
:100890008B4A121F116007E0022803D1884A1C32DC
:1008A000116001E000BFFEE7704770B504460D46D9
:1008B0001646324629462046FFF75EFF70BD70B5EA
:1008C00004460D4629462046FFF76AFF70BD70B505
:1008D00004460D4629462046FFF76CFF70BD10B553
:1008E00004462046FFF77FFF10BD70B504460D4655
:1008F0001646324629462046FFF780FF70BD70B588
:1009000004460D461646324629462046FFF794FF18
:1009100070BD10B503460C4621461846FFF7B7FFD9
:1009200010BD2DE9F04107460D4616463846FFF743
:10093000BFFE04463CB11EB120692843206102E09D
:100940002069A8432061BDE8F0812DE9F04180468F
:100950000E4615461F464046FFF7C7FE04468CB1BB
:1009600047B11EB16088284360800BE0208828438F
:10097000208007E01EB16088A843608002E02088E4
:10098000A8432080BDE8F0812DE9F04180460E4665
:1009900015461F464046FFF7A8FE04468CB147B1F6
:1009A0001EB1608A284360820BE0208A284320829F
:1009B00007E01EB1608AA843608202E0208AA84353
:1009C0002082BDE8F0812DE9F04107460E4614462D
:1009D0003846FFF78AFE05461DB10EB16C8300E074
:1009E0002C83BDE8F0812DE9F04107460E46144600
:1009F0003846FFF77AFE05461DB10EB1EC8300E0E4
:100A0000AC83BDE8F08170B506460D463046FFF771
:100A10006CFE044624B10DB1E08A70BDA08AFCE7EB
:100A20000020FAE72DE9F04180460C4616461F46A5
:100A30004046FFF777FE05465DB12FB1032C08DC79
:100A4000285D3043285504E0032C02DC285DB043C8
:100A50002855BDE8F0812DE9F04180460C46164648
:100A60001F464046FFF75EFE05469DB14FB1032C81
:100A700010DC05F11000005D304305F11001085550
:100A800008E0032C06DC05F11000005DB04305F121
:100A900010010855BDE8F0812DE9F04107460C46EC
:100AA00015463846FFF73EFE064626B1032C02DC0B
:100AB00006F118000555BDE8F0810000008009200E
:100AC000908002402DE9F04107460C461546384615
:100AD000FFF728FE064626B1032C02DC06F11C00B7
:100AE0000555BDE8F08170B506460C463046FFF767
:100AF00019FE05462DB1032C03DC05F11400005D41
:100B000070BD0020FCE7000008B50020009002E066
:100B10000098401C00900098B0F1807FF8D308BD89
:100B200010B5012219210020FFF786FEB8B14FF061
:100B300000710020FFF7ABFE00240EE0202201210F
:100B40000020FFF7A9FFFFF7DFFF2022012100208F
:100B5000FFF7B8FFFFF7D8FF641C0A2CEEDB10BDCF
:100B6000FFF7FDFD0123042202211846FFF75AFF7B
:100B70000123202219460020FFF754FF04220221FE
:100B80000120FFF79FFF202201210020FFF79AFF9D
:100B9000012251060020FFF731FE26200121002806
:100BA00007DACA06140E154A00F00F031B1FD454AF
:100BB00003E0CA06130E124A135400BF262000F0A9
:100BC0001F02012191404209920002F1E022C2F885
:100BD000001100BF0DE0042202210120FFF75CFF9D
:100BE000FFF792FF042202210120FFF76BFFFFF7BE
:100BF0008BFFF0E7FFF7B4FF7047000018ED00E04F
:100C000000E400E0000E27070087930300879303AA
:040C1000006CDC0296
:04000005000000E512
:00000001FF
