:020000040000FA
:10000000E0140010F90000000501000007010000E5
:10001000090100000B0100000D01000000000000BC
:100020000000000000000000000000000F010000C0
:100030001101000000000000130100001501000084
:100040001701000017010000170100001701000050
:100050001701000017010000170100001701000040
:100060001701000017010000170100001701000030
:100070001701000017010000170100001701000020
:100080001701000017010000170100001701000010
:100090001701000017010000170100001701000000
:1000A0001701000017010000CD0F0000170100002C
:1000B00017010000170100001701000017010000E0
:1000C00017010000170100001701000017010000D0
:1000D00017010000170100001701000017010000C0
:1000E00017010000DFF80CD000F08EF80048004740
:1000F0000B110000E01400100748804707488047B4
:1001000007480047FEE7FEE7FEE7FEE7FEE7FEE7FB
:10011000FEE7FEE7FEE7FEE7B90500000F1100006D
:10012000E500000001463748704770B506460D46A9
:100130003046FFF7F7FF0446206820F48030206047
:10014000012D03D1206840F48030206070BD10B5CF
:10015000044602221A21002000F06BFD01221A2120
:10016000002000F0B7FE01221A21002000F0D8FE86
:1001700000212046FFF7D9FF10BD2DE9F0410746C9
:100180000C463846FFF7CEFF0646306800F480354F
:10019000C4F3090045EA80153560BDE8F08170B50B
:1001A00006460D463046FFF7BDFF0446606820F066
:1001B0000F006060287818B1606840F0020060604D
:1001C000687818B1606840F004006060A87818B1E1
:1001D000606840F00800606070BD70B505460C4670
:1001E0002846FFF79FFF0646A0B2B06070BD70B50D
:1001F00004462046FFF796FF0546686800F00100B8
:1002000070BD000000C00840064C074D06E0E068E5
:1002100040F0010394E8070098471034AC42F6D34D
:10022000FFF764FF8C020000AC02000002E008C887
:10023000121F08C1002AFAD170477047002001E060
:1002400001C1121F002AFBD1704700020101010108
:10025000010100000000000000000000000000009C
:100260000404000000000000000000020000000084
:100270000000020000000000000002020202020270
:100280000202000000000000020200002C11000029
:1002900000000010B80000002C020000E411000073
:1002A000B8000010281400003C020000000000000C
:1002B000000000000000000000000000000000003E
:1002C000000000000000000000000000000000002E
:1002D000000000000000000000000000000000001E
:1002E000000000000000000000000000000000000E
:1002F000000000000000000000000000FFFFFFFF02
:1003000030B5E248006800F48070002872D1DF4800
:100310000830006800F0010070BBDC48006800F0A5
:100320001F0008B9002006E0D848006800F01F0050
:10033000D749B1FBF0F0D7490860D448A430006831
:1003400000F01F0008B9002007E0D048A430006882
:1003500000F01F00CE49B1FBF0F0CF490860CB4858
:10036000001F006800F00100401CCA490968B1FB89
:10037000F0F0CA490860BEE0C4489C30006800F054
:10038000400038B90020C3490860C3490860C34928
:100390000860B0E0BD48006800F01F0008B9002008
:1003A00006E0BA48006800F01F00B949B1FBF0F060
:1003B000B8490860B548A430006800F01F0008B9CB
:1003C000002007E0B148A430006800F01F00B049E9
:1003D000B1FBF0F0B0490860AC48001F006800F0C5
:1003E0000100401CAB490968B1FBF0F0AB49086063
:1003F00081E0FFE7A5487C38006800F4807038B9D8
:100400000020A4490860A4490860A449086072E07B
:100410009E480830006800F0010070BB9B4C7C3C9B
:10042000246804F01F04601C9D4CD4F8044104F0BF
:100430001F01964CA434246804F01F02984CD4F891
:10044000004104F00104631C09B9002403E0904C4E
:100450004443B4FBF1F48F4D2C600AB9002403E04F
:100460008B4C4443B4FBF2F48B4D2C60894C2468D4
:10047000B4FBF3F4894D2C603DE0FFE783489C30EA
:10048000006800F0400038B90020824908608249C5
:100490000860824908602EE07C4C7C3C246804F0B3
:1004A0001F04601C7E4CD4F8044104F01F01774CFB
:1004B000A434246804F01F02794CD4F8004104F0FD
:1004C0000104631C09B9002403E0714C4443B4FBEC
:1004D000F1F4704D2C600AB9002403E06C4C4443E5
:1004E000B4FBF2F46C4D2C606A4C2468B4FBF3F45A
:1004F0006A4D2C6000BF6548001D006800F48070E4
:1005000098B36248001D006800F01F0020B1042865
:1005100006D0062824D104E000206249086023E0C8
:1005200000BF5A4A7C3A126802F01F02501C5C4A13
:10053000D2F8082102F01F01544A0832126802F072
:10054000010232B1524A4243B2FBF1F2554B1A60FA
:1005500005E04F4A4243B2FBF1F2524B1A6003E00E
:1005600000205049086000BF25E0FFE74748001D14
:10057000006800F40070D8B144480830006800F00A
:10058000010050B141485C38006800F01F00401C79
:100590003F494843434908600DE03C487C380068C7
:1005A00000F01F00401C3A4948433E49086002E001
:1005B00000203C49086030BD00B5212033499C3102
:1005C000086000BF31489C30006800F040000028FF
:1005D000F8D001202D490831086009203049C1F8C0
:1005E000840001202E4980310860AA2027497839EB
:1005F00008605520086000BF24487C38006800F47B
:1006000080600028F8D0232020496039086001204C
:100610002349C1F8A000AA201C4958390860552078
:100620001F49C1F8AC0000BF18485C38006800F4EE
:1006300080600028F8D040F201101449086040F2B0
:1006400001201749C1F8080101201049091F08605D
:1006500002200E49A431086013480C494039086053
:1006600088150F49C1F8C8010846D0F8B00140F01C
:1006700003000649AC31086045F23A0008490860B9
:1006800000200A490860FFF73BFE00BD04C10F408F
:10069000001BB7000000001004000010080000104C
:1006A00000C00F400C000010DE87280408ED00E0B9
:1006B00010B50121480700F01EFA0020D549086056
:1006C000D549C1F83001D34940310860D149603182
:1006D0000860D04980310860CE49A0310860CD491A
:1006E000C0310860CB49E0310860FF20CA4988600A
:1006F000086110BD70B50146C748C0690E78012574
:10070000B540EDB2284008B1002070BDC34D086867
:1007100055F820200D780120A840C0B2BE4DA86039
:100720000D780120A840C0B2BB4D28610020D060E8
:100730001061086A9060486907287CD2DFE800F001
:10074000041B436B961C4400C86810600869506025
:100750008888C0F30B0040F410300D7A05F00705CF
:1007600040EA85400D7A05F0070540EA455040F023
:100770000C40D0607CE000BFC8681060A84DC8691C
:1007800055F820005060A74DC869285C00F00705A7
:10079000486865F31F30A34ECD69755D05F0070508
:1007A00040EAC530A04ECD69755D05F0070540EA09
:1007B0008540CD69755D05F0070540EA455040F07C
:1007C0000440D06054E000BF954D886955F8200082
:1007D000106008695060934D8869285C00F0070537
:1007E000486865F31F308F4E8D69755D05F007050C
:1007F00040EAC5308C4E8D69755D05F0070540EA0D
:1008000085408D69755D05F0070540EA455040F06B
:100810000840D0602CE0824D886955F820001060B7
:10082000C86955F8200050607E4D8869285C00F04A
:100830000705486800E019E065F31F30794ECD697F
:10084000755D05F0070540EAC530774E8D69755D29
:1008500005F0070540EA8540CD69755D05F007059F
:1008600040EA455040F00040D06001E000204CE7F5
:1008700000BF886908281BD08869092818D08869B2
:100880000F280BD96948D0F8C4010D7E103D012610
:10089000AE403043654DC5F8C40109E06348D0F867
:1008A000C4010E7E0125B540A843604DC5F8C401C2
:1008B000C86908281BD0C869092818D0C8690F283A
:1008C0000BD95A48D0F8C4010D7F103D0126AE4027
:1008D0003043564DC5F8C40109E05448D0F8C4016E
:1008E0000E7F0125B540A843504DC5F8C401012035
:1008F000494D286300BF4848006B00F00100002804
:10090000F9D08B690F2B02D9A3F1100000E0184633
:100910000346CC690F2C02D9A4F1100000E0204658
:100920000446087D00F007004FF4404545EAC0202A
:1009300003F01F0540EA450004F01F0540EA85105A
:1009400010610120E1E60246344B53F822000129F0
:1009500004D1036943F00103036103E0036923F059
:100960000103036170470246052A3BD2DFE802F02B
:10097000030E19242F002848006801238B40DBB2A6
:10098000184008B1012070470020FCE72248436866
:1009900001208840C0B203400BB10120F3E70020E2
:1009A000F1E71D48C06801238B40DBB2184008B155
:1009B0000120E8E70020E6E7174883690120884026
:1009C000C0B203400BB10120DDE70020DBE7124895
:1009D000406901238B40DBB2184008B10120D2E707
:1009E0000020D0E70C48C36901208840C0B2034012
:1009F0000BB10120C7E70020C5E728B901228A40D2
:100A0000D2B2054B9A6004E001228A40D2B2024B76
:100A10001A617047100108200000082090000010A3
:100A2000100000104A0200006A02000000C00F40DF
:100A300070B506460D4636B1012E11D0022E1DD0DE
:100A4000032E3DD128E04648006820F01F0405F041
:100A50001F0004434348C0F80441FFF751FC31E054
:100A60003F48A430006820F01F0405F01F00044335
:100A70003C48C0F8A841FFF743FC23E03848001F7A
:100A8000006820F0010405F0010004433548C0F877
:100A90000041FFF735FC15E03148001D006820F0EB
:100AA0001F0405F01F0004432E48D0F8080105F08C
:100AB0001F0108432A49091D0860FFF721FC01E0D6
:100AC00000BFFEE700BF70BD014631B1012907D06C
:100AD000022908D003290CD108E023480068704798
:100AE00022480068FBE722480068F8E721480068D0
:100AF000F5E700BFFEE7012907D1194A403A12681D
:100B00000243184BC3F8C42007E031B9144A403AF5
:100B100012688243134BC3F8C42070470020104969
:100B20004439086030BF7047042013490860002032
:100B30000B494439086030BF704704200E490860F3
:100B4000012007494439086030BF704704200A4932
:100B50000860032002494439086030BF7047000034
:100B600004C10F4000C00F4000000010040000103E
:100B7000080000100C00001010ED00E010B5024657
:100B8000002001EB4213F74C04EB830010BD02463A
:100B90000520062A4AD2DFE802F0032F393A3B3D0E
:100BA000062907DD0A2901DB0B2903DD0E2903DBFA
:100BB000162901DC00201EE00C2905D00D2903D0E8
:100BC000172903DB1A2901DC012014E01D2903D0B9
:100BD0001E2901D01F2901D102200CE01B2901D0C0
:100BE0001C2901D1032006E0072903D0082901D0E0
:100BF000092900D104201AE01D2901DC002004E0AD
:100C00001E2901D01F2900D1012010E000BF00BF24
:100C100000200CE0012901DD042901D1002004E0BD
:100C2000022901D0032900D1032000E000BF00BF4A
:100C300070472DE9F04106460F4615460024394617
:100C40003046FFF7A4FF8046B8F1050F02D1C64831
:100C5000BDE8F08139463046FFF790FF0446206832
:100C600020F00700206005F007012068084320609D
:100C70000020EDE72DE9F04107468846164600249E
:100C800041463846FFF783FF0546052D02D1B64899
:100C9000BDE8F08135B1012D04D0042D02D0B24859
:100CA000401CF5E741463846FFF768FF04462068D8
:100CB00020F018002060182101EAC60120680843CE
:100CC00020600020E4E72DE9F041074688461646FB
:100CD000002441463846FFF75AFF0546052D02D14C
:100CE000A148BDE8F08125B1042D02D09E48401CEA
:100CF000F7E741463846FFF741FF044626B920682A
:100D000020F02000206003E0206840F020002060F8
:100D10000020E6E72DE9F041074688461546002405
:100D200041463846FFF733FF0646052E02D18E486E
:100D3000BDE8F081022E02D18B48401CF8E7414605
:100D40003846FFF71BFF044625B9206820F0400015
:100D5000206003E0206840F0400020600020E7E7CA
:100D60002DE9F0410746884616460024414638469C
:100D7000FFF70DFF0546052D02D17B48BDE8F08148
:100D800025B1042D02D07848401CF7E7414638468B
:100D9000FFF7F4FE044626B9206820F400702060B6
:100DA00003E0206840F4007020600020E6E72DE9B1
:100DB000F041074688461546002441463846FFF76D
:100DC000E6FE0646052E02D16748BDE8F081032EF7
:100DD00002D06548401CF8E741463846FFF7CEFE92
:100DE000044625B1206820F48070206003E020686C
:100DF00040F4807020600020E7E72DE9F0410746CD
:100E000088461546002441463846FFF7C0FE064690
:100E1000052E02D15448BDE8F081032E02D052487D
:100E2000401CF8E741463846FFF7A8FE044625B1C6
:100E3000012D0CD0022D1ED113E00122414638466F
:100E4000FFF7B5FF206820F40070206016E0002254
:100E500041463846FFF7ABFF206820F40070206061
:100E60000CE0012241463846FFF7A1FF206840F41C
:100E70000070206002E04FF0FF30CCE700BF0020A0
:100E8000C9E72DE9F0410746884616460024414649
:100E90003846FFF77CFE0546052D02D13248BDE8F5
:100EA000F08135B1012D04D0042D02D02E48401C14
:100EB000F5E741463846FFF761FE044626B920684B
:100EC00020F48060206003E0206840F480602060AF
:100ED0000020E4E72DE9F041074688461546002446
:100EE00041463846FFF753FE0646052E02D11E48FE
:100EF000BDE8F081012E02D01B48401CF8E74146B6
:100F00003846FFF73BFE044625B1206820F08000FC
:100F1000206003E0206840F0800020600020E7E7C8
:100F20002DE9F04105460E46174600243146284675
:100F3000FFF72DFE8046B8F1050F02D10A48BDE843
:100F4000F0810DB91A2E02D00748401CF7E7314650
:100F50002846FFF713FE044647B1206840F480306E
:100F6000206007E000C0024001000010206820F46B
:100F7000803020600020E2E72DE9F04107468846F6
:100F80001646002441463846FFF701FE0546052D6A
:100F900002D10D48BDE8F081012D04D0042D02D00E
:100FA0000948401CF6E741463846FFF7E7FD04468E
:100FB00026B1206820F48070206003E0206840F4AF
:100FC000807020600020E5E70100001010B50021CE
:100FD0000846FFF7C8FCD8B100210120FFF7C3FC89
:100FE00040B100210846FFF708FD49480068401C51
:100FF0004749086000210220FFF7B5FC40B10021FD
:101000000120FFF7FAFC43480068401C4149086092
:1010100010BD0EB5002001901A20012181403E4AEA
:10102000430942F8231000BF0921002807DACA0645
:10103000140E3A4A00F00F031B1FD45403E0CA06F3
:10104000130E374A135400BF01208DF809008DF8A4
:101050000A000020FFF77BF84FF6FF710020FFF732
:10106000BCF802A90020FFF79AF8FFF721FB002047
:101070002C49086001A8C860002008610120486070
:101080000020886001204861002088610920C86133
:10109000002008620846FFF72DFB00201C4908606D
:1010A0001C4908601A20012181404209920002F186
:1010B000E022C2F8001100BF26E001210020FFF766
:1010C00042FC00BF124800680028FBD000210846FF
:1010D000FFF739FC0198401C019040F2FF31019864
:1010E000884201D1002001900020009002E0009889
:1010F000401C00900C4900988842F8D30020044915
:1011000008600848FFF7F6FAD7E7FFF782FF704755
:10111000B0000010B400001080E100E018ED00E025
:1011200000E400E0B8000010A0860100000E2707D0
:101130000087930300879303006CDC02000000002B
:1011400080000C40088008400880084008000340E8
:101150000800034008C00A4008C00A400440034099
:1011600000C0084000C0004000C000400000014036
:101170000000014000800940008009401840004004
:101180001C400040188000401C80004018000940AE
:101190001C00094008800A400C800A400000000042
:1011A0000000000000C0094000C0094000400A40A3
:1011B00000400A40184009401C4009400001082036
:1011C000200108204001082060010820800108203B
:1011D000A0010820C0010820E00108200000000054
:0411E000000000000B
:04000005000000E512
:00000001FF
